
F-IOT-GateWay.elf:     file format elf32-littlearm

Sections:
Idx Name          Size      VMA       LMA       File off  Algn
  0 .isr_vector   00000138  08000000  08000000  00010000  2**0
                  CONTENTS, ALLOC, LOAD, READONLY, DATA
  1 .text         0000d630  08000138  08000138  00010138  2**2
                  CONTENTS, ALLOC, LOAD, READONLY, CODE
  2 .rodata       0000036c  0800d768  0800d768  0001d768  2**2
                  CONTENTS, ALLOC, LOAD, READONLY, DATA
  3 .ARM.extab    00000000  0800dad4  0800dad4  0002001c  2**0
                  CONTENTS
  4 .ARM          00000008  0800dad4  0800dad4  0001dad4  2**2
                  CONTENTS, ALLOC, LOAD, READONLY, DATA
  5 .preinit_array 00000000  0800dadc  0800dadc  0002001c  2**0
                  CONTENTS, ALLOC, LOAD, DATA
  6 .init_array   00000004  0800dadc  0800dadc  0001dadc  2**2
                  CONTENTS, ALLOC, LOAD, DATA
  7 .fini_array   00000004  0800dae0  0800dae0  0001dae0  2**2
                  CONTENTS, ALLOC, LOAD, DATA
  8 .data         0000001c  20000000  0800dae4  00020000  2**2
                  CONTENTS, ALLOC, LOAD, DATA
  9 .bss          000008cc  2000001c  0800db00  0002001c  2**2
                  ALLOC
 10 ._user_heap_stack 00000600  200008e8  0800db00  000208e8  2**0
                  ALLOC
 11 .ARM.attributes 0000002a  00000000  00000000  0002001c  2**0
                  CONTENTS, READONLY
 12 .debug_info   0002491b  00000000  00000000  00020046  2**0
                  CONTENTS, READONLY, DEBUGGING, OCTETS
 13 .debug_abbrev 000057b8  00000000  00000000  00044961  2**0
                  CONTENTS, READONLY, DEBUGGING, OCTETS
 14 .debug_aranges 000020b8  00000000  00000000  0004a120  2**3
                  CONTENTS, READONLY, DEBUGGING, OCTETS
 15 .debug_ranges 00001e98  00000000  00000000  0004c1d8  2**3
                  CONTENTS, READONLY, DEBUGGING, OCTETS
 16 .debug_macro  00020595  00000000  00000000  0004e070  2**0
                  CONTENTS, READONLY, DEBUGGING, OCTETS
 17 .debug_line   00025b4b  00000000  00000000  0006e605  2**0
                  CONTENTS, READONLY, DEBUGGING, OCTETS
 18 .debug_str    000b3ce2  00000000  00000000  00094150  2**0
                  CONTENTS, READONLY, DEBUGGING, OCTETS
 19 .comment      00000050  00000000  00000000  00147e32  2**0
                  CONTENTS, READONLY
 20 .debug_frame  00008674  00000000  00000000  00147e84  2**2
                  CONTENTS, READONLY, DEBUGGING, OCTETS

Disassembly of section .text:

08000138 <__do_global_dtors_aux>:
 8000138:	b510      	push	{r4, lr}
 800013a:	4c05      	ldr	r4, [pc, #20]	; (8000150 <__do_global_dtors_aux+0x18>)
 800013c:	7823      	ldrb	r3, [r4, #0]
 800013e:	b933      	cbnz	r3, 800014e <__do_global_dtors_aux+0x16>
 8000140:	4b04      	ldr	r3, [pc, #16]	; (8000154 <__do_global_dtors_aux+0x1c>)
 8000142:	b113      	cbz	r3, 800014a <__do_global_dtors_aux+0x12>
 8000144:	4804      	ldr	r0, [pc, #16]	; (8000158 <__do_global_dtors_aux+0x20>)
 8000146:	f3af 8000 	nop.w
 800014a:	2301      	movs	r3, #1
 800014c:	7023      	strb	r3, [r4, #0]
 800014e:	bd10      	pop	{r4, pc}
 8000150:	2000001c 	.word	0x2000001c
 8000154:	00000000 	.word	0x00000000
 8000158:	0800d750 	.word	0x0800d750

0800015c <frame_dummy>:
 800015c:	b508      	push	{r3, lr}
 800015e:	4b03      	ldr	r3, [pc, #12]	; (800016c <frame_dummy+0x10>)
 8000160:	b11b      	cbz	r3, 800016a <frame_dummy+0xe>
 8000162:	4903      	ldr	r1, [pc, #12]	; (8000170 <frame_dummy+0x14>)
 8000164:	4803      	ldr	r0, [pc, #12]	; (8000174 <frame_dummy+0x18>)
 8000166:	f3af 8000 	nop.w
 800016a:	bd08      	pop	{r3, pc}
 800016c:	00000000 	.word	0x00000000
 8000170:	20000020 	.word	0x20000020
 8000174:	0800d750 	.word	0x0800d750

08000178 <strlen>:
 8000178:	4603      	mov	r3, r0
 800017a:	f813 2b01 	ldrb.w	r2, [r3], #1
 800017e:	2a00      	cmp	r2, #0
 8000180:	d1fb      	bne.n	800017a <strlen+0x2>
 8000182:	1a18      	subs	r0, r3, r0
 8000184:	3801      	subs	r0, #1
 8000186:	4770      	bx	lr

08000188 <__aeabi_uldivmod>:
 8000188:	b953      	cbnz	r3, 80001a0 <__aeabi_uldivmod+0x18>
 800018a:	b94a      	cbnz	r2, 80001a0 <__aeabi_uldivmod+0x18>
 800018c:	2900      	cmp	r1, #0
 800018e:	bf08      	it	eq
 8000190:	2800      	cmpeq	r0, #0
 8000192:	bf1c      	itt	ne
 8000194:	f04f 31ff 	movne.w	r1, #4294967295
 8000198:	f04f 30ff 	movne.w	r0, #4294967295
 800019c:	f000 b974 	b.w	8000488 <__aeabi_idiv0>
 80001a0:	f1ad 0c08 	sub.w	ip, sp, #8
 80001a4:	e96d ce04 	strd	ip, lr, [sp, #-16]!
 80001a8:	f000 f806 	bl	80001b8 <__udivmoddi4>
 80001ac:	f8dd e004 	ldr.w	lr, [sp, #4]
 80001b0:	e9dd 2302 	ldrd	r2, r3, [sp, #8]
 80001b4:	b004      	add	sp, #16
 80001b6:	4770      	bx	lr

080001b8 <__udivmoddi4>:
 80001b8:	e92d 47f0 	stmdb	sp!, {r4, r5, r6, r7, r8, r9, sl, lr}
 80001bc:	9e08      	ldr	r6, [sp, #32]
 80001be:	460d      	mov	r5, r1
 80001c0:	4604      	mov	r4, r0
 80001c2:	4688      	mov	r8, r1
 80001c4:	2b00      	cmp	r3, #0
 80001c6:	d14d      	bne.n	8000264 <__udivmoddi4+0xac>
 80001c8:	428a      	cmp	r2, r1
 80001ca:	4694      	mov	ip, r2
 80001cc:	d968      	bls.n	80002a0 <__udivmoddi4+0xe8>
 80001ce:	fab2 f282 	clz	r2, r2
 80001d2:	b152      	cbz	r2, 80001ea <__udivmoddi4+0x32>
 80001d4:	fa01 f302 	lsl.w	r3, r1, r2
 80001d8:	f1c2 0120 	rsb	r1, r2, #32
 80001dc:	fa20 f101 	lsr.w	r1, r0, r1
 80001e0:	fa0c fc02 	lsl.w	ip, ip, r2
 80001e4:	ea41 0803 	orr.w	r8, r1, r3
 80001e8:	4094      	lsls	r4, r2
 80001ea:	ea4f 451c 	mov.w	r5, ip, lsr #16
 80001ee:	0c21      	lsrs	r1, r4, #16
 80001f0:	fbb8 fef5 	udiv	lr, r8, r5
 80001f4:	fa1f f78c 	uxth.w	r7, ip
 80001f8:	fb05 831e 	mls	r3, r5, lr, r8
 80001fc:	ea41 4303 	orr.w	r3, r1, r3, lsl #16
 8000200:	fb0e f107 	mul.w	r1, lr, r7
 8000204:	4299      	cmp	r1, r3
 8000206:	d90b      	bls.n	8000220 <__udivmoddi4+0x68>
 8000208:	eb1c 0303 	adds.w	r3, ip, r3
 800020c:	f10e 30ff 	add.w	r0, lr, #4294967295
 8000210:	f080 811e 	bcs.w	8000450 <__udivmoddi4+0x298>
 8000214:	4299      	cmp	r1, r3
 8000216:	f240 811b 	bls.w	8000450 <__udivmoddi4+0x298>
 800021a:	f1ae 0e02 	sub.w	lr, lr, #2
 800021e:	4463      	add	r3, ip
 8000220:	1a5b      	subs	r3, r3, r1
 8000222:	b2a4      	uxth	r4, r4
 8000224:	fbb3 f0f5 	udiv	r0, r3, r5
 8000228:	fb05 3310 	mls	r3, r5, r0, r3
 800022c:	ea44 4403 	orr.w	r4, r4, r3, lsl #16
 8000230:	fb00 f707 	mul.w	r7, r0, r7
 8000234:	42a7      	cmp	r7, r4
 8000236:	d90a      	bls.n	800024e <__udivmoddi4+0x96>
 8000238:	eb1c 0404 	adds.w	r4, ip, r4
 800023c:	f100 33ff 	add.w	r3, r0, #4294967295
 8000240:	f080 8108 	bcs.w	8000454 <__udivmoddi4+0x29c>
 8000244:	42a7      	cmp	r7, r4
 8000246:	f240 8105 	bls.w	8000454 <__udivmoddi4+0x29c>
 800024a:	4464      	add	r4, ip
 800024c:	3802      	subs	r0, #2
 800024e:	1be4      	subs	r4, r4, r7
 8000250:	ea40 400e 	orr.w	r0, r0, lr, lsl #16
 8000254:	2100      	movs	r1, #0
 8000256:	b11e      	cbz	r6, 8000260 <__udivmoddi4+0xa8>
 8000258:	40d4      	lsrs	r4, r2
 800025a:	2300      	movs	r3, #0
 800025c:	e9c6 4300 	strd	r4, r3, [r6]
 8000260:	e8bd 87f0 	ldmia.w	sp!, {r4, r5, r6, r7, r8, r9, sl, pc}
 8000264:	428b      	cmp	r3, r1
 8000266:	d908      	bls.n	800027a <__udivmoddi4+0xc2>
 8000268:	2e00      	cmp	r6, #0
 800026a:	f000 80ee 	beq.w	800044a <__udivmoddi4+0x292>
 800026e:	2100      	movs	r1, #0
 8000270:	e9c6 0500 	strd	r0, r5, [r6]
 8000274:	4608      	mov	r0, r1
 8000276:	e8bd 87f0 	ldmia.w	sp!, {r4, r5, r6, r7, r8, r9, sl, pc}
 800027a:	fab3 f183 	clz	r1, r3
 800027e:	2900      	cmp	r1, #0
 8000280:	d14a      	bne.n	8000318 <__udivmoddi4+0x160>
 8000282:	42ab      	cmp	r3, r5
 8000284:	d302      	bcc.n	800028c <__udivmoddi4+0xd4>
 8000286:	4282      	cmp	r2, r0
 8000288:	f200 80f9 	bhi.w	800047e <__udivmoddi4+0x2c6>
 800028c:	1a84      	subs	r4, r0, r2
 800028e:	eb65 0303 	sbc.w	r3, r5, r3
 8000292:	2001      	movs	r0, #1
 8000294:	4698      	mov	r8, r3
 8000296:	2e00      	cmp	r6, #0
 8000298:	d0e2      	beq.n	8000260 <__udivmoddi4+0xa8>
 800029a:	e9c6 4800 	strd	r4, r8, [r6]
 800029e:	e7df      	b.n	8000260 <__udivmoddi4+0xa8>
 80002a0:	b902      	cbnz	r2, 80002a4 <__udivmoddi4+0xec>
 80002a2:	deff      	udf	#255	; 0xff
 80002a4:	fab2 f282 	clz	r2, r2
 80002a8:	2a00      	cmp	r2, #0
 80002aa:	f040 8091 	bne.w	80003d0 <__udivmoddi4+0x218>
 80002ae:	eba1 050c 	sub.w	r5, r1, ip
 80002b2:	ea4f 471c 	mov.w	r7, ip, lsr #16
 80002b6:	fa1f fe8c 	uxth.w	lr, ip
 80002ba:	2101      	movs	r1, #1
 80002bc:	fbb5 f3f7 	udiv	r3, r5, r7
 80002c0:	fb07 5013 	mls	r0, r7, r3, r5
 80002c4:	0c25      	lsrs	r5, r4, #16
 80002c6:	ea45 4500 	orr.w	r5, r5, r0, lsl #16
 80002ca:	fb0e f003 	mul.w	r0, lr, r3
 80002ce:	42a8      	cmp	r0, r5
 80002d0:	d908      	bls.n	80002e4 <__udivmoddi4+0x12c>
 80002d2:	eb1c 0505 	adds.w	r5, ip, r5
 80002d6:	f103 38ff 	add.w	r8, r3, #4294967295
 80002da:	d202      	bcs.n	80002e2 <__udivmoddi4+0x12a>
 80002dc:	42a8      	cmp	r0, r5
 80002de:	f200 80cb 	bhi.w	8000478 <__udivmoddi4+0x2c0>
 80002e2:	4643      	mov	r3, r8
 80002e4:	1a2d      	subs	r5, r5, r0
 80002e6:	b2a4      	uxth	r4, r4
 80002e8:	fbb5 f0f7 	udiv	r0, r5, r7
 80002ec:	fb07 5510 	mls	r5, r7, r0, r5
 80002f0:	ea44 4405 	orr.w	r4, r4, r5, lsl #16
 80002f4:	fb0e fe00 	mul.w	lr, lr, r0
 80002f8:	45a6      	cmp	lr, r4
 80002fa:	d908      	bls.n	800030e <__udivmoddi4+0x156>
 80002fc:	eb1c 0404 	adds.w	r4, ip, r4
 8000300:	f100 35ff 	add.w	r5, r0, #4294967295
 8000304:	d202      	bcs.n	800030c <__udivmoddi4+0x154>
 8000306:	45a6      	cmp	lr, r4
 8000308:	f200 80bb 	bhi.w	8000482 <__udivmoddi4+0x2ca>
 800030c:	4628      	mov	r0, r5
 800030e:	eba4 040e 	sub.w	r4, r4, lr
 8000312:	ea40 4003 	orr.w	r0, r0, r3, lsl #16
 8000316:	e79e      	b.n	8000256 <__udivmoddi4+0x9e>
 8000318:	f1c1 0720 	rsb	r7, r1, #32
 800031c:	408b      	lsls	r3, r1
 800031e:	fa22 fc07 	lsr.w	ip, r2, r7
 8000322:	ea4c 0c03 	orr.w	ip, ip, r3
 8000326:	fa20 f407 	lsr.w	r4, r0, r7
 800032a:	fa05 f301 	lsl.w	r3, r5, r1
 800032e:	431c      	orrs	r4, r3
 8000330:	40fd      	lsrs	r5, r7
 8000332:	ea4f 491c 	mov.w	r9, ip, lsr #16
 8000336:	fa00 f301 	lsl.w	r3, r0, r1
 800033a:	fbb5 f8f9 	udiv	r8, r5, r9
 800033e:	0c20      	lsrs	r0, r4, #16
 8000340:	fa1f fe8c 	uxth.w	lr, ip
 8000344:	fb09 5518 	mls	r5, r9, r8, r5
 8000348:	ea40 4505 	orr.w	r5, r0, r5, lsl #16
 800034c:	fb08 f00e 	mul.w	r0, r8, lr
 8000350:	42a8      	cmp	r0, r5
 8000352:	fa02 f201 	lsl.w	r2, r2, r1
 8000356:	d90b      	bls.n	8000370 <__udivmoddi4+0x1b8>
 8000358:	eb1c 0505 	adds.w	r5, ip, r5
 800035c:	f108 3aff 	add.w	sl, r8, #4294967295
 8000360:	f080 8088 	bcs.w	8000474 <__udivmoddi4+0x2bc>
 8000364:	42a8      	cmp	r0, r5
 8000366:	f240 8085 	bls.w	8000474 <__udivmoddi4+0x2bc>
 800036a:	f1a8 0802 	sub.w	r8, r8, #2
 800036e:	4465      	add	r5, ip
 8000370:	1a2d      	subs	r5, r5, r0
 8000372:	b2a4      	uxth	r4, r4
 8000374:	fbb5 f0f9 	udiv	r0, r5, r9
 8000378:	fb09 5510 	mls	r5, r9, r0, r5
 800037c:	ea44 4505 	orr.w	r5, r4, r5, lsl #16
 8000380:	fb00 fe0e 	mul.w	lr, r0, lr
 8000384:	45ae      	cmp	lr, r5
 8000386:	d908      	bls.n	800039a <__udivmoddi4+0x1e2>
 8000388:	eb1c 0505 	adds.w	r5, ip, r5
 800038c:	f100 34ff 	add.w	r4, r0, #4294967295
 8000390:	d26c      	bcs.n	800046c <__udivmoddi4+0x2b4>
 8000392:	45ae      	cmp	lr, r5
 8000394:	d96a      	bls.n	800046c <__udivmoddi4+0x2b4>
 8000396:	3802      	subs	r0, #2
 8000398:	4465      	add	r5, ip
 800039a:	ea40 4008 	orr.w	r0, r0, r8, lsl #16
 800039e:	fba0 9402 	umull	r9, r4, r0, r2
 80003a2:	eba5 050e 	sub.w	r5, r5, lr
 80003a6:	42a5      	cmp	r5, r4
 80003a8:	46c8      	mov	r8, r9
 80003aa:	46a6      	mov	lr, r4
 80003ac:	d356      	bcc.n	800045c <__udivmoddi4+0x2a4>
 80003ae:	d053      	beq.n	8000458 <__udivmoddi4+0x2a0>
 80003b0:	b15e      	cbz	r6, 80003ca <__udivmoddi4+0x212>
 80003b2:	ebb3 0208 	subs.w	r2, r3, r8
 80003b6:	eb65 050e 	sbc.w	r5, r5, lr
 80003ba:	fa05 f707 	lsl.w	r7, r5, r7
 80003be:	fa22 f301 	lsr.w	r3, r2, r1
 80003c2:	40cd      	lsrs	r5, r1
 80003c4:	431f      	orrs	r7, r3
 80003c6:	e9c6 7500 	strd	r7, r5, [r6]
 80003ca:	2100      	movs	r1, #0
 80003cc:	e8bd 87f0 	ldmia.w	sp!, {r4, r5, r6, r7, r8, r9, sl, pc}
 80003d0:	f1c2 0320 	rsb	r3, r2, #32
 80003d4:	fa20 f103 	lsr.w	r1, r0, r3
 80003d8:	fa0c fc02 	lsl.w	ip, ip, r2
 80003dc:	fa25 f303 	lsr.w	r3, r5, r3
 80003e0:	4095      	lsls	r5, r2
 80003e2:	430d      	orrs	r5, r1
 80003e4:	ea4f 471c 	mov.w	r7, ip, lsr #16
 80003e8:	fa1f fe8c 	uxth.w	lr, ip
 80003ec:	fbb3 f1f7 	udiv	r1, r3, r7
 80003f0:	fb07 3011 	mls	r0, r7, r1, r3
 80003f4:	0c2b      	lsrs	r3, r5, #16
 80003f6:	ea43 4300 	orr.w	r3, r3, r0, lsl #16
 80003fa:	fb01 f00e 	mul.w	r0, r1, lr
 80003fe:	4298      	cmp	r0, r3
 8000400:	fa04 f402 	lsl.w	r4, r4, r2
 8000404:	d908      	bls.n	8000418 <__udivmoddi4+0x260>
 8000406:	eb1c 0303 	adds.w	r3, ip, r3
 800040a:	f101 38ff 	add.w	r8, r1, #4294967295
 800040e:	d22f      	bcs.n	8000470 <__udivmoddi4+0x2b8>
 8000410:	4298      	cmp	r0, r3
 8000412:	d92d      	bls.n	8000470 <__udivmoddi4+0x2b8>
 8000414:	3902      	subs	r1, #2
 8000416:	4463      	add	r3, ip
 8000418:	1a1b      	subs	r3, r3, r0
 800041a:	b2ad      	uxth	r5, r5
 800041c:	fbb3 f0f7 	udiv	r0, r3, r7
 8000420:	fb07 3310 	mls	r3, r7, r0, r3
 8000424:	ea45 4503 	orr.w	r5, r5, r3, lsl #16
 8000428:	fb00 f30e 	mul.w	r3, r0, lr
 800042c:	42ab      	cmp	r3, r5
 800042e:	d908      	bls.n	8000442 <__udivmoddi4+0x28a>
 8000430:	eb1c 0505 	adds.w	r5, ip, r5
 8000434:	f100 38ff 	add.w	r8, r0, #4294967295
 8000438:	d216      	bcs.n	8000468 <__udivmoddi4+0x2b0>
 800043a:	42ab      	cmp	r3, r5
 800043c:	d914      	bls.n	8000468 <__udivmoddi4+0x2b0>
 800043e:	3802      	subs	r0, #2
 8000440:	4465      	add	r5, ip
 8000442:	1aed      	subs	r5, r5, r3
 8000444:	ea40 4101 	orr.w	r1, r0, r1, lsl #16
 8000448:	e738      	b.n	80002bc <__udivmoddi4+0x104>
 800044a:	4631      	mov	r1, r6
 800044c:	4630      	mov	r0, r6
 800044e:	e707      	b.n	8000260 <__udivmoddi4+0xa8>
 8000450:	4686      	mov	lr, r0
 8000452:	e6e5      	b.n	8000220 <__udivmoddi4+0x68>
 8000454:	4618      	mov	r0, r3
 8000456:	e6fa      	b.n	800024e <__udivmoddi4+0x96>
 8000458:	454b      	cmp	r3, r9
 800045a:	d2a9      	bcs.n	80003b0 <__udivmoddi4+0x1f8>
 800045c:	ebb9 0802 	subs.w	r8, r9, r2
 8000460:	eb64 0e0c 	sbc.w	lr, r4, ip
 8000464:	3801      	subs	r0, #1
 8000466:	e7a3      	b.n	80003b0 <__udivmoddi4+0x1f8>
 8000468:	4640      	mov	r0, r8
 800046a:	e7ea      	b.n	8000442 <__udivmoddi4+0x28a>
 800046c:	4620      	mov	r0, r4
 800046e:	e794      	b.n	800039a <__udivmoddi4+0x1e2>
 8000470:	4641      	mov	r1, r8
 8000472:	e7d1      	b.n	8000418 <__udivmoddi4+0x260>
 8000474:	46d0      	mov	r8, sl
 8000476:	e77b      	b.n	8000370 <__udivmoddi4+0x1b8>
 8000478:	3b02      	subs	r3, #2
 800047a:	4465      	add	r5, ip
 800047c:	e732      	b.n	80002e4 <__udivmoddi4+0x12c>
 800047e:	4608      	mov	r0, r1
 8000480:	e709      	b.n	8000296 <__udivmoddi4+0xde>
 8000482:	4464      	add	r4, ip
 8000484:	3802      	subs	r0, #2
 8000486:	e742      	b.n	800030e <__udivmoddi4+0x156>

08000488 <__aeabi_idiv0>:
 8000488:	4770      	bx	lr
 800048a:	bf00      	nop

0800048c <LL_RCC_LSE_SetDriveCapability>:
  *         @arg @ref LL_RCC_LSEDRIVE_MEDIUMHIGH
  *         @arg @ref LL_RCC_LSEDRIVE_HIGH
  * @retval None
  */
__STATIC_INLINE void LL_RCC_LSE_SetDriveCapability(uint32_t LSEDrive)
{
 800048c:	b480      	push	{r7}
 800048e:	b083      	sub	sp, #12
 8000490:	af00      	add	r7, sp, #0
 8000492:	6078      	str	r0, [r7, #4]
  MODIFY_REG(RCC->BDCR, RCC_BDCR_LSEDRV, LSEDrive);
 8000494:	f04f 43b0 	mov.w	r3, #1476395008	; 0x58000000
 8000498:	f8d3 3090 	ldr.w	r3, [r3, #144]	; 0x90
 800049c:	f023 0218 	bic.w	r2, r3, #24
 80004a0:	f04f 41b0 	mov.w	r1, #1476395008	; 0x58000000
 80004a4:	687b      	ldr	r3, [r7, #4]
 80004a6:	4313      	orrs	r3, r2
 80004a8:	f8c1 3090 	str.w	r3, [r1, #144]	; 0x90
}
 80004ac:	bf00      	nop
 80004ae:	370c      	adds	r7, #12
 80004b0:	46bd      	mov	sp, r7
 80004b2:	bc80      	pop	{r7}
 80004b4:	4770      	bx	lr

080004b6 <LL_AHB1_GRP1_EnableClock>:
  *         @arg @ref LL_AHB1_GRP1_PERIPH_DMAMUX1
  *         @arg @ref LL_AHB1_GRP1_PERIPH_CRC
  * @retval None
  */
__STATIC_INLINE void LL_AHB1_GRP1_EnableClock(uint32_t Periphs)
{
 80004b6:	b480      	push	{r7}
 80004b8:	b085      	sub	sp, #20
 80004ba:	af00      	add	r7, sp, #0
 80004bc:	6078      	str	r0, [r7, #4]
  __IO uint32_t tmpreg;
  SET_BIT(RCC->AHB1ENR, Periphs);
 80004be:	f04f 43b0 	mov.w	r3, #1476395008	; 0x58000000
 80004c2:	6c9a      	ldr	r2, [r3, #72]	; 0x48
 80004c4:	f04f 41b0 	mov.w	r1, #1476395008	; 0x58000000
 80004c8:	687b      	ldr	r3, [r7, #4]
 80004ca:	4313      	orrs	r3, r2
 80004cc:	648b      	str	r3, [r1, #72]	; 0x48
  /* Delay after an RCC peripheral clock enabling */
  tmpreg = READ_BIT(RCC->AHB1ENR, Periphs);
 80004ce:	f04f 43b0 	mov.w	r3, #1476395008	; 0x58000000
 80004d2:	6c9a      	ldr	r2, [r3, #72]	; 0x48
 80004d4:	687b      	ldr	r3, [r7, #4]
 80004d6:	4013      	ands	r3, r2
 80004d8:	60fb      	str	r3, [r7, #12]
  (void)tmpreg;
 80004da:	68fb      	ldr	r3, [r7, #12]
}
 80004dc:	bf00      	nop
 80004de:	3714      	adds	r7, #20
 80004e0:	46bd      	mov	sp, r7
 80004e2:	bc80      	pop	{r7}
 80004e4:	4770      	bx	lr

080004e6 <LL_AHB2_GRP1_EnableClock>:
  *         @arg @ref LL_AHB2_GRP1_PERIPH_GPIOC
  *         @arg @ref LL_AHB2_GRP1_PERIPH_GPIOH
  * @retval None
  */
__STATIC_INLINE void LL_AHB2_GRP1_EnableClock(uint32_t Periphs)
{
 80004e6:	b480      	push	{r7}
 80004e8:	b085      	sub	sp, #20
 80004ea:	af00      	add	r7, sp, #0
 80004ec:	6078      	str	r0, [r7, #4]
  __IO uint32_t tmpreg;
  SET_BIT(RCC->AHB2ENR, Periphs);
 80004ee:	f04f 43b0 	mov.w	r3, #1476395008	; 0x58000000
 80004f2:	6cda      	ldr	r2, [r3, #76]	; 0x4c
 80004f4:	f04f 41b0 	mov.w	r1, #1476395008	; 0x58000000
 80004f8:	687b      	ldr	r3, [r7, #4]
 80004fa:	4313      	orrs	r3, r2
 80004fc:	64cb      	str	r3, [r1, #76]	; 0x4c
  /* Delay after an RCC peripheral clock enabling */
  tmpreg = READ_BIT(RCC->AHB2ENR, Periphs);
 80004fe:	f04f 43b0 	mov.w	r3, #1476395008	; 0x58000000
 8000502:	6cda      	ldr	r2, [r3, #76]	; 0x4c
 8000504:	687b      	ldr	r3, [r7, #4]
 8000506:	4013      	ands	r3, r2
 8000508:	60fb      	str	r3, [r7, #12]
  (void)tmpreg;
 800050a:	68fb      	ldr	r3, [r7, #12]
}
 800050c:	bf00      	nop
 800050e:	3714      	adds	r7, #20
 8000510:	46bd      	mov	sp, r7
 8000512:	bc80      	pop	{r7}
 8000514:	4770      	bx	lr

08000516 <main>:
/**
  * @brief  The application entry point.
  * @retval int
  */
int main(void)
{
 8000516:	b580      	push	{r7, lr}
 8000518:	af00      	add	r7, sp, #0
  /* USER CODE END 1 */

  /* MCU Configuration--------------------------------------------------------*/

  /* Reset of all peripherals, Initializes the Flash interface and the Systick. */
  HAL_Init();
 800051a:	f001 f8d1 	bl	80016c0 <HAL_Init>
  /* USER CODE BEGIN Init */

  /* USER CODE END Init */

  /* Configure the system clock */
  SystemClock_Config();
 800051e:	f000 f80b 	bl	8000538 <SystemClock_Config>
  /* USER CODE BEGIN SysInit */

  /* USER CODE END SysInit */

  /* Initialize all configured peripherals */
  MX_GPIO_Init();
 8000522:	f000 f98f 	bl	8000844 <MX_GPIO_Init>
  MX_SubGHz_Phy_Init();
 8000526:	f00b fb32 	bl	800bb8e <MX_SubGHz_Phy_Init>
  MX_CRC_Init();
 800052a:	f000 f89f 	bl	800066c <MX_CRC_Init>
  MX_AES_Init();
 800052e:	f000 f871 	bl	8000614 <MX_AES_Init>
  /* Infinite loop */
  /* USER CODE BEGIN WHILE */
  while (1)
  {
    /* USER CODE END WHILE */
    MX_SubGHz_Phy_Process();
 8000532:	f00b fb34 	bl	800bb9e <MX_SubGHz_Phy_Process>
 8000536:	e7fc      	b.n	8000532 <main+0x1c>

08000538 <SystemClock_Config>:
/**
  * @brief System Clock Configuration
  * @retval None
  */
void SystemClock_Config(void)
{
 8000538:	b580      	push	{r7, lr}
 800053a:	b09a      	sub	sp, #104	; 0x68
 800053c:	af00      	add	r7, sp, #0
  RCC_OscInitTypeDef RCC_OscInitStruct = {0};
 800053e:	f107 0320 	add.w	r3, r7, #32
 8000542:	2248      	movs	r2, #72	; 0x48
 8000544:	2100      	movs	r1, #0
 8000546:	4618      	mov	r0, r3
 8000548:	f00d f8fa 	bl	800d740 <memset>
  RCC_ClkInitTypeDef RCC_ClkInitStruct = {0};
 800054c:	f107 0308 	add.w	r3, r7, #8
 8000550:	2200      	movs	r2, #0
 8000552:	601a      	str	r2, [r3, #0]
 8000554:	605a      	str	r2, [r3, #4]
 8000556:	609a      	str	r2, [r3, #8]
 8000558:	60da      	str	r2, [r3, #12]
 800055a:	611a      	str	r2, [r3, #16]
 800055c:	615a      	str	r2, [r3, #20]

  /** Configure LSE Drive Capability
  */
  HAL_PWR_EnableBkUpAccess();
 800055e:	f003 fc1d 	bl	8003d9c <HAL_PWR_EnableBkUpAccess>
  __HAL_RCC_LSEDRIVE_CONFIG(RCC_LSEDRIVE_LOW);
 8000562:	2000      	movs	r0, #0
 8000564:	f7ff ff92 	bl	800048c <LL_RCC_LSE_SetDriveCapability>

  /** Configure the main internal regulator output voltage
  */
  __HAL_PWR_VOLTAGESCALING_CONFIG(PWR_REGULATOR_VOLTAGE_SCALE1);
 8000568:	4b29      	ldr	r3, [pc, #164]	; (8000610 <SystemClock_Config+0xd8>)
 800056a:	681b      	ldr	r3, [r3, #0]
 800056c:	f423 63c0 	bic.w	r3, r3, #1536	; 0x600
 8000570:	4a27      	ldr	r2, [pc, #156]	; (8000610 <SystemClock_Config+0xd8>)
 8000572:	f443 7300 	orr.w	r3, r3, #512	; 0x200
 8000576:	6013      	str	r3, [r2, #0]
 8000578:	4b25      	ldr	r3, [pc, #148]	; (8000610 <SystemClock_Config+0xd8>)
 800057a:	681b      	ldr	r3, [r3, #0]
 800057c:	f403 63c0 	and.w	r3, r3, #1536	; 0x600
 8000580:	607b      	str	r3, [r7, #4]
 8000582:	687b      	ldr	r3, [r7, #4]

  /** Initializes the CPU, AHB and APB busses clocks
  */
  RCC_OscInitStruct.OscillatorType = RCC_OSCILLATORTYPE_HSI|RCC_OSCILLATORTYPE_LSE
 8000584:	2326      	movs	r3, #38	; 0x26
 8000586:	623b      	str	r3, [r7, #32]
                              |RCC_OSCILLATORTYPE_MSI;
  RCC_OscInitStruct.LSEState = RCC_LSE_ON;
 8000588:	2381      	movs	r3, #129	; 0x81
 800058a:	62fb      	str	r3, [r7, #44]	; 0x2c
  RCC_OscInitStruct.HSIState = RCC_HSI_ON;
 800058c:	f44f 7380 	mov.w	r3, #256	; 0x100
 8000590:	633b      	str	r3, [r7, #48]	; 0x30
  RCC_OscInitStruct.MSIState = RCC_MSI_ON;
 8000592:	2301      	movs	r3, #1
 8000594:	643b      	str	r3, [r7, #64]	; 0x40
  RCC_OscInitStruct.HSICalibrationValue = RCC_HSICALIBRATION_DEFAULT;
 8000596:	2340      	movs	r3, #64	; 0x40
 8000598:	637b      	str	r3, [r7, #52]	; 0x34
  RCC_OscInitStruct.MSICalibrationValue = RCC_MSICALIBRATION_DEFAULT;
 800059a:	2300      	movs	r3, #0
 800059c:	647b      	str	r3, [r7, #68]	; 0x44
  RCC_OscInitStruct.MSIClockRange = RCC_MSIRANGE_6;
 800059e:	2360      	movs	r3, #96	; 0x60
 80005a0:	64bb      	str	r3, [r7, #72]	; 0x48
  RCC_OscInitStruct.PLL.PLLState = RCC_PLL_ON;
 80005a2:	2302      	movs	r3, #2
 80005a4:	64fb      	str	r3, [r7, #76]	; 0x4c
  RCC_OscInitStruct.PLL.PLLSource = RCC_PLLSOURCE_MSI;
 80005a6:	2301      	movs	r3, #1
 80005a8:	653b      	str	r3, [r7, #80]	; 0x50
  RCC_OscInitStruct.PLL.PLLM = RCC_PLLM_DIV1;
 80005aa:	2300      	movs	r3, #0
 80005ac:	657b      	str	r3, [r7, #84]	; 0x54
  RCC_OscInitStruct.PLL.PLLN = 24;
 80005ae:	2318      	movs	r3, #24
 80005b0:	65bb      	str	r3, [r7, #88]	; 0x58
  RCC_OscInitStruct.PLL.PLLP = RCC_PLLP_DIV2;
 80005b2:	f44f 3300 	mov.w	r3, #131072	; 0x20000
 80005b6:	65fb      	str	r3, [r7, #92]	; 0x5c
  RCC_OscInitStruct.PLL.PLLR = RCC_PLLR_DIV2;
 80005b8:	f04f 5300 	mov.w	r3, #536870912	; 0x20000000
 80005bc:	667b      	str	r3, [r7, #100]	; 0x64
  RCC_OscInitStruct.PLL.PLLQ = RCC_PLLQ_DIV2;
 80005be:	f04f 7300 	mov.w	r3, #33554432	; 0x2000000
 80005c2:	663b      	str	r3, [r7, #96]	; 0x60
  if (HAL_RCC_OscConfig(&RCC_OscInitStruct) != HAL_OK)
 80005c4:	f107 0320 	add.w	r3, r7, #32
 80005c8:	4618      	mov	r0, r3
 80005ca:	f003 ff33 	bl	8004434 <HAL_RCC_OscConfig>
 80005ce:	4603      	mov	r3, r0
 80005d0:	2b00      	cmp	r3, #0
 80005d2:	d001      	beq.n	80005d8 <SystemClock_Config+0xa0>
  {
    Error_Handler();
 80005d4:	f000 f97a 	bl	80008cc <Error_Handler>
  }

  /** Configure the SYSCLKSource, HCLK, PCLK1 and PCLK2 clocks dividers
  */
  RCC_ClkInitStruct.ClockType = RCC_CLOCKTYPE_HCLK3|RCC_CLOCKTYPE_HCLK
 80005d8:	234f      	movs	r3, #79	; 0x4f
 80005da:	60bb      	str	r3, [r7, #8]
                              |RCC_CLOCKTYPE_SYSCLK|RCC_CLOCKTYPE_PCLK1
                              |RCC_CLOCKTYPE_PCLK2;
  RCC_ClkInitStruct.SYSCLKSource = RCC_SYSCLKSOURCE_PLLCLK;
 80005dc:	2303      	movs	r3, #3
 80005de:	60fb      	str	r3, [r7, #12]
  RCC_ClkInitStruct.AHBCLKDivider = RCC_SYSCLK_DIV1;
 80005e0:	2300      	movs	r3, #0
 80005e2:	613b      	str	r3, [r7, #16]
  RCC_ClkInitStruct.APB1CLKDivider = RCC_HCLK_DIV1;
 80005e4:	2300      	movs	r3, #0
 80005e6:	617b      	str	r3, [r7, #20]
  RCC_ClkInitStruct.APB2CLKDivider = RCC_HCLK_DIV1;
 80005e8:	2300      	movs	r3, #0
 80005ea:	61bb      	str	r3, [r7, #24]
  RCC_ClkInitStruct.AHBCLK3Divider = RCC_SYSCLK_DIV1;
 80005ec:	2300      	movs	r3, #0
 80005ee:	61fb      	str	r3, [r7, #28]

  if (HAL_RCC_ClockConfig(&RCC_ClkInitStruct, FLASH_LATENCY_2) != HAL_OK)
 80005f0:	f107 0308 	add.w	r3, r7, #8
 80005f4:	2102      	movs	r1, #2
 80005f6:	4618      	mov	r0, r3
 80005f8:	f004 fab8 	bl	8004b6c <HAL_RCC_ClockConfig>
 80005fc:	4603      	mov	r3, r0
 80005fe:	2b00      	cmp	r3, #0
 8000600:	d001      	beq.n	8000606 <SystemClock_Config+0xce>
  {
    Error_Handler();
 8000602:	f000 f963 	bl	80008cc <Error_Handler>
  }
}
 8000606:	bf00      	nop
 8000608:	3768      	adds	r7, #104	; 0x68
 800060a:	46bd      	mov	sp, r7
 800060c:	bd80      	pop	{r7, pc}
 800060e:	bf00      	nop
 8000610:	58000400 	.word	0x58000400

08000614 <MX_AES_Init>:
  * @brief AES Initialization Function
  * @param None
  * @retval None
  */
static void MX_AES_Init(void)
{
 8000614:	b580      	push	{r7, lr}
 8000616:	af00      	add	r7, sp, #0
  /* USER CODE END AES_Init 0 */

  /* USER CODE BEGIN AES_Init 1 */

  /* USER CODE END AES_Init 1 */
  hcryp.Instance = AES;
 8000618:	4b11      	ldr	r3, [pc, #68]	; (8000660 <MX_AES_Init+0x4c>)
 800061a:	4a12      	ldr	r2, [pc, #72]	; (8000664 <MX_AES_Init+0x50>)
 800061c:	601a      	str	r2, [r3, #0]
  hcryp.Init.DataType = CRYP_DATATYPE_8B;
 800061e:	4b10      	ldr	r3, [pc, #64]	; (8000660 <MX_AES_Init+0x4c>)
 8000620:	2204      	movs	r2, #4
 8000622:	605a      	str	r2, [r3, #4]
  hcryp.Init.KeySize = CRYP_KEYSIZE_256B;
 8000624:	4b0e      	ldr	r3, [pc, #56]	; (8000660 <MX_AES_Init+0x4c>)
 8000626:	f44f 2280 	mov.w	r2, #262144	; 0x40000
 800062a:	609a      	str	r2, [r3, #8]
  hcryp.Init.pKey = (uint32_t *)pKeyAES;
 800062c:	4b0c      	ldr	r3, [pc, #48]	; (8000660 <MX_AES_Init+0x4c>)
 800062e:	4a0e      	ldr	r2, [pc, #56]	; (8000668 <MX_AES_Init+0x54>)
 8000630:	60da      	str	r2, [r3, #12]
  hcryp.Init.Algorithm = CRYP_AES_ECB;
 8000632:	4b0b      	ldr	r3, [pc, #44]	; (8000660 <MX_AES_Init+0x4c>)
 8000634:	2200      	movs	r2, #0
 8000636:	615a      	str	r2, [r3, #20]
  hcryp.Init.DataWidthUnit = CRYP_DATAWIDTHUNIT_WORD;
 8000638:	4b09      	ldr	r3, [pc, #36]	; (8000660 <MX_AES_Init+0x4c>)
 800063a:	2200      	movs	r2, #0
 800063c:	625a      	str	r2, [r3, #36]	; 0x24
  hcryp.Init.HeaderWidthUnit = CRYP_HEADERWIDTHUNIT_WORD;
 800063e:	4b08      	ldr	r3, [pc, #32]	; (8000660 <MX_AES_Init+0x4c>)
 8000640:	2200      	movs	r2, #0
 8000642:	629a      	str	r2, [r3, #40]	; 0x28
  hcryp.Init.KeyIVConfigSkip = CRYP_KEYIVCONFIG_ALWAYS;
 8000644:	4b06      	ldr	r3, [pc, #24]	; (8000660 <MX_AES_Init+0x4c>)
 8000646:	2200      	movs	r2, #0
 8000648:	62da      	str	r2, [r3, #44]	; 0x2c
  if (HAL_CRYP_Init(&hcryp) != HAL_OK)
 800064a:	4805      	ldr	r0, [pc, #20]	; (8000660 <MX_AES_Init+0x4c>)
 800064c:	f001 fc0c 	bl	8001e68 <HAL_CRYP_Init>
 8000650:	4603      	mov	r3, r0
 8000652:	2b00      	cmp	r3, #0
 8000654:	d001      	beq.n	800065a <MX_AES_Init+0x46>
  {
    Error_Handler();
 8000656:	f000 f939 	bl	80008cc <Error_Handler>
  }
  /* USER CODE BEGIN AES_Init 2 */

  /* USER CODE END AES_Init 2 */

}
 800065a:	bf00      	nop
 800065c:	bd80      	pop	{r7, pc}
 800065e:	bf00      	nop
 8000660:	20000038 	.word	0x20000038
 8000664:	58001800 	.word	0x58001800
 8000668:	0800d83c 	.word	0x0800d83c

0800066c <MX_CRC_Init>:
  * @brief CRC Initialization Function
  * @param None
  * @retval None
  */
static void MX_CRC_Init(void)
{
 800066c:	b580      	push	{r7, lr}
 800066e:	af00      	add	r7, sp, #0
  /* USER CODE END CRC_Init 0 */

  /* USER CODE BEGIN CRC_Init 1 */

  /* USER CODE END CRC_Init 1 */
  hcrc.Instance = CRC;
 8000670:	4b10      	ldr	r3, [pc, #64]	; (80006b4 <MX_CRC_Init+0x48>)
 8000672:	4a11      	ldr	r2, [pc, #68]	; (80006b8 <MX_CRC_Init+0x4c>)
 8000674:	601a      	str	r2, [r3, #0]
  hcrc.Init.DefaultPolynomialUse = DEFAULT_POLYNOMIAL_DISABLE;
 8000676:	4b0f      	ldr	r3, [pc, #60]	; (80006b4 <MX_CRC_Init+0x48>)
 8000678:	2201      	movs	r2, #1
 800067a:	711a      	strb	r2, [r3, #4]
  hcrc.Init.DefaultInitValueUse = DEFAULT_INIT_VALUE_ENABLE;
 800067c:	4b0d      	ldr	r3, [pc, #52]	; (80006b4 <MX_CRC_Init+0x48>)
 800067e:	2200      	movs	r2, #0
 8000680:	715a      	strb	r2, [r3, #5]
  hcrc.Init.GeneratingPolynomial = 79764919;
 8000682:	4b0c      	ldr	r3, [pc, #48]	; (80006b4 <MX_CRC_Init+0x48>)
 8000684:	4a0d      	ldr	r2, [pc, #52]	; (80006bc <MX_CRC_Init+0x50>)
 8000686:	609a      	str	r2, [r3, #8]
  hcrc.Init.CRCLength = CRC_POLYLENGTH_32B;
 8000688:	4b0a      	ldr	r3, [pc, #40]	; (80006b4 <MX_CRC_Init+0x48>)
 800068a:	2200      	movs	r2, #0
 800068c:	60da      	str	r2, [r3, #12]
  hcrc.Init.InputDataInversionMode = CRC_INPUTDATA_INVERSION_BYTE;
 800068e:	4b09      	ldr	r3, [pc, #36]	; (80006b4 <MX_CRC_Init+0x48>)
 8000690:	2220      	movs	r2, #32
 8000692:	615a      	str	r2, [r3, #20]
  hcrc.Init.OutputDataInversionMode = CRC_OUTPUTDATA_INVERSION_ENABLE;
 8000694:	4b07      	ldr	r3, [pc, #28]	; (80006b4 <MX_CRC_Init+0x48>)
 8000696:	2280      	movs	r2, #128	; 0x80
 8000698:	619a      	str	r2, [r3, #24]
  hcrc.InputDataFormat = CRC_INPUTDATA_FORMAT_BYTES;
 800069a:	4b06      	ldr	r3, [pc, #24]	; (80006b4 <MX_CRC_Init+0x48>)
 800069c:	2201      	movs	r2, #1
 800069e:	621a      	str	r2, [r3, #32]
  if (HAL_CRC_Init(&hcrc) != HAL_OK)
 80006a0:	4804      	ldr	r0, [pc, #16]	; (80006b4 <MX_CRC_Init+0x48>)
 80006a2:	f001 f9e5 	bl	8001a70 <HAL_CRC_Init>
 80006a6:	4603      	mov	r3, r0
 80006a8:	2b00      	cmp	r3, #0
 80006aa:	d001      	beq.n	80006b0 <MX_CRC_Init+0x44>
  {
    Error_Handler();
 80006ac:	f000 f90e 	bl	80008cc <Error_Handler>
  }
  /* USER CODE BEGIN CRC_Init 2 */

  /* USER CODE END CRC_Init 2 */

}
 80006b0:	bf00      	nop
 80006b2:	bd80      	pop	{r7, pc}
 80006b4:	20000144 	.word	0x20000144
 80006b8:	40023000 	.word	0x40023000
 80006bc:	04c11db7 	.word	0x04c11db7

080006c0 <MX_RTC_Init>:
  * @brief RTC Initialization Function
  * @param None
  * @retval None
  */
void MX_RTC_Init(void)
{
 80006c0:	b580      	push	{r7, lr}
 80006c2:	b08c      	sub	sp, #48	; 0x30
 80006c4:	af00      	add	r7, sp, #0

  /* USER CODE BEGIN RTC_Init 0 */

  /* USER CODE END RTC_Init 0 */

  RTC_AlarmTypeDef sAlarm = {0};
 80006c6:	1d3b      	adds	r3, r7, #4
 80006c8:	222c      	movs	r2, #44	; 0x2c
 80006ca:	2100      	movs	r1, #0
 80006cc:	4618      	mov	r0, r3
 80006ce:	f00d f837 	bl	800d740 <memset>

  /* USER CODE END RTC_Init 1 */

  /** Initialize RTC Only
  */
  hrtc.Instance = RTC;
 80006d2:	4b22      	ldr	r3, [pc, #136]	; (800075c <MX_RTC_Init+0x9c>)
 80006d4:	4a22      	ldr	r2, [pc, #136]	; (8000760 <MX_RTC_Init+0xa0>)
 80006d6:	601a      	str	r2, [r3, #0]
  hrtc.Init.AsynchPrediv = RTC_PREDIV_A;
 80006d8:	4b20      	ldr	r3, [pc, #128]	; (800075c <MX_RTC_Init+0x9c>)
 80006da:	221f      	movs	r2, #31
 80006dc:	609a      	str	r2, [r3, #8]
  hrtc.Init.OutPut = RTC_OUTPUT_DISABLE;
 80006de:	4b1f      	ldr	r3, [pc, #124]	; (800075c <MX_RTC_Init+0x9c>)
 80006e0:	2200      	movs	r2, #0
 80006e2:	611a      	str	r2, [r3, #16]
  hrtc.Init.OutPutRemap = RTC_OUTPUT_REMAP_NONE;
 80006e4:	4b1d      	ldr	r3, [pc, #116]	; (800075c <MX_RTC_Init+0x9c>)
 80006e6:	2200      	movs	r2, #0
 80006e8:	615a      	str	r2, [r3, #20]
  hrtc.Init.OutPutPolarity = RTC_OUTPUT_POLARITY_HIGH;
 80006ea:	4b1c      	ldr	r3, [pc, #112]	; (800075c <MX_RTC_Init+0x9c>)
 80006ec:	2200      	movs	r2, #0
 80006ee:	619a      	str	r2, [r3, #24]
  hrtc.Init.OutPutType = RTC_OUTPUT_TYPE_OPENDRAIN;
 80006f0:	4b1a      	ldr	r3, [pc, #104]	; (800075c <MX_RTC_Init+0x9c>)
 80006f2:	f04f 4280 	mov.w	r2, #1073741824	; 0x40000000
 80006f6:	61da      	str	r2, [r3, #28]
  hrtc.Init.OutPutPullUp = RTC_OUTPUT_PULLUP_NONE;
 80006f8:	4b18      	ldr	r3, [pc, #96]	; (800075c <MX_RTC_Init+0x9c>)
 80006fa:	2200      	movs	r2, #0
 80006fc:	621a      	str	r2, [r3, #32]
  hrtc.Init.BinMode = RTC_BINARY_ONLY;
 80006fe:	4b17      	ldr	r3, [pc, #92]	; (800075c <MX_RTC_Init+0x9c>)
 8000700:	f44f 7280 	mov.w	r2, #256	; 0x100
 8000704:	625a      	str	r2, [r3, #36]	; 0x24
  if (HAL_RTC_Init(&hrtc) != HAL_OK)
 8000706:	4815      	ldr	r0, [pc, #84]	; (800075c <MX_RTC_Init+0x9c>)
 8000708:	f004 feec 	bl	80054e4 <HAL_RTC_Init>
 800070c:	4603      	mov	r3, r0
 800070e:	2b00      	cmp	r3, #0
 8000710:	d001      	beq.n	8000716 <MX_RTC_Init+0x56>
  {
    Error_Handler();
 8000712:	f000 f8db 	bl	80008cc <Error_Handler>

  /* USER CODE END Check_RTC_BKUP */

  /** Initialize RTC and set the Time and Date
  */
  if (HAL_RTCEx_SetSSRU_IT(&hrtc) != HAL_OK)
 8000716:	4811      	ldr	r0, [pc, #68]	; (800075c <MX_RTC_Init+0x9c>)
 8000718:	f005 f9da 	bl	8005ad0 <HAL_RTCEx_SetSSRU_IT>
 800071c:	4603      	mov	r3, r0
 800071e:	2b00      	cmp	r3, #0
 8000720:	d001      	beq.n	8000726 <MX_RTC_Init+0x66>
  {
    Error_Handler();
 8000722:	f000 f8d3 	bl	80008cc <Error_Handler>
  }

  /** Enable the Alarm A
  */
  sAlarm.BinaryAutoClr = RTC_ALARMSUBSECONDBIN_AUTOCLR_NO;
 8000726:	2300      	movs	r3, #0
 8000728:	623b      	str	r3, [r7, #32]
  sAlarm.AlarmTime.SubSeconds = 0x0;
 800072a:	2300      	movs	r3, #0
 800072c:	60bb      	str	r3, [r7, #8]
  sAlarm.AlarmMask = RTC_ALARMMASK_NONE;
 800072e:	2300      	movs	r3, #0
 8000730:	61bb      	str	r3, [r7, #24]
  sAlarm.AlarmSubSecondMask = RTC_ALARMSUBSECONDBINMASK_NONE;
 8000732:	f04f 5300 	mov.w	r3, #536870912	; 0x20000000
 8000736:	61fb      	str	r3, [r7, #28]
  sAlarm.Alarm = RTC_ALARM_A;
 8000738:	f44f 7380 	mov.w	r3, #256	; 0x100
 800073c:	62fb      	str	r3, [r7, #44]	; 0x2c
  if (HAL_RTC_SetAlarm_IT(&hrtc, &sAlarm, 0) != HAL_OK)
 800073e:	1d3b      	adds	r3, r7, #4
 8000740:	2200      	movs	r2, #0
 8000742:	4619      	mov	r1, r3
 8000744:	4805      	ldr	r0, [pc, #20]	; (800075c <MX_RTC_Init+0x9c>)
 8000746:	f004 ff47 	bl	80055d8 <HAL_RTC_SetAlarm_IT>
 800074a:	4603      	mov	r3, r0
 800074c:	2b00      	cmp	r3, #0
 800074e:	d001      	beq.n	8000754 <MX_RTC_Init+0x94>
  {
    Error_Handler();
 8000750:	f000 f8bc 	bl	80008cc <Error_Handler>
  }
  /* USER CODE BEGIN RTC_Init 2 */

  /* USER CODE END RTC_Init 2 */

}
 8000754:	bf00      	nop
 8000756:	3730      	adds	r7, #48	; 0x30
 8000758:	46bd      	mov	sp, r7
 800075a:	bd80      	pop	{r7, pc}
 800075c:	20000168 	.word	0x20000168
 8000760:	40002800 	.word	0x40002800

08000764 <MX_SUBGHZ_Init>:
  * @brief SUBGHZ Initialization Function
  * @param None
  * @retval None
  */
void MX_SUBGHZ_Init(void)
{
 8000764:	b580      	push	{r7, lr}
 8000766:	af00      	add	r7, sp, #0
  /* USER CODE END SUBGHZ_Init 0 */

  /* USER CODE BEGIN SUBGHZ_Init 1 */

  /* USER CODE END SUBGHZ_Init 1 */
  hsubghz.Init.BaudratePrescaler = SUBGHZSPI_BAUDRATEPRESCALER_8;
 8000768:	4b06      	ldr	r3, [pc, #24]	; (8000784 <MX_SUBGHZ_Init+0x20>)
 800076a:	2210      	movs	r2, #16
 800076c:	601a      	str	r2, [r3, #0]
  if (HAL_SUBGHZ_Init(&hsubghz) != HAL_OK)
 800076e:	4805      	ldr	r0, [pc, #20]	; (8000784 <MX_SUBGHZ_Init+0x20>)
 8000770:	f005 fad6 	bl	8005d20 <HAL_SUBGHZ_Init>
 8000774:	4603      	mov	r3, r0
 8000776:	2b00      	cmp	r3, #0
 8000778:	d001      	beq.n	800077e <MX_SUBGHZ_Init+0x1a>
  {
    Error_Handler();
 800077a:	f000 f8a7 	bl	80008cc <Error_Handler>
  }
  /* USER CODE BEGIN SUBGHZ_Init 2 */

  /* USER CODE END SUBGHZ_Init 2 */

}
 800077e:	bf00      	nop
 8000780:	bd80      	pop	{r7, pc}
 8000782:	bf00      	nop
 8000784:	200001a0 	.word	0x200001a0

08000788 <MX_USART1_UART_Init>:
  * @brief USART1 Initialization Function
  * @param None
  * @retval None
  */
void MX_USART1_UART_Init(void)
{
 8000788:	b580      	push	{r7, lr}
 800078a:	af00      	add	r7, sp, #0
  /* USER CODE END USART1_Init 0 */

  /* USER CODE BEGIN USART1_Init 1 */

  /* USER CODE END USART1_Init 1 */
  huart1.Instance = USART1;
 800078c:	4b22      	ldr	r3, [pc, #136]	; (8000818 <MX_USART1_UART_Init+0x90>)
 800078e:	4a23      	ldr	r2, [pc, #140]	; (800081c <MX_USART1_UART_Init+0x94>)
 8000790:	601a      	str	r2, [r3, #0]
  huart1.Init.BaudRate = 115200;
 8000792:	4b21      	ldr	r3, [pc, #132]	; (8000818 <MX_USART1_UART_Init+0x90>)
 8000794:	f44f 32e1 	mov.w	r2, #115200	; 0x1c200
 8000798:	605a      	str	r2, [r3, #4]
  huart1.Init.WordLength = UART_WORDLENGTH_8B;
 800079a:	4b1f      	ldr	r3, [pc, #124]	; (8000818 <MX_USART1_UART_Init+0x90>)
 800079c:	2200      	movs	r2, #0
 800079e:	609a      	str	r2, [r3, #8]
  huart1.Init.StopBits = UART_STOPBITS_1;
 80007a0:	4b1d      	ldr	r3, [pc, #116]	; (8000818 <MX_USART1_UART_Init+0x90>)
 80007a2:	2200      	movs	r2, #0
 80007a4:	60da      	str	r2, [r3, #12]
  huart1.Init.Parity = UART_PARITY_NONE;
 80007a6:	4b1c      	ldr	r3, [pc, #112]	; (8000818 <MX_USART1_UART_Init+0x90>)
 80007a8:	2200      	movs	r2, #0
 80007aa:	611a      	str	r2, [r3, #16]
  huart1.Init.Mode = UART_MODE_TX_RX;
 80007ac:	4b1a      	ldr	r3, [pc, #104]	; (8000818 <MX_USART1_UART_Init+0x90>)
 80007ae:	220c      	movs	r2, #12
 80007b0:	615a      	str	r2, [r3, #20]
  huart1.Init.HwFlowCtl = UART_HWCONTROL_NONE;
 80007b2:	4b19      	ldr	r3, [pc, #100]	; (8000818 <MX_USART1_UART_Init+0x90>)
 80007b4:	2200      	movs	r2, #0
 80007b6:	619a      	str	r2, [r3, #24]
  huart1.Init.OverSampling = UART_OVERSAMPLING_16;
 80007b8:	4b17      	ldr	r3, [pc, #92]	; (8000818 <MX_USART1_UART_Init+0x90>)
 80007ba:	2200      	movs	r2, #0
 80007bc:	61da      	str	r2, [r3, #28]
  huart1.Init.OneBitSampling = UART_ONE_BIT_SAMPLE_DISABLE;
 80007be:	4b16      	ldr	r3, [pc, #88]	; (8000818 <MX_USART1_UART_Init+0x90>)
 80007c0:	2200      	movs	r2, #0
 80007c2:	621a      	str	r2, [r3, #32]
  huart1.Init.ClockPrescaler = UART_PRESCALER_DIV1;
 80007c4:	4b14      	ldr	r3, [pc, #80]	; (8000818 <MX_USART1_UART_Init+0x90>)
 80007c6:	2200      	movs	r2, #0
 80007c8:	625a      	str	r2, [r3, #36]	; 0x24
  huart1.AdvancedInit.AdvFeatureInit = UART_ADVFEATURE_NO_INIT;
 80007ca:	4b13      	ldr	r3, [pc, #76]	; (8000818 <MX_USART1_UART_Init+0x90>)
 80007cc:	2200      	movs	r2, #0
 80007ce:	629a      	str	r2, [r3, #40]	; 0x28
  if (HAL_UART_Init(&huart1) != HAL_OK)
 80007d0:	4811      	ldr	r0, [pc, #68]	; (8000818 <MX_USART1_UART_Init+0x90>)
 80007d2:	f005 fee0 	bl	8006596 <HAL_UART_Init>
 80007d6:	4603      	mov	r3, r0
 80007d8:	2b00      	cmp	r3, #0
 80007da:	d001      	beq.n	80007e0 <MX_USART1_UART_Init+0x58>
  {
    Error_Handler();
 80007dc:	f000 f876 	bl	80008cc <Error_Handler>
  }
  if (HAL_UARTEx_SetTxFifoThreshold(&huart1, UART_TXFIFO_THRESHOLD_1_8) != HAL_OK)
 80007e0:	2100      	movs	r1, #0
 80007e2:	480d      	ldr	r0, [pc, #52]	; (8000818 <MX_USART1_UART_Init+0x90>)
 80007e4:	f007 ff54 	bl	8008690 <HAL_UARTEx_SetTxFifoThreshold>
 80007e8:	4603      	mov	r3, r0
 80007ea:	2b00      	cmp	r3, #0
 80007ec:	d001      	beq.n	80007f2 <MX_USART1_UART_Init+0x6a>
  {
    Error_Handler();
 80007ee:	f000 f86d 	bl	80008cc <Error_Handler>
  }
  if (HAL_UARTEx_SetRxFifoThreshold(&huart1, UART_RXFIFO_THRESHOLD_1_8) != HAL_OK)
 80007f2:	2100      	movs	r1, #0
 80007f4:	4808      	ldr	r0, [pc, #32]	; (8000818 <MX_USART1_UART_Init+0x90>)
 80007f6:	f007 ff89 	bl	800870c <HAL_UARTEx_SetRxFifoThreshold>
 80007fa:	4603      	mov	r3, r0
 80007fc:	2b00      	cmp	r3, #0
 80007fe:	d001      	beq.n	8000804 <MX_USART1_UART_Init+0x7c>
  {
    Error_Handler();
 8000800:	f000 f864 	bl	80008cc <Error_Handler>
  }
  if (HAL_UARTEx_DisableFifoMode(&huart1) != HAL_OK)
 8000804:	4804      	ldr	r0, [pc, #16]	; (8000818 <MX_USART1_UART_Init+0x90>)
 8000806:	f007 ff0b 	bl	8008620 <HAL_UARTEx_DisableFifoMode>
 800080a:	4603      	mov	r3, r0
 800080c:	2b00      	cmp	r3, #0
 800080e:	d001      	beq.n	8000814 <MX_USART1_UART_Init+0x8c>
  {
    Error_Handler();
 8000810:	f000 f85c 	bl	80008cc <Error_Handler>
  }
  /* USER CODE BEGIN USART1_Init 2 */
  /* USER CODE END USART1_Init 2 */

}
 8000814:	bf00      	nop
 8000816:	bd80      	pop	{r7, pc}
 8000818:	200001ac 	.word	0x200001ac
 800081c:	40013800 	.word	0x40013800

08000820 <MX_DMA_Init>:

/**
  * Enable DMA controller clock
  */
void MX_DMA_Init(void)
{
 8000820:	b580      	push	{r7, lr}
 8000822:	af00      	add	r7, sp, #0

  /* DMA controller clock enable */
  __HAL_RCC_DMAMUX1_CLK_ENABLE();
 8000824:	2004      	movs	r0, #4
 8000826:	f7ff fe46 	bl	80004b6 <LL_AHB1_GRP1_EnableClock>
  __HAL_RCC_DMA1_CLK_ENABLE();
 800082a:	2001      	movs	r0, #1
 800082c:	f7ff fe43 	bl	80004b6 <LL_AHB1_GRP1_EnableClock>

  /* DMA interrupt init */
  /* DMA1_Channel5_IRQn interrupt configuration */
  HAL_NVIC_SetPriority(DMA1_Channel5_IRQn, 2, 0);
 8000830:	2200      	movs	r2, #0
 8000832:	2102      	movs	r1, #2
 8000834:	200f      	movs	r0, #15
 8000836:	f001 f8d8 	bl	80019ea <HAL_NVIC_SetPriority>
  HAL_NVIC_EnableIRQ(DMA1_Channel5_IRQn);
 800083a:	200f      	movs	r0, #15
 800083c:	f001 f8ef 	bl	8001a1e <HAL_NVIC_EnableIRQ>

}
 8000840:	bf00      	nop
 8000842:	bd80      	pop	{r7, pc}

08000844 <MX_GPIO_Init>:
  * @brief GPIO Initialization Function
  * @param None
  * @retval None
  */
void MX_GPIO_Init(void)
{
 8000844:	b580      	push	{r7, lr}
 8000846:	b086      	sub	sp, #24
 8000848:	af00      	add	r7, sp, #0
  GPIO_InitTypeDef GPIO_InitStruct = {0};
 800084a:	1d3b      	adds	r3, r7, #4
 800084c:	2200      	movs	r2, #0
 800084e:	601a      	str	r2, [r3, #0]
 8000850:	605a      	str	r2, [r3, #4]
 8000852:	609a      	str	r2, [r3, #8]
 8000854:	60da      	str	r2, [r3, #12]
 8000856:	611a      	str	r2, [r3, #16]

  /* GPIO Ports Clock Enable */
  __HAL_RCC_GPIOA_CLK_ENABLE();
 8000858:	2001      	movs	r0, #1
 800085a:	f7ff fe44 	bl	80004e6 <LL_AHB2_GRP1_EnableClock>
  __HAL_RCC_GPIOB_CLK_ENABLE();
 800085e:	2002      	movs	r0, #2
 8000860:	f7ff fe41 	bl	80004e6 <LL_AHB2_GRP1_EnableClock>
  __HAL_RCC_GPIOC_CLK_ENABLE();
 8000864:	2004      	movs	r0, #4
 8000866:	f7ff fe3e 	bl	80004e6 <LL_AHB2_GRP1_EnableClock>

  /*Configure GPIO pin Output Level */
  HAL_GPIO_WritePin(GPIOA, GPIO_PIN_9, GPIO_PIN_RESET);
 800086a:	2200      	movs	r2, #0
 800086c:	f44f 7100 	mov.w	r1, #512	; 0x200
 8000870:	f04f 4090 	mov.w	r0, #1207959552	; 0x48000000
 8000874:	f003 fa7a 	bl	8003d6c <HAL_GPIO_WritePin>

  /*Configure GPIO pin Output Level */
  HAL_GPIO_WritePin(GPIOB, GPIO_PIN_10, GPIO_PIN_RESET);
 8000878:	2200      	movs	r2, #0
 800087a:	f44f 6180 	mov.w	r1, #1024	; 0x400
 800087e:	4812      	ldr	r0, [pc, #72]	; (80008c8 <MX_GPIO_Init+0x84>)
 8000880:	f003 fa74 	bl	8003d6c <HAL_GPIO_WritePin>

  /*Configure GPIO pin : PA9 */
  GPIO_InitStruct.Pin = GPIO_PIN_9;
 8000884:	f44f 7300 	mov.w	r3, #512	; 0x200
 8000888:	607b      	str	r3, [r7, #4]
  GPIO_InitStruct.Mode = GPIO_MODE_OUTPUT_PP;
 800088a:	2301      	movs	r3, #1
 800088c:	60bb      	str	r3, [r7, #8]
  GPIO_InitStruct.Pull = GPIO_NOPULL;
 800088e:	2300      	movs	r3, #0
 8000890:	60fb      	str	r3, [r7, #12]
  GPIO_InitStruct.Speed = GPIO_SPEED_FREQ_LOW;
 8000892:	2300      	movs	r3, #0
 8000894:	613b      	str	r3, [r7, #16]
  HAL_GPIO_Init(GPIOA, &GPIO_InitStruct);
 8000896:	1d3b      	adds	r3, r7, #4
 8000898:	4619      	mov	r1, r3
 800089a:	f04f 4090 	mov.w	r0, #1207959552	; 0x48000000
 800089e:	f003 f837 	bl	8003910 <HAL_GPIO_Init>

  /*Configure GPIO pin : PB10 */
  GPIO_InitStruct.Pin = GPIO_PIN_10;
 80008a2:	f44f 6380 	mov.w	r3, #1024	; 0x400
 80008a6:	607b      	str	r3, [r7, #4]
  GPIO_InitStruct.Mode = GPIO_MODE_OUTPUT_PP;
 80008a8:	2301      	movs	r3, #1
 80008aa:	60bb      	str	r3, [r7, #8]
  GPIO_InitStruct.Pull = GPIO_NOPULL;
 80008ac:	2300      	movs	r3, #0
 80008ae:	60fb      	str	r3, [r7, #12]
  GPIO_InitStruct.Speed = GPIO_SPEED_FREQ_LOW;
 80008b0:	2300      	movs	r3, #0
 80008b2:	613b      	str	r3, [r7, #16]
  HAL_GPIO_Init(GPIOB, &GPIO_InitStruct);
 80008b4:	1d3b      	adds	r3, r7, #4
 80008b6:	4619      	mov	r1, r3
 80008b8:	4803      	ldr	r0, [pc, #12]	; (80008c8 <MX_GPIO_Init+0x84>)
 80008ba:	f003 f829 	bl	8003910 <HAL_GPIO_Init>

}
 80008be:	bf00      	nop
 80008c0:	3718      	adds	r7, #24
 80008c2:	46bd      	mov	sp, r7
 80008c4:	bd80      	pop	{r7, pc}
 80008c6:	bf00      	nop
 80008c8:	48000400 	.word	0x48000400

080008cc <Error_Handler>:
/**
  * @brief  This function is executed in case of error occurrence.
  * @retval None
  */
void Error_Handler(void)
{
 80008cc:	b480      	push	{r7}
 80008ce:	af00      	add	r7, sp, #0
  \details Disables IRQ interrupts by setting the I-bit in the CPSR.
           Can only be executed in Privileged modes.
 */
__STATIC_FORCEINLINE void __disable_irq(void)
{
  __ASM volatile ("cpsid i" : : : "memory");
 80008d0:	b672      	cpsid	i
}
 80008d2:	bf00      	nop
  /* USER CODE BEGIN Error_Handler_Debug */
  /* User can add his own implementation to report the HAL error return state */
  __disable_irq();
  while (1)
 80008d4:	e7fe      	b.n	80008d4 <Error_Handler+0x8>
	...

080008d8 <LL_PWR_ClearFlag_C1STOP_C1STB>:
  * @brief  Clear standby and stop flags for CPU1
  * @rmtoll EXTSCR       C1CSSF        LL_PWR_ClearFlag_C1STOP_C1STB
  * @retval None
  */
__STATIC_INLINE void LL_PWR_ClearFlag_C1STOP_C1STB(void)
{
 80008d8:	b480      	push	{r7}
 80008da:	af00      	add	r7, sp, #0
  WRITE_REG(PWR->EXTSCR, PWR_EXTSCR_C1CSSF);
 80008dc:	4b03      	ldr	r3, [pc, #12]	; (80008ec <LL_PWR_ClearFlag_C1STOP_C1STB+0x14>)
 80008de:	2201      	movs	r2, #1
 80008e0:	f8c3 2088 	str.w	r2, [r3, #136]	; 0x88
}
 80008e4:	bf00      	nop
 80008e6:	46bd      	mov	sp, r7
 80008e8:	bc80      	pop	{r7}
 80008ea:	4770      	bx	lr
 80008ec:	58000400 	.word	0x58000400

080008f0 <PWR_EnterOffMode>:
/* USER CODE END PFP */

/* Exported functions --------------------------------------------------------*/

void PWR_EnterOffMode(void)
{
 80008f0:	b480      	push	{r7}
 80008f2:	af00      	add	r7, sp, #0
  /* USER CODE BEGIN EnterOffMode_1 */

  /* USER CODE END EnterOffMode_1 */
}
 80008f4:	bf00      	nop
 80008f6:	46bd      	mov	sp, r7
 80008f8:	bc80      	pop	{r7}
 80008fa:	4770      	bx	lr

080008fc <PWR_ExitOffMode>:

void PWR_ExitOffMode(void)
{
 80008fc:	b480      	push	{r7}
 80008fe:	af00      	add	r7, sp, #0
  /* USER CODE BEGIN ExitOffMode_1 */

  /* USER CODE END ExitOffMode_1 */
}
 8000900:	bf00      	nop
 8000902:	46bd      	mov	sp, r7
 8000904:	bc80      	pop	{r7}
 8000906:	4770      	bx	lr

08000908 <PWR_EnterStopMode>:

void PWR_EnterStopMode(void)
{
 8000908:	b580      	push	{r7, lr}
 800090a:	af00      	add	r7, sp, #0
  /* USER CODE BEGIN EnterStopMode_1 */

  /* USER CODE END EnterStopMode_1 */
  HAL_SuspendTick();
 800090c:	f000 ff44 	bl	8001798 <HAL_SuspendTick>
  /* Clear Status Flag before entering STOP/STANDBY Mode */
  LL_PWR_ClearFlag_C1STOP_C1STB();
 8000910:	f7ff ffe2 	bl	80008d8 <LL_PWR_ClearFlag_C1STOP_C1STB>

  /* USER CODE BEGIN EnterStopMode_2 */

  /* USER CODE END EnterStopMode_2 */
  HAL_PWREx_EnterSTOP2Mode(PWR_STOPENTRY_WFI);
 8000914:	2001      	movs	r0, #1
 8000916:	f003 fad3 	bl	8003ec0 <HAL_PWREx_EnterSTOP2Mode>
  /* USER CODE BEGIN EnterStopMode_3 */

  /* USER CODE END EnterStopMode_3 */
}
 800091a:	bf00      	nop
 800091c:	bd80      	pop	{r7, pc}

0800091e <PWR_ExitStopMode>:

void PWR_ExitStopMode(void)
{
 800091e:	b580      	push	{r7, lr}
 8000920:	af00      	add	r7, sp, #0
  /* USER CODE BEGIN ExitStopMode_1 */

  /* USER CODE END ExitStopMode_1 */
  /* Resume sysTick : work around for debugger problem in dual core */
  HAL_ResumeTick();
 8000922:	f000 ff47 	bl	80017b4 <HAL_ResumeTick>
    ADC interface
    DAC interface USARTx, TIMx, i2Cx, SPIx
    SRAM ctrls, DMAx, DMAMux, AES, RNG, HSEM  */

  /* Resume not retained USARTx and DMA */
  vcom_Resume();
 8000926:	f000 fe21 	bl	800156c <vcom_Resume>
  /* USER CODE BEGIN ExitStopMode_2 */

  /* USER CODE END ExitStopMode_2 */
}
 800092a:	bf00      	nop
 800092c:	bd80      	pop	{r7, pc}

0800092e <PWR_EnterSleepMode>:

void PWR_EnterSleepMode(void)
{
 800092e:	b580      	push	{r7, lr}
 8000930:	af00      	add	r7, sp, #0
  /* USER CODE BEGIN EnterSleepMode_1 */

  /* USER CODE END EnterSleepMode_1 */
  /* Suspend sysTick */
  HAL_SuspendTick();
 8000932:	f000 ff31 	bl	8001798 <HAL_SuspendTick>
  /* USER CODE BEGIN EnterSleepMode_2 */

  /* USER CODE END EnterSleepMode_2 */
  HAL_PWR_EnterSLEEPMode(PWR_MAINREGULATOR_ON, PWR_SLEEPENTRY_WFI);
 8000936:	2101      	movs	r1, #1
 8000938:	2000      	movs	r0, #0
 800093a:	f003 fa3d 	bl	8003db8 <HAL_PWR_EnterSLEEPMode>
  /* USER CODE BEGIN EnterSleepMode_3 */

  /* USER CODE END EnterSleepMode_3 */
}
 800093e:	bf00      	nop
 8000940:	bd80      	pop	{r7, pc}

08000942 <PWR_ExitSleepMode>:

void PWR_ExitSleepMode(void)
{
 8000942:	b580      	push	{r7, lr}
 8000944:	af00      	add	r7, sp, #0
  /* USER CODE BEGIN ExitSleepMode_1 */

  /* USER CODE END ExitSleepMode_1 */
  /* Resume sysTick */
  HAL_ResumeTick();
 8000946:	f000 ff35 	bl	80017b4 <HAL_ResumeTick>

  /* USER CODE BEGIN ExitSleepMode_2 */

  /* USER CODE END ExitSleepMode_2 */
}
 800094a:	bf00      	nop
 800094c:	bd80      	pop	{r7, pc}

0800094e <LL_RCC_EnableRTC>:
  * @brief  Enable RTC
  * @rmtoll BDCR         RTCEN         LL_RCC_EnableRTC
  * @retval None
  */
__STATIC_INLINE void LL_RCC_EnableRTC(void)
{
 800094e:	b480      	push	{r7}
 8000950:	af00      	add	r7, sp, #0
  SET_BIT(RCC->BDCR, RCC_BDCR_RTCEN);
 8000952:	f04f 43b0 	mov.w	r3, #1476395008	; 0x58000000
 8000956:	f8d3 3090 	ldr.w	r3, [r3, #144]	; 0x90
 800095a:	f04f 42b0 	mov.w	r2, #1476395008	; 0x58000000
 800095e:	f443 4300 	orr.w	r3, r3, #32768	; 0x8000
 8000962:	f8c2 3090 	str.w	r3, [r2, #144]	; 0x90
}
 8000966:	bf00      	nop
 8000968:	46bd      	mov	sp, r7
 800096a:	bc80      	pop	{r7}
 800096c:	4770      	bx	lr

0800096e <LL_AHB1_GRP1_EnableClock>:
{
 800096e:	b480      	push	{r7}
 8000970:	b085      	sub	sp, #20
 8000972:	af00      	add	r7, sp, #0
 8000974:	6078      	str	r0, [r7, #4]
  SET_BIT(RCC->AHB1ENR, Periphs);
 8000976:	f04f 43b0 	mov.w	r3, #1476395008	; 0x58000000
 800097a:	6c9a      	ldr	r2, [r3, #72]	; 0x48
 800097c:	f04f 41b0 	mov.w	r1, #1476395008	; 0x58000000
 8000980:	687b      	ldr	r3, [r7, #4]
 8000982:	4313      	orrs	r3, r2
 8000984:	648b      	str	r3, [r1, #72]	; 0x48
  tmpreg = READ_BIT(RCC->AHB1ENR, Periphs);
 8000986:	f04f 43b0 	mov.w	r3, #1476395008	; 0x58000000
 800098a:	6c9a      	ldr	r2, [r3, #72]	; 0x48
 800098c:	687b      	ldr	r3, [r7, #4]
 800098e:	4013      	ands	r3, r2
 8000990:	60fb      	str	r3, [r7, #12]
  (void)tmpreg;
 8000992:	68fb      	ldr	r3, [r7, #12]
}
 8000994:	bf00      	nop
 8000996:	3714      	adds	r7, #20
 8000998:	46bd      	mov	sp, r7
 800099a:	bc80      	pop	{r7}
 800099c:	4770      	bx	lr

0800099e <LL_AHB2_GRP1_EnableClock>:
{
 800099e:	b480      	push	{r7}
 80009a0:	b085      	sub	sp, #20
 80009a2:	af00      	add	r7, sp, #0
 80009a4:	6078      	str	r0, [r7, #4]
  SET_BIT(RCC->AHB2ENR, Periphs);
 80009a6:	f04f 43b0 	mov.w	r3, #1476395008	; 0x58000000
 80009aa:	6cda      	ldr	r2, [r3, #76]	; 0x4c
 80009ac:	f04f 41b0 	mov.w	r1, #1476395008	; 0x58000000
 80009b0:	687b      	ldr	r3, [r7, #4]
 80009b2:	4313      	orrs	r3, r2
 80009b4:	64cb      	str	r3, [r1, #76]	; 0x4c
  tmpreg = READ_BIT(RCC->AHB2ENR, Periphs);
 80009b6:	f04f 43b0 	mov.w	r3, #1476395008	; 0x58000000
 80009ba:	6cda      	ldr	r2, [r3, #76]	; 0x4c
 80009bc:	687b      	ldr	r3, [r7, #4]
 80009be:	4013      	ands	r3, r2
 80009c0:	60fb      	str	r3, [r7, #12]
  (void)tmpreg;
 80009c2:	68fb      	ldr	r3, [r7, #12]
}
 80009c4:	bf00      	nop
 80009c6:	3714      	adds	r7, #20
 80009c8:	46bd      	mov	sp, r7
 80009ca:	bc80      	pop	{r7}
 80009cc:	4770      	bx	lr

080009ce <LL_AHB3_GRP1_EnableClock>:
  *         @arg @ref LL_AHB3_GRP1_PERIPH_FLASH
  * @retval None
  */
#endif /* DUAL_CORE */
__STATIC_INLINE void LL_AHB3_GRP1_EnableClock(uint32_t Periphs)
{
 80009ce:	b480      	push	{r7}
 80009d0:	b085      	sub	sp, #20
 80009d2:	af00      	add	r7, sp, #0
 80009d4:	6078      	str	r0, [r7, #4]
  __IO uint32_t tmpreg;
  SET_BIT(RCC->AHB3ENR, Periphs);
 80009d6:	f04f 43b0 	mov.w	r3, #1476395008	; 0x58000000
 80009da:	6d1a      	ldr	r2, [r3, #80]	; 0x50
 80009dc:	f04f 41b0 	mov.w	r1, #1476395008	; 0x58000000
 80009e0:	687b      	ldr	r3, [r7, #4]
 80009e2:	4313      	orrs	r3, r2
 80009e4:	650b      	str	r3, [r1, #80]	; 0x50
  /* Delay after an RCC peripheral clock enabling */
  tmpreg = READ_BIT(RCC->AHB3ENR, Periphs);
 80009e6:	f04f 43b0 	mov.w	r3, #1476395008	; 0x58000000
 80009ea:	6d1a      	ldr	r2, [r3, #80]	; 0x50
 80009ec:	687b      	ldr	r3, [r7, #4]
 80009ee:	4013      	ands	r3, r2
 80009f0:	60fb      	str	r3, [r7, #12]
  (void)tmpreg;
 80009f2:	68fb      	ldr	r3, [r7, #12]
}
 80009f4:	bf00      	nop
 80009f6:	3714      	adds	r7, #20
 80009f8:	46bd      	mov	sp, r7
 80009fa:	bc80      	pop	{r7}
 80009fc:	4770      	bx	lr

080009fe <LL_AHB3_GRP1_DisableClock>:
  *         @arg @ref LL_AHB3_GRP1_PERIPH_FLASH
  * @retval None
  */
#endif /* DUAL_CORE */
__STATIC_INLINE void LL_AHB3_GRP1_DisableClock(uint32_t Periphs)
{
 80009fe:	b480      	push	{r7}
 8000a00:	b083      	sub	sp, #12
 8000a02:	af00      	add	r7, sp, #0
 8000a04:	6078      	str	r0, [r7, #4]
  CLEAR_BIT(RCC->AHB3ENR, Periphs);
 8000a06:	f04f 43b0 	mov.w	r3, #1476395008	; 0x58000000
 8000a0a:	6d1a      	ldr	r2, [r3, #80]	; 0x50
 8000a0c:	687b      	ldr	r3, [r7, #4]
 8000a0e:	43db      	mvns	r3, r3
 8000a10:	f04f 41b0 	mov.w	r1, #1476395008	; 0x58000000
 8000a14:	4013      	ands	r3, r2
 8000a16:	650b      	str	r3, [r1, #80]	; 0x50
}
 8000a18:	bf00      	nop
 8000a1a:	370c      	adds	r7, #12
 8000a1c:	46bd      	mov	sp, r7
 8000a1e:	bc80      	pop	{r7}
 8000a20:	4770      	bx	lr

08000a22 <LL_APB1_GRP1_EnableClock>:
  *         @arg @ref LL_APB1_GRP1_PERIPH_DAC
  *         @arg @ref LL_APB1_GRP1_PERIPH_LPTIM1
  * @retval None
  */
__STATIC_INLINE void LL_APB1_GRP1_EnableClock(uint32_t Periphs)
{
 8000a22:	b480      	push	{r7}
 8000a24:	b085      	sub	sp, #20
 8000a26:	af00      	add	r7, sp, #0
 8000a28:	6078      	str	r0, [r7, #4]
  __IO uint32_t tmpreg;
  SET_BIT(RCC->APB1ENR1, Periphs);
 8000a2a:	f04f 43b0 	mov.w	r3, #1476395008	; 0x58000000
 8000a2e:	6d9a      	ldr	r2, [r3, #88]	; 0x58
 8000a30:	f04f 41b0 	mov.w	r1, #1476395008	; 0x58000000
 8000a34:	687b      	ldr	r3, [r7, #4]
 8000a36:	4313      	orrs	r3, r2
 8000a38:	658b      	str	r3, [r1, #88]	; 0x58
  /* Delay after an RCC peripheral clock enabling */
  tmpreg = READ_BIT(RCC->APB1ENR1, Periphs);
 8000a3a:	f04f 43b0 	mov.w	r3, #1476395008	; 0x58000000
 8000a3e:	6d9a      	ldr	r2, [r3, #88]	; 0x58
 8000a40:	687b      	ldr	r3, [r7, #4]
 8000a42:	4013      	ands	r3, r2
 8000a44:	60fb      	str	r3, [r7, #12]
  (void)tmpreg;
 8000a46:	68fb      	ldr	r3, [r7, #12]
}
 8000a48:	bf00      	nop
 8000a4a:	3714      	adds	r7, #20
 8000a4c:	46bd      	mov	sp, r7
 8000a4e:	bc80      	pop	{r7}
 8000a50:	4770      	bx	lr

08000a52 <LL_APB2_GRP1_EnableClock>:
  *         @arg @ref LL_APB2_GRP1_PERIPH_TIM16
  *         @arg @ref LL_APB2_GRP1_PERIPH_TIM17
  * @retval None
  */
__STATIC_INLINE void LL_APB2_GRP1_EnableClock(uint32_t Periphs)
{
 8000a52:	b480      	push	{r7}
 8000a54:	b085      	sub	sp, #20
 8000a56:	af00      	add	r7, sp, #0
 8000a58:	6078      	str	r0, [r7, #4]
  __IO uint32_t tmpreg;
  SET_BIT(RCC->APB2ENR, Periphs);
 8000a5a:	f04f 43b0 	mov.w	r3, #1476395008	; 0x58000000
 8000a5e:	6e1a      	ldr	r2, [r3, #96]	; 0x60
 8000a60:	f04f 41b0 	mov.w	r1, #1476395008	; 0x58000000
 8000a64:	687b      	ldr	r3, [r7, #4]
 8000a66:	4313      	orrs	r3, r2
 8000a68:	660b      	str	r3, [r1, #96]	; 0x60
  /* Delay after an RCC peripheral clock enabling */
  tmpreg = READ_BIT(RCC->APB2ENR, Periphs);
 8000a6a:	f04f 43b0 	mov.w	r3, #1476395008	; 0x58000000
 8000a6e:	6e1a      	ldr	r2, [r3, #96]	; 0x60
 8000a70:	687b      	ldr	r3, [r7, #4]
 8000a72:	4013      	ands	r3, r2
 8000a74:	60fb      	str	r3, [r7, #12]
  (void)tmpreg;
 8000a76:	68fb      	ldr	r3, [r7, #12]
}
 8000a78:	bf00      	nop
 8000a7a:	3714      	adds	r7, #20
 8000a7c:	46bd      	mov	sp, r7
 8000a7e:	bc80      	pop	{r7}
 8000a80:	4770      	bx	lr

08000a82 <LL_APB2_GRP1_DisableClock>:
  *         @arg @ref LL_APB2_GRP1_PERIPH_TIM16
  *         @arg @ref LL_APB2_GRP1_PERIPH_TIM17
  * @retval None
  */
__STATIC_INLINE void LL_APB2_GRP1_DisableClock(uint32_t Periphs)
{
 8000a82:	b480      	push	{r7}
 8000a84:	b083      	sub	sp, #12
 8000a86:	af00      	add	r7, sp, #0
 8000a88:	6078      	str	r0, [r7, #4]
  CLEAR_BIT(RCC->APB2ENR, Periphs);
 8000a8a:	f04f 43b0 	mov.w	r3, #1476395008	; 0x58000000
 8000a8e:	6e1a      	ldr	r2, [r3, #96]	; 0x60
 8000a90:	687b      	ldr	r3, [r7, #4]
 8000a92:	43db      	mvns	r3, r3
 8000a94:	f04f 41b0 	mov.w	r1, #1476395008	; 0x58000000
 8000a98:	4013      	ands	r3, r2
 8000a9a:	660b      	str	r3, [r1, #96]	; 0x60
}
 8000a9c:	bf00      	nop
 8000a9e:	370c      	adds	r7, #12
 8000aa0:	46bd      	mov	sp, r7
 8000aa2:	bc80      	pop	{r7}
 8000aa4:	4770      	bx	lr

08000aa6 <LL_APB3_GRP1_EnableClock>:
  * @param  Periphs This parameter can be a combination of the following values:
  *         @arg @ref LL_APB3_GRP1_PERIPH_SUBGHZSPI
  * @retval None
  */
__STATIC_INLINE void LL_APB3_GRP1_EnableClock(uint32_t Periphs)
{
 8000aa6:	b480      	push	{r7}
 8000aa8:	b085      	sub	sp, #20
 8000aaa:	af00      	add	r7, sp, #0
 8000aac:	6078      	str	r0, [r7, #4]
  __IO uint32_t tmpreg;
  SET_BIT(RCC->APB3ENR, Periphs);
 8000aae:	f04f 43b0 	mov.w	r3, #1476395008	; 0x58000000
 8000ab2:	6e5a      	ldr	r2, [r3, #100]	; 0x64
 8000ab4:	f04f 41b0 	mov.w	r1, #1476395008	; 0x58000000
 8000ab8:	687b      	ldr	r3, [r7, #4]
 8000aba:	4313      	orrs	r3, r2
 8000abc:	664b      	str	r3, [r1, #100]	; 0x64
  /* Delay after an RCC peripheral clock enabling */
  tmpreg = READ_BIT(RCC->APB3ENR, Periphs);
 8000abe:	f04f 43b0 	mov.w	r3, #1476395008	; 0x58000000
 8000ac2:	6e5a      	ldr	r2, [r3, #100]	; 0x64
 8000ac4:	687b      	ldr	r3, [r7, #4]
 8000ac6:	4013      	ands	r3, r2
 8000ac8:	60fb      	str	r3, [r7, #12]
  (void)tmpreg;
 8000aca:	68fb      	ldr	r3, [r7, #12]
}
 8000acc:	bf00      	nop
 8000ace:	3714      	adds	r7, #20
 8000ad0:	46bd      	mov	sp, r7
 8000ad2:	bc80      	pop	{r7}
 8000ad4:	4770      	bx	lr

08000ad6 <HAL_MspInit>:
/* USER CODE END 0 */
/**
  * Initializes the Global MSP.
  */
void HAL_MspInit(void)
{
 8000ad6:	b480      	push	{r7}
 8000ad8:	af00      	add	r7, sp, #0
  /* System interrupt init*/

  /* USER CODE BEGIN MspInit 1 */

  /* USER CODE END MspInit 1 */
}
 8000ada:	bf00      	nop
 8000adc:	46bd      	mov	sp, r7
 8000ade:	bc80      	pop	{r7}
 8000ae0:	4770      	bx	lr
	...

08000ae4 <HAL_CRYP_MspInit>:
* This function configures the hardware resources used in this example
* @param hcryp: CRYP handle pointer
* @retval None
*/
void HAL_CRYP_MspInit(CRYP_HandleTypeDef* hcryp)
{
 8000ae4:	b580      	push	{r7, lr}
 8000ae6:	b082      	sub	sp, #8
 8000ae8:	af00      	add	r7, sp, #0
 8000aea:	6078      	str	r0, [r7, #4]
  if(hcryp->Instance==AES)
 8000aec:	687b      	ldr	r3, [r7, #4]
 8000aee:	681b      	ldr	r3, [r3, #0]
 8000af0:	4a05      	ldr	r2, [pc, #20]	; (8000b08 <HAL_CRYP_MspInit+0x24>)
 8000af2:	4293      	cmp	r3, r2
 8000af4:	d103      	bne.n	8000afe <HAL_CRYP_MspInit+0x1a>
  {
  /* USER CODE BEGIN AES_MspInit 0 */

  /* USER CODE END AES_MspInit 0 */
    /* Peripheral clock enable */
    __HAL_RCC_AES_CLK_ENABLE();
 8000af6:	f44f 3000 	mov.w	r0, #131072	; 0x20000
 8000afa:	f7ff ff68 	bl	80009ce <LL_AHB3_GRP1_EnableClock>
  /* USER CODE BEGIN AES_MspInit 1 */

  /* USER CODE END AES_MspInit 1 */
  }

}
 8000afe:	bf00      	nop
 8000b00:	3708      	adds	r7, #8
 8000b02:	46bd      	mov	sp, r7
 8000b04:	bd80      	pop	{r7, pc}
 8000b06:	bf00      	nop
 8000b08:	58001800 	.word	0x58001800

08000b0c <HAL_CRYP_MspDeInit>:
* This function freeze the hardware resources used in this example
* @param hcryp: CRYP handle pointer
* @retval None
*/
void HAL_CRYP_MspDeInit(CRYP_HandleTypeDef* hcryp)
{
 8000b0c:	b580      	push	{r7, lr}
 8000b0e:	b082      	sub	sp, #8
 8000b10:	af00      	add	r7, sp, #0
 8000b12:	6078      	str	r0, [r7, #4]
  if(hcryp->Instance==AES)
 8000b14:	687b      	ldr	r3, [r7, #4]
 8000b16:	681b      	ldr	r3, [r3, #0]
 8000b18:	4a05      	ldr	r2, [pc, #20]	; (8000b30 <HAL_CRYP_MspDeInit+0x24>)
 8000b1a:	4293      	cmp	r3, r2
 8000b1c:	d103      	bne.n	8000b26 <HAL_CRYP_MspDeInit+0x1a>
  {
  /* USER CODE BEGIN AES_MspDeInit 0 */

  /* USER CODE END AES_MspDeInit 0 */
    /* Peripheral clock disable */
    __HAL_RCC_AES_CLK_DISABLE();
 8000b1e:	f44f 3000 	mov.w	r0, #131072	; 0x20000
 8000b22:	f7ff ff6c 	bl	80009fe <LL_AHB3_GRP1_DisableClock>
  /* USER CODE BEGIN AES_MspDeInit 1 */

  /* USER CODE END AES_MspDeInit 1 */
  }

}
 8000b26:	bf00      	nop
 8000b28:	3708      	adds	r7, #8
 8000b2a:	46bd      	mov	sp, r7
 8000b2c:	bd80      	pop	{r7, pc}
 8000b2e:	bf00      	nop
 8000b30:	58001800 	.word	0x58001800

08000b34 <HAL_CRC_MspInit>:
* This function configures the hardware resources used in this example
* @param hcrc: CRC handle pointer
* @retval None
*/
void HAL_CRC_MspInit(CRC_HandleTypeDef* hcrc)
{
 8000b34:	b580      	push	{r7, lr}
 8000b36:	b082      	sub	sp, #8
 8000b38:	af00      	add	r7, sp, #0
 8000b3a:	6078      	str	r0, [r7, #4]
  if(hcrc->Instance==CRC)
 8000b3c:	687b      	ldr	r3, [r7, #4]
 8000b3e:	681b      	ldr	r3, [r3, #0]
 8000b40:	4a05      	ldr	r2, [pc, #20]	; (8000b58 <HAL_CRC_MspInit+0x24>)
 8000b42:	4293      	cmp	r3, r2
 8000b44:	d103      	bne.n	8000b4e <HAL_CRC_MspInit+0x1a>
  {
  /* USER CODE BEGIN CRC_MspInit 0 */

  /* USER CODE END CRC_MspInit 0 */
    /* Peripheral clock enable */
    __HAL_RCC_CRC_CLK_ENABLE();
 8000b46:	f44f 5080 	mov.w	r0, #4096	; 0x1000
 8000b4a:	f7ff ff10 	bl	800096e <LL_AHB1_GRP1_EnableClock>
  /* USER CODE BEGIN CRC_MspInit 1 */

  /* USER CODE END CRC_MspInit 1 */
  }

}
 8000b4e:	bf00      	nop
 8000b50:	3708      	adds	r7, #8
 8000b52:	46bd      	mov	sp, r7
 8000b54:	bd80      	pop	{r7, pc}
 8000b56:	bf00      	nop
 8000b58:	40023000 	.word	0x40023000

08000b5c <HAL_RTC_MspInit>:
* This function configures the hardware resources used in this example
* @param hrtc: RTC handle pointer
* @retval None
*/
void HAL_RTC_MspInit(RTC_HandleTypeDef* hrtc)
{
 8000b5c:	b580      	push	{r7, lr}
 8000b5e:	b090      	sub	sp, #64	; 0x40
 8000b60:	af00      	add	r7, sp, #0
 8000b62:	6078      	str	r0, [r7, #4]
  RCC_PeriphCLKInitTypeDef PeriphClkInitStruct = {0};
 8000b64:	f107 0308 	add.w	r3, r7, #8
 8000b68:	2238      	movs	r2, #56	; 0x38
 8000b6a:	2100      	movs	r1, #0
 8000b6c:	4618      	mov	r0, r3
 8000b6e:	f00c fde7 	bl	800d740 <memset>
  if(hrtc->Instance==RTC)
 8000b72:	687b      	ldr	r3, [r7, #4]
 8000b74:	681b      	ldr	r3, [r3, #0]
 8000b76:	4a16      	ldr	r2, [pc, #88]	; (8000bd0 <HAL_RTC_MspInit+0x74>)
 8000b78:	4293      	cmp	r3, r2
 8000b7a:	d125      	bne.n	8000bc8 <HAL_RTC_MspInit+0x6c>

  /* USER CODE END RTC_MspInit 0 */

  /** Initializes the peripherals clocks
  */
    PeriphClkInitStruct.PeriphClockSelection = RCC_PERIPHCLK_RTC;
 8000b7c:	f44f 3380 	mov.w	r3, #65536	; 0x10000
 8000b80:	60bb      	str	r3, [r7, #8]
    PeriphClkInitStruct.RTCClockSelection = RCC_RTCCLKSOURCE_LSE;
 8000b82:	f44f 7380 	mov.w	r3, #256	; 0x100
 8000b86:	63fb      	str	r3, [r7, #60]	; 0x3c

    if (HAL_RCCEx_PeriphCLKConfig(&PeriphClkInitStruct) != HAL_OK)
 8000b88:	f107 0308 	add.w	r3, r7, #8
 8000b8c:	4618      	mov	r0, r3
 8000b8e:	f004 fb8f 	bl	80052b0 <HAL_RCCEx_PeriphCLKConfig>
 8000b92:	4603      	mov	r3, r0
 8000b94:	2b00      	cmp	r3, #0
 8000b96:	d001      	beq.n	8000b9c <HAL_RTC_MspInit+0x40>
    {
      Error_Handler();
 8000b98:	f7ff fe98 	bl	80008cc <Error_Handler>
    }

    /* Peripheral clock enable */
    __HAL_RCC_RTC_ENABLE();
 8000b9c:	f7ff fed7 	bl	800094e <LL_RCC_EnableRTC>
    __HAL_RCC_RTCAPB_CLK_ENABLE();
 8000ba0:	f44f 6080 	mov.w	r0, #1024	; 0x400
 8000ba4:	f7ff ff3d 	bl	8000a22 <LL_APB1_GRP1_EnableClock>
    /* RTC interrupt Init */
    HAL_NVIC_SetPriority(TAMP_STAMP_LSECSS_SSRU_IRQn, 0, 0);
 8000ba8:	2200      	movs	r2, #0
 8000baa:	2100      	movs	r1, #0
 8000bac:	2002      	movs	r0, #2
 8000bae:	f000 ff1c 	bl	80019ea <HAL_NVIC_SetPriority>
    HAL_NVIC_EnableIRQ(TAMP_STAMP_LSECSS_SSRU_IRQn);
 8000bb2:	2002      	movs	r0, #2
 8000bb4:	f000 ff33 	bl	8001a1e <HAL_NVIC_EnableIRQ>
    HAL_NVIC_SetPriority(RTC_Alarm_IRQn, 0, 0);
 8000bb8:	2200      	movs	r2, #0
 8000bba:	2100      	movs	r1, #0
 8000bbc:	202a      	movs	r0, #42	; 0x2a
 8000bbe:	f000 ff14 	bl	80019ea <HAL_NVIC_SetPriority>
    HAL_NVIC_EnableIRQ(RTC_Alarm_IRQn);
 8000bc2:	202a      	movs	r0, #42	; 0x2a
 8000bc4:	f000 ff2b 	bl	8001a1e <HAL_NVIC_EnableIRQ>
  /* USER CODE BEGIN RTC_MspInit 1 */

  /* USER CODE END RTC_MspInit 1 */
  }

}
 8000bc8:	bf00      	nop
 8000bca:	3740      	adds	r7, #64	; 0x40
 8000bcc:	46bd      	mov	sp, r7
 8000bce:	bd80      	pop	{r7, pc}
 8000bd0:	40002800 	.word	0x40002800

08000bd4 <HAL_SUBGHZ_MspInit>:
* This function configures the hardware resources used in this example
* @param hsubghz: SUBGHZ handle pointer
* @retval None
*/
void HAL_SUBGHZ_MspInit(SUBGHZ_HandleTypeDef* hsubghz)
{
 8000bd4:	b580      	push	{r7, lr}
 8000bd6:	b082      	sub	sp, #8
 8000bd8:	af00      	add	r7, sp, #0
 8000bda:	6078      	str	r0, [r7, #4]
  /* USER CODE BEGIN SUBGHZ_MspInit 0 */

  /* USER CODE END SUBGHZ_MspInit 0 */
    /* Peripheral clock enable */
    __HAL_RCC_SUBGHZSPI_CLK_ENABLE();
 8000bdc:	2001      	movs	r0, #1
 8000bde:	f7ff ff62 	bl	8000aa6 <LL_APB3_GRP1_EnableClock>
    /* SUBGHZ interrupt Init */
    HAL_NVIC_SetPriority(SUBGHZ_Radio_IRQn, 0, 0);
 8000be2:	2200      	movs	r2, #0
 8000be4:	2100      	movs	r1, #0
 8000be6:	2032      	movs	r0, #50	; 0x32
 8000be8:	f000 feff 	bl	80019ea <HAL_NVIC_SetPriority>
    HAL_NVIC_EnableIRQ(SUBGHZ_Radio_IRQn);
 8000bec:	2032      	movs	r0, #50	; 0x32
 8000bee:	f000 ff16 	bl	8001a1e <HAL_NVIC_EnableIRQ>
  /* USER CODE BEGIN SUBGHZ_MspInit 1 */

  /* USER CODE END SUBGHZ_MspInit 1 */

}
 8000bf2:	bf00      	nop
 8000bf4:	3708      	adds	r7, #8
 8000bf6:	46bd      	mov	sp, r7
 8000bf8:	bd80      	pop	{r7, pc}
	...

08000bfc <HAL_UART_MspInit>:
* This function configures the hardware resources used in this example
* @param huart: UART handle pointer
* @retval None
*/
void HAL_UART_MspInit(UART_HandleTypeDef* huart)
{
 8000bfc:	b580      	push	{r7, lr}
 8000bfe:	b096      	sub	sp, #88	; 0x58
 8000c00:	af00      	add	r7, sp, #0
 8000c02:	6078      	str	r0, [r7, #4]
  GPIO_InitTypeDef GPIO_InitStruct = {0};
 8000c04:	f107 0344 	add.w	r3, r7, #68	; 0x44
 8000c08:	2200      	movs	r2, #0
 8000c0a:	601a      	str	r2, [r3, #0]
 8000c0c:	605a      	str	r2, [r3, #4]
 8000c0e:	609a      	str	r2, [r3, #8]
 8000c10:	60da      	str	r2, [r3, #12]
 8000c12:	611a      	str	r2, [r3, #16]
  RCC_PeriphCLKInitTypeDef PeriphClkInitStruct = {0};
 8000c14:	f107 030c 	add.w	r3, r7, #12
 8000c18:	2238      	movs	r2, #56	; 0x38
 8000c1a:	2100      	movs	r1, #0
 8000c1c:	4618      	mov	r0, r3
 8000c1e:	f00c fd8f 	bl	800d740 <memset>
  if(huart->Instance==USART1)
 8000c22:	687b      	ldr	r3, [r7, #4]
 8000c24:	681b      	ldr	r3, [r3, #0]
 8000c26:	4a2e      	ldr	r2, [pc, #184]	; (8000ce0 <HAL_UART_MspInit+0xe4>)
 8000c28:	4293      	cmp	r3, r2
 8000c2a:	d155      	bne.n	8000cd8 <HAL_UART_MspInit+0xdc>

  /* USER CODE END USART1_MspInit 0 */

  /** Initializes the peripherals clocks
  */
    PeriphClkInitStruct.PeriphClockSelection = RCC_PERIPHCLK_USART1;
 8000c2c:	2301      	movs	r3, #1
 8000c2e:	60fb      	str	r3, [r7, #12]
    PeriphClkInitStruct.Usart1ClockSelection = RCC_USART1CLKSOURCE_HSI;
 8000c30:	4b2c      	ldr	r3, [pc, #176]	; (8000ce4 <HAL_UART_MspInit+0xe8>)
 8000c32:	613b      	str	r3, [r7, #16]
    if (HAL_RCCEx_PeriphCLKConfig(&PeriphClkInitStruct) != HAL_OK)
 8000c34:	f107 030c 	add.w	r3, r7, #12
 8000c38:	4618      	mov	r0, r3
 8000c3a:	f004 fb39 	bl	80052b0 <HAL_RCCEx_PeriphCLKConfig>
 8000c3e:	4603      	mov	r3, r0
 8000c40:	2b00      	cmp	r3, #0
 8000c42:	d001      	beq.n	8000c48 <HAL_UART_MspInit+0x4c>
    {
      Error_Handler();
 8000c44:	f7ff fe42 	bl	80008cc <Error_Handler>
    }

    /* Peripheral clock enable */
    __HAL_RCC_USART1_CLK_ENABLE();
 8000c48:	f44f 4080 	mov.w	r0, #16384	; 0x4000
 8000c4c:	f7ff ff01 	bl	8000a52 <LL_APB2_GRP1_EnableClock>

    __HAL_RCC_GPIOB_CLK_ENABLE();
 8000c50:	2002      	movs	r0, #2
 8000c52:	f7ff fea4 	bl	800099e <LL_AHB2_GRP1_EnableClock>
    /**USART1 GPIO Configuration
    PB7     ------> USART1_RX
    PB6     ------> USART1_TX
    */
    GPIO_InitStruct.Pin = GPIO_PIN_7|GPIO_PIN_6;
 8000c56:	23c0      	movs	r3, #192	; 0xc0
 8000c58:	647b      	str	r3, [r7, #68]	; 0x44
    GPIO_InitStruct.Mode = GPIO_MODE_AF_PP;
 8000c5a:	2302      	movs	r3, #2
 8000c5c:	64bb      	str	r3, [r7, #72]	; 0x48
    GPIO_InitStruct.Pull = GPIO_NOPULL;
 8000c5e:	2300      	movs	r3, #0
 8000c60:	64fb      	str	r3, [r7, #76]	; 0x4c
    GPIO_InitStruct.Speed = GPIO_SPEED_FREQ_LOW;
 8000c62:	2300      	movs	r3, #0
 8000c64:	653b      	str	r3, [r7, #80]	; 0x50
    GPIO_InitStruct.Alternate = GPIO_AF7_USART1;
 8000c66:	2307      	movs	r3, #7
 8000c68:	657b      	str	r3, [r7, #84]	; 0x54
    HAL_GPIO_Init(GPIOB, &GPIO_InitStruct);
 8000c6a:	f107 0344 	add.w	r3, r7, #68	; 0x44
 8000c6e:	4619      	mov	r1, r3
 8000c70:	481d      	ldr	r0, [pc, #116]	; (8000ce8 <HAL_UART_MspInit+0xec>)
 8000c72:	f002 fe4d 	bl	8003910 <HAL_GPIO_Init>

    /* USART1 DMA Init */
    /* USART1_TX Init */
    hdma_usart1_tx.Instance = DMA1_Channel5;
 8000c76:	4b1d      	ldr	r3, [pc, #116]	; (8000cec <HAL_UART_MspInit+0xf0>)
 8000c78:	4a1d      	ldr	r2, [pc, #116]	; (8000cf0 <HAL_UART_MspInit+0xf4>)
 8000c7a:	601a      	str	r2, [r3, #0]
    hdma_usart1_tx.Init.Request = DMA_REQUEST_USART1_TX;
 8000c7c:	4b1b      	ldr	r3, [pc, #108]	; (8000cec <HAL_UART_MspInit+0xf0>)
 8000c7e:	2212      	movs	r2, #18
 8000c80:	605a      	str	r2, [r3, #4]
    hdma_usart1_tx.Init.Direction = DMA_MEMORY_TO_PERIPH;
 8000c82:	4b1a      	ldr	r3, [pc, #104]	; (8000cec <HAL_UART_MspInit+0xf0>)
 8000c84:	2210      	movs	r2, #16
 8000c86:	609a      	str	r2, [r3, #8]
    hdma_usart1_tx.Init.PeriphInc = DMA_PINC_DISABLE;
 8000c88:	4b18      	ldr	r3, [pc, #96]	; (8000cec <HAL_UART_MspInit+0xf0>)
 8000c8a:	2200      	movs	r2, #0
 8000c8c:	60da      	str	r2, [r3, #12]
    hdma_usart1_tx.Init.MemInc = DMA_MINC_ENABLE;
 8000c8e:	4b17      	ldr	r3, [pc, #92]	; (8000cec <HAL_UART_MspInit+0xf0>)
 8000c90:	2280      	movs	r2, #128	; 0x80
 8000c92:	611a      	str	r2, [r3, #16]
    hdma_usart1_tx.Init.PeriphDataAlignment = DMA_PDATAALIGN_BYTE;
 8000c94:	4b15      	ldr	r3, [pc, #84]	; (8000cec <HAL_UART_MspInit+0xf0>)
 8000c96:	2200      	movs	r2, #0
 8000c98:	615a      	str	r2, [r3, #20]
    hdma_usart1_tx.Init.MemDataAlignment = DMA_MDATAALIGN_BYTE;
 8000c9a:	4b14      	ldr	r3, [pc, #80]	; (8000cec <HAL_UART_MspInit+0xf0>)
 8000c9c:	2200      	movs	r2, #0
 8000c9e:	619a      	str	r2, [r3, #24]
    hdma_usart1_tx.Init.Mode = DMA_NORMAL;
 8000ca0:	4b12      	ldr	r3, [pc, #72]	; (8000cec <HAL_UART_MspInit+0xf0>)
 8000ca2:	2200      	movs	r2, #0
 8000ca4:	61da      	str	r2, [r3, #28]
    hdma_usart1_tx.Init.Priority = DMA_PRIORITY_LOW;
 8000ca6:	4b11      	ldr	r3, [pc, #68]	; (8000cec <HAL_UART_MspInit+0xf0>)
 8000ca8:	2200      	movs	r2, #0
 8000caa:	621a      	str	r2, [r3, #32]
    if (HAL_DMA_Init(&hdma_usart1_tx) != HAL_OK)
 8000cac:	480f      	ldr	r0, [pc, #60]	; (8000cec <HAL_UART_MspInit+0xf0>)
 8000cae:	f002 fa45 	bl	800313c <HAL_DMA_Init>
 8000cb2:	4603      	mov	r3, r0
 8000cb4:	2b00      	cmp	r3, #0
 8000cb6:	d001      	beq.n	8000cbc <HAL_UART_MspInit+0xc0>
    {
      Error_Handler();
 8000cb8:	f7ff fe08 	bl	80008cc <Error_Handler>
    }

    __HAL_LINKDMA(huart,hdmatx,hdma_usart1_tx);
 8000cbc:	687b      	ldr	r3, [r7, #4]
 8000cbe:	4a0b      	ldr	r2, [pc, #44]	; (8000cec <HAL_UART_MspInit+0xf0>)
 8000cc0:	679a      	str	r2, [r3, #120]	; 0x78
 8000cc2:	4a0a      	ldr	r2, [pc, #40]	; (8000cec <HAL_UART_MspInit+0xf0>)
 8000cc4:	687b      	ldr	r3, [r7, #4]
 8000cc6:	6293      	str	r3, [r2, #40]	; 0x28

    /* USART1 interrupt Init */
    HAL_NVIC_SetPriority(USART1_IRQn, 2, 0);
 8000cc8:	2200      	movs	r2, #0
 8000cca:	2102      	movs	r1, #2
 8000ccc:	2024      	movs	r0, #36	; 0x24
 8000cce:	f000 fe8c 	bl	80019ea <HAL_NVIC_SetPriority>
    HAL_NVIC_EnableIRQ(USART1_IRQn);
 8000cd2:	2024      	movs	r0, #36	; 0x24
 8000cd4:	f000 fea3 	bl	8001a1e <HAL_NVIC_EnableIRQ>
  /* USER CODE BEGIN USART1_MspInit 1 */

  /* USER CODE END USART1_MspInit 1 */
  }

}
 8000cd8:	bf00      	nop
 8000cda:	3758      	adds	r7, #88	; 0x58
 8000cdc:	46bd      	mov	sp, r7
 8000cde:	bd80      	pop	{r7, pc}
 8000ce0:	40013800 	.word	0x40013800
 8000ce4:	00030002 	.word	0x00030002
 8000ce8:	48000400 	.word	0x48000400
 8000cec:	2000023c 	.word	0x2000023c
 8000cf0:	40020058 	.word	0x40020058

08000cf4 <HAL_UART_MspDeInit>:
* This function freeze the hardware resources used in this example
* @param huart: UART handle pointer
* @retval None
*/
void HAL_UART_MspDeInit(UART_HandleTypeDef* huart)
{
 8000cf4:	b580      	push	{r7, lr}
 8000cf6:	b082      	sub	sp, #8
 8000cf8:	af00      	add	r7, sp, #0
 8000cfa:	6078      	str	r0, [r7, #4]
  if(huart->Instance==USART1)
 8000cfc:	687b      	ldr	r3, [r7, #4]
 8000cfe:	681b      	ldr	r3, [r3, #0]
 8000d00:	4a0b      	ldr	r2, [pc, #44]	; (8000d30 <HAL_UART_MspDeInit+0x3c>)
 8000d02:	4293      	cmp	r3, r2
 8000d04:	d10f      	bne.n	8000d26 <HAL_UART_MspDeInit+0x32>
  {
  /* USER CODE BEGIN USART1_MspDeInit 0 */

  /* USER CODE END USART1_MspDeInit 0 */
    /* Peripheral clock disable */
    __HAL_RCC_USART1_CLK_DISABLE();
 8000d06:	f44f 4080 	mov.w	r0, #16384	; 0x4000
 8000d0a:	f7ff feba 	bl	8000a82 <LL_APB2_GRP1_DisableClock>

    /**USART1 GPIO Configuration
    PB7     ------> USART1_RX
    PB6     ------> USART1_TX
    */
    HAL_GPIO_DeInit(GPIOB, GPIO_PIN_7|GPIO_PIN_6);
 8000d0e:	21c0      	movs	r1, #192	; 0xc0
 8000d10:	4808      	ldr	r0, [pc, #32]	; (8000d34 <HAL_UART_MspDeInit+0x40>)
 8000d12:	f002 ff5d 	bl	8003bd0 <HAL_GPIO_DeInit>

    /* USART1 DMA DeInit */
    HAL_DMA_DeInit(huart->hdmatx);
 8000d16:	687b      	ldr	r3, [r7, #4]
 8000d18:	6f9b      	ldr	r3, [r3, #120]	; 0x78
 8000d1a:	4618      	mov	r0, r3
 8000d1c:	f002 fab6 	bl	800328c <HAL_DMA_DeInit>

    /* USART1 interrupt DeInit */
    HAL_NVIC_DisableIRQ(USART1_IRQn);
 8000d20:	2024      	movs	r0, #36	; 0x24
 8000d22:	f000 fe8a 	bl	8001a3a <HAL_NVIC_DisableIRQ>
  /* USER CODE BEGIN USART1_MspDeInit 1 */

  /* USER CODE END USART1_MspDeInit 1 */
  }

}
 8000d26:	bf00      	nop
 8000d28:	3708      	adds	r7, #8
 8000d2a:	46bd      	mov	sp, r7
 8000d2c:	bd80      	pop	{r7, pc}
 8000d2e:	bf00      	nop
 8000d30:	40013800 	.word	0x40013800
 8000d34:	48000400 	.word	0x48000400

08000d38 <NMI_Handler>:
/******************************************************************************/
/**
  * @brief This function handles Non maskable interrupt.
  */
void NMI_Handler(void)
{
 8000d38:	b480      	push	{r7}
 8000d3a:	af00      	add	r7, sp, #0
  /* USER CODE BEGIN NonMaskableInt_IRQn 0 */

  /* USER CODE END NonMaskableInt_IRQn 0 */
  /* USER CODE BEGIN NonMaskableInt_IRQn 1 */
  while (1)
 8000d3c:	e7fe      	b.n	8000d3c <NMI_Handler+0x4>

08000d3e <HardFault_Handler>:

/**
  * @brief This function handles Hard fault interrupt.
  */
void HardFault_Handler(void)
{
 8000d3e:	b480      	push	{r7}
 8000d40:	af00      	add	r7, sp, #0
  /* USER CODE BEGIN HardFault_IRQn 0 */

  /* USER CODE END HardFault_IRQn 0 */
  while (1)
 8000d42:	e7fe      	b.n	8000d42 <HardFault_Handler+0x4>

08000d44 <MemManage_Handler>:

/**
  * @brief This function handles Memory management fault.
  */
void MemManage_Handler(void)
{
 8000d44:	b480      	push	{r7}
 8000d46:	af00      	add	r7, sp, #0
  /* USER CODE BEGIN MemoryManagement_IRQn 0 */

  /* USER CODE END MemoryManagement_IRQn 0 */
  while (1)
 8000d48:	e7fe      	b.n	8000d48 <MemManage_Handler+0x4>

08000d4a <BusFault_Handler>:

/**
  * @brief This function handles Prefetch fault, memory access fault.
  */
void BusFault_Handler(void)
{
 8000d4a:	b480      	push	{r7}
 8000d4c:	af00      	add	r7, sp, #0
  /* USER CODE BEGIN BusFault_IRQn 0 */

  /* USER CODE END BusFault_IRQn 0 */
  while (1)
 8000d4e:	e7fe      	b.n	8000d4e <BusFault_Handler+0x4>

08000d50 <UsageFault_Handler>:

/**
  * @brief This function handles Undefined instruction or illegal state.
  */
void UsageFault_Handler(void)
{
 8000d50:	b480      	push	{r7}
 8000d52:	af00      	add	r7, sp, #0
  /* USER CODE BEGIN UsageFault_IRQn 0 */

  /* USER CODE END UsageFault_IRQn 0 */
  while (1)
 8000d54:	e7fe      	b.n	8000d54 <UsageFault_Handler+0x4>

08000d56 <SVC_Handler>:

/**
  * @brief This function handles System service call via SWI instruction.
  */
void SVC_Handler(void)
{
 8000d56:	b480      	push	{r7}
 8000d58:	af00      	add	r7, sp, #0

  /* USER CODE END SVCall_IRQn 0 */
  /* USER CODE BEGIN SVCall_IRQn 1 */

  /* USER CODE END SVCall_IRQn 1 */
}
 8000d5a:	bf00      	nop
 8000d5c:	46bd      	mov	sp, r7
 8000d5e:	bc80      	pop	{r7}
 8000d60:	4770      	bx	lr

08000d62 <DebugMon_Handler>:

/**
  * @brief This function handles Debug monitor.
  */
void DebugMon_Handler(void)
{
 8000d62:	b480      	push	{r7}
 8000d64:	af00      	add	r7, sp, #0

  /* USER CODE END DebugMonitor_IRQn 0 */
  /* USER CODE BEGIN DebugMonitor_IRQn 1 */

  /* USER CODE END DebugMonitor_IRQn 1 */
}
 8000d66:	bf00      	nop
 8000d68:	46bd      	mov	sp, r7
 8000d6a:	bc80      	pop	{r7}
 8000d6c:	4770      	bx	lr

08000d6e <PendSV_Handler>:

/**
  * @brief This function handles Pendable request for system service.
  */
void PendSV_Handler(void)
{
 8000d6e:	b480      	push	{r7}
 8000d70:	af00      	add	r7, sp, #0

  /* USER CODE END PendSV_IRQn 0 */
  /* USER CODE BEGIN PendSV_IRQn 1 */

  /* USER CODE END PendSV_IRQn 1 */
}
 8000d72:	bf00      	nop
 8000d74:	46bd      	mov	sp, r7
 8000d76:	bc80      	pop	{r7}
 8000d78:	4770      	bx	lr

08000d7a <SysTick_Handler>:

/**
  * @brief This function handles System tick timer.
  */
void SysTick_Handler(void)
{
 8000d7a:	b580      	push	{r7, lr}
 8000d7c:	af00      	add	r7, sp, #0
  /* USER CODE BEGIN SysTick_IRQn 0 */

  /* USER CODE END SysTick_IRQn 0 */
  HAL_IncTick();
 8000d7e:	f000 fcf9 	bl	8001774 <HAL_IncTick>
  /* USER CODE BEGIN SysTick_IRQn 1 */

  /* USER CODE END SysTick_IRQn 1 */
}
 8000d82:	bf00      	nop
 8000d84:	bd80      	pop	{r7, pc}
	...

08000d88 <TAMP_STAMP_LSECSS_SSRU_IRQHandler>:

/**
  * @brief This function handles RTC Tamper, RTC TimeStamp, LSECSS and RTC SSRU Interrupts.
  */
void TAMP_STAMP_LSECSS_SSRU_IRQHandler(void)
{
 8000d88:	b580      	push	{r7, lr}
 8000d8a:	af00      	add	r7, sp, #0
  /* USER CODE BEGIN TAMP_STAMP_LSECSS_SSRU_IRQn 0 */

  /* USER CODE END TAMP_STAMP_LSECSS_SSRU_IRQn 0 */
  HAL_RTCEx_SSRUIRQHandler(&hrtc);
 8000d8c:	4802      	ldr	r0, [pc, #8]	; (8000d98 <TAMP_STAMP_LSECSS_SSRU_IRQHandler+0x10>)
 8000d8e:	f004 fedb 	bl	8005b48 <HAL_RTCEx_SSRUIRQHandler>
  /* USER CODE BEGIN TAMP_STAMP_LSECSS_SSRU_IRQn 1 */

  /* USER CODE END TAMP_STAMP_LSECSS_SSRU_IRQn 1 */
}
 8000d92:	bf00      	nop
 8000d94:	bd80      	pop	{r7, pc}
 8000d96:	bf00      	nop
 8000d98:	20000168 	.word	0x20000168

08000d9c <DMA1_Channel5_IRQHandler>:

/**
  * @brief This function handles DMA1 Channel 5 Interrupt.
  */
void DMA1_Channel5_IRQHandler(void)
{
 8000d9c:	b580      	push	{r7, lr}
 8000d9e:	af00      	add	r7, sp, #0
  /* USER CODE BEGIN DMA1_Channel5_IRQn 0 */

  /* USER CODE END DMA1_Channel5_IRQn 0 */
  HAL_DMA_IRQHandler(&hdma_usart1_tx);
 8000da0:	4802      	ldr	r0, [pc, #8]	; (8000dac <DMA1_Channel5_IRQHandler+0x10>)
 8000da2:	f002 fc45 	bl	8003630 <HAL_DMA_IRQHandler>
  /* USER CODE BEGIN DMA1_Channel5_IRQn 1 */

  /* USER CODE END DMA1_Channel5_IRQn 1 */
}
 8000da6:	bf00      	nop
 8000da8:	bd80      	pop	{r7, pc}
 8000daa:	bf00      	nop
 8000dac:	2000023c 	.word	0x2000023c

08000db0 <USART1_IRQHandler>:

/**
  * @brief This function handles USART1 Interrupt.
  */
void USART1_IRQHandler(void)
{
 8000db0:	b580      	push	{r7, lr}
 8000db2:	af00      	add	r7, sp, #0
  /* USER CODE BEGIN USART1_IRQn 0 */

  /* USER CODE END USART1_IRQn 0 */
  HAL_UART_IRQHandler(&huart1);
 8000db4:	4802      	ldr	r0, [pc, #8]	; (8000dc0 <USART1_IRQHandler+0x10>)
 8000db6:	f005 fd27 	bl	8006808 <HAL_UART_IRQHandler>
  /* USER CODE BEGIN USART1_IRQn 1 */

  /* USER CODE END USART1_IRQn 1 */
}
 8000dba:	bf00      	nop
 8000dbc:	bd80      	pop	{r7, pc}
 8000dbe:	bf00      	nop
 8000dc0:	200001ac 	.word	0x200001ac

08000dc4 <RTC_Alarm_IRQHandler>:

/**
  * @brief This function handles RTC Alarms (A and B) Interrupt.
  */
void RTC_Alarm_IRQHandler(void)
{
 8000dc4:	b580      	push	{r7, lr}
 8000dc6:	af00      	add	r7, sp, #0
  /* USER CODE BEGIN RTC_Alarm_IRQn 0 */

  /* USER CODE END RTC_Alarm_IRQn 0 */
  HAL_RTC_AlarmIRQHandler(&hrtc);
 8000dc8:	4802      	ldr	r0, [pc, #8]	; (8000dd4 <RTC_Alarm_IRQHandler+0x10>)
 8000dca:	f004 fd6d 	bl	80058a8 <HAL_RTC_AlarmIRQHandler>
  /* USER CODE BEGIN RTC_Alarm_IRQn 1 */

  /* USER CODE END RTC_Alarm_IRQn 1 */
}
 8000dce:	bf00      	nop
 8000dd0:	bd80      	pop	{r7, pc}
 8000dd2:	bf00      	nop
 8000dd4:	20000168 	.word	0x20000168

08000dd8 <SUBGHZ_Radio_IRQHandler>:

/**
  * @brief This function handles SUBGHZ Radio Interrupt.
  */
void SUBGHZ_Radio_IRQHandler(void)
{
 8000dd8:	b580      	push	{r7, lr}
 8000dda:	af00      	add	r7, sp, #0
  /* USER CODE BEGIN SUBGHZ_Radio_IRQn 0 */

  /* USER CODE END SUBGHZ_Radio_IRQn 0 */
  HAL_SUBGHZ_IRQHandler(&hsubghz);
 8000ddc:	4802      	ldr	r0, [pc, #8]	; (8000de8 <SUBGHZ_Radio_IRQHandler+0x10>)
 8000dde:	f005 fa1b 	bl	8006218 <HAL_SUBGHZ_IRQHandler>
  /* USER CODE BEGIN SUBGHZ_Radio_IRQn 1 */

  /* USER CODE END SUBGHZ_Radio_IRQn 1 */
}
 8000de2:	bf00      	nop
 8000de4:	bd80      	pop	{r7, pc}
 8000de6:	bf00      	nop
 8000de8:	200001a0 	.word	0x200001a0

08000dec <LL_RCC_SetClkAfterWakeFromStop>:
{
 8000dec:	b480      	push	{r7}
 8000dee:	b083      	sub	sp, #12
 8000df0:	af00      	add	r7, sp, #0
 8000df2:	6078      	str	r0, [r7, #4]
  MODIFY_REG(RCC->CFGR, RCC_CFGR_STOPWUCK, Clock);
 8000df4:	f04f 43b0 	mov.w	r3, #1476395008	; 0x58000000
 8000df8:	689b      	ldr	r3, [r3, #8]
 8000dfa:	f423 4200 	bic.w	r2, r3, #32768	; 0x8000
 8000dfe:	f04f 41b0 	mov.w	r1, #1476395008	; 0x58000000
 8000e02:	687b      	ldr	r3, [r7, #4]
 8000e04:	4313      	orrs	r3, r2
 8000e06:	608b      	str	r3, [r1, #8]
}
 8000e08:	bf00      	nop
 8000e0a:	370c      	adds	r7, #12
 8000e0c:	46bd      	mov	sp, r7
 8000e0e:	bc80      	pop	{r7}
 8000e10:	4770      	bx	lr
	...

08000e14 <SystemApp_Init>:

/* USER CODE END PFP */

/* Exported functions ---------------------------------------------------------*/
void SystemApp_Init(void)
{
 8000e14:	b580      	push	{r7, lr}
 8000e16:	af00      	add	r7, sp, #0
  /* USER CODE BEGIN SystemApp_Init_1 */

  /* USER CODE END SystemApp_Init_1 */

  /* Ensure that MSI is wake-up system clock */
  __HAL_RCC_WAKEUPSTOP_CLK_CONFIG(RCC_STOP_WAKEUPCLOCK_MSI);
 8000e18:	2000      	movs	r0, #0
 8000e1a:	f7ff ffe7 	bl	8000dec <LL_RCC_SetClkAfterWakeFromStop>

  /*Initialize timer and RTC*/
  UTIL_TIMER_Init();
 8000e1e:	f00b ff79 	bl	800cd14 <UTIL_TIMER_Init>
  SYS_TimerInitialisedFlag = 1;
 8000e22:	4b0c      	ldr	r3, [pc, #48]	; (8000e54 <SystemApp_Init+0x40>)
 8000e24:	2201      	movs	r2, #1
 8000e26:	701a      	strb	r2, [r3, #0]
  /* Initializes the SW probes pins and the monitor RF pins via Alternate Function */
  DBG_Init();
 8000e28:	f000 f898 	bl	8000f5c <DBG_Init>

  /*Initialize the terminal */
  UTIL_ADV_TRACE_Init();
 8000e2c:	f00c fa02 	bl	800d234 <UTIL_ADV_TRACE_Init>
  UTIL_ADV_TRACE_RegisterTimeStampFunction(TimestampNow);
 8000e30:	4809      	ldr	r0, [pc, #36]	; (8000e58 <SystemApp_Init+0x44>)
 8000e32:	f00c fa69 	bl	800d308 <UTIL_ADV_TRACE_RegisterTimeStampFunction>

  /*Set verbose LEVEL*/
  UTIL_ADV_TRACE_SetVerboseLevel(VERBOSE_LEVEL);
 8000e36:	2003      	movs	r0, #3
 8000e38:	f00c fa74 	bl	800d324 <UTIL_ADV_TRACE_SetVerboseLevel>

  /*Init low power manager*/
  UTIL_LPM_Init();
 8000e3c:	f00b fa1e 	bl	800c27c <UTIL_LPM_Init>
  /* Disable Stand-by mode */
  UTIL_LPM_SetOffMode((1 << CFG_LPM_APPLI_Id), UTIL_LPM_DISABLE);
 8000e40:	2101      	movs	r1, #1
 8000e42:	2001      	movs	r0, #1
 8000e44:	f00b fa5a 	bl	800c2fc <UTIL_LPM_SetOffMode>

#if defined (LOW_POWER_DISABLE) && (LOW_POWER_DISABLE == 1)
  /* Disable Stop Mode */
  UTIL_LPM_SetStopMode((1 << CFG_LPM_APPLI_Id), UTIL_LPM_DISABLE);
 8000e48:	2101      	movs	r1, #1
 8000e4a:	2001      	movs	r0, #1
 8000e4c:	f00b fa26 	bl	800c29c <UTIL_LPM_SetStopMode>
#endif /* LOW_POWER_DISABLE */

  /* USER CODE BEGIN SystemApp_Init_2 */

  /* USER CODE END SystemApp_Init_2 */
}
 8000e50:	bf00      	nop
 8000e52:	bd80      	pop	{r7, pc}
 8000e54:	2000029c 	.word	0x2000029c
 8000e58:	08000e69 	.word	0x08000e69

08000e5c <UTIL_SEQ_Idle>:

/**
  * @brief redefines __weak function in stm32_seq.c such to enter low power
  */
void UTIL_SEQ_Idle(void)
{
 8000e5c:	b580      	push	{r7, lr}
 8000e5e:	af00      	add	r7, sp, #0
  /* USER CODE BEGIN UTIL_SEQ_Idle_1 */

  /* USER CODE END UTIL_SEQ_Idle_1 */
  UTIL_LPM_EnterLowPower();
 8000e60:	f00b fa7c 	bl	800c35c <UTIL_LPM_EnterLowPower>
  /* USER CODE BEGIN UTIL_SEQ_Idle_2 */

  /* USER CODE END UTIL_SEQ_Idle_2 */
}
 8000e64:	bf00      	nop
 8000e66:	bd80      	pop	{r7, pc}

08000e68 <TimestampNow>:
/* USER CODE END EF */

/* Private functions ---------------------------------------------------------*/

static void TimestampNow(uint8_t *buff, uint16_t *size)
{
 8000e68:	b580      	push	{r7, lr}
 8000e6a:	b086      	sub	sp, #24
 8000e6c:	af02      	add	r7, sp, #8
 8000e6e:	6078      	str	r0, [r7, #4]
 8000e70:	6039      	str	r1, [r7, #0]
  /* USER CODE BEGIN TimestampNow_1 */

  /* USER CODE END TimestampNow_1 */
  SysTime_t curtime = SysTimeGet();
 8000e72:	f107 0308 	add.w	r3, r7, #8
 8000e76:	4618      	mov	r0, r3
 8000e78:	f00b fb1a 	bl	800c4b0 <SysTimeGet>
  tiny_snprintf_like((char *)buff, MAX_TS_SIZE, "%ds%03d:", curtime.Seconds, curtime.SubSeconds);
 8000e7c:	68bb      	ldr	r3, [r7, #8]
 8000e7e:	f9b7 200c 	ldrsh.w	r2, [r7, #12]
 8000e82:	9200      	str	r2, [sp, #0]
 8000e84:	4a07      	ldr	r2, [pc, #28]	; (8000ea4 <TimestampNow+0x3c>)
 8000e86:	2110      	movs	r1, #16
 8000e88:	6878      	ldr	r0, [r7, #4]
 8000e8a:	f000 f81d 	bl	8000ec8 <tiny_snprintf_like>
  *size = strlen((char *)buff);
 8000e8e:	6878      	ldr	r0, [r7, #4]
 8000e90:	f7ff f972 	bl	8000178 <strlen>
 8000e94:	4603      	mov	r3, r0
 8000e96:	b29a      	uxth	r2, r3
 8000e98:	683b      	ldr	r3, [r7, #0]
 8000e9a:	801a      	strh	r2, [r3, #0]
  /* USER CODE BEGIN TimestampNow_2 */

  /* USER CODE END TimestampNow_2 */
}
 8000e9c:	bf00      	nop
 8000e9e:	3710      	adds	r7, #16
 8000ea0:	46bd      	mov	sp, r7
 8000ea2:	bd80      	pop	{r7, pc}
 8000ea4:	0800d768 	.word	0x0800d768

08000ea8 <UTIL_ADV_TRACE_PreSendHook>:

/* Disable StopMode when traces need to be printed */
void UTIL_ADV_TRACE_PreSendHook(void)
{
 8000ea8:	b580      	push	{r7, lr}
 8000eaa:	af00      	add	r7, sp, #0
  /* USER CODE BEGIN UTIL_ADV_TRACE_PreSendHook_1 */

  /* USER CODE END UTIL_ADV_TRACE_PreSendHook_1 */
  UTIL_LPM_SetStopMode((1 << CFG_LPM_UART_TX_Id), UTIL_LPM_DISABLE);
 8000eac:	2101      	movs	r1, #1
 8000eae:	2002      	movs	r0, #2
 8000eb0:	f00b f9f4 	bl	800c29c <UTIL_LPM_SetStopMode>
  /* USER CODE BEGIN UTIL_ADV_TRACE_PreSendHook_2 */

  /* USER CODE END UTIL_ADV_TRACE_PreSendHook_2 */
}
 8000eb4:	bf00      	nop
 8000eb6:	bd80      	pop	{r7, pc}

08000eb8 <UTIL_ADV_TRACE_PostSendHook>:
/* Re-enable StopMode when traces have been printed */
void UTIL_ADV_TRACE_PostSendHook(void)
{
 8000eb8:	b580      	push	{r7, lr}
 8000eba:	af00      	add	r7, sp, #0
  /* USER CODE BEGIN UTIL_LPM_SetStopMode_1 */

  /* USER CODE END UTIL_LPM_SetStopMode_1 */
  UTIL_LPM_SetStopMode((1 << CFG_LPM_UART_TX_Id), UTIL_LPM_ENABLE);
 8000ebc:	2100      	movs	r1, #0
 8000ebe:	2002      	movs	r0, #2
 8000ec0:	f00b f9ec 	bl	800c29c <UTIL_LPM_SetStopMode>
  /* USER CODE BEGIN UTIL_LPM_SetStopMode_2 */

  /* USER CODE END UTIL_LPM_SetStopMode_2 */
}
 8000ec4:	bf00      	nop
 8000ec6:	bd80      	pop	{r7, pc}

08000ec8 <tiny_snprintf_like>:

static void tiny_snprintf_like(char *buf, uint32_t maxsize, const char *strFormat, ...)
{
 8000ec8:	b40c      	push	{r2, r3}
 8000eca:	b580      	push	{r7, lr}
 8000ecc:	b084      	sub	sp, #16
 8000ece:	af00      	add	r7, sp, #0
 8000ed0:	6078      	str	r0, [r7, #4]
 8000ed2:	6039      	str	r1, [r7, #0]
  /* USER CODE BEGIN tiny_snprintf_like_1 */

  /* USER CODE END tiny_snprintf_like_1 */
  va_list vaArgs;
  va_start(vaArgs, strFormat);
 8000ed4:	f107 031c 	add.w	r3, r7, #28
 8000ed8:	60fb      	str	r3, [r7, #12]
  UTIL_ADV_TRACE_VSNPRINTF(buf, maxsize, strFormat, vaArgs);
 8000eda:	6839      	ldr	r1, [r7, #0]
 8000edc:	68fb      	ldr	r3, [r7, #12]
 8000ede:	69ba      	ldr	r2, [r7, #24]
 8000ee0:	6878      	ldr	r0, [r7, #4]
 8000ee2:	f00b fc31 	bl	800c748 <tiny_vsnprintf_like>
  va_end(vaArgs);
  /* USER CODE BEGIN tiny_snprintf_like_2 */

  /* USER CODE END tiny_snprintf_like_2 */
}
 8000ee6:	bf00      	nop
 8000ee8:	3710      	adds	r7, #16
 8000eea:	46bd      	mov	sp, r7
 8000eec:	e8bd 4080 	ldmia.w	sp!, {r7, lr}
 8000ef0:	b002      	add	sp, #8
 8000ef2:	4770      	bx	lr

08000ef4 <HAL_GetTick>:

/**
  * @note This function overwrites the __weak one from HAL
  */
uint32_t HAL_GetTick(void)
{
 8000ef4:	b580      	push	{r7, lr}
 8000ef6:	b082      	sub	sp, #8
 8000ef8:	af00      	add	r7, sp, #0
  uint32_t ret = 0;
 8000efa:	2300      	movs	r3, #0
 8000efc:	607b      	str	r3, [r7, #4]
  /* TIMER_IF can be based on other counter the SysTick e.g. RTC */
  /* USER CODE BEGIN HAL_GetTick_1 */

  /* USER CODE END HAL_GetTick_1 */
  if (SYS_TimerInitialisedFlag == 0)
 8000efe:	4b06      	ldr	r3, [pc, #24]	; (8000f18 <HAL_GetTick+0x24>)
 8000f00:	781b      	ldrb	r3, [r3, #0]
 8000f02:	2b00      	cmp	r3, #0
 8000f04:	d002      	beq.n	8000f0c <HAL_GetTick+0x18>

    /* USER CODE END HAL_GetTick_EarlyCall */
  }
  else
  {
    ret = TIMER_IF_GetTimerValue();
 8000f06:	f000 f8f9 	bl	80010fc <TIMER_IF_GetTimerValue>
 8000f0a:	6078      	str	r0, [r7, #4]
  }
  /* USER CODE BEGIN HAL_GetTick_2 */

  /* USER CODE END HAL_GetTick_2 */
  return ret;
 8000f0c:	687b      	ldr	r3, [r7, #4]
}
 8000f0e:	4618      	mov	r0, r3
 8000f10:	3708      	adds	r7, #8
 8000f12:	46bd      	mov	sp, r7
 8000f14:	bd80      	pop	{r7, pc}
 8000f16:	bf00      	nop
 8000f18:	2000029c 	.word	0x2000029c

08000f1c <HAL_Delay>:

/**
  * @note This function overwrites the __weak one from HAL
  */
void HAL_Delay(__IO uint32_t Delay)
{
 8000f1c:	b580      	push	{r7, lr}
 8000f1e:	b082      	sub	sp, #8
 8000f20:	af00      	add	r7, sp, #0
 8000f22:	6078      	str	r0, [r7, #4]
  /* TIMER_IF can be based on other counter the SysTick e.g. RTC */
  /* USER CODE BEGIN HAL_Delay_1 */

  /* USER CODE END HAL_Delay_1 */
  TIMER_IF_DelayMs(Delay);
 8000f24:	687b      	ldr	r3, [r7, #4]
 8000f26:	4618      	mov	r0, r3
 8000f28:	f000 f96f 	bl	800120a <TIMER_IF_DelayMs>
  /* USER CODE BEGIN HAL_Delay_2 */

  /* USER CODE END HAL_Delay_2 */
}
 8000f2c:	bf00      	nop
 8000f2e:	3708      	adds	r7, #8
 8000f30:	46bd      	mov	sp, r7
 8000f32:	bd80      	pop	{r7, pc}

08000f34 <LL_EXTI_EnableIT_32_63>:
  *         @arg @ref LL_EXTI_LINE_ALL_32_63
  *         (*) value not defined in all devices
  * @retval None
  */
__STATIC_INLINE void LL_EXTI_EnableIT_32_63(uint32_t ExtiLine)
{
 8000f34:	b480      	push	{r7}
 8000f36:	b083      	sub	sp, #12
 8000f38:	af00      	add	r7, sp, #0
 8000f3a:	6078      	str	r0, [r7, #4]
  SET_BIT(EXTI->IMR2, ExtiLine);
 8000f3c:	4b06      	ldr	r3, [pc, #24]	; (8000f58 <LL_EXTI_EnableIT_32_63+0x24>)
 8000f3e:	f8d3 2090 	ldr.w	r2, [r3, #144]	; 0x90
 8000f42:	4905      	ldr	r1, [pc, #20]	; (8000f58 <LL_EXTI_EnableIT_32_63+0x24>)
 8000f44:	687b      	ldr	r3, [r7, #4]
 8000f46:	4313      	orrs	r3, r2
 8000f48:	f8c1 3090 	str.w	r3, [r1, #144]	; 0x90
}
 8000f4c:	bf00      	nop
 8000f4e:	370c      	adds	r7, #12
 8000f50:	46bd      	mov	sp, r7
 8000f52:	bc80      	pop	{r7}
 8000f54:	4770      	bx	lr
 8000f56:	bf00      	nop
 8000f58:	58000800 	.word	0x58000800

08000f5c <DBG_Init>:

/**
  * @brief Initializes the SW probes pins and the monitor RF pins via Alternate Function
  */
void DBG_Init(void)
{
 8000f5c:	b580      	push	{r7, lr}
 8000f5e:	af00      	add	r7, sp, #0
  HAL_DBGMCU_DisableDBGSleepMode();
  HAL_DBGMCU_DisableDBGStopMode();
  HAL_DBGMCU_DisableDBGStandbyMode();
#elif defined (DEBUGGER_ENABLED) && ( DEBUGGER_ENABLED == 1 )
  /*Debug power up request wakeup CBDGPWRUPREQ*/
  LL_EXTI_EnableIT_32_63(LL_EXTI_LINE_46);
 8000f60:	f44f 4080 	mov.w	r0, #16384	; 0x4000
 8000f64:	f7ff ffe6 	bl	8000f34 <LL_EXTI_EnableIT_32_63>
  /* Disabled HAL_DBGMCU_  */
  HAL_DBGMCU_EnableDBGSleepMode();
 8000f68:	f000 fc32 	bl	80017d0 <HAL_DBGMCU_EnableDBGSleepMode>
  HAL_DBGMCU_EnableDBGStopMode();
 8000f6c:	f000 fc36 	bl	80017dc <HAL_DBGMCU_EnableDBGStopMode>
  HAL_DBGMCU_EnableDBGStandbyMode();
 8000f70:	f000 fc3a 	bl	80017e8 <HAL_DBGMCU_EnableDBGStandbyMode>
#endif /* DEBUG_RF_BUSY_ENABLED */

  /* USER CODE BEGIN DBG_Init_3 */

  /* USER CODE END DBG_Init_3 */
}
 8000f74:	bf00      	nop
 8000f76:	bd80      	pop	{r7, pc}

08000f78 <SystemInit>:
  * @brief  Setup the microcontroller system.
  * @param  None
  * @retval None
  */
void SystemInit(void)
{
 8000f78:	b480      	push	{r7}
 8000f7a:	af00      	add	r7, sp, #0

  /* FPU settings ------------------------------------------------------------*/
#if (__FPU_PRESENT == 1) && (__FPU_USED == 1)
  SCB->CPACR |= ((3UL << (10UL*2UL))|(3UL << (11UL*2UL)));  /* set CP10 and CP11 Full Access */
#endif
}
 8000f7c:	bf00      	nop
 8000f7e:	46bd      	mov	sp, r7
 8000f80:	bc80      	pop	{r7}
 8000f82:	4770      	bx	lr

08000f84 <LL_RTC_TIME_GetSubSecond>:
  * @param  RTCx RTC Instance
  * @retval If binary mode is none, Value between Min_Data=0x0 and Max_Data=0x7FFF
  *         else Value between Min_Data=0x0 and Max_Data=0xFFFFFFFF
  */
__STATIC_INLINE uint32_t LL_RTC_TIME_GetSubSecond(RTC_TypeDef *RTCx)
{
 8000f84:	b480      	push	{r7}
 8000f86:	b083      	sub	sp, #12
 8000f88:	af00      	add	r7, sp, #0
 8000f8a:	6078      	str	r0, [r7, #4]
  return (uint32_t)(READ_BIT(RTCx->SSR, RTC_SSR_SS));
 8000f8c:	687b      	ldr	r3, [r7, #4]
 8000f8e:	689b      	ldr	r3, [r3, #8]
}
 8000f90:	4618      	mov	r0, r3
 8000f92:	370c      	adds	r7, #12
 8000f94:	46bd      	mov	sp, r7
 8000f96:	bc80      	pop	{r7}
 8000f98:	4770      	bx	lr
	...

08000f9c <TIMER_IF_Init>:

/* USER CODE END PFP */

/* Exported functions ---------------------------------------------------------*/
UTIL_TIMER_Status_t TIMER_IF_Init(void)
{
 8000f9c:	b580      	push	{r7, lr}
 8000f9e:	b082      	sub	sp, #8
 8000fa0:	af00      	add	r7, sp, #0
  UTIL_TIMER_Status_t ret = UTIL_TIMER_OK;
 8000fa2:	2300      	movs	r3, #0
 8000fa4:	71fb      	strb	r3, [r7, #7]
  /* USER CODE BEGIN TIMER_IF_Init */

  /* USER CODE END TIMER_IF_Init */
  if (RTC_Initialized == false)
 8000fa6:	4b14      	ldr	r3, [pc, #80]	; (8000ff8 <TIMER_IF_Init+0x5c>)
 8000fa8:	781b      	ldrb	r3, [r3, #0]
 8000faa:	f083 0301 	eor.w	r3, r3, #1
 8000fae:	b2db      	uxtb	r3, r3
 8000fb0:	2b00      	cmp	r3, #0
 8000fb2:	d01b      	beq.n	8000fec <TIMER_IF_Init+0x50>
  {
    hrtc.IsEnabled.RtcFeatures = UINT32_MAX;
 8000fb4:	4b11      	ldr	r3, [pc, #68]	; (8000ffc <TIMER_IF_Init+0x60>)
 8000fb6:	f04f 32ff 	mov.w	r2, #4294967295
 8000fba:	631a      	str	r2, [r3, #48]	; 0x30
    /*Init RTC*/
    MX_RTC_Init();
 8000fbc:	f7ff fb80 	bl	80006c0 <MX_RTC_Init>
    /*Stop Timer */
    TIMER_IF_StopTimer();
 8000fc0:	f000 f856 	bl	8001070 <TIMER_IF_StopTimer>
    /** DeActivate the Alarm A enabled by STM32CubeMX during MX_RTC_Init() */
    HAL_RTC_DeactivateAlarm(&hrtc, RTC_ALARM_A);
 8000fc4:	f44f 7180 	mov.w	r1, #256	; 0x100
 8000fc8:	480c      	ldr	r0, [pc, #48]	; (8000ffc <TIMER_IF_Init+0x60>)
 8000fca:	f004 fc11 	bl	80057f0 <HAL_RTC_DeactivateAlarm>
    /*overload RTC feature enable*/
    hrtc.IsEnabled.RtcFeatures = UINT32_MAX;
 8000fce:	4b0b      	ldr	r3, [pc, #44]	; (8000ffc <TIMER_IF_Init+0x60>)
 8000fd0:	f04f 32ff 	mov.w	r2, #4294967295
 8000fd4:	631a      	str	r2, [r3, #48]	; 0x30

    /*Enable Direct Read of the calendar registers (not through Shadow) */
    HAL_RTCEx_EnableBypassShadow(&hrtc);
 8000fd6:	4809      	ldr	r0, [pc, #36]	; (8000ffc <TIMER_IF_Init+0x60>)
 8000fd8:	f004 fd48 	bl	8005a6c <HAL_RTCEx_EnableBypassShadow>
    /*Initialize MSB ticks*/
    TIMER_IF_BkUp_Write_MSBticks(0);
 8000fdc:	2000      	movs	r0, #0
 8000fde:	f000 f9d3 	bl	8001388 <TIMER_IF_BkUp_Write_MSBticks>

    TIMER_IF_SetTimerContext();
 8000fe2:	f000 f85f 	bl	80010a4 <TIMER_IF_SetTimerContext>

    /* Register a task to associate to UTIL_TIMER_Irq() interrupt */
    UTIL_TIMER_IRQ_MAP_INIT();

    RTC_Initialized = true;
 8000fe6:	4b04      	ldr	r3, [pc, #16]	; (8000ff8 <TIMER_IF_Init+0x5c>)
 8000fe8:	2201      	movs	r2, #1
 8000fea:	701a      	strb	r2, [r3, #0]
  }

  /* USER CODE BEGIN TIMER_IF_Init_Last */

  /* USER CODE END TIMER_IF_Init_Last */
  return ret;
 8000fec:	79fb      	ldrb	r3, [r7, #7]
}
 8000fee:	4618      	mov	r0, r3
 8000ff0:	3708      	adds	r7, #8
 8000ff2:	46bd      	mov	sp, r7
 8000ff4:	bd80      	pop	{r7, pc}
 8000ff6:	bf00      	nop
 8000ff8:	2000029d 	.word	0x2000029d
 8000ffc:	20000168 	.word	0x20000168

08001000 <TIMER_IF_StartTimer>:

UTIL_TIMER_Status_t TIMER_IF_StartTimer(uint32_t timeout)
{
 8001000:	b580      	push	{r7, lr}
 8001002:	b08e      	sub	sp, #56	; 0x38
 8001004:	af00      	add	r7, sp, #0
 8001006:	6078      	str	r0, [r7, #4]
  UTIL_TIMER_Status_t ret = UTIL_TIMER_OK;
 8001008:	2300      	movs	r3, #0
 800100a:	f887 3037 	strb.w	r3, [r7, #55]	; 0x37
  /* USER CODE BEGIN TIMER_IF_StartTimer */

  /* USER CODE END TIMER_IF_StartTimer */
  RTC_AlarmTypeDef sAlarm = {0};
 800100e:	f107 0308 	add.w	r3, r7, #8
 8001012:	222c      	movs	r2, #44	; 0x2c
 8001014:	2100      	movs	r1, #0
 8001016:	4618      	mov	r0, r3
 8001018:	f00c fb92 	bl	800d740 <memset>
  /*Stop timer if one is already started*/
  TIMER_IF_StopTimer();
 800101c:	f000 f828 	bl	8001070 <TIMER_IF_StopTimer>
  timeout += RtcTimerContext;
 8001020:	4b11      	ldr	r3, [pc, #68]	; (8001068 <TIMER_IF_StartTimer+0x68>)
 8001022:	681b      	ldr	r3, [r3, #0]
 8001024:	687a      	ldr	r2, [r7, #4]
 8001026:	4413      	add	r3, r2
 8001028:	607b      	str	r3, [r7, #4]

  TIMER_IF_DBG_PRINTF("Start timer: time=%d, alarm=%d\n\r",  GetTimerTicks(), timeout);
  /* starts timer*/
  sAlarm.BinaryAutoClr = RTC_ALARMSUBSECONDBIN_AUTOCLR_NO;
 800102a:	2300      	movs	r3, #0
 800102c:	627b      	str	r3, [r7, #36]	; 0x24
  sAlarm.AlarmTime.SubSeconds = UINT32_MAX - timeout;
 800102e:	687b      	ldr	r3, [r7, #4]
 8001030:	43db      	mvns	r3, r3
 8001032:	60fb      	str	r3, [r7, #12]
  sAlarm.AlarmMask = RTC_ALARMMASK_NONE;
 8001034:	2300      	movs	r3, #0
 8001036:	61fb      	str	r3, [r7, #28]
  sAlarm.AlarmSubSecondMask = RTC_ALARMSUBSECONDBINMASK_NONE;
 8001038:	f04f 5300 	mov.w	r3, #536870912	; 0x20000000
 800103c:	623b      	str	r3, [r7, #32]
  sAlarm.Alarm = RTC_ALARM_A;
 800103e:	f44f 7380 	mov.w	r3, #256	; 0x100
 8001042:	633b      	str	r3, [r7, #48]	; 0x30
  if (HAL_RTC_SetAlarm_IT(&hrtc, &sAlarm, RTC_FORMAT_BCD) != HAL_OK)
 8001044:	f107 0308 	add.w	r3, r7, #8
 8001048:	2201      	movs	r2, #1
 800104a:	4619      	mov	r1, r3
 800104c:	4807      	ldr	r0, [pc, #28]	; (800106c <TIMER_IF_StartTimer+0x6c>)
 800104e:	f004 fac3 	bl	80055d8 <HAL_RTC_SetAlarm_IT>
 8001052:	4603      	mov	r3, r0
 8001054:	2b00      	cmp	r3, #0
 8001056:	d001      	beq.n	800105c <TIMER_IF_StartTimer+0x5c>
  {
    Error_Handler();
 8001058:	f7ff fc38 	bl	80008cc <Error_Handler>
  }
  /* USER CODE BEGIN TIMER_IF_StartTimer_Last */

  /* USER CODE END TIMER_IF_StartTimer_Last */
  return ret;
 800105c:	f897 3037 	ldrb.w	r3, [r7, #55]	; 0x37
}
 8001060:	4618      	mov	r0, r3
 8001062:	3738      	adds	r7, #56	; 0x38
 8001064:	46bd      	mov	sp, r7
 8001066:	bd80      	pop	{r7, pc}
 8001068:	200002a0 	.word	0x200002a0
 800106c:	20000168 	.word	0x20000168

08001070 <TIMER_IF_StopTimer>:

UTIL_TIMER_Status_t TIMER_IF_StopTimer(void)
{
 8001070:	b580      	push	{r7, lr}
 8001072:	b082      	sub	sp, #8
 8001074:	af00      	add	r7, sp, #0
  UTIL_TIMER_Status_t ret = UTIL_TIMER_OK;
 8001076:	2300      	movs	r3, #0
 8001078:	71fb      	strb	r3, [r7, #7]
  /* USER CODE BEGIN TIMER_IF_StopTimer */

  /* USER CODE END TIMER_IF_StopTimer */
  /* Clear RTC Alarm Flag */
  __HAL_RTC_ALARM_CLEAR_FLAG(&hrtc, RTC_FLAG_ALRAF);
 800107a:	4b08      	ldr	r3, [pc, #32]	; (800109c <TIMER_IF_StopTimer+0x2c>)
 800107c:	2201      	movs	r2, #1
 800107e:	65da      	str	r2, [r3, #92]	; 0x5c
  /* Disable the Alarm A interrupt */
  HAL_RTC_DeactivateAlarm(&hrtc, RTC_ALARM_A);
 8001080:	f44f 7180 	mov.w	r1, #256	; 0x100
 8001084:	4806      	ldr	r0, [pc, #24]	; (80010a0 <TIMER_IF_StopTimer+0x30>)
 8001086:	f004 fbb3 	bl	80057f0 <HAL_RTC_DeactivateAlarm>
  /*overload RTC feature enable*/
  hrtc.IsEnabled.RtcFeatures = UINT32_MAX;
 800108a:	4b05      	ldr	r3, [pc, #20]	; (80010a0 <TIMER_IF_StopTimer+0x30>)
 800108c:	f04f 32ff 	mov.w	r2, #4294967295
 8001090:	631a      	str	r2, [r3, #48]	; 0x30
  /* USER CODE BEGIN TIMER_IF_StopTimer_Last */

  /* USER CODE END TIMER_IF_StopTimer_Last */
  return ret;
 8001092:	79fb      	ldrb	r3, [r7, #7]
}
 8001094:	4618      	mov	r0, r3
 8001096:	3708      	adds	r7, #8
 8001098:	46bd      	mov	sp, r7
 800109a:	bd80      	pop	{r7, pc}
 800109c:	40002800 	.word	0x40002800
 80010a0:	20000168 	.word	0x20000168

080010a4 <TIMER_IF_SetTimerContext>:

uint32_t TIMER_IF_SetTimerContext(void)
{
 80010a4:	b580      	push	{r7, lr}
 80010a6:	af00      	add	r7, sp, #0
  /*store time context*/
  RtcTimerContext = GetTimerTicks();
 80010a8:	f000 f98e 	bl	80013c8 <GetTimerTicks>
 80010ac:	4603      	mov	r3, r0
 80010ae:	4a03      	ldr	r2, [pc, #12]	; (80010bc <TIMER_IF_SetTimerContext+0x18>)
 80010b0:	6013      	str	r3, [r2, #0]

  /* USER CODE END TIMER_IF_SetTimerContext */

  TIMER_IF_DBG_PRINTF("TIMER_IF_SetTimerContext=%d\n\r", RtcTimerContext);
  /*return time context*/
  return RtcTimerContext;
 80010b2:	4b02      	ldr	r3, [pc, #8]	; (80010bc <TIMER_IF_SetTimerContext+0x18>)
 80010b4:	681b      	ldr	r3, [r3, #0]
}
 80010b6:	4618      	mov	r0, r3
 80010b8:	bd80      	pop	{r7, pc}
 80010ba:	bf00      	nop
 80010bc:	200002a0 	.word	0x200002a0

080010c0 <TIMER_IF_GetTimerContext>:

uint32_t TIMER_IF_GetTimerContext(void)
{
 80010c0:	b480      	push	{r7}
 80010c2:	af00      	add	r7, sp, #0

  /* USER CODE END TIMER_IF_GetTimerContext */

  TIMER_IF_DBG_PRINTF("TIMER_IF_GetTimerContext=%d\n\r", RtcTimerContext);
  /*return time context*/
  return RtcTimerContext;
 80010c4:	4b02      	ldr	r3, [pc, #8]	; (80010d0 <TIMER_IF_GetTimerContext+0x10>)
 80010c6:	681b      	ldr	r3, [r3, #0]
}
 80010c8:	4618      	mov	r0, r3
 80010ca:	46bd      	mov	sp, r7
 80010cc:	bc80      	pop	{r7}
 80010ce:	4770      	bx	lr
 80010d0:	200002a0 	.word	0x200002a0

080010d4 <TIMER_IF_GetTimerElapsedTime>:

uint32_t TIMER_IF_GetTimerElapsedTime(void)
{
 80010d4:	b580      	push	{r7, lr}
 80010d6:	b082      	sub	sp, #8
 80010d8:	af00      	add	r7, sp, #0
  uint32_t ret = 0;
 80010da:	2300      	movs	r3, #0
 80010dc:	607b      	str	r3, [r7, #4]
  /* USER CODE BEGIN TIMER_IF_GetTimerElapsedTime */

  /* USER CODE END TIMER_IF_GetTimerElapsedTime */
  ret = ((uint32_t)(GetTimerTicks() - RtcTimerContext));
 80010de:	f000 f973 	bl	80013c8 <GetTimerTicks>
 80010e2:	4602      	mov	r2, r0
 80010e4:	4b04      	ldr	r3, [pc, #16]	; (80010f8 <TIMER_IF_GetTimerElapsedTime+0x24>)
 80010e6:	681b      	ldr	r3, [r3, #0]
 80010e8:	1ad3      	subs	r3, r2, r3
 80010ea:	607b      	str	r3, [r7, #4]
  /* USER CODE BEGIN TIMER_IF_GetTimerElapsedTime_Last */

  /* USER CODE END TIMER_IF_GetTimerElapsedTime_Last */
  return ret;
 80010ec:	687b      	ldr	r3, [r7, #4]
}
 80010ee:	4618      	mov	r0, r3
 80010f0:	3708      	adds	r7, #8
 80010f2:	46bd      	mov	sp, r7
 80010f4:	bd80      	pop	{r7, pc}
 80010f6:	bf00      	nop
 80010f8:	200002a0 	.word	0x200002a0

080010fc <TIMER_IF_GetTimerValue>:

uint32_t TIMER_IF_GetTimerValue(void)
{
 80010fc:	b580      	push	{r7, lr}
 80010fe:	b082      	sub	sp, #8
 8001100:	af00      	add	r7, sp, #0
  uint32_t ret = 0;
 8001102:	2300      	movs	r3, #0
 8001104:	607b      	str	r3, [r7, #4]
  /* USER CODE BEGIN TIMER_IF_GetTimerValue */

  /* USER CODE END TIMER_IF_GetTimerValue */
  if (RTC_Initialized == true)
 8001106:	4b06      	ldr	r3, [pc, #24]	; (8001120 <TIMER_IF_GetTimerValue+0x24>)
 8001108:	781b      	ldrb	r3, [r3, #0]
 800110a:	2b00      	cmp	r3, #0
 800110c:	d002      	beq.n	8001114 <TIMER_IF_GetTimerValue+0x18>
  {
    ret = GetTimerTicks();
 800110e:	f000 f95b 	bl	80013c8 <GetTimerTicks>
 8001112:	6078      	str	r0, [r7, #4]
  }
  /* USER CODE BEGIN TIMER_IF_GetTimerValue_Last */

  /* USER CODE END TIMER_IF_GetTimerValue_Last */
  return ret;
 8001114:	687b      	ldr	r3, [r7, #4]
}
 8001116:	4618      	mov	r0, r3
 8001118:	3708      	adds	r7, #8
 800111a:	46bd      	mov	sp, r7
 800111c:	bd80      	pop	{r7, pc}
 800111e:	bf00      	nop
 8001120:	2000029d 	.word	0x2000029d

08001124 <TIMER_IF_GetMinimumTimeout>:

uint32_t TIMER_IF_GetMinimumTimeout(void)
{
 8001124:	b480      	push	{r7}
 8001126:	b083      	sub	sp, #12
 8001128:	af00      	add	r7, sp, #0
  uint32_t ret = 0;
 800112a:	2300      	movs	r3, #0
 800112c:	607b      	str	r3, [r7, #4]
  /* USER CODE BEGIN TIMER_IF_GetMinimumTimeout */

  /* USER CODE END TIMER_IF_GetMinimumTimeout */
  ret = (MIN_ALARM_DELAY);
 800112e:	2303      	movs	r3, #3
 8001130:	607b      	str	r3, [r7, #4]
  /* USER CODE BEGIN TIMER_IF_GetMinimumTimeout_Last */

  /* USER CODE END TIMER_IF_GetMinimumTimeout_Last */
  return ret;
 8001132:	687b      	ldr	r3, [r7, #4]
}
 8001134:	4618      	mov	r0, r3
 8001136:	370c      	adds	r7, #12
 8001138:	46bd      	mov	sp, r7
 800113a:	bc80      	pop	{r7}
 800113c:	4770      	bx	lr

0800113e <TIMER_IF_Convert_ms2Tick>:

uint32_t TIMER_IF_Convert_ms2Tick(uint32_t timeMilliSec)
{
 800113e:	b5b0      	push	{r4, r5, r7, lr}
 8001140:	b084      	sub	sp, #16
 8001142:	af00      	add	r7, sp, #0
 8001144:	6078      	str	r0, [r7, #4]
  uint32_t ret = 0;
 8001146:	2100      	movs	r1, #0
 8001148:	60f9      	str	r1, [r7, #12]
  /* USER CODE BEGIN TIMER_IF_Convert_ms2Tick */

  /* USER CODE END TIMER_IF_Convert_ms2Tick */
  ret = ((uint32_t)((((uint64_t) timeMilliSec) << RTC_N_PREDIV_S) / 1000));
 800114a:	6879      	ldr	r1, [r7, #4]
 800114c:	2000      	movs	r0, #0
 800114e:	460a      	mov	r2, r1
 8001150:	4603      	mov	r3, r0
 8001152:	0d95      	lsrs	r5, r2, #22
 8001154:	0294      	lsls	r4, r2, #10
 8001156:	f44f 727a 	mov.w	r2, #1000	; 0x3e8
 800115a:	f04f 0300 	mov.w	r3, #0
 800115e:	4620      	mov	r0, r4
 8001160:	4629      	mov	r1, r5
 8001162:	f7ff f811 	bl	8000188 <__aeabi_uldivmod>
 8001166:	4602      	mov	r2, r0
 8001168:	460b      	mov	r3, r1
 800116a:	4613      	mov	r3, r2
 800116c:	60fb      	str	r3, [r7, #12]
  /* USER CODE BEGIN TIMER_IF_Convert_ms2Tick_Last */

  /* USER CODE END TIMER_IF_Convert_ms2Tick_Last */
  return ret;
 800116e:	68fb      	ldr	r3, [r7, #12]
}
 8001170:	4618      	mov	r0, r3
 8001172:	3710      	adds	r7, #16
 8001174:	46bd      	mov	sp, r7
 8001176:	bdb0      	pop	{r4, r5, r7, pc}

08001178 <TIMER_IF_Convert_Tick2ms>:

uint32_t TIMER_IF_Convert_Tick2ms(uint32_t tick)
{
 8001178:	e92d 0fb0 	stmdb	sp!, {r4, r5, r7, r8, r9, sl, fp}
 800117c:	b085      	sub	sp, #20
 800117e:	af00      	add	r7, sp, #0
 8001180:	6078      	str	r0, [r7, #4]
  uint32_t ret = 0;
 8001182:	2100      	movs	r1, #0
 8001184:	60f9      	str	r1, [r7, #12]
  /* USER CODE BEGIN TIMER_IF_Convert_Tick2ms */

  /* USER CODE END TIMER_IF_Convert_Tick2ms */
  ret = ((uint32_t)((((uint64_t)(tick)) * 1000) >> RTC_N_PREDIV_S));
 8001186:	6879      	ldr	r1, [r7, #4]
 8001188:	2000      	movs	r0, #0
 800118a:	460c      	mov	r4, r1
 800118c:	4605      	mov	r5, r0
 800118e:	4620      	mov	r0, r4
 8001190:	4629      	mov	r1, r5
 8001192:	f04f 0a00 	mov.w	sl, #0
 8001196:	f04f 0b00 	mov.w	fp, #0
 800119a:	ea4f 1b41 	mov.w	fp, r1, lsl #5
 800119e:	ea4b 6bd0 	orr.w	fp, fp, r0, lsr #27
 80011a2:	ea4f 1a40 	mov.w	sl, r0, lsl #5
 80011a6:	4650      	mov	r0, sl
 80011a8:	4659      	mov	r1, fp
 80011aa:	1b02      	subs	r2, r0, r4
 80011ac:	eb61 0305 	sbc.w	r3, r1, r5
 80011b0:	f04f 0000 	mov.w	r0, #0
 80011b4:	f04f 0100 	mov.w	r1, #0
 80011b8:	0099      	lsls	r1, r3, #2
 80011ba:	ea41 7192 	orr.w	r1, r1, r2, lsr #30
 80011be:	0090      	lsls	r0, r2, #2
 80011c0:	4602      	mov	r2, r0
 80011c2:	460b      	mov	r3, r1
 80011c4:	eb12 0804 	adds.w	r8, r2, r4
 80011c8:	eb43 0905 	adc.w	r9, r3, r5
 80011cc:	f04f 0200 	mov.w	r2, #0
 80011d0:	f04f 0300 	mov.w	r3, #0
 80011d4:	ea4f 03c9 	mov.w	r3, r9, lsl #3
 80011d8:	ea43 7358 	orr.w	r3, r3, r8, lsr #29
 80011dc:	ea4f 02c8 	mov.w	r2, r8, lsl #3
 80011e0:	4690      	mov	r8, r2
 80011e2:	4699      	mov	r9, r3
 80011e4:	4640      	mov	r0, r8
 80011e6:	4649      	mov	r1, r9
 80011e8:	f04f 0200 	mov.w	r2, #0
 80011ec:	f04f 0300 	mov.w	r3, #0
 80011f0:	0a82      	lsrs	r2, r0, #10
 80011f2:	ea42 5281 	orr.w	r2, r2, r1, lsl #22
 80011f6:	0a8b      	lsrs	r3, r1, #10
 80011f8:	4613      	mov	r3, r2
 80011fa:	60fb      	str	r3, [r7, #12]
  /* USER CODE BEGIN TIMER_IF_Convert_Tick2ms_Last */

  /* USER CODE END TIMER_IF_Convert_Tick2ms_Last */
  return ret;
 80011fc:	68fb      	ldr	r3, [r7, #12]
}
 80011fe:	4618      	mov	r0, r3
 8001200:	3714      	adds	r7, #20
 8001202:	46bd      	mov	sp, r7
 8001204:	e8bd 0fb0 	ldmia.w	sp!, {r4, r5, r7, r8, r9, sl, fp}
 8001208:	4770      	bx	lr

0800120a <TIMER_IF_DelayMs>:

void TIMER_IF_DelayMs(uint32_t delay)
{
 800120a:	b580      	push	{r7, lr}
 800120c:	b084      	sub	sp, #16
 800120e:	af00      	add	r7, sp, #0
 8001210:	6078      	str	r0, [r7, #4]
  /* USER CODE BEGIN TIMER_IF_DelayMs */

  /* USER CODE END TIMER_IF_DelayMs */
  uint32_t delayTicks = TIMER_IF_Convert_ms2Tick(delay);
 8001212:	6878      	ldr	r0, [r7, #4]
 8001214:	f7ff ff93 	bl	800113e <TIMER_IF_Convert_ms2Tick>
 8001218:	60f8      	str	r0, [r7, #12]
  uint32_t timeout = GetTimerTicks();
 800121a:	f000 f8d5 	bl	80013c8 <GetTimerTicks>
 800121e:	60b8      	str	r0, [r7, #8]

  /* Wait delay ms */
  while (((GetTimerTicks() - timeout)) < delayTicks)
 8001220:	e000      	b.n	8001224 <TIMER_IF_DelayMs+0x1a>
  {
    __NOP();
 8001222:	bf00      	nop
  while (((GetTimerTicks() - timeout)) < delayTicks)
 8001224:	f000 f8d0 	bl	80013c8 <GetTimerTicks>
 8001228:	4602      	mov	r2, r0
 800122a:	68bb      	ldr	r3, [r7, #8]
 800122c:	1ad3      	subs	r3, r2, r3
 800122e:	68fa      	ldr	r2, [r7, #12]
 8001230:	429a      	cmp	r2, r3
 8001232:	d8f6      	bhi.n	8001222 <TIMER_IF_DelayMs+0x18>
  }
  /* USER CODE BEGIN TIMER_IF_DelayMs_Last */

  /* USER CODE END TIMER_IF_DelayMs_Last */
}
 8001234:	bf00      	nop
 8001236:	bf00      	nop
 8001238:	3710      	adds	r7, #16
 800123a:	46bd      	mov	sp, r7
 800123c:	bd80      	pop	{r7, pc}

0800123e <HAL_RTC_AlarmAEventCallback>:

void HAL_RTC_AlarmAEventCallback(RTC_HandleTypeDef *hrtc)
{
 800123e:	b580      	push	{r7, lr}
 8001240:	b082      	sub	sp, #8
 8001242:	af00      	add	r7, sp, #0
 8001244:	6078      	str	r0, [r7, #4]
  /* USER CODE BEGIN HAL_RTC_AlarmAEventCallback */

  /* USER CODE END HAL_RTC_AlarmAEventCallback */
  UTIL_TIMER_IRQ_MAP_PROCESS();
 8001246:	f00b feb3 	bl	800cfb0 <UTIL_TIMER_IRQ_Handler>
  /* USER CODE BEGIN HAL_RTC_AlarmAEventCallback_Last */

  /* USER CODE END HAL_RTC_AlarmAEventCallback_Last */
}
 800124a:	bf00      	nop
 800124c:	3708      	adds	r7, #8
 800124e:	46bd      	mov	sp, r7
 8001250:	bd80      	pop	{r7, pc}

08001252 <HAL_RTCEx_SSRUEventCallback>:

void HAL_RTCEx_SSRUEventCallback(RTC_HandleTypeDef *hrtc)
{
 8001252:	b580      	push	{r7, lr}
 8001254:	b084      	sub	sp, #16
 8001256:	af00      	add	r7, sp, #0
 8001258:	6078      	str	r0, [r7, #4]

  /* USER CODE END HAL_RTCEx_SSRUEventCallback */
  /*called every 48 days with 1024 ticks per seconds*/
  TIMER_IF_DBG_PRINTF(">>Handler SSRUnderflow at %d\n\r", GetTimerTicks());
  /*Increment MSBticks*/
  uint32_t MSB_ticks = TIMER_IF_BkUp_Read_MSBticks();
 800125a:	f000 f8a5 	bl	80013a8 <TIMER_IF_BkUp_Read_MSBticks>
 800125e:	60f8      	str	r0, [r7, #12]
  TIMER_IF_BkUp_Write_MSBticks(MSB_ticks + 1);
 8001260:	68fb      	ldr	r3, [r7, #12]
 8001262:	3301      	adds	r3, #1
 8001264:	4618      	mov	r0, r3
 8001266:	f000 f88f 	bl	8001388 <TIMER_IF_BkUp_Write_MSBticks>
  /* USER CODE BEGIN HAL_RTCEx_SSRUEventCallback_Last */

  /* USER CODE END HAL_RTCEx_SSRUEventCallback_Last */
}
 800126a:	bf00      	nop
 800126c:	3710      	adds	r7, #16
 800126e:	46bd      	mov	sp, r7
 8001270:	bd80      	pop	{r7, pc}

08001272 <TIMER_IF_GetTime>:

uint32_t TIMER_IF_GetTime(uint16_t *mSeconds)
{
 8001272:	e92d 4fb0 	stmdb	sp!, {r4, r5, r7, r8, r9, sl, fp, lr}
 8001276:	b08c      	sub	sp, #48	; 0x30
 8001278:	af00      	add	r7, sp, #0
 800127a:	6178      	str	r0, [r7, #20]
  uint32_t seconds = 0;
 800127c:	2300      	movs	r3, #0
 800127e:	62fb      	str	r3, [r7, #44]	; 0x2c
  /* USER CODE BEGIN TIMER_IF_GetTime */

  /* USER CODE END TIMER_IF_GetTime */
  uint64_t ticks;
  uint32_t timerValueLsb = GetTimerTicks();
 8001280:	f000 f8a2 	bl	80013c8 <GetTimerTicks>
 8001284:	62b8      	str	r0, [r7, #40]	; 0x28
  uint32_t timerValueMSB = TIMER_IF_BkUp_Read_MSBticks();
 8001286:	f000 f88f 	bl	80013a8 <TIMER_IF_BkUp_Read_MSBticks>
 800128a:	6278      	str	r0, [r7, #36]	; 0x24

  ticks = (((uint64_t) timerValueMSB) << 32) + timerValueLsb;
 800128c:	6a7b      	ldr	r3, [r7, #36]	; 0x24
 800128e:	2200      	movs	r2, #0
 8001290:	60bb      	str	r3, [r7, #8]
 8001292:	60fa      	str	r2, [r7, #12]
 8001294:	f04f 0200 	mov.w	r2, #0
 8001298:	f04f 0300 	mov.w	r3, #0
 800129c:	68b9      	ldr	r1, [r7, #8]
 800129e:	000b      	movs	r3, r1
 80012a0:	2200      	movs	r2, #0
 80012a2:	6ab9      	ldr	r1, [r7, #40]	; 0x28
 80012a4:	2000      	movs	r0, #0
 80012a6:	460c      	mov	r4, r1
 80012a8:	4605      	mov	r5, r0
 80012aa:	eb12 0804 	adds.w	r8, r2, r4
 80012ae:	eb43 0905 	adc.w	r9, r3, r5
 80012b2:	e9c7 8906 	strd	r8, r9, [r7, #24]

  seconds = (uint32_t)(ticks >> RTC_N_PREDIV_S);
 80012b6:	e9d7 0106 	ldrd	r0, r1, [r7, #24]
 80012ba:	f04f 0200 	mov.w	r2, #0
 80012be:	f04f 0300 	mov.w	r3, #0
 80012c2:	0a82      	lsrs	r2, r0, #10
 80012c4:	ea42 5281 	orr.w	r2, r2, r1, lsl #22
 80012c8:	0a8b      	lsrs	r3, r1, #10
 80012ca:	4613      	mov	r3, r2
 80012cc:	62fb      	str	r3, [r7, #44]	; 0x2c

  ticks = (uint32_t) ticks & RTC_PREDIV_S;
 80012ce:	69bb      	ldr	r3, [r7, #24]
 80012d0:	2200      	movs	r2, #0
 80012d2:	603b      	str	r3, [r7, #0]
 80012d4:	607a      	str	r2, [r7, #4]
 80012d6:	683b      	ldr	r3, [r7, #0]
 80012d8:	f3c3 0a09 	ubfx	sl, r3, #0, #10
 80012dc:	f04f 0b00 	mov.w	fp, #0
 80012e0:	e9c7 ab06 	strd	sl, fp, [r7, #24]

  *mSeconds = TIMER_IF_Convert_Tick2ms(ticks);
 80012e4:	69bb      	ldr	r3, [r7, #24]
 80012e6:	4618      	mov	r0, r3
 80012e8:	f7ff ff46 	bl	8001178 <TIMER_IF_Convert_Tick2ms>
 80012ec:	4603      	mov	r3, r0
 80012ee:	b29a      	uxth	r2, r3
 80012f0:	697b      	ldr	r3, [r7, #20]
 80012f2:	801a      	strh	r2, [r3, #0]

  /* USER CODE BEGIN TIMER_IF_GetTime_Last */

  /* USER CODE END TIMER_IF_GetTime_Last */
  return seconds;
 80012f4:	6afb      	ldr	r3, [r7, #44]	; 0x2c
}
 80012f6:	4618      	mov	r0, r3
 80012f8:	3730      	adds	r7, #48	; 0x30
 80012fa:	46bd      	mov	sp, r7
 80012fc:	e8bd 8fb0 	ldmia.w	sp!, {r4, r5, r7, r8, r9, sl, fp, pc}

08001300 <TIMER_IF_BkUp_Write_Seconds>:

void TIMER_IF_BkUp_Write_Seconds(uint32_t Seconds)
{
 8001300:	b580      	push	{r7, lr}
 8001302:	b082      	sub	sp, #8
 8001304:	af00      	add	r7, sp, #0
 8001306:	6078      	str	r0, [r7, #4]
  /* USER CODE BEGIN TIMER_IF_BkUp_Write_Seconds */

  /* USER CODE END TIMER_IF_BkUp_Write_Seconds */
  HAL_RTCEx_BKUPWrite(&hrtc, RTC_BKP_SECONDS, Seconds);
 8001308:	687a      	ldr	r2, [r7, #4]
 800130a:	2100      	movs	r1, #0
 800130c:	4803      	ldr	r0, [pc, #12]	; (800131c <TIMER_IF_BkUp_Write_Seconds+0x1c>)
 800130e:	f004 fc3f 	bl	8005b90 <HAL_RTCEx_BKUPWrite>
  /* USER CODE BEGIN TIMER_IF_BkUp_Write_Seconds_Last */

  /* USER CODE END TIMER_IF_BkUp_Write_Seconds_Last */
}
 8001312:	bf00      	nop
 8001314:	3708      	adds	r7, #8
 8001316:	46bd      	mov	sp, r7
 8001318:	bd80      	pop	{r7, pc}
 800131a:	bf00      	nop
 800131c:	20000168 	.word	0x20000168

08001320 <TIMER_IF_BkUp_Write_SubSeconds>:

void TIMER_IF_BkUp_Write_SubSeconds(uint32_t SubSeconds)
{
 8001320:	b580      	push	{r7, lr}
 8001322:	b082      	sub	sp, #8
 8001324:	af00      	add	r7, sp, #0
 8001326:	6078      	str	r0, [r7, #4]
  /* USER CODE BEGIN TIMER_IF_BkUp_Write_SubSeconds */

  /* USER CODE END TIMER_IF_BkUp_Write_SubSeconds */
  HAL_RTCEx_BKUPWrite(&hrtc, RTC_BKP_SUBSECONDS, SubSeconds);
 8001328:	687a      	ldr	r2, [r7, #4]
 800132a:	2101      	movs	r1, #1
 800132c:	4803      	ldr	r0, [pc, #12]	; (800133c <TIMER_IF_BkUp_Write_SubSeconds+0x1c>)
 800132e:	f004 fc2f 	bl	8005b90 <HAL_RTCEx_BKUPWrite>
  /* USER CODE BEGIN TIMER_IF_BkUp_Write_SubSeconds_Last */

  /* USER CODE END TIMER_IF_BkUp_Write_SubSeconds_Last */
}
 8001332:	bf00      	nop
 8001334:	3708      	adds	r7, #8
 8001336:	46bd      	mov	sp, r7
 8001338:	bd80      	pop	{r7, pc}
 800133a:	bf00      	nop
 800133c:	20000168 	.word	0x20000168

08001340 <TIMER_IF_BkUp_Read_Seconds>:

uint32_t TIMER_IF_BkUp_Read_Seconds(void)
{
 8001340:	b580      	push	{r7, lr}
 8001342:	b082      	sub	sp, #8
 8001344:	af00      	add	r7, sp, #0
  uint32_t ret = 0;
 8001346:	2300      	movs	r3, #0
 8001348:	607b      	str	r3, [r7, #4]
  /* USER CODE BEGIN TIMER_IF_BkUp_Read_Seconds */

  /* USER CODE END TIMER_IF_BkUp_Read_Seconds */
  ret = HAL_RTCEx_BKUPRead(&hrtc, RTC_BKP_SECONDS);
 800134a:	2100      	movs	r1, #0
 800134c:	4804      	ldr	r0, [pc, #16]	; (8001360 <TIMER_IF_BkUp_Read_Seconds+0x20>)
 800134e:	f004 fc37 	bl	8005bc0 <HAL_RTCEx_BKUPRead>
 8001352:	6078      	str	r0, [r7, #4]
  /* USER CODE BEGIN TIMER_IF_BkUp_Read_Seconds_Last */

  /* USER CODE END TIMER_IF_BkUp_Read_Seconds_Last */
  return ret;
 8001354:	687b      	ldr	r3, [r7, #4]
}
 8001356:	4618      	mov	r0, r3
 8001358:	3708      	adds	r7, #8
 800135a:	46bd      	mov	sp, r7
 800135c:	bd80      	pop	{r7, pc}
 800135e:	bf00      	nop
 8001360:	20000168 	.word	0x20000168

08001364 <TIMER_IF_BkUp_Read_SubSeconds>:

uint32_t TIMER_IF_BkUp_Read_SubSeconds(void)
{
 8001364:	b580      	push	{r7, lr}
 8001366:	b082      	sub	sp, #8
 8001368:	af00      	add	r7, sp, #0
  uint32_t ret = 0;
 800136a:	2300      	movs	r3, #0
 800136c:	607b      	str	r3, [r7, #4]
  /* USER CODE BEGIN TIMER_IF_BkUp_Read_SubSeconds */

  /* USER CODE END TIMER_IF_BkUp_Read_SubSeconds */
  ret = HAL_RTCEx_BKUPRead(&hrtc, RTC_BKP_SUBSECONDS);
 800136e:	2101      	movs	r1, #1
 8001370:	4804      	ldr	r0, [pc, #16]	; (8001384 <TIMER_IF_BkUp_Read_SubSeconds+0x20>)
 8001372:	f004 fc25 	bl	8005bc0 <HAL_RTCEx_BKUPRead>
 8001376:	6078      	str	r0, [r7, #4]
  /* USER CODE BEGIN TIMER_IF_BkUp_Read_SubSeconds_Last */

  /* USER CODE END TIMER_IF_BkUp_Read_SubSeconds_Last */
  return ret;
 8001378:	687b      	ldr	r3, [r7, #4]
}
 800137a:	4618      	mov	r0, r3
 800137c:	3708      	adds	r7, #8
 800137e:	46bd      	mov	sp, r7
 8001380:	bd80      	pop	{r7, pc}
 8001382:	bf00      	nop
 8001384:	20000168 	.word	0x20000168

08001388 <TIMER_IF_BkUp_Write_MSBticks>:

/* USER CODE END EF */

/* Private functions ---------------------------------------------------------*/
static void TIMER_IF_BkUp_Write_MSBticks(uint32_t MSBticks)
{
 8001388:	b580      	push	{r7, lr}
 800138a:	b082      	sub	sp, #8
 800138c:	af00      	add	r7, sp, #0
 800138e:	6078      	str	r0, [r7, #4]
  /* USER CODE BEGIN TIMER_IF_BkUp_Write_MSBticks */

  /* USER CODE END TIMER_IF_BkUp_Write_MSBticks */
  HAL_RTCEx_BKUPWrite(&hrtc, RTC_BKP_MSBTICKS, MSBticks);
 8001390:	687a      	ldr	r2, [r7, #4]
 8001392:	2102      	movs	r1, #2
 8001394:	4803      	ldr	r0, [pc, #12]	; (80013a4 <TIMER_IF_BkUp_Write_MSBticks+0x1c>)
 8001396:	f004 fbfb 	bl	8005b90 <HAL_RTCEx_BKUPWrite>
  /* USER CODE BEGIN TIMER_IF_BkUp_Write_MSBticks_Last */

  /* USER CODE END TIMER_IF_BkUp_Write_MSBticks_Last */
}
 800139a:	bf00      	nop
 800139c:	3708      	adds	r7, #8
 800139e:	46bd      	mov	sp, r7
 80013a0:	bd80      	pop	{r7, pc}
 80013a2:	bf00      	nop
 80013a4:	20000168 	.word	0x20000168

080013a8 <TIMER_IF_BkUp_Read_MSBticks>:

static uint32_t TIMER_IF_BkUp_Read_MSBticks(void)
{
 80013a8:	b580      	push	{r7, lr}
 80013aa:	b082      	sub	sp, #8
 80013ac:	af00      	add	r7, sp, #0
  /* USER CODE BEGIN TIMER_IF_BkUp_Read_MSBticks */

  /* USER CODE END TIMER_IF_BkUp_Read_MSBticks */
  uint32_t MSBticks;
  MSBticks = HAL_RTCEx_BKUPRead(&hrtc, RTC_BKP_MSBTICKS);
 80013ae:	2102      	movs	r1, #2
 80013b0:	4804      	ldr	r0, [pc, #16]	; (80013c4 <TIMER_IF_BkUp_Read_MSBticks+0x1c>)
 80013b2:	f004 fc05 	bl	8005bc0 <HAL_RTCEx_BKUPRead>
 80013b6:	6078      	str	r0, [r7, #4]
  return MSBticks;
 80013b8:	687b      	ldr	r3, [r7, #4]
  /* USER CODE BEGIN TIMER_IF_BkUp_Read_MSBticks_Last */

  /* USER CODE END TIMER_IF_BkUp_Read_MSBticks_Last */
}
 80013ba:	4618      	mov	r0, r3
 80013bc:	3708      	adds	r7, #8
 80013be:	46bd      	mov	sp, r7
 80013c0:	bd80      	pop	{r7, pc}
 80013c2:	bf00      	nop
 80013c4:	20000168 	.word	0x20000168

080013c8 <GetTimerTicks>:

static inline uint32_t GetTimerTicks(void)
{
 80013c8:	b580      	push	{r7, lr}
 80013ca:	b082      	sub	sp, #8
 80013cc:	af00      	add	r7, sp, #0
  /* USER CODE BEGIN GetTimerTicks */

  /* USER CODE END GetTimerTicks */
  uint32_t ssr = LL_RTC_TIME_GetSubSecond(RTC);
 80013ce:	480b      	ldr	r0, [pc, #44]	; (80013fc <GetTimerTicks+0x34>)
 80013d0:	f7ff fdd8 	bl	8000f84 <LL_RTC_TIME_GetSubSecond>
 80013d4:	6078      	str	r0, [r7, #4]
  /* read twice to make sure value it valid*/
  while (ssr != LL_RTC_TIME_GetSubSecond(RTC))
 80013d6:	e003      	b.n	80013e0 <GetTimerTicks+0x18>
  {
    ssr = LL_RTC_TIME_GetSubSecond(RTC);
 80013d8:	4808      	ldr	r0, [pc, #32]	; (80013fc <GetTimerTicks+0x34>)
 80013da:	f7ff fdd3 	bl	8000f84 <LL_RTC_TIME_GetSubSecond>
 80013de:	6078      	str	r0, [r7, #4]
  while (ssr != LL_RTC_TIME_GetSubSecond(RTC))
 80013e0:	4806      	ldr	r0, [pc, #24]	; (80013fc <GetTimerTicks+0x34>)
 80013e2:	f7ff fdcf 	bl	8000f84 <LL_RTC_TIME_GetSubSecond>
 80013e6:	4602      	mov	r2, r0
 80013e8:	687b      	ldr	r3, [r7, #4]
 80013ea:	4293      	cmp	r3, r2
 80013ec:	d1f4      	bne.n	80013d8 <GetTimerTicks+0x10>
  }
  return UINT32_MAX - ssr;
 80013ee:	687b      	ldr	r3, [r7, #4]
 80013f0:	43db      	mvns	r3, r3
  /* USER CODE BEGIN GetTimerTicks_Last */

  /* USER CODE END GetTimerTicks_Last */
}
 80013f2:	4618      	mov	r0, r3
 80013f4:	3708      	adds	r7, #8
 80013f6:	46bd      	mov	sp, r7
 80013f8:	bd80      	pop	{r7, pc}
 80013fa:	bf00      	nop
 80013fc:	40002800 	.word	0x40002800

08001400 <LL_APB2_GRP1_ForceReset>:
{
 8001400:	b480      	push	{r7}
 8001402:	b083      	sub	sp, #12
 8001404:	af00      	add	r7, sp, #0
 8001406:	6078      	str	r0, [r7, #4]
  SET_BIT(RCC->APB2RSTR, Periphs);
 8001408:	f04f 43b0 	mov.w	r3, #1476395008	; 0x58000000
 800140c:	6c1a      	ldr	r2, [r3, #64]	; 0x40
 800140e:	f04f 41b0 	mov.w	r1, #1476395008	; 0x58000000
 8001412:	687b      	ldr	r3, [r7, #4]
 8001414:	4313      	orrs	r3, r2
 8001416:	640b      	str	r3, [r1, #64]	; 0x40
}
 8001418:	bf00      	nop
 800141a:	370c      	adds	r7, #12
 800141c:	46bd      	mov	sp, r7
 800141e:	bc80      	pop	{r7}
 8001420:	4770      	bx	lr

08001422 <LL_APB2_GRP1_ReleaseReset>:
{
 8001422:	b480      	push	{r7}
 8001424:	b083      	sub	sp, #12
 8001426:	af00      	add	r7, sp, #0
 8001428:	6078      	str	r0, [r7, #4]
  CLEAR_BIT(RCC->APB2RSTR, Periphs);
 800142a:	f04f 43b0 	mov.w	r3, #1476395008	; 0x58000000
 800142e:	6c1a      	ldr	r2, [r3, #64]	; 0x40
 8001430:	687b      	ldr	r3, [r7, #4]
 8001432:	43db      	mvns	r3, r3
 8001434:	f04f 41b0 	mov.w	r1, #1476395008	; 0x58000000
 8001438:	4013      	ands	r3, r2
 800143a:	640b      	str	r3, [r1, #64]	; 0x40
}
 800143c:	bf00      	nop
 800143e:	370c      	adds	r7, #12
 8001440:	46bd      	mov	sp, r7
 8001442:	bc80      	pop	{r7}
 8001444:	4770      	bx	lr
	...

08001448 <LL_EXTI_EnableIT_0_31>:
{
 8001448:	b480      	push	{r7}
 800144a:	b083      	sub	sp, #12
 800144c:	af00      	add	r7, sp, #0
 800144e:	6078      	str	r0, [r7, #4]
  SET_BIT(EXTI->IMR1, ExtiLine);
 8001450:	4b06      	ldr	r3, [pc, #24]	; (800146c <LL_EXTI_EnableIT_0_31+0x24>)
 8001452:	f8d3 2080 	ldr.w	r2, [r3, #128]	; 0x80
 8001456:	4905      	ldr	r1, [pc, #20]	; (800146c <LL_EXTI_EnableIT_0_31+0x24>)
 8001458:	687b      	ldr	r3, [r7, #4]
 800145a:	4313      	orrs	r3, r2
 800145c:	f8c1 3080 	str.w	r3, [r1, #128]	; 0x80
}
 8001460:	bf00      	nop
 8001462:	370c      	adds	r7, #12
 8001464:	46bd      	mov	sp, r7
 8001466:	bc80      	pop	{r7}
 8001468:	4770      	bx	lr
 800146a:	bf00      	nop
 800146c:	58000800 	.word	0x58000800

08001470 <vcom_Init>:
/* USER CODE END PFP */

/* Exported functions --------------------------------------------------------*/

UTIL_ADV_TRACE_Status_t vcom_Init(void (*cb)(void *))
{
 8001470:	b580      	push	{r7, lr}
 8001472:	b082      	sub	sp, #8
 8001474:	af00      	add	r7, sp, #0
 8001476:	6078      	str	r0, [r7, #4]
  /* USER CODE BEGIN vcom_Init_1 */

  /* USER CODE END vcom_Init_1 */
  TxCpltCallback = cb;
 8001478:	4a07      	ldr	r2, [pc, #28]	; (8001498 <vcom_Init+0x28>)
 800147a:	687b      	ldr	r3, [r7, #4]
 800147c:	6013      	str	r3, [r2, #0]
  MX_DMA_Init();
 800147e:	f7ff f9cf 	bl	8000820 <MX_DMA_Init>
  MX_USART1_UART_Init();
 8001482:	f7ff f981 	bl	8000788 <MX_USART1_UART_Init>
  LL_EXTI_EnableIT_0_31(LL_EXTI_LINE_26);
 8001486:	f04f 6080 	mov.w	r0, #67108864	; 0x4000000
 800148a:	f7ff ffdd 	bl	8001448 <LL_EXTI_EnableIT_0_31>
  return UTIL_ADV_TRACE_OK;
 800148e:	2300      	movs	r3, #0
  /* USER CODE BEGIN vcom_Init_2 */

  /* USER CODE END vcom_Init_2 */
}
 8001490:	4618      	mov	r0, r3
 8001492:	3708      	adds	r7, #8
 8001494:	46bd      	mov	sp, r7
 8001496:	bd80      	pop	{r7, pc}
 8001498:	200002a8 	.word	0x200002a8

0800149c <vcom_DeInit>:

UTIL_ADV_TRACE_Status_t vcom_DeInit(void)
{
 800149c:	b580      	push	{r7, lr}
 800149e:	af00      	add	r7, sp, #0
  /* USER CODE BEGIN vcom_DeInit_1 */

  /* USER CODE END vcom_DeInit_1 */
  /* ##-1- Reset peripherals ################################################## */
  __HAL_RCC_USART1_FORCE_RESET();
 80014a0:	f44f 4080 	mov.w	r0, #16384	; 0x4000
 80014a4:	f7ff ffac 	bl	8001400 <LL_APB2_GRP1_ForceReset>
  __HAL_RCC_USART1_RELEASE_RESET();
 80014a8:	f44f 4080 	mov.w	r0, #16384	; 0x4000
 80014ac:	f7ff ffb9 	bl	8001422 <LL_APB2_GRP1_ReleaseReset>

  /* ##-2- MspDeInit ################################################## */
  HAL_UART_MspDeInit(&huart1);
 80014b0:	4804      	ldr	r0, [pc, #16]	; (80014c4 <vcom_DeInit+0x28>)
 80014b2:	f7ff fc1f 	bl	8000cf4 <HAL_UART_MspDeInit>

  /* ##-3- Disable the NVIC for DMA ########################################### */
  /* USER CODE BEGIN 1 */
  HAL_NVIC_DisableIRQ(DMA1_Channel5_IRQn);
 80014b6:	200f      	movs	r0, #15
 80014b8:	f000 fabf 	bl	8001a3a <HAL_NVIC_DisableIRQ>

  return UTIL_ADV_TRACE_OK;
 80014bc:	2300      	movs	r3, #0
  /* USER CODE END 1 */
  /* USER CODE BEGIN vcom_DeInit_2 */

  /* USER CODE END vcom_DeInit_2 */
}
 80014be:	4618      	mov	r0, r3
 80014c0:	bd80      	pop	{r7, pc}
 80014c2:	bf00      	nop
 80014c4:	200001ac 	.word	0x200001ac

080014c8 <vcom_Trace_DMA>:

  /* USER CODE END vcom_Trace_2 */
}

UTIL_ADV_TRACE_Status_t vcom_Trace_DMA(uint8_t *p_data, uint16_t size)
{
 80014c8:	b580      	push	{r7, lr}
 80014ca:	b082      	sub	sp, #8
 80014cc:	af00      	add	r7, sp, #0
 80014ce:	6078      	str	r0, [r7, #4]
 80014d0:	460b      	mov	r3, r1
 80014d2:	807b      	strh	r3, [r7, #2]
  /* USER CODE BEGIN vcom_Trace_DMA_1 */

  /* USER CODE END vcom_Trace_DMA_1 */
  HAL_UART_Transmit_DMA(&huart1, p_data, size);
 80014d4:	887b      	ldrh	r3, [r7, #2]
 80014d6:	461a      	mov	r2, r3
 80014d8:	6879      	ldr	r1, [r7, #4]
 80014da:	4804      	ldr	r0, [pc, #16]	; (80014ec <vcom_Trace_DMA+0x24>)
 80014dc:	f005 f902 	bl	80066e4 <HAL_UART_Transmit_DMA>
  return UTIL_ADV_TRACE_OK;
 80014e0:	2300      	movs	r3, #0
  /* USER CODE BEGIN vcom_Trace_DMA_2 */

  /* USER CODE END vcom_Trace_DMA_2 */
}
 80014e2:	4618      	mov	r0, r3
 80014e4:	3708      	adds	r7, #8
 80014e6:	46bd      	mov	sp, r7
 80014e8:	bd80      	pop	{r7, pc}
 80014ea:	bf00      	nop
 80014ec:	200001ac 	.word	0x200001ac

080014f0 <vcom_ReceiveInit>:

UTIL_ADV_TRACE_Status_t vcom_ReceiveInit(void (*RxCb)(uint8_t *rxChar, uint16_t size, uint8_t error))
{
 80014f0:	b580      	push	{r7, lr}
 80014f2:	b084      	sub	sp, #16
 80014f4:	af00      	add	r7, sp, #0
 80014f6:	6078      	str	r0, [r7, #4]

  /* USER CODE END vcom_ReceiveInit_1 */
  UART_WakeUpTypeDef WakeUpSelection;

  /*record call back*/
  RxCpltCallback = RxCb;
 80014f8:	4a19      	ldr	r2, [pc, #100]	; (8001560 <vcom_ReceiveInit+0x70>)
 80014fa:	687b      	ldr	r3, [r7, #4]
 80014fc:	6013      	str	r3, [r2, #0]

  /*Set wakeUp event on start bit*/
  WakeUpSelection.WakeUpEvent = UART_WAKEUP_ON_STARTBIT;
 80014fe:	f44f 1300 	mov.w	r3, #2097152	; 0x200000
 8001502:	60bb      	str	r3, [r7, #8]

  HAL_UARTEx_StopModeWakeUpSourceConfig(&huart1, WakeUpSelection);
 8001504:	f107 0308 	add.w	r3, r7, #8
 8001508:	e893 0006 	ldmia.w	r3, {r1, r2}
 800150c:	4815      	ldr	r0, [pc, #84]	; (8001564 <vcom_ReceiveInit+0x74>)
 800150e:	f006 fffa 	bl	8008506 <HAL_UARTEx_StopModeWakeUpSourceConfig>

  /* Make sure that no UART transfer is on-going */
  while (__HAL_UART_GET_FLAG(&huart1, USART_ISR_BUSY) == SET);
 8001512:	bf00      	nop
 8001514:	4b13      	ldr	r3, [pc, #76]	; (8001564 <vcom_ReceiveInit+0x74>)
 8001516:	681b      	ldr	r3, [r3, #0]
 8001518:	69db      	ldr	r3, [r3, #28]
 800151a:	f403 3380 	and.w	r3, r3, #65536	; 0x10000
 800151e:	f5b3 3f80 	cmp.w	r3, #65536	; 0x10000
 8001522:	d0f7      	beq.n	8001514 <vcom_ReceiveInit+0x24>

  /* Make sure that UART is ready to receive)   */
  while (__HAL_UART_GET_FLAG(&huart1, USART_ISR_REACK) == RESET);
 8001524:	bf00      	nop
 8001526:	4b0f      	ldr	r3, [pc, #60]	; (8001564 <vcom_ReceiveInit+0x74>)
 8001528:	681b      	ldr	r3, [r3, #0]
 800152a:	69db      	ldr	r3, [r3, #28]
 800152c:	f403 0380 	and.w	r3, r3, #4194304	; 0x400000
 8001530:	f5b3 0f80 	cmp.w	r3, #4194304	; 0x400000
 8001534:	d1f7      	bne.n	8001526 <vcom_ReceiveInit+0x36>

  /* Enable USART interrupt */
  __HAL_UART_ENABLE_IT(&huart1, UART_IT_WUF);
 8001536:	4b0b      	ldr	r3, [pc, #44]	; (8001564 <vcom_ReceiveInit+0x74>)
 8001538:	681b      	ldr	r3, [r3, #0]
 800153a:	689a      	ldr	r2, [r3, #8]
 800153c:	4b09      	ldr	r3, [pc, #36]	; (8001564 <vcom_ReceiveInit+0x74>)
 800153e:	681b      	ldr	r3, [r3, #0]
 8001540:	f442 0280 	orr.w	r2, r2, #4194304	; 0x400000
 8001544:	609a      	str	r2, [r3, #8]

  /*Enable wakeup from stop mode*/
  HAL_UARTEx_EnableStopMode(&huart1);
 8001546:	4807      	ldr	r0, [pc, #28]	; (8001564 <vcom_ReceiveInit+0x74>)
 8001548:	f007 f838 	bl	80085bc <HAL_UARTEx_EnableStopMode>

  /*Start LPUART receive on IT*/
  HAL_UART_Receive_IT(&huart1, &charRx, 1);
 800154c:	2201      	movs	r2, #1
 800154e:	4906      	ldr	r1, [pc, #24]	; (8001568 <vcom_ReceiveInit+0x78>)
 8001550:	4804      	ldr	r0, [pc, #16]	; (8001564 <vcom_ReceiveInit+0x74>)
 8001552:	f005 f871 	bl	8006638 <HAL_UART_Receive_IT>

  return UTIL_ADV_TRACE_OK;
 8001556:	2300      	movs	r3, #0
  /* USER CODE BEGIN vcom_ReceiveInit_2 */

  /* USER CODE END vcom_ReceiveInit_2 */
}
 8001558:	4618      	mov	r0, r3
 800155a:	3710      	adds	r7, #16
 800155c:	46bd      	mov	sp, r7
 800155e:	bd80      	pop	{r7, pc}
 8001560:	200002ac 	.word	0x200002ac
 8001564:	200001ac 	.word	0x200001ac
 8001568:	200002a4 	.word	0x200002a4

0800156c <vcom_Resume>:

void vcom_Resume(void)
{
 800156c:	b580      	push	{r7, lr}
 800156e:	af00      	add	r7, sp, #0
  /* USER CODE BEGIN vcom_Resume_1 */

  /* USER CODE END vcom_Resume_1 */
  /*to re-enable lost UART settings*/
  if (HAL_UART_Init(&huart1) != HAL_OK)
 8001570:	4808      	ldr	r0, [pc, #32]	; (8001594 <vcom_Resume+0x28>)
 8001572:	f005 f810 	bl	8006596 <HAL_UART_Init>
 8001576:	4603      	mov	r3, r0
 8001578:	2b00      	cmp	r3, #0
 800157a:	d001      	beq.n	8001580 <vcom_Resume+0x14>
  {
    Error_Handler();
 800157c:	f7ff f9a6 	bl	80008cc <Error_Handler>
  }

  /*to re-enable lost DMA settings*/
  if (HAL_DMA_Init(&hdma_usart1_tx) != HAL_OK)
 8001580:	4805      	ldr	r0, [pc, #20]	; (8001598 <vcom_Resume+0x2c>)
 8001582:	f001 fddb 	bl	800313c <HAL_DMA_Init>
 8001586:	4603      	mov	r3, r0
 8001588:	2b00      	cmp	r3, #0
 800158a:	d001      	beq.n	8001590 <vcom_Resume+0x24>
  {
    Error_Handler();
 800158c:	f7ff f99e 	bl	80008cc <Error_Handler>
  }
  /* USER CODE BEGIN vcom_Resume_2 */

  /* USER CODE END vcom_Resume_2 */
}
 8001590:	bf00      	nop
 8001592:	bd80      	pop	{r7, pc}
 8001594:	200001ac 	.word	0x200001ac
 8001598:	2000023c 	.word	0x2000023c

0800159c <HAL_UART_TxCpltCallback>:

void HAL_UART_TxCpltCallback(UART_HandleTypeDef *huart)
{
 800159c:	b580      	push	{r7, lr}
 800159e:	b082      	sub	sp, #8
 80015a0:	af00      	add	r7, sp, #0
 80015a2:	6078      	str	r0, [r7, #4]
  /* USER CODE BEGIN HAL_UART_TxCpltCallback_1 */

  /* USER CODE END HAL_UART_TxCpltCallback_1 */
  /* buffer transmission complete*/
  if (huart->Instance == USART1)
 80015a4:	687b      	ldr	r3, [r7, #4]
 80015a6:	681b      	ldr	r3, [r3, #0]
 80015a8:	4a05      	ldr	r2, [pc, #20]	; (80015c0 <HAL_UART_TxCpltCallback+0x24>)
 80015aa:	4293      	cmp	r3, r2
 80015ac:	d103      	bne.n	80015b6 <HAL_UART_TxCpltCallback+0x1a>
  {
    TxCpltCallback(NULL);
 80015ae:	4b05      	ldr	r3, [pc, #20]	; (80015c4 <HAL_UART_TxCpltCallback+0x28>)
 80015b0:	681b      	ldr	r3, [r3, #0]
 80015b2:	2000      	movs	r0, #0
 80015b4:	4798      	blx	r3
  }
  /* USER CODE BEGIN HAL_UART_TxCpltCallback_2 */

  /* USER CODE END HAL_UART_TxCpltCallback_2 */
}
 80015b6:	bf00      	nop
 80015b8:	3708      	adds	r7, #8
 80015ba:	46bd      	mov	sp, r7
 80015bc:	bd80      	pop	{r7, pc}
 80015be:	bf00      	nop
 80015c0:	40013800 	.word	0x40013800
 80015c4:	200002a8 	.word	0x200002a8

080015c8 <HAL_UART_RxCpltCallback>:

void HAL_UART_RxCpltCallback(UART_HandleTypeDef *huart)
{
 80015c8:	b580      	push	{r7, lr}
 80015ca:	b082      	sub	sp, #8
 80015cc:	af00      	add	r7, sp, #0
 80015ce:	6078      	str	r0, [r7, #4]
  /* USER CODE BEGIN HAL_UART_RxCpltCallback_1 */

  /* USER CODE END HAL_UART_RxCpltCallback_1 */
  if (huart->Instance == USART1)
 80015d0:	687b      	ldr	r3, [r7, #4]
 80015d2:	681b      	ldr	r3, [r3, #0]
 80015d4:	4a0d      	ldr	r2, [pc, #52]	; (800160c <HAL_UART_RxCpltCallback+0x44>)
 80015d6:	4293      	cmp	r3, r2
 80015d8:	d113      	bne.n	8001602 <HAL_UART_RxCpltCallback+0x3a>
  {
    if ((NULL != RxCpltCallback) && (HAL_UART_ERROR_NONE == huart->ErrorCode))
 80015da:	4b0d      	ldr	r3, [pc, #52]	; (8001610 <HAL_UART_RxCpltCallback+0x48>)
 80015dc:	681b      	ldr	r3, [r3, #0]
 80015de:	2b00      	cmp	r3, #0
 80015e0:	d00a      	beq.n	80015f8 <HAL_UART_RxCpltCallback+0x30>
 80015e2:	687b      	ldr	r3, [r7, #4]
 80015e4:	f8d3 308c 	ldr.w	r3, [r3, #140]	; 0x8c
 80015e8:	2b00      	cmp	r3, #0
 80015ea:	d105      	bne.n	80015f8 <HAL_UART_RxCpltCallback+0x30>
    {
      RxCpltCallback(&charRx, 1, 0);
 80015ec:	4b08      	ldr	r3, [pc, #32]	; (8001610 <HAL_UART_RxCpltCallback+0x48>)
 80015ee:	681b      	ldr	r3, [r3, #0]
 80015f0:	2200      	movs	r2, #0
 80015f2:	2101      	movs	r1, #1
 80015f4:	4807      	ldr	r0, [pc, #28]	; (8001614 <HAL_UART_RxCpltCallback+0x4c>)
 80015f6:	4798      	blx	r3
    }
    HAL_UART_Receive_IT(huart, &charRx, 1);
 80015f8:	2201      	movs	r2, #1
 80015fa:	4906      	ldr	r1, [pc, #24]	; (8001614 <HAL_UART_RxCpltCallback+0x4c>)
 80015fc:	6878      	ldr	r0, [r7, #4]
 80015fe:	f005 f81b 	bl	8006638 <HAL_UART_Receive_IT>
  }
  /* USER CODE BEGIN HAL_UART_RxCpltCallback_2 */

  /* USER CODE END HAL_UART_RxCpltCallback_2 */
}
 8001602:	bf00      	nop
 8001604:	3708      	adds	r7, #8
 8001606:	46bd      	mov	sp, r7
 8001608:	bd80      	pop	{r7, pc}
 800160a:	bf00      	nop
 800160c:	40013800 	.word	0x40013800
 8001610:	200002ac 	.word	0x200002ac
 8001614:	200002a4 	.word	0x200002a4

08001618 <Reset_Handler>:

  .section .text.Reset_Handler
  .weak Reset_Handler
  .type Reset_Handler, %function
Reset_Handler:
  ldr   r0, =_estack
 8001618:	480d      	ldr	r0, [pc, #52]	; (8001650 <LoopForever+0x2>)
  mov   sp, r0          /* set stack pointer */
 800161a:	4685      	mov	sp, r0

/* Call the clock system initialization function.*/
  bl  SystemInit
 800161c:	f7ff fcac 	bl	8000f78 <SystemInit>

/* Copy the data segment initializers from flash to SRAM */
  ldr r0, =_sdata
 8001620:	480c      	ldr	r0, [pc, #48]	; (8001654 <LoopForever+0x6>)
  ldr r1, =_edata
 8001622:	490d      	ldr	r1, [pc, #52]	; (8001658 <LoopForever+0xa>)
  ldr r2, =_sidata
 8001624:	4a0d      	ldr	r2, [pc, #52]	; (800165c <LoopForever+0xe>)
  movs r3, #0
 8001626:	2300      	movs	r3, #0
  b LoopCopyDataInit
 8001628:	e002      	b.n	8001630 <LoopCopyDataInit>

0800162a <CopyDataInit>:

CopyDataInit:
  ldr r4, [r2, r3]
 800162a:	58d4      	ldr	r4, [r2, r3]
  str r4, [r0, r3]
 800162c:	50c4      	str	r4, [r0, r3]
  adds r3, r3, #4
 800162e:	3304      	adds	r3, #4

08001630 <LoopCopyDataInit>:

LoopCopyDataInit:
  adds r4, r0, r3
 8001630:	18c4      	adds	r4, r0, r3
  cmp r4, r1
 8001632:	428c      	cmp	r4, r1
  bcc CopyDataInit
 8001634:	d3f9      	bcc.n	800162a <CopyDataInit>

/* Zero fill the bss segment. */
  ldr r2, =_sbss
 8001636:	4a0a      	ldr	r2, [pc, #40]	; (8001660 <LoopForever+0x12>)
  ldr r4, =_ebss
 8001638:	4c0a      	ldr	r4, [pc, #40]	; (8001664 <LoopForever+0x16>)
  movs r3, #0
 800163a:	2300      	movs	r3, #0
  b LoopFillZerobss
 800163c:	e001      	b.n	8001642 <LoopFillZerobss>

0800163e <FillZerobss>:

FillZerobss:
  str  r3, [r2]
 800163e:	6013      	str	r3, [r2, #0]
  adds r2, r2, #4
 8001640:	3204      	adds	r2, #4

08001642 <LoopFillZerobss>:

LoopFillZerobss:
  cmp r2, r4
 8001642:	42a2      	cmp	r2, r4
  bcc FillZerobss
 8001644:	d3fb      	bcc.n	800163e <FillZerobss>

/* Call static constructors */
  bl __libc_init_array
 8001646:	f00c f857 	bl	800d6f8 <__libc_init_array>
/* Call the application's entry point.*/
  bl main
 800164a:	f7fe ff64 	bl	8000516 <main>

0800164e <LoopForever>:

LoopForever:
    b LoopForever
 800164e:	e7fe      	b.n	800164e <LoopForever>
  ldr   r0, =_estack
 8001650:	20010000 	.word	0x20010000
  ldr r0, =_sdata
 8001654:	20000000 	.word	0x20000000
  ldr r1, =_edata
 8001658:	2000001c 	.word	0x2000001c
  ldr r2, =_sidata
 800165c:	0800dae4 	.word	0x0800dae4
  ldr r2, =_sbss
 8001660:	2000001c 	.word	0x2000001c
  ldr r4, =_ebss
 8001664:	200008e8 	.word	0x200008e8

08001668 <ADC_IRQHandler>:
 * @retval : None
*/
  .section .text.Default_Handler,"ax",%progbits
Default_Handler:
Infinite_Loop:
  b Infinite_Loop
 8001668:	e7fe      	b.n	8001668 <ADC_IRQHandler>
	...

0800166c <LL_DBGMCU_EnableDBGSleepMode>:
  * @brief  Enable the CPU1 Debug Module during SLEEP mode
  * @rmtoll DBGMCU_CR    DBG_SLEEP     LL_DBGMCU_EnableDBGSleepMode
  * @retval None
  */
__STATIC_INLINE void LL_DBGMCU_EnableDBGSleepMode(void)
{
 800166c:	b480      	push	{r7}
 800166e:	af00      	add	r7, sp, #0
  SET_BIT(DBGMCU->CR, DBGMCU_CR_DBG_SLEEP);
 8001670:	4b04      	ldr	r3, [pc, #16]	; (8001684 <LL_DBGMCU_EnableDBGSleepMode+0x18>)
 8001672:	685b      	ldr	r3, [r3, #4]
 8001674:	4a03      	ldr	r2, [pc, #12]	; (8001684 <LL_DBGMCU_EnableDBGSleepMode+0x18>)
 8001676:	f043 0301 	orr.w	r3, r3, #1
 800167a:	6053      	str	r3, [r2, #4]
}
 800167c:	bf00      	nop
 800167e:	46bd      	mov	sp, r7
 8001680:	bc80      	pop	{r7}
 8001682:	4770      	bx	lr
 8001684:	e0042000 	.word	0xe0042000

08001688 <LL_DBGMCU_EnableDBGStopMode>:
  *        in Stop mode even when this bit is enabled
  * @rmtoll DBGMCU_CR    DBG_STOP      LL_DBGMCU_EnableDBGStopMode
  * @retval None
  */
__STATIC_INLINE void LL_DBGMCU_EnableDBGStopMode(void)
{
 8001688:	b480      	push	{r7}
 800168a:	af00      	add	r7, sp, #0
  SET_BIT(DBGMCU->CR, DBGMCU_CR_DBG_STOP);
 800168c:	4b04      	ldr	r3, [pc, #16]	; (80016a0 <LL_DBGMCU_EnableDBGStopMode+0x18>)
 800168e:	685b      	ldr	r3, [r3, #4]
 8001690:	4a03      	ldr	r2, [pc, #12]	; (80016a0 <LL_DBGMCU_EnableDBGStopMode+0x18>)
 8001692:	f043 0302 	orr.w	r3, r3, #2
 8001696:	6053      	str	r3, [r2, #4]
}
 8001698:	bf00      	nop
 800169a:	46bd      	mov	sp, r7
 800169c:	bc80      	pop	{r7}
 800169e:	4770      	bx	lr
 80016a0:	e0042000 	.word	0xe0042000

080016a4 <LL_DBGMCU_EnableDBGStandbyMode>:
  *        in Standby mode even when this bit is enabled
  * @rmtoll DBGMCU_CR    DBG_STANDBY   LL_DBGMCU_EnableDBGStandbyMode
  * @retval None
  */
__STATIC_INLINE void LL_DBGMCU_EnableDBGStandbyMode(void)
{
 80016a4:	b480      	push	{r7}
 80016a6:	af00      	add	r7, sp, #0
  SET_BIT(DBGMCU->CR, DBGMCU_CR_DBG_STANDBY);
 80016a8:	4b04      	ldr	r3, [pc, #16]	; (80016bc <LL_DBGMCU_EnableDBGStandbyMode+0x18>)
 80016aa:	685b      	ldr	r3, [r3, #4]
 80016ac:	4a03      	ldr	r2, [pc, #12]	; (80016bc <LL_DBGMCU_EnableDBGStandbyMode+0x18>)
 80016ae:	f043 0304 	orr.w	r3, r3, #4
 80016b2:	6053      	str	r3, [r2, #4]
}
 80016b4:	bf00      	nop
 80016b6:	46bd      	mov	sp, r7
 80016b8:	bc80      	pop	{r7}
 80016ba:	4770      	bx	lr
 80016bc:	e0042000 	.word	0xe0042000

080016c0 <HAL_Init>:
  *         need to ensure that the SysTick time base is always set to 1 millisecond
  *         to have correct HAL operation.
  * @retval HAL status
  */
HAL_StatusTypeDef HAL_Init(void)
{
 80016c0:	b580      	push	{r7, lr}
 80016c2:	b082      	sub	sp, #8
 80016c4:	af00      	add	r7, sp, #0
  HAL_StatusTypeDef  status = HAL_OK;
 80016c6:	2300      	movs	r3, #0
 80016c8:	71fb      	strb	r3, [r7, #7]
#endif /* PREFETCH_ENABLE */

#ifdef CORE_CM0PLUS
#else
  /* Set Interrupt Group Priority */
  HAL_NVIC_SetPriorityGrouping(NVIC_PRIORITYGROUP_4);
 80016ca:	2003      	movs	r0, #3
 80016cc:	f000 f982 	bl	80019d4 <HAL_NVIC_SetPriorityGrouping>

  /* Update the SystemCoreClock global variable */
#if defined(DUAL_CORE) && defined(CORE_CM0PLUS)
  SystemCoreClock = HAL_RCC_GetHCLK2Freq();
#else
  SystemCoreClock = HAL_RCC_GetHCLKFreq();
 80016d0:	f003 fc10 	bl	8004ef4 <HAL_RCC_GetHCLKFreq>
 80016d4:	4603      	mov	r3, r0
 80016d6:	4a09      	ldr	r2, [pc, #36]	; (80016fc <HAL_Init+0x3c>)
 80016d8:	6013      	str	r3, [r2, #0]
#endif

  /* Use SysTick as time base source and configure 1ms tick (default clock after Reset is MSI) */
  if (HAL_InitTick(TICK_INT_PRIORITY) != HAL_OK)
 80016da:	200f      	movs	r0, #15
 80016dc:	f000 f810 	bl	8001700 <HAL_InitTick>
 80016e0:	4603      	mov	r3, r0
 80016e2:	2b00      	cmp	r3, #0
 80016e4:	d002      	beq.n	80016ec <HAL_Init+0x2c>
  {
    status = HAL_ERROR;
 80016e6:	2301      	movs	r3, #1
 80016e8:	71fb      	strb	r3, [r7, #7]
 80016ea:	e001      	b.n	80016f0 <HAL_Init+0x30>
  }
  else
  {
    /* Init the low level hardware */
    HAL_MspInit();
 80016ec:	f7ff f9f3 	bl	8000ad6 <HAL_MspInit>
  }

  /* Return function status */
  return status;
 80016f0:	79fb      	ldrb	r3, [r7, #7]
}
 80016f2:	4618      	mov	r0, r3
 80016f4:	3708      	adds	r7, #8
 80016f6:	46bd      	mov	sp, r7
 80016f8:	bd80      	pop	{r7, pc}
 80016fa:	bf00      	nop
 80016fc:	20000000 	.word	0x20000000

08001700 <HAL_InitTick>:
  *       implementation  in user file.
  * @param TickPriority Tick interrupt priority.
  * @retval HAL status
  */
__weak HAL_StatusTypeDef HAL_InitTick(uint32_t TickPriority)
{
 8001700:	b580      	push	{r7, lr}
 8001702:	b084      	sub	sp, #16
 8001704:	af00      	add	r7, sp, #0
 8001706:	6078      	str	r0, [r7, #4]
  HAL_StatusTypeDef  status = HAL_OK;
 8001708:	2300      	movs	r3, #0
 800170a:	73fb      	strb	r3, [r7, #15]

  /* Check uwTickFreq for MisraC 2012 (even if uwTickFreq is a enum type that don't take the value zero)*/
  if ((uint32_t)uwTickFreq != 0U)
 800170c:	4b17      	ldr	r3, [pc, #92]	; (800176c <HAL_InitTick+0x6c>)
 800170e:	781b      	ldrb	r3, [r3, #0]
 8001710:	2b00      	cmp	r3, #0
 8001712:	d024      	beq.n	800175e <HAL_InitTick+0x5e>
  {
    /*Configure the SysTick to have interrupt in 1ms time basis*/
#ifdef CORE_CM0PLUS
    if (HAL_SYSTICK_Config(HAL_RCC_GetHCLK2Freq() / (1000U / (uint32_t)uwTickFreq)) == 0U)
#else
    if (HAL_SYSTICK_Config(HAL_RCC_GetHCLKFreq() / (1000U / (uint32_t)uwTickFreq)) == 0U)
 8001714:	f003 fbee 	bl	8004ef4 <HAL_RCC_GetHCLKFreq>
 8001718:	4602      	mov	r2, r0
 800171a:	4b14      	ldr	r3, [pc, #80]	; (800176c <HAL_InitTick+0x6c>)
 800171c:	781b      	ldrb	r3, [r3, #0]
 800171e:	4619      	mov	r1, r3
 8001720:	f44f 737a 	mov.w	r3, #1000	; 0x3e8
 8001724:	fbb3 f3f1 	udiv	r3, r3, r1
 8001728:	fbb2 f3f3 	udiv	r3, r2, r3
 800172c:	4618      	mov	r0, r3
 800172e:	f000 f992 	bl	8001a56 <HAL_SYSTICK_Config>
 8001732:	4603      	mov	r3, r0
 8001734:	2b00      	cmp	r3, #0
 8001736:	d10f      	bne.n	8001758 <HAL_InitTick+0x58>
#endif
    {
      /* Configure the SysTick IRQ priority */
      if (TickPriority < (1UL << __NVIC_PRIO_BITS))
 8001738:	687b      	ldr	r3, [r7, #4]
 800173a:	2b0f      	cmp	r3, #15
 800173c:	d809      	bhi.n	8001752 <HAL_InitTick+0x52>
      {
        HAL_NVIC_SetPriority(SysTick_IRQn, TickPriority, 0U);
 800173e:	2200      	movs	r2, #0
 8001740:	6879      	ldr	r1, [r7, #4]
 8001742:	f04f 30ff 	mov.w	r0, #4294967295
 8001746:	f000 f950 	bl	80019ea <HAL_NVIC_SetPriority>
        uwTickPrio = TickPriority;
 800174a:	4a09      	ldr	r2, [pc, #36]	; (8001770 <HAL_InitTick+0x70>)
 800174c:	687b      	ldr	r3, [r7, #4]
 800174e:	6013      	str	r3, [r2, #0]
 8001750:	e007      	b.n	8001762 <HAL_InitTick+0x62>
      }
      else
      {
        status = HAL_ERROR;
 8001752:	2301      	movs	r3, #1
 8001754:	73fb      	strb	r3, [r7, #15]
 8001756:	e004      	b.n	8001762 <HAL_InitTick+0x62>
      }
    }
    else
    {
      status = HAL_ERROR;
 8001758:	2301      	movs	r3, #1
 800175a:	73fb      	strb	r3, [r7, #15]
 800175c:	e001      	b.n	8001762 <HAL_InitTick+0x62>
    }
  }
  else
  {
    status = HAL_ERROR;
 800175e:	2301      	movs	r3, #1
 8001760:	73fb      	strb	r3, [r7, #15]
  }

  /* Return function status */
  return status;
 8001762:	7bfb      	ldrb	r3, [r7, #15]
}
 8001764:	4618      	mov	r0, r3
 8001766:	3710      	adds	r7, #16
 8001768:	46bd      	mov	sp, r7
 800176a:	bd80      	pop	{r7, pc}
 800176c:	20000008 	.word	0x20000008
 8001770:	20000004 	.word	0x20000004

08001774 <HAL_IncTick>:
 * @note This function is declared as __weak to be overwritten in case of other
  *      implementations in user file.
  * @retval None
  */
__weak void HAL_IncTick(void)
{
 8001774:	b480      	push	{r7}
 8001776:	af00      	add	r7, sp, #0
  uwTick += (uint32_t)uwTickFreq;
 8001778:	4b05      	ldr	r3, [pc, #20]	; (8001790 <HAL_IncTick+0x1c>)
 800177a:	781b      	ldrb	r3, [r3, #0]
 800177c:	461a      	mov	r2, r3
 800177e:	4b05      	ldr	r3, [pc, #20]	; (8001794 <HAL_IncTick+0x20>)
 8001780:	681b      	ldr	r3, [r3, #0]
 8001782:	4413      	add	r3, r2
 8001784:	4a03      	ldr	r2, [pc, #12]	; (8001794 <HAL_IncTick+0x20>)
 8001786:	6013      	str	r3, [r2, #0]
}
 8001788:	bf00      	nop
 800178a:	46bd      	mov	sp, r7
 800178c:	bc80      	pop	{r7}
 800178e:	4770      	bx	lr
 8001790:	20000008 	.word	0x20000008
 8001794:	200002b0 	.word	0x200002b0

08001798 <HAL_SuspendTick>:
  * @note This function is declared as __weak to be overwritten in case of other
  *       implementations in user file.
  * @retval None
  */
__weak void HAL_SuspendTick(void)
{
 8001798:	b480      	push	{r7}
 800179a:	af00      	add	r7, sp, #0
  /* Disable SysTick Interrupt */
  CLEAR_BIT(SysTick->CTRL, SysTick_CTRL_TICKINT_Msk);
 800179c:	4b04      	ldr	r3, [pc, #16]	; (80017b0 <HAL_SuspendTick+0x18>)
 800179e:	681b      	ldr	r3, [r3, #0]
 80017a0:	4a03      	ldr	r2, [pc, #12]	; (80017b0 <HAL_SuspendTick+0x18>)
 80017a2:	f023 0302 	bic.w	r3, r3, #2
 80017a6:	6013      	str	r3, [r2, #0]
}
 80017a8:	bf00      	nop
 80017aa:	46bd      	mov	sp, r7
 80017ac:	bc80      	pop	{r7}
 80017ae:	4770      	bx	lr
 80017b0:	e000e010 	.word	0xe000e010

080017b4 <HAL_ResumeTick>:
  * @note This function is declared as __weak to be overwritten in case of other
  *       implementations in user file.
  * @retval None
  */
__weak void HAL_ResumeTick(void)
{
 80017b4:	b480      	push	{r7}
 80017b6:	af00      	add	r7, sp, #0
  /* Enable SysTick Interrupt */
  SET_BIT(SysTick->CTRL, SysTick_CTRL_TICKINT_Msk);
 80017b8:	4b04      	ldr	r3, [pc, #16]	; (80017cc <HAL_ResumeTick+0x18>)
 80017ba:	681b      	ldr	r3, [r3, #0]
 80017bc:	4a03      	ldr	r2, [pc, #12]	; (80017cc <HAL_ResumeTick+0x18>)
 80017be:	f043 0302 	orr.w	r3, r3, #2
 80017c2:	6013      	str	r3, [r2, #0]
}
 80017c4:	bf00      	nop
 80017c6:	46bd      	mov	sp, r7
 80017c8:	bc80      	pop	{r7}
 80017ca:	4770      	bx	lr
 80017cc:	e000e010 	.word	0xe000e010

080017d0 <HAL_DBGMCU_EnableDBGSleepMode>:
/**
  * @brief  Enable the CPU1 Debug Module during SLEEP mode
  * @retval None
  */
void HAL_DBGMCU_EnableDBGSleepMode(void)
{
 80017d0:	b580      	push	{r7, lr}
 80017d2:	af00      	add	r7, sp, #0
  LL_DBGMCU_EnableDBGSleepMode();
 80017d4:	f7ff ff4a 	bl	800166c <LL_DBGMCU_EnableDBGSleepMode>
}
 80017d8:	bf00      	nop
 80017da:	bd80      	pop	{r7, pc}

080017dc <HAL_DBGMCU_EnableDBGStopMode>:
  * @note  This functionality does not influence CPU2 operation, CPU2 cannot be debugged
  *        in Stop mode even when this bit is enabled
  * @retval None
  */
void HAL_DBGMCU_EnableDBGStopMode(void)
{
 80017dc:	b580      	push	{r7, lr}
 80017de:	af00      	add	r7, sp, #0
  LL_DBGMCU_EnableDBGStopMode();
 80017e0:	f7ff ff52 	bl	8001688 <LL_DBGMCU_EnableDBGStopMode>
}
 80017e4:	bf00      	nop
 80017e6:	bd80      	pop	{r7, pc}

080017e8 <HAL_DBGMCU_EnableDBGStandbyMode>:
  * @note  This functionality does not influence CPU2 operation, CPU2 cannot be debugged
  *        in Standby mode even when this bit is enabled
  * @retval None
  */
void HAL_DBGMCU_EnableDBGStandbyMode(void)
{
 80017e8:	b580      	push	{r7, lr}
 80017ea:	af00      	add	r7, sp, #0
  LL_DBGMCU_EnableDBGStandbyMode();
 80017ec:	f7ff ff5a 	bl	80016a4 <LL_DBGMCU_EnableDBGStandbyMode>
}
 80017f0:	bf00      	nop
 80017f2:	bd80      	pop	{r7, pc}

080017f4 <__NVIC_SetPriorityGrouping>:
           In case of a conflict between priority grouping and available
           priority bits (__NVIC_PRIO_BITS), the smallest possible priority group is set.
  \param [in]      PriorityGroup  Priority grouping field.
 */
__STATIC_INLINE void __NVIC_SetPriorityGrouping(uint32_t PriorityGroup)
{
 80017f4:	b480      	push	{r7}
 80017f6:	b085      	sub	sp, #20
 80017f8:	af00      	add	r7, sp, #0
 80017fa:	6078      	str	r0, [r7, #4]
  uint32_t reg_value;
  uint32_t PriorityGroupTmp = (PriorityGroup & (uint32_t)0x07UL);             /* only values 0..7 are used          */
 80017fc:	687b      	ldr	r3, [r7, #4]
 80017fe:	f003 0307 	and.w	r3, r3, #7
 8001802:	60fb      	str	r3, [r7, #12]

  reg_value  =  SCB->AIRCR;                                                   /* read old register configuration    */
 8001804:	4b0c      	ldr	r3, [pc, #48]	; (8001838 <__NVIC_SetPriorityGrouping+0x44>)
 8001806:	68db      	ldr	r3, [r3, #12]
 8001808:	60bb      	str	r3, [r7, #8]
  reg_value &= ~((uint32_t)(SCB_AIRCR_VECTKEY_Msk | SCB_AIRCR_PRIGROUP_Msk)); /* clear bits to change               */
 800180a:	68ba      	ldr	r2, [r7, #8]
 800180c:	f64f 03ff 	movw	r3, #63743	; 0xf8ff
 8001810:	4013      	ands	r3, r2
 8001812:	60bb      	str	r3, [r7, #8]
  reg_value  =  (reg_value                                   |
                ((uint32_t)0x5FAUL << SCB_AIRCR_VECTKEY_Pos) |
                (PriorityGroupTmp << SCB_AIRCR_PRIGROUP_Pos)  );              /* Insert write key and priority group */
 8001814:	68fb      	ldr	r3, [r7, #12]
 8001816:	021a      	lsls	r2, r3, #8
                ((uint32_t)0x5FAUL << SCB_AIRCR_VECTKEY_Pos) |
 8001818:	68bb      	ldr	r3, [r7, #8]
 800181a:	4313      	orrs	r3, r2
  reg_value  =  (reg_value                                   |
 800181c:	f043 63bf 	orr.w	r3, r3, #100139008	; 0x5f80000
 8001820:	f443 3300 	orr.w	r3, r3, #131072	; 0x20000
 8001824:	60bb      	str	r3, [r7, #8]
  SCB->AIRCR =  reg_value;
 8001826:	4a04      	ldr	r2, [pc, #16]	; (8001838 <__NVIC_SetPriorityGrouping+0x44>)
 8001828:	68bb      	ldr	r3, [r7, #8]
 800182a:	60d3      	str	r3, [r2, #12]
}
 800182c:	bf00      	nop
 800182e:	3714      	adds	r7, #20
 8001830:	46bd      	mov	sp, r7
 8001832:	bc80      	pop	{r7}
 8001834:	4770      	bx	lr
 8001836:	bf00      	nop
 8001838:	e000ed00 	.word	0xe000ed00

0800183c <__NVIC_GetPriorityGrouping>:
  \brief   Get Priority Grouping
  \details Reads the priority grouping field from the NVIC Interrupt Controller.
  \return                Priority grouping field (SCB->AIRCR [10:8] PRIGROUP field).
 */
__STATIC_INLINE uint32_t __NVIC_GetPriorityGrouping(void)
{
 800183c:	b480      	push	{r7}
 800183e:	af00      	add	r7, sp, #0
  return ((uint32_t)((SCB->AIRCR & SCB_AIRCR_PRIGROUP_Msk) >> SCB_AIRCR_PRIGROUP_Pos));
 8001840:	4b04      	ldr	r3, [pc, #16]	; (8001854 <__NVIC_GetPriorityGrouping+0x18>)
 8001842:	68db      	ldr	r3, [r3, #12]
 8001844:	0a1b      	lsrs	r3, r3, #8
 8001846:	f003 0307 	and.w	r3, r3, #7
}
 800184a:	4618      	mov	r0, r3
 800184c:	46bd      	mov	sp, r7
 800184e:	bc80      	pop	{r7}
 8001850:	4770      	bx	lr
 8001852:	bf00      	nop
 8001854:	e000ed00 	.word	0xe000ed00

08001858 <__NVIC_EnableIRQ>:
  \details Enables a device specific interrupt in the NVIC interrupt controller.
  \param [in]      IRQn  Device specific interrupt number.
  \note    IRQn must not be negative.
 */
__STATIC_INLINE void __NVIC_EnableIRQ(IRQn_Type IRQn)
{
 8001858:	b480      	push	{r7}
 800185a:	b083      	sub	sp, #12
 800185c:	af00      	add	r7, sp, #0
 800185e:	4603      	mov	r3, r0
 8001860:	71fb      	strb	r3, [r7, #7]
  if ((int32_t)(IRQn) >= 0)
 8001862:	f997 3007 	ldrsb.w	r3, [r7, #7]
 8001866:	2b00      	cmp	r3, #0
 8001868:	db0b      	blt.n	8001882 <__NVIC_EnableIRQ+0x2a>
  {
    __COMPILER_BARRIER();
    NVIC->ISER[(((uint32_t)IRQn) >> 5UL)] = (uint32_t)(1UL << (((uint32_t)IRQn) & 0x1FUL));
 800186a:	79fb      	ldrb	r3, [r7, #7]
 800186c:	f003 021f 	and.w	r2, r3, #31
 8001870:	4906      	ldr	r1, [pc, #24]	; (800188c <__NVIC_EnableIRQ+0x34>)
 8001872:	f997 3007 	ldrsb.w	r3, [r7, #7]
 8001876:	095b      	lsrs	r3, r3, #5
 8001878:	2001      	movs	r0, #1
 800187a:	fa00 f202 	lsl.w	r2, r0, r2
 800187e:	f841 2023 	str.w	r2, [r1, r3, lsl #2]
    __COMPILER_BARRIER();
  }
}
 8001882:	bf00      	nop
 8001884:	370c      	adds	r7, #12
 8001886:	46bd      	mov	sp, r7
 8001888:	bc80      	pop	{r7}
 800188a:	4770      	bx	lr
 800188c:	e000e100 	.word	0xe000e100

08001890 <__NVIC_DisableIRQ>:
  \details Disables a device specific interrupt in the NVIC interrupt controller.
  \param [in]      IRQn  Device specific interrupt number.
  \note    IRQn must not be negative.
 */
__STATIC_INLINE void __NVIC_DisableIRQ(IRQn_Type IRQn)
{
 8001890:	b480      	push	{r7}
 8001892:	b083      	sub	sp, #12
 8001894:	af00      	add	r7, sp, #0
 8001896:	4603      	mov	r3, r0
 8001898:	71fb      	strb	r3, [r7, #7]
  if ((int32_t)(IRQn) >= 0)
 800189a:	f997 3007 	ldrsb.w	r3, [r7, #7]
 800189e:	2b00      	cmp	r3, #0
 80018a0:	db12      	blt.n	80018c8 <__NVIC_DisableIRQ+0x38>
  {
    NVIC->ICER[(((uint32_t)IRQn) >> 5UL)] = (uint32_t)(1UL << (((uint32_t)IRQn) & 0x1FUL));
 80018a2:	79fb      	ldrb	r3, [r7, #7]
 80018a4:	f003 021f 	and.w	r2, r3, #31
 80018a8:	490a      	ldr	r1, [pc, #40]	; (80018d4 <__NVIC_DisableIRQ+0x44>)
 80018aa:	f997 3007 	ldrsb.w	r3, [r7, #7]
 80018ae:	095b      	lsrs	r3, r3, #5
 80018b0:	2001      	movs	r0, #1
 80018b2:	fa00 f202 	lsl.w	r2, r0, r2
 80018b6:	3320      	adds	r3, #32
 80018b8:	f841 2023 	str.w	r2, [r1, r3, lsl #2]
  \details Acts as a special kind of Data Memory Barrier.
           It completes when all explicit memory accesses before this instruction complete.
 */
__STATIC_FORCEINLINE void __DSB(void)
{
  __ASM volatile ("dsb 0xF":::"memory");
 80018bc:	f3bf 8f4f 	dsb	sy
}
 80018c0:	bf00      	nop
  __ASM volatile ("isb 0xF":::"memory");
 80018c2:	f3bf 8f6f 	isb	sy
}
 80018c6:	bf00      	nop
    __DSB();
    __ISB();
  }
}
 80018c8:	bf00      	nop
 80018ca:	370c      	adds	r7, #12
 80018cc:	46bd      	mov	sp, r7
 80018ce:	bc80      	pop	{r7}
 80018d0:	4770      	bx	lr
 80018d2:	bf00      	nop
 80018d4:	e000e100 	.word	0xe000e100

080018d8 <__NVIC_SetPriority>:
  \param [in]      IRQn  Interrupt number.
  \param [in]  priority  Priority to set.
  \note    The priority cannot be set for every processor exception.
 */
__STATIC_INLINE void __NVIC_SetPriority(IRQn_Type IRQn, uint32_t priority)
{
 80018d8:	b480      	push	{r7}
 80018da:	b083      	sub	sp, #12
 80018dc:	af00      	add	r7, sp, #0
 80018de:	4603      	mov	r3, r0
 80018e0:	6039      	str	r1, [r7, #0]
 80018e2:	71fb      	strb	r3, [r7, #7]
  if ((int32_t)(IRQn) >= 0)
 80018e4:	f997 3007 	ldrsb.w	r3, [r7, #7]
 80018e8:	2b00      	cmp	r3, #0
 80018ea:	db0a      	blt.n	8001902 <__NVIC_SetPriority+0x2a>
  {
    NVIC->IP[((uint32_t)IRQn)]               = (uint8_t)((priority << (8U - __NVIC_PRIO_BITS)) & (uint32_t)0xFFUL);
 80018ec:	683b      	ldr	r3, [r7, #0]
 80018ee:	b2da      	uxtb	r2, r3
 80018f0:	490c      	ldr	r1, [pc, #48]	; (8001924 <__NVIC_SetPriority+0x4c>)
 80018f2:	f997 3007 	ldrsb.w	r3, [r7, #7]
 80018f6:	0112      	lsls	r2, r2, #4
 80018f8:	b2d2      	uxtb	r2, r2
 80018fa:	440b      	add	r3, r1
 80018fc:	f883 2300 	strb.w	r2, [r3, #768]	; 0x300
  }
  else
  {
    SCB->SHP[(((uint32_t)IRQn) & 0xFUL)-4UL] = (uint8_t)((priority << (8U - __NVIC_PRIO_BITS)) & (uint32_t)0xFFUL);
  }
}
 8001900:	e00a      	b.n	8001918 <__NVIC_SetPriority+0x40>
    SCB->SHP[(((uint32_t)IRQn) & 0xFUL)-4UL] = (uint8_t)((priority << (8U - __NVIC_PRIO_BITS)) & (uint32_t)0xFFUL);
 8001902:	683b      	ldr	r3, [r7, #0]
 8001904:	b2da      	uxtb	r2, r3
 8001906:	4908      	ldr	r1, [pc, #32]	; (8001928 <__NVIC_SetPriority+0x50>)
 8001908:	79fb      	ldrb	r3, [r7, #7]
 800190a:	f003 030f 	and.w	r3, r3, #15
 800190e:	3b04      	subs	r3, #4
 8001910:	0112      	lsls	r2, r2, #4
 8001912:	b2d2      	uxtb	r2, r2
 8001914:	440b      	add	r3, r1
 8001916:	761a      	strb	r2, [r3, #24]
}
 8001918:	bf00      	nop
 800191a:	370c      	adds	r7, #12
 800191c:	46bd      	mov	sp, r7
 800191e:	bc80      	pop	{r7}
 8001920:	4770      	bx	lr
 8001922:	bf00      	nop
 8001924:	e000e100 	.word	0xe000e100
 8001928:	e000ed00 	.word	0xe000ed00

0800192c <NVIC_EncodePriority>:
  \param [in]   PreemptPriority  Preemptive priority value (starting from 0).
  \param [in]       SubPriority  Subpriority value (starting from 0).
  \return                        Encoded priority. Value can be used in the function \ref NVIC_SetPriority().
 */
__STATIC_INLINE uint32_t NVIC_EncodePriority (uint32_t PriorityGroup, uint32_t PreemptPriority, uint32_t SubPriority)
{
 800192c:	b480      	push	{r7}
 800192e:	b089      	sub	sp, #36	; 0x24
 8001930:	af00      	add	r7, sp, #0
 8001932:	60f8      	str	r0, [r7, #12]
 8001934:	60b9      	str	r1, [r7, #8]
 8001936:	607a      	str	r2, [r7, #4]
  uint32_t PriorityGroupTmp = (PriorityGroup & (uint32_t)0x07UL);   /* only values 0..7 are used          */
 8001938:	68fb      	ldr	r3, [r7, #12]
 800193a:	f003 0307 	and.w	r3, r3, #7
 800193e:	61fb      	str	r3, [r7, #28]
  uint32_t PreemptPriorityBits;
  uint32_t SubPriorityBits;

  PreemptPriorityBits = ((7UL - PriorityGroupTmp) > (uint32_t)(__NVIC_PRIO_BITS)) ? (uint32_t)(__NVIC_PRIO_BITS) : (uint32_t)(7UL - PriorityGroupTmp);
 8001940:	69fb      	ldr	r3, [r7, #28]
 8001942:	f1c3 0307 	rsb	r3, r3, #7
 8001946:	2b04      	cmp	r3, #4
 8001948:	bf28      	it	cs
 800194a:	2304      	movcs	r3, #4
 800194c:	61bb      	str	r3, [r7, #24]
  SubPriorityBits     = ((PriorityGroupTmp + (uint32_t)(__NVIC_PRIO_BITS)) < (uint32_t)7UL) ? (uint32_t)0UL : (uint32_t)((PriorityGroupTmp - 7UL) + (uint32_t)(__NVIC_PRIO_BITS));
 800194e:	69fb      	ldr	r3, [r7, #28]
 8001950:	3304      	adds	r3, #4
 8001952:	2b06      	cmp	r3, #6
 8001954:	d902      	bls.n	800195c <NVIC_EncodePriority+0x30>
 8001956:	69fb      	ldr	r3, [r7, #28]
 8001958:	3b03      	subs	r3, #3
 800195a:	e000      	b.n	800195e <NVIC_EncodePriority+0x32>
 800195c:	2300      	movs	r3, #0
 800195e:	617b      	str	r3, [r7, #20]

  return (
           ((PreemptPriority & (uint32_t)((1UL << (PreemptPriorityBits)) - 1UL)) << SubPriorityBits) |
 8001960:	f04f 32ff 	mov.w	r2, #4294967295
 8001964:	69bb      	ldr	r3, [r7, #24]
 8001966:	fa02 f303 	lsl.w	r3, r2, r3
 800196a:	43da      	mvns	r2, r3
 800196c:	68bb      	ldr	r3, [r7, #8]
 800196e:	401a      	ands	r2, r3
 8001970:	697b      	ldr	r3, [r7, #20]
 8001972:	409a      	lsls	r2, r3
           ((SubPriority     & (uint32_t)((1UL << (SubPriorityBits    )) - 1UL)))
 8001974:	f04f 31ff 	mov.w	r1, #4294967295
 8001978:	697b      	ldr	r3, [r7, #20]
 800197a:	fa01 f303 	lsl.w	r3, r1, r3
 800197e:	43d9      	mvns	r1, r3
 8001980:	687b      	ldr	r3, [r7, #4]
 8001982:	400b      	ands	r3, r1
           ((PreemptPriority & (uint32_t)((1UL << (PreemptPriorityBits)) - 1UL)) << SubPriorityBits) |
 8001984:	4313      	orrs	r3, r2
         );
}
 8001986:	4618      	mov	r0, r3
 8001988:	3724      	adds	r7, #36	; 0x24
 800198a:	46bd      	mov	sp, r7
 800198c:	bc80      	pop	{r7}
 800198e:	4770      	bx	lr

08001990 <SysTick_Config>:
  \note    When the variable <b>__Vendor_SysTickConfig</b> is set to 1, then the
           function <b>SysTick_Config</b> is not included. In this case, the file <b><i>device</i>.h</b>
           must contain a vendor-specific implementation of this function.
 */
__STATIC_INLINE uint32_t SysTick_Config(uint32_t ticks)
{
 8001990:	b580      	push	{r7, lr}
 8001992:	b082      	sub	sp, #8
 8001994:	af00      	add	r7, sp, #0
 8001996:	6078      	str	r0, [r7, #4]
  if ((ticks - 1UL) > SysTick_LOAD_RELOAD_Msk)
 8001998:	687b      	ldr	r3, [r7, #4]
 800199a:	3b01      	subs	r3, #1
 800199c:	f1b3 7f80 	cmp.w	r3, #16777216	; 0x1000000
 80019a0:	d301      	bcc.n	80019a6 <SysTick_Config+0x16>
  {
    return (1UL);                                                   /* Reload value impossible */
 80019a2:	2301      	movs	r3, #1
 80019a4:	e00f      	b.n	80019c6 <SysTick_Config+0x36>
  }

  SysTick->LOAD  = (uint32_t)(ticks - 1UL);                         /* set reload register */
 80019a6:	4a0a      	ldr	r2, [pc, #40]	; (80019d0 <SysTick_Config+0x40>)
 80019a8:	687b      	ldr	r3, [r7, #4]
 80019aa:	3b01      	subs	r3, #1
 80019ac:	6053      	str	r3, [r2, #4]
  NVIC_SetPriority (SysTick_IRQn, (1UL << __NVIC_PRIO_BITS) - 1UL); /* set Priority for Systick Interrupt */
 80019ae:	210f      	movs	r1, #15
 80019b0:	f04f 30ff 	mov.w	r0, #4294967295
 80019b4:	f7ff ff90 	bl	80018d8 <__NVIC_SetPriority>
  SysTick->VAL   = 0UL;                                             /* Load the SysTick Counter Value */
 80019b8:	4b05      	ldr	r3, [pc, #20]	; (80019d0 <SysTick_Config+0x40>)
 80019ba:	2200      	movs	r2, #0
 80019bc:	609a      	str	r2, [r3, #8]
  SysTick->CTRL  = SysTick_CTRL_CLKSOURCE_Msk |
 80019be:	4b04      	ldr	r3, [pc, #16]	; (80019d0 <SysTick_Config+0x40>)
 80019c0:	2207      	movs	r2, #7
 80019c2:	601a      	str	r2, [r3, #0]
                   SysTick_CTRL_TICKINT_Msk   |
                   SysTick_CTRL_ENABLE_Msk;                         /* Enable SysTick IRQ and SysTick Timer */
  return (0UL);                                                     /* Function successful */
 80019c4:	2300      	movs	r3, #0
}
 80019c6:	4618      	mov	r0, r3
 80019c8:	3708      	adds	r7, #8
 80019ca:	46bd      	mov	sp, r7
 80019cc:	bd80      	pop	{r7, pc}
 80019ce:	bf00      	nop
 80019d0:	e000e010 	.word	0xe000e010

080019d4 <HAL_NVIC_SetPriorityGrouping>:
  * @note   When the NVIC_PriorityGroup_0 is selected, IRQ pre-emption is no more possible.
  *         The pending IRQ priority will be managed only by the subpriority.
  * @retval None
  */
void HAL_NVIC_SetPriorityGrouping(uint32_t PriorityGroup)
{
 80019d4:	b580      	push	{r7, lr}
 80019d6:	b082      	sub	sp, #8
 80019d8:	af00      	add	r7, sp, #0
 80019da:	6078      	str	r0, [r7, #4]
  /* Check the parameters */
  assert_param(IS_NVIC_PRIORITY_GROUP(PriorityGroup));

  /* Set the PRIGROUP[10:8] bits according to the PriorityGroup parameter value */
  NVIC_SetPriorityGrouping(PriorityGroup);
 80019dc:	6878      	ldr	r0, [r7, #4]
 80019de:	f7ff ff09 	bl	80017f4 <__NVIC_SetPriorityGrouping>
}
 80019e2:	bf00      	nop
 80019e4:	3708      	adds	r7, #8
 80019e6:	46bd      	mov	sp, r7
 80019e8:	bd80      	pop	{r7, pc}

080019ea <HAL_NVIC_SetPriority>:
  *         This parameter can be a value between 0 and 15
  *         A lower priority value indicates a higher priority.
  * @retval None
  */
void HAL_NVIC_SetPriority(IRQn_Type IRQn, uint32_t PreemptPriority, uint32_t SubPriority)
{
 80019ea:	b580      	push	{r7, lr}
 80019ec:	b086      	sub	sp, #24
 80019ee:	af00      	add	r7, sp, #0
 80019f0:	4603      	mov	r3, r0
 80019f2:	60b9      	str	r1, [r7, #8]
 80019f4:	607a      	str	r2, [r7, #4]
 80019f6:	73fb      	strb	r3, [r7, #15]

  /* Check the parameters */
  assert_param(IS_NVIC_SUB_PRIORITY(SubPriority));
  assert_param(IS_NVIC_PREEMPTION_PRIORITY(PreemptPriority));

  prioritygroup = NVIC_GetPriorityGrouping();
 80019f8:	f7ff ff20 	bl	800183c <__NVIC_GetPriorityGrouping>
 80019fc:	6178      	str	r0, [r7, #20]

  NVIC_SetPriority(IRQn, NVIC_EncodePriority(prioritygroup, PreemptPriority, SubPriority));
 80019fe:	687a      	ldr	r2, [r7, #4]
 8001a00:	68b9      	ldr	r1, [r7, #8]
 8001a02:	6978      	ldr	r0, [r7, #20]
 8001a04:	f7ff ff92 	bl	800192c <NVIC_EncodePriority>
 8001a08:	4602      	mov	r2, r0
 8001a0a:	f997 300f 	ldrsb.w	r3, [r7, #15]
 8001a0e:	4611      	mov	r1, r2
 8001a10:	4618      	mov	r0, r3
 8001a12:	f7ff ff61 	bl	80018d8 <__NVIC_SetPriority>
}
 8001a16:	bf00      	nop
 8001a18:	3718      	adds	r7, #24
 8001a1a:	46bd      	mov	sp, r7
 8001a1c:	bd80      	pop	{r7, pc}

08001a1e <HAL_NVIC_EnableIRQ>:
  *         (For the complete STM32 Devices IRQ Channels list, please refer
  *          to the appropriate CMSIS device file (stm32wlxxxx.h))
  * @retval None
  */
void HAL_NVIC_EnableIRQ(IRQn_Type IRQn)
{
 8001a1e:	b580      	push	{r7, lr}
 8001a20:	b082      	sub	sp, #8
 8001a22:	af00      	add	r7, sp, #0
 8001a24:	4603      	mov	r3, r0
 8001a26:	71fb      	strb	r3, [r7, #7]
  /* Check the parameters */
  assert_param(IS_NVIC_DEVICE_IRQ(IRQn));

  /* Enable interrupt */
  NVIC_EnableIRQ(IRQn);
 8001a28:	f997 3007 	ldrsb.w	r3, [r7, #7]
 8001a2c:	4618      	mov	r0, r3
 8001a2e:	f7ff ff13 	bl	8001858 <__NVIC_EnableIRQ>
}
 8001a32:	bf00      	nop
 8001a34:	3708      	adds	r7, #8
 8001a36:	46bd      	mov	sp, r7
 8001a38:	bd80      	pop	{r7, pc}

08001a3a <HAL_NVIC_DisableIRQ>:
  *         (For the complete STM32 Devices IRQ Channels list, please refer
  *          to the appropriate CMSIS device file (stm32wlxxxx.h))
  * @retval None
  */
void HAL_NVIC_DisableIRQ(IRQn_Type IRQn)
{
 8001a3a:	b580      	push	{r7, lr}
 8001a3c:	b082      	sub	sp, #8
 8001a3e:	af00      	add	r7, sp, #0
 8001a40:	4603      	mov	r3, r0
 8001a42:	71fb      	strb	r3, [r7, #7]
  /* Check the parameters */
  assert_param(IS_NVIC_DEVICE_IRQ(IRQn));

  /* Disable interrupt */
  NVIC_DisableIRQ(IRQn);
 8001a44:	f997 3007 	ldrsb.w	r3, [r7, #7]
 8001a48:	4618      	mov	r0, r3
 8001a4a:	f7ff ff21 	bl	8001890 <__NVIC_DisableIRQ>
}
 8001a4e:	bf00      	nop
 8001a50:	3708      	adds	r7, #8
 8001a52:	46bd      	mov	sp, r7
 8001a54:	bd80      	pop	{r7, pc}

08001a56 <HAL_SYSTICK_Config>:
  * @param TicksNumb Specifies the ticks Number of ticks between two interrupts.
  * @retval status:  - 0  Function succeeded.
  *                  - 1  Function failed.
  */
uint32_t HAL_SYSTICK_Config(uint32_t TicksNumb)
{
 8001a56:	b580      	push	{r7, lr}
 8001a58:	b082      	sub	sp, #8
 8001a5a:	af00      	add	r7, sp, #0
 8001a5c:	6078      	str	r0, [r7, #4]
  return SysTick_Config(TicksNumb);
 8001a5e:	6878      	ldr	r0, [r7, #4]
 8001a60:	f7ff ff96 	bl	8001990 <SysTick_Config>
 8001a64:	4603      	mov	r3, r0
}
 8001a66:	4618      	mov	r0, r3
 8001a68:	3708      	adds	r7, #8
 8001a6a:	46bd      	mov	sp, r7
 8001a6c:	bd80      	pop	{r7, pc}
	...

08001a70 <HAL_CRC_Init>:
  *         parameters in the CRC_InitTypeDef and create the associated handle.
  * @param  hcrc CRC handle
  * @retval HAL status
  */
HAL_StatusTypeDef HAL_CRC_Init(CRC_HandleTypeDef *hcrc)
{
 8001a70:	b580      	push	{r7, lr}
 8001a72:	b082      	sub	sp, #8
 8001a74:	af00      	add	r7, sp, #0
 8001a76:	6078      	str	r0, [r7, #4]
  /* Check the CRC handle allocation */
  if (hcrc == NULL)
 8001a78:	687b      	ldr	r3, [r7, #4]
 8001a7a:	2b00      	cmp	r3, #0
 8001a7c:	d101      	bne.n	8001a82 <HAL_CRC_Init+0x12>
  {
    return HAL_ERROR;
 8001a7e:	2301      	movs	r3, #1
 8001a80:	e054      	b.n	8001b2c <HAL_CRC_Init+0xbc>
  }

  /* Check the parameters */
  assert_param(IS_CRC_ALL_INSTANCE(hcrc->Instance));

  if (hcrc->State == HAL_CRC_STATE_RESET)
 8001a82:	687b      	ldr	r3, [r7, #4]
 8001a84:	7f5b      	ldrb	r3, [r3, #29]
 8001a86:	b2db      	uxtb	r3, r3
 8001a88:	2b00      	cmp	r3, #0
 8001a8a:	d105      	bne.n	8001a98 <HAL_CRC_Init+0x28>
  {
    /* Allocate lock resource and initialize it */
    hcrc->Lock = HAL_UNLOCKED;
 8001a8c:	687b      	ldr	r3, [r7, #4]
 8001a8e:	2200      	movs	r2, #0
 8001a90:	771a      	strb	r2, [r3, #28]
    /* Init the low level hardware */
    HAL_CRC_MspInit(hcrc);
 8001a92:	6878      	ldr	r0, [r7, #4]
 8001a94:	f7ff f84e 	bl	8000b34 <HAL_CRC_MspInit>
  }

  hcrc->State = HAL_CRC_STATE_BUSY;
 8001a98:	687b      	ldr	r3, [r7, #4]
 8001a9a:	2202      	movs	r2, #2
 8001a9c:	775a      	strb	r2, [r3, #29]

  /* check whether or not non-default generating polynomial has been
   * picked up by user */
  assert_param(IS_DEFAULT_POLYNOMIAL(hcrc->Init.DefaultPolynomialUse));
  if (hcrc->Init.DefaultPolynomialUse == DEFAULT_POLYNOMIAL_ENABLE)
 8001a9e:	687b      	ldr	r3, [r7, #4]
 8001aa0:	791b      	ldrb	r3, [r3, #4]
 8001aa2:	2b00      	cmp	r3, #0
 8001aa4:	d10c      	bne.n	8001ac0 <HAL_CRC_Init+0x50>
  {
    /* initialize peripheral with default generating polynomial */
    WRITE_REG(hcrc->Instance->POL, DEFAULT_CRC32_POLY);
 8001aa6:	687b      	ldr	r3, [r7, #4]
 8001aa8:	681b      	ldr	r3, [r3, #0]
 8001aaa:	4a22      	ldr	r2, [pc, #136]	; (8001b34 <HAL_CRC_Init+0xc4>)
 8001aac:	615a      	str	r2, [r3, #20]
    MODIFY_REG(hcrc->Instance->CR, CRC_CR_POLYSIZE, CRC_POLYLENGTH_32B);
 8001aae:	687b      	ldr	r3, [r7, #4]
 8001ab0:	681b      	ldr	r3, [r3, #0]
 8001ab2:	689a      	ldr	r2, [r3, #8]
 8001ab4:	687b      	ldr	r3, [r7, #4]
 8001ab6:	681b      	ldr	r3, [r3, #0]
 8001ab8:	f022 0218 	bic.w	r2, r2, #24
 8001abc:	609a      	str	r2, [r3, #8]
 8001abe:	e00c      	b.n	8001ada <HAL_CRC_Init+0x6a>
  }
  else
  {
    /* initialize CRC peripheral with generating polynomial defined by user */
    if (HAL_CRCEx_Polynomial_Set(hcrc, hcrc->Init.GeneratingPolynomial, hcrc->Init.CRCLength) != HAL_OK)
 8001ac0:	687b      	ldr	r3, [r7, #4]
 8001ac2:	6899      	ldr	r1, [r3, #8]
 8001ac4:	687b      	ldr	r3, [r7, #4]
 8001ac6:	68db      	ldr	r3, [r3, #12]
 8001ac8:	461a      	mov	r2, r3
 8001aca:	6878      	ldr	r0, [r7, #4]
 8001acc:	f000 f946 	bl	8001d5c <HAL_CRCEx_Polynomial_Set>
 8001ad0:	4603      	mov	r3, r0
 8001ad2:	2b00      	cmp	r3, #0
 8001ad4:	d001      	beq.n	8001ada <HAL_CRC_Init+0x6a>
    {
      return HAL_ERROR;
 8001ad6:	2301      	movs	r3, #1
 8001ad8:	e028      	b.n	8001b2c <HAL_CRC_Init+0xbc>
  }

  /* check whether or not non-default CRC initial value has been
   * picked up by user */
  assert_param(IS_DEFAULT_INIT_VALUE(hcrc->Init.DefaultInitValueUse));
  if (hcrc->Init.DefaultInitValueUse == DEFAULT_INIT_VALUE_ENABLE)
 8001ada:	687b      	ldr	r3, [r7, #4]
 8001adc:	795b      	ldrb	r3, [r3, #5]
 8001ade:	2b00      	cmp	r3, #0
 8001ae0:	d105      	bne.n	8001aee <HAL_CRC_Init+0x7e>
  {
    WRITE_REG(hcrc->Instance->INIT, DEFAULT_CRC_INITVALUE);
 8001ae2:	687b      	ldr	r3, [r7, #4]
 8001ae4:	681b      	ldr	r3, [r3, #0]
 8001ae6:	f04f 32ff 	mov.w	r2, #4294967295
 8001aea:	611a      	str	r2, [r3, #16]
 8001aec:	e004      	b.n	8001af8 <HAL_CRC_Init+0x88>
  }
  else
  {
    WRITE_REG(hcrc->Instance->INIT, hcrc->Init.InitValue);
 8001aee:	687b      	ldr	r3, [r7, #4]
 8001af0:	681b      	ldr	r3, [r3, #0]
 8001af2:	687a      	ldr	r2, [r7, #4]
 8001af4:	6912      	ldr	r2, [r2, #16]
 8001af6:	611a      	str	r2, [r3, #16]
  }


  /* set input data inversion mode */
  assert_param(IS_CRC_INPUTDATA_INVERSION_MODE(hcrc->Init.InputDataInversionMode));
  MODIFY_REG(hcrc->Instance->CR, CRC_CR_REV_IN, hcrc->Init.InputDataInversionMode);
 8001af8:	687b      	ldr	r3, [r7, #4]
 8001afa:	681b      	ldr	r3, [r3, #0]
 8001afc:	689b      	ldr	r3, [r3, #8]
 8001afe:	f023 0160 	bic.w	r1, r3, #96	; 0x60
 8001b02:	687b      	ldr	r3, [r7, #4]
 8001b04:	695a      	ldr	r2, [r3, #20]
 8001b06:	687b      	ldr	r3, [r7, #4]
 8001b08:	681b      	ldr	r3, [r3, #0]
 8001b0a:	430a      	orrs	r2, r1
 8001b0c:	609a      	str	r2, [r3, #8]

  /* set output data inversion mode */
  assert_param(IS_CRC_OUTPUTDATA_INVERSION_MODE(hcrc->Init.OutputDataInversionMode));
  MODIFY_REG(hcrc->Instance->CR, CRC_CR_REV_OUT, hcrc->Init.OutputDataInversionMode);
 8001b0e:	687b      	ldr	r3, [r7, #4]
 8001b10:	681b      	ldr	r3, [r3, #0]
 8001b12:	689b      	ldr	r3, [r3, #8]
 8001b14:	f023 0180 	bic.w	r1, r3, #128	; 0x80
 8001b18:	687b      	ldr	r3, [r7, #4]
 8001b1a:	699a      	ldr	r2, [r3, #24]
 8001b1c:	687b      	ldr	r3, [r7, #4]
 8001b1e:	681b      	ldr	r3, [r3, #0]
 8001b20:	430a      	orrs	r2, r1
 8001b22:	609a      	str	r2, [r3, #8]
  /* makes sure the input data format (bytes, halfwords or words stream)
   * is properly specified by user */
  assert_param(IS_CRC_INPUTDATA_FORMAT(hcrc->InputDataFormat));

  /* Change CRC peripheral state */
  hcrc->State = HAL_CRC_STATE_READY;
 8001b24:	687b      	ldr	r3, [r7, #4]
 8001b26:	2201      	movs	r2, #1
 8001b28:	775a      	strb	r2, [r3, #29]

  /* Return function status */
  return HAL_OK;
 8001b2a:	2300      	movs	r3, #0
}
 8001b2c:	4618      	mov	r0, r3
 8001b2e:	3708      	adds	r7, #8
 8001b30:	46bd      	mov	sp, r7
 8001b32:	bd80      	pop	{r7, pc}
 8001b34:	04c11db7 	.word	0x04c11db7

08001b38 <HAL_CRC_Calculate>:
  *        and the API will internally adjust its input data processing based on the
  *        handle field hcrc->InputDataFormat.
  * @retval uint32_t CRC (returned value LSBs for CRC shorter than 32 bits)
  */
uint32_t HAL_CRC_Calculate(CRC_HandleTypeDef *hcrc, uint32_t pBuffer[], uint32_t BufferLength)
{
 8001b38:	b580      	push	{r7, lr}
 8001b3a:	b086      	sub	sp, #24
 8001b3c:	af00      	add	r7, sp, #0
 8001b3e:	60f8      	str	r0, [r7, #12]
 8001b40:	60b9      	str	r1, [r7, #8]
 8001b42:	607a      	str	r2, [r7, #4]
  uint32_t index;      /* CRC input data buffer index */
  uint32_t temp = 0U;  /* CRC output (read from hcrc->Instance->DR register) */
 8001b44:	2300      	movs	r3, #0
 8001b46:	613b      	str	r3, [r7, #16]

  /* Change CRC peripheral state */
  hcrc->State = HAL_CRC_STATE_BUSY;
 8001b48:	68fb      	ldr	r3, [r7, #12]
 8001b4a:	2202      	movs	r2, #2
 8001b4c:	775a      	strb	r2, [r3, #29]

  /* Reset CRC Calculation Unit (hcrc->Instance->INIT is
  *  written in hcrc->Instance->DR) */
  __HAL_CRC_DR_RESET(hcrc);
 8001b4e:	68fb      	ldr	r3, [r7, #12]
 8001b50:	681b      	ldr	r3, [r3, #0]
 8001b52:	689a      	ldr	r2, [r3, #8]
 8001b54:	68fb      	ldr	r3, [r7, #12]
 8001b56:	681b      	ldr	r3, [r3, #0]
 8001b58:	f042 0201 	orr.w	r2, r2, #1
 8001b5c:	609a      	str	r2, [r3, #8]

  switch (hcrc->InputDataFormat)
 8001b5e:	68fb      	ldr	r3, [r7, #12]
 8001b60:	6a1b      	ldr	r3, [r3, #32]
 8001b62:	2b03      	cmp	r3, #3
 8001b64:	d006      	beq.n	8001b74 <HAL_CRC_Calculate+0x3c>
 8001b66:	2b03      	cmp	r3, #3
 8001b68:	d829      	bhi.n	8001bbe <HAL_CRC_Calculate+0x86>
 8001b6a:	2b01      	cmp	r3, #1
 8001b6c:	d019      	beq.n	8001ba2 <HAL_CRC_Calculate+0x6a>
 8001b6e:	2b02      	cmp	r3, #2
 8001b70:	d01e      	beq.n	8001bb0 <HAL_CRC_Calculate+0x78>
      /* Specific 16-bit input data handling  */
      temp = CRC_Handle_16(hcrc, (uint16_t *)(void *)pBuffer, BufferLength);    /* Derogation MisraC2012 R.11.5 */
      break;

    default:
      break;
 8001b72:	e024      	b.n	8001bbe <HAL_CRC_Calculate+0x86>
      for (index = 0U; index < BufferLength; index++)
 8001b74:	2300      	movs	r3, #0
 8001b76:	617b      	str	r3, [r7, #20]
 8001b78:	e00a      	b.n	8001b90 <HAL_CRC_Calculate+0x58>
        hcrc->Instance->DR = pBuffer[index];
 8001b7a:	697b      	ldr	r3, [r7, #20]
 8001b7c:	009b      	lsls	r3, r3, #2
 8001b7e:	68ba      	ldr	r2, [r7, #8]
 8001b80:	441a      	add	r2, r3
 8001b82:	68fb      	ldr	r3, [r7, #12]
 8001b84:	681b      	ldr	r3, [r3, #0]
 8001b86:	6812      	ldr	r2, [r2, #0]
 8001b88:	601a      	str	r2, [r3, #0]
      for (index = 0U; index < BufferLength; index++)
 8001b8a:	697b      	ldr	r3, [r7, #20]
 8001b8c:	3301      	adds	r3, #1
 8001b8e:	617b      	str	r3, [r7, #20]
 8001b90:	697a      	ldr	r2, [r7, #20]
 8001b92:	687b      	ldr	r3, [r7, #4]
 8001b94:	429a      	cmp	r2, r3
 8001b96:	d3f0      	bcc.n	8001b7a <HAL_CRC_Calculate+0x42>
      temp = hcrc->Instance->DR;
 8001b98:	68fb      	ldr	r3, [r7, #12]
 8001b9a:	681b      	ldr	r3, [r3, #0]
 8001b9c:	681b      	ldr	r3, [r3, #0]
 8001b9e:	613b      	str	r3, [r7, #16]
      break;
 8001ba0:	e00e      	b.n	8001bc0 <HAL_CRC_Calculate+0x88>
      temp = CRC_Handle_8(hcrc, (uint8_t *)pBuffer, BufferLength);
 8001ba2:	687a      	ldr	r2, [r7, #4]
 8001ba4:	68b9      	ldr	r1, [r7, #8]
 8001ba6:	68f8      	ldr	r0, [r7, #12]
 8001ba8:	f000 f812 	bl	8001bd0 <CRC_Handle_8>
 8001bac:	6138      	str	r0, [r7, #16]
      break;
 8001bae:	e007      	b.n	8001bc0 <HAL_CRC_Calculate+0x88>
      temp = CRC_Handle_16(hcrc, (uint16_t *)(void *)pBuffer, BufferLength);    /* Derogation MisraC2012 R.11.5 */
 8001bb0:	687a      	ldr	r2, [r7, #4]
 8001bb2:	68b9      	ldr	r1, [r7, #8]
 8001bb4:	68f8      	ldr	r0, [r7, #12]
 8001bb6:	f000 f898 	bl	8001cea <CRC_Handle_16>
 8001bba:	6138      	str	r0, [r7, #16]
      break;
 8001bbc:	e000      	b.n	8001bc0 <HAL_CRC_Calculate+0x88>
      break;
 8001bbe:	bf00      	nop
  }

  /* Change CRC peripheral state */
  hcrc->State = HAL_CRC_STATE_READY;
 8001bc0:	68fb      	ldr	r3, [r7, #12]
 8001bc2:	2201      	movs	r2, #1
 8001bc4:	775a      	strb	r2, [r3, #29]

  /* Return the CRC computed value */
  return temp;
 8001bc6:	693b      	ldr	r3, [r7, #16]
}
 8001bc8:	4618      	mov	r0, r3
 8001bca:	3718      	adds	r7, #24
 8001bcc:	46bd      	mov	sp, r7
 8001bce:	bd80      	pop	{r7, pc}

08001bd0 <CRC_Handle_8>:
  * @param  pBuffer pointer to the input data buffer
  * @param  BufferLength input data buffer length
  * @retval uint32_t CRC (returned value LSBs for CRC shorter than 32 bits)
  */
static uint32_t CRC_Handle_8(CRC_HandleTypeDef *hcrc, uint8_t pBuffer[], uint32_t BufferLength)
{
 8001bd0:	b480      	push	{r7}
 8001bd2:	b089      	sub	sp, #36	; 0x24
 8001bd4:	af00      	add	r7, sp, #0
 8001bd6:	60f8      	str	r0, [r7, #12]
 8001bd8:	60b9      	str	r1, [r7, #8]
 8001bda:	607a      	str	r2, [r7, #4]
  __IO uint16_t *pReg;

  /* Processing time optimization: 4 bytes are entered in a row with a single word write,
   * last bytes must be carefully fed to the CRC calculator to ensure a correct type
   * handling by the peripheral */
  for (i = 0U; i < (BufferLength / 4U); i++)
 8001bdc:	2300      	movs	r3, #0
 8001bde:	61fb      	str	r3, [r7, #28]
 8001be0:	e023      	b.n	8001c2a <CRC_Handle_8+0x5a>
  {
    hcrc->Instance->DR = ((uint32_t)pBuffer[4U * i] << 24U) | \
 8001be2:	69fb      	ldr	r3, [r7, #28]
 8001be4:	009b      	lsls	r3, r3, #2
 8001be6:	68ba      	ldr	r2, [r7, #8]
 8001be8:	4413      	add	r3, r2
 8001bea:	781b      	ldrb	r3, [r3, #0]
 8001bec:	061a      	lsls	r2, r3, #24
                         ((uint32_t)pBuffer[(4U * i) + 1U] << 16U) | \
 8001bee:	69fb      	ldr	r3, [r7, #28]
 8001bf0:	009b      	lsls	r3, r3, #2
 8001bf2:	3301      	adds	r3, #1
 8001bf4:	68b9      	ldr	r1, [r7, #8]
 8001bf6:	440b      	add	r3, r1
 8001bf8:	781b      	ldrb	r3, [r3, #0]
 8001bfa:	041b      	lsls	r3, r3, #16
    hcrc->Instance->DR = ((uint32_t)pBuffer[4U * i] << 24U) | \
 8001bfc:	431a      	orrs	r2, r3
                         ((uint32_t)pBuffer[(4U * i) + 2U] << 8U)  | \
 8001bfe:	69fb      	ldr	r3, [r7, #28]
 8001c00:	009b      	lsls	r3, r3, #2
 8001c02:	3302      	adds	r3, #2
 8001c04:	68b9      	ldr	r1, [r7, #8]
 8001c06:	440b      	add	r3, r1
 8001c08:	781b      	ldrb	r3, [r3, #0]
 8001c0a:	021b      	lsls	r3, r3, #8
                         ((uint32_t)pBuffer[(4U * i) + 1U] << 16U) | \
 8001c0c:	431a      	orrs	r2, r3
                         (uint32_t)pBuffer[(4U * i) + 3U];
 8001c0e:	69fb      	ldr	r3, [r7, #28]
 8001c10:	009b      	lsls	r3, r3, #2
 8001c12:	3303      	adds	r3, #3
 8001c14:	68b9      	ldr	r1, [r7, #8]
 8001c16:	440b      	add	r3, r1
 8001c18:	781b      	ldrb	r3, [r3, #0]
 8001c1a:	4619      	mov	r1, r3
    hcrc->Instance->DR = ((uint32_t)pBuffer[4U * i] << 24U) | \
 8001c1c:	68fb      	ldr	r3, [r7, #12]
 8001c1e:	681b      	ldr	r3, [r3, #0]
                         ((uint32_t)pBuffer[(4U * i) + 2U] << 8U)  | \
 8001c20:	430a      	orrs	r2, r1
    hcrc->Instance->DR = ((uint32_t)pBuffer[4U * i] << 24U) | \
 8001c22:	601a      	str	r2, [r3, #0]
  for (i = 0U; i < (BufferLength / 4U); i++)
 8001c24:	69fb      	ldr	r3, [r7, #28]
 8001c26:	3301      	adds	r3, #1
 8001c28:	61fb      	str	r3, [r7, #28]
 8001c2a:	687b      	ldr	r3, [r7, #4]
 8001c2c:	089b      	lsrs	r3, r3, #2
 8001c2e:	69fa      	ldr	r2, [r7, #28]
 8001c30:	429a      	cmp	r2, r3
 8001c32:	d3d6      	bcc.n	8001be2 <CRC_Handle_8+0x12>
  }
  /* last bytes specific handling */
  if ((BufferLength % 4U) != 0U)
 8001c34:	687b      	ldr	r3, [r7, #4]
 8001c36:	f003 0303 	and.w	r3, r3, #3
 8001c3a:	2b00      	cmp	r3, #0
 8001c3c:	d04d      	beq.n	8001cda <CRC_Handle_8+0x10a>
  {
    if ((BufferLength % 4U) == 1U)
 8001c3e:	687b      	ldr	r3, [r7, #4]
 8001c40:	f003 0303 	and.w	r3, r3, #3
 8001c44:	2b01      	cmp	r3, #1
 8001c46:	d107      	bne.n	8001c58 <CRC_Handle_8+0x88>
    {
      *(__IO uint8_t *)(__IO void *)(&hcrc->Instance->DR) = pBuffer[4U * i];         /* Derogation MisraC2012 R.11.5 */
 8001c48:	69fb      	ldr	r3, [r7, #28]
 8001c4a:	009b      	lsls	r3, r3, #2
 8001c4c:	68ba      	ldr	r2, [r7, #8]
 8001c4e:	4413      	add	r3, r2
 8001c50:	68fa      	ldr	r2, [r7, #12]
 8001c52:	6812      	ldr	r2, [r2, #0]
 8001c54:	781b      	ldrb	r3, [r3, #0]
 8001c56:	7013      	strb	r3, [r2, #0]
    }
    if ((BufferLength % 4U) == 2U)
 8001c58:	687b      	ldr	r3, [r7, #4]
 8001c5a:	f003 0303 	and.w	r3, r3, #3
 8001c5e:	2b02      	cmp	r3, #2
 8001c60:	d116      	bne.n	8001c90 <CRC_Handle_8+0xc0>
    {
      data = ((uint16_t)(pBuffer[4U * i]) << 8U) | (uint16_t)pBuffer[(4U * i) + 1U];
 8001c62:	69fb      	ldr	r3, [r7, #28]
 8001c64:	009b      	lsls	r3, r3, #2
 8001c66:	68ba      	ldr	r2, [r7, #8]
 8001c68:	4413      	add	r3, r2
 8001c6a:	781b      	ldrb	r3, [r3, #0]
 8001c6c:	021b      	lsls	r3, r3, #8
 8001c6e:	b21a      	sxth	r2, r3
 8001c70:	69fb      	ldr	r3, [r7, #28]
 8001c72:	009b      	lsls	r3, r3, #2
 8001c74:	3301      	adds	r3, #1
 8001c76:	68b9      	ldr	r1, [r7, #8]
 8001c78:	440b      	add	r3, r1
 8001c7a:	781b      	ldrb	r3, [r3, #0]
 8001c7c:	b21b      	sxth	r3, r3
 8001c7e:	4313      	orrs	r3, r2
 8001c80:	b21b      	sxth	r3, r3
 8001c82:	837b      	strh	r3, [r7, #26]
      pReg = (__IO uint16_t *)(__IO void *)(&hcrc->Instance->DR);                    /* Derogation MisraC2012 R.11.5 */
 8001c84:	68fb      	ldr	r3, [r7, #12]
 8001c86:	681b      	ldr	r3, [r3, #0]
 8001c88:	617b      	str	r3, [r7, #20]
      *pReg = data;
 8001c8a:	697b      	ldr	r3, [r7, #20]
 8001c8c:	8b7a      	ldrh	r2, [r7, #26]
 8001c8e:	801a      	strh	r2, [r3, #0]
    }
    if ((BufferLength % 4U) == 3U)
 8001c90:	687b      	ldr	r3, [r7, #4]
 8001c92:	f003 0303 	and.w	r3, r3, #3
 8001c96:	2b03      	cmp	r3, #3
 8001c98:	d11f      	bne.n	8001cda <CRC_Handle_8+0x10a>
    {
      data = ((uint16_t)(pBuffer[4U * i]) << 8U) | (uint16_t)pBuffer[(4U * i) + 1U];
 8001c9a:	69fb      	ldr	r3, [r7, #28]
 8001c9c:	009b      	lsls	r3, r3, #2
 8001c9e:	68ba      	ldr	r2, [r7, #8]
 8001ca0:	4413      	add	r3, r2
 8001ca2:	781b      	ldrb	r3, [r3, #0]
 8001ca4:	021b      	lsls	r3, r3, #8
 8001ca6:	b21a      	sxth	r2, r3
 8001ca8:	69fb      	ldr	r3, [r7, #28]
 8001caa:	009b      	lsls	r3, r3, #2
 8001cac:	3301      	adds	r3, #1
 8001cae:	68b9      	ldr	r1, [r7, #8]
 8001cb0:	440b      	add	r3, r1
 8001cb2:	781b      	ldrb	r3, [r3, #0]
 8001cb4:	b21b      	sxth	r3, r3
 8001cb6:	4313      	orrs	r3, r2
 8001cb8:	b21b      	sxth	r3, r3
 8001cba:	837b      	strh	r3, [r7, #26]
      pReg = (__IO uint16_t *)(__IO void *)(&hcrc->Instance->DR);                    /* Derogation MisraC2012 R.11.5 */
 8001cbc:	68fb      	ldr	r3, [r7, #12]
 8001cbe:	681b      	ldr	r3, [r3, #0]
 8001cc0:	617b      	str	r3, [r7, #20]
      *pReg = data;
 8001cc2:	697b      	ldr	r3, [r7, #20]
 8001cc4:	8b7a      	ldrh	r2, [r7, #26]
 8001cc6:	801a      	strh	r2, [r3, #0]

      *(__IO uint8_t *)(__IO void *)(&hcrc->Instance->DR) = pBuffer[(4U * i) + 2U];  /* Derogation MisraC2012 R.11.5 */
 8001cc8:	69fb      	ldr	r3, [r7, #28]
 8001cca:	009b      	lsls	r3, r3, #2
 8001ccc:	3302      	adds	r3, #2
 8001cce:	68ba      	ldr	r2, [r7, #8]
 8001cd0:	4413      	add	r3, r2
 8001cd2:	68fa      	ldr	r2, [r7, #12]
 8001cd4:	6812      	ldr	r2, [r2, #0]
 8001cd6:	781b      	ldrb	r3, [r3, #0]
 8001cd8:	7013      	strb	r3, [r2, #0]
    }
  }

  /* Return the CRC computed value */
  return hcrc->Instance->DR;
 8001cda:	68fb      	ldr	r3, [r7, #12]
 8001cdc:	681b      	ldr	r3, [r3, #0]
 8001cde:	681b      	ldr	r3, [r3, #0]
}
 8001ce0:	4618      	mov	r0, r3
 8001ce2:	3724      	adds	r7, #36	; 0x24
 8001ce4:	46bd      	mov	sp, r7
 8001ce6:	bc80      	pop	{r7}
 8001ce8:	4770      	bx	lr

08001cea <CRC_Handle_16>:
  * @param  pBuffer pointer to the input data buffer
  * @param  BufferLength input data buffer length
  * @retval uint32_t CRC (returned value LSBs for CRC shorter than 32 bits)
  */
static uint32_t CRC_Handle_16(CRC_HandleTypeDef *hcrc, uint16_t pBuffer[], uint32_t BufferLength)
{
 8001cea:	b480      	push	{r7}
 8001cec:	b087      	sub	sp, #28
 8001cee:	af00      	add	r7, sp, #0
 8001cf0:	60f8      	str	r0, [r7, #12]
 8001cf2:	60b9      	str	r1, [r7, #8]
 8001cf4:	607a      	str	r2, [r7, #4]
  __IO uint16_t *pReg;

  /* Processing time optimization: 2 HalfWords are entered in a row with a single word write,
   * in case of odd length, last HalfWord must be carefully fed to the CRC calculator to ensure
   * a correct type handling by the peripheral */
  for (i = 0U; i < (BufferLength / 2U); i++)
 8001cf6:	2300      	movs	r3, #0
 8001cf8:	617b      	str	r3, [r7, #20]
 8001cfa:	e013      	b.n	8001d24 <CRC_Handle_16+0x3a>
  {
    hcrc->Instance->DR = ((uint32_t)pBuffer[2U * i] << 16U) | (uint32_t)pBuffer[(2U * i) + 1U];
 8001cfc:	697b      	ldr	r3, [r7, #20]
 8001cfe:	009b      	lsls	r3, r3, #2
 8001d00:	68ba      	ldr	r2, [r7, #8]
 8001d02:	4413      	add	r3, r2
 8001d04:	881b      	ldrh	r3, [r3, #0]
 8001d06:	041a      	lsls	r2, r3, #16
 8001d08:	697b      	ldr	r3, [r7, #20]
 8001d0a:	009b      	lsls	r3, r3, #2
 8001d0c:	3302      	adds	r3, #2
 8001d0e:	68b9      	ldr	r1, [r7, #8]
 8001d10:	440b      	add	r3, r1
 8001d12:	881b      	ldrh	r3, [r3, #0]
 8001d14:	4619      	mov	r1, r3
 8001d16:	68fb      	ldr	r3, [r7, #12]
 8001d18:	681b      	ldr	r3, [r3, #0]
 8001d1a:	430a      	orrs	r2, r1
 8001d1c:	601a      	str	r2, [r3, #0]
  for (i = 0U; i < (BufferLength / 2U); i++)
 8001d1e:	697b      	ldr	r3, [r7, #20]
 8001d20:	3301      	adds	r3, #1
 8001d22:	617b      	str	r3, [r7, #20]
 8001d24:	687b      	ldr	r3, [r7, #4]
 8001d26:	085b      	lsrs	r3, r3, #1
 8001d28:	697a      	ldr	r2, [r7, #20]
 8001d2a:	429a      	cmp	r2, r3
 8001d2c:	d3e6      	bcc.n	8001cfc <CRC_Handle_16+0x12>
  }
  if ((BufferLength % 2U) != 0U)
 8001d2e:	687b      	ldr	r3, [r7, #4]
 8001d30:	f003 0301 	and.w	r3, r3, #1
 8001d34:	2b00      	cmp	r3, #0
 8001d36:	d009      	beq.n	8001d4c <CRC_Handle_16+0x62>
  {
    pReg = (__IO uint16_t *)(__IO void *)(&hcrc->Instance->DR);                 /* Derogation MisraC2012 R.11.5 */
 8001d38:	68fb      	ldr	r3, [r7, #12]
 8001d3a:	681b      	ldr	r3, [r3, #0]
 8001d3c:	613b      	str	r3, [r7, #16]
    *pReg = pBuffer[2U * i];
 8001d3e:	697b      	ldr	r3, [r7, #20]
 8001d40:	009b      	lsls	r3, r3, #2
 8001d42:	68ba      	ldr	r2, [r7, #8]
 8001d44:	4413      	add	r3, r2
 8001d46:	881a      	ldrh	r2, [r3, #0]
 8001d48:	693b      	ldr	r3, [r7, #16]
 8001d4a:	801a      	strh	r2, [r3, #0]
  }

  /* Return the CRC computed value */
  return hcrc->Instance->DR;
 8001d4c:	68fb      	ldr	r3, [r7, #12]
 8001d4e:	681b      	ldr	r3, [r3, #0]
 8001d50:	681b      	ldr	r3, [r3, #0]
}
 8001d52:	4618      	mov	r0, r3
 8001d54:	371c      	adds	r7, #28
 8001d56:	46bd      	mov	sp, r7
 8001d58:	bc80      	pop	{r7}
 8001d5a:	4770      	bx	lr

08001d5c <HAL_CRCEx_Polynomial_Set>:
  *          @arg @ref CRC_POLYLENGTH_16B 16-bit long CRC (generating polynomial of degree 16)
  *          @arg @ref CRC_POLYLENGTH_32B 32-bit long CRC (generating polynomial of degree 32)
  * @retval HAL status
  */
HAL_StatusTypeDef HAL_CRCEx_Polynomial_Set(CRC_HandleTypeDef *hcrc, uint32_t Pol, uint32_t PolyLength)
{
 8001d5c:	b480      	push	{r7}
 8001d5e:	b087      	sub	sp, #28
 8001d60:	af00      	add	r7, sp, #0
 8001d62:	60f8      	str	r0, [r7, #12]
 8001d64:	60b9      	str	r1, [r7, #8]
 8001d66:	607a      	str	r2, [r7, #4]
  HAL_StatusTypeDef status = HAL_OK;
 8001d68:	2300      	movs	r3, #0
 8001d6a:	75fb      	strb	r3, [r7, #23]
  uint32_t msb = 31U; /* polynomial degree is 32 at most, so msb is initialized to max value */
 8001d6c:	231f      	movs	r3, #31
 8001d6e:	613b      	str	r3, [r7, #16]
   * definition. HAL_ERROR is reported if Pol degree is
   * larger than that indicated by PolyLength.
   * Look for MSB position: msb will contain the degree of
   *  the second to the largest polynomial member. E.g., for
   *  X^7 + X^6 + X^5 + X^2 + 1, msb = 6. */
  while ((msb-- > 0U) && ((Pol & ((uint32_t)(0x1U) << (msb & 0x1FU))) == 0U))
 8001d70:	bf00      	nop
 8001d72:	693b      	ldr	r3, [r7, #16]
 8001d74:	1e5a      	subs	r2, r3, #1
 8001d76:	613a      	str	r2, [r7, #16]
 8001d78:	2b00      	cmp	r3, #0
 8001d7a:	d009      	beq.n	8001d90 <HAL_CRCEx_Polynomial_Set+0x34>
 8001d7c:	693b      	ldr	r3, [r7, #16]
 8001d7e:	f003 031f 	and.w	r3, r3, #31
 8001d82:	68ba      	ldr	r2, [r7, #8]
 8001d84:	fa22 f303 	lsr.w	r3, r2, r3
 8001d88:	f003 0301 	and.w	r3, r3, #1
 8001d8c:	2b00      	cmp	r3, #0
 8001d8e:	d0f0      	beq.n	8001d72 <HAL_CRCEx_Polynomial_Set+0x16>
  {
  }

  switch (PolyLength)
 8001d90:	687b      	ldr	r3, [r7, #4]
 8001d92:	2b18      	cmp	r3, #24
 8001d94:	d846      	bhi.n	8001e24 <HAL_CRCEx_Polynomial_Set+0xc8>
 8001d96:	a201      	add	r2, pc, #4	; (adr r2, 8001d9c <HAL_CRCEx_Polynomial_Set+0x40>)
 8001d98:	f852 f023 	ldr.w	pc, [r2, r3, lsl #2]
 8001d9c:	08001e2b 	.word	0x08001e2b
 8001da0:	08001e25 	.word	0x08001e25
 8001da4:	08001e25 	.word	0x08001e25
 8001da8:	08001e25 	.word	0x08001e25
 8001dac:	08001e25 	.word	0x08001e25
 8001db0:	08001e25 	.word	0x08001e25
 8001db4:	08001e25 	.word	0x08001e25
 8001db8:	08001e25 	.word	0x08001e25
 8001dbc:	08001e19 	.word	0x08001e19
 8001dc0:	08001e25 	.word	0x08001e25
 8001dc4:	08001e25 	.word	0x08001e25
 8001dc8:	08001e25 	.word	0x08001e25
 8001dcc:	08001e25 	.word	0x08001e25
 8001dd0:	08001e25 	.word	0x08001e25
 8001dd4:	08001e25 	.word	0x08001e25
 8001dd8:	08001e25 	.word	0x08001e25
 8001ddc:	08001e0d 	.word	0x08001e0d
 8001de0:	08001e25 	.word	0x08001e25
 8001de4:	08001e25 	.word	0x08001e25
 8001de8:	08001e25 	.word	0x08001e25
 8001dec:	08001e25 	.word	0x08001e25
 8001df0:	08001e25 	.word	0x08001e25
 8001df4:	08001e25 	.word	0x08001e25
 8001df8:	08001e25 	.word	0x08001e25
 8001dfc:	08001e01 	.word	0x08001e01
  {
    case CRC_POLYLENGTH_7B:
      if (msb >= HAL_CRC_LENGTH_7B)
 8001e00:	693b      	ldr	r3, [r7, #16]
 8001e02:	2b06      	cmp	r3, #6
 8001e04:	d913      	bls.n	8001e2e <HAL_CRCEx_Polynomial_Set+0xd2>
      {
        status =   HAL_ERROR;
 8001e06:	2301      	movs	r3, #1
 8001e08:	75fb      	strb	r3, [r7, #23]
      }
      break;
 8001e0a:	e010      	b.n	8001e2e <HAL_CRCEx_Polynomial_Set+0xd2>
    case CRC_POLYLENGTH_8B:
      if (msb >= HAL_CRC_LENGTH_8B)
 8001e0c:	693b      	ldr	r3, [r7, #16]
 8001e0e:	2b07      	cmp	r3, #7
 8001e10:	d90f      	bls.n	8001e32 <HAL_CRCEx_Polynomial_Set+0xd6>
      {
        status =   HAL_ERROR;
 8001e12:	2301      	movs	r3, #1
 8001e14:	75fb      	strb	r3, [r7, #23]
      }
      break;
 8001e16:	e00c      	b.n	8001e32 <HAL_CRCEx_Polynomial_Set+0xd6>
    case CRC_POLYLENGTH_16B:
      if (msb >= HAL_CRC_LENGTH_16B)
 8001e18:	693b      	ldr	r3, [r7, #16]
 8001e1a:	2b0f      	cmp	r3, #15
 8001e1c:	d90b      	bls.n	8001e36 <HAL_CRCEx_Polynomial_Set+0xda>
      {
        status =   HAL_ERROR;
 8001e1e:	2301      	movs	r3, #1
 8001e20:	75fb      	strb	r3, [r7, #23]
      }
      break;
 8001e22:	e008      	b.n	8001e36 <HAL_CRCEx_Polynomial_Set+0xda>

    case CRC_POLYLENGTH_32B:
      /* no polynomial definition vs. polynomial length issue possible */
      break;
    default:
      status =  HAL_ERROR;
 8001e24:	2301      	movs	r3, #1
 8001e26:	75fb      	strb	r3, [r7, #23]
      break;
 8001e28:	e006      	b.n	8001e38 <HAL_CRCEx_Polynomial_Set+0xdc>
      break;
 8001e2a:	bf00      	nop
 8001e2c:	e004      	b.n	8001e38 <HAL_CRCEx_Polynomial_Set+0xdc>
      break;
 8001e2e:	bf00      	nop
 8001e30:	e002      	b.n	8001e38 <HAL_CRCEx_Polynomial_Set+0xdc>
      break;
 8001e32:	bf00      	nop
 8001e34:	e000      	b.n	8001e38 <HAL_CRCEx_Polynomial_Set+0xdc>
      break;
 8001e36:	bf00      	nop
  }
  if (status == HAL_OK)
 8001e38:	7dfb      	ldrb	r3, [r7, #23]
 8001e3a:	2b00      	cmp	r3, #0
 8001e3c:	d10d      	bne.n	8001e5a <HAL_CRCEx_Polynomial_Set+0xfe>
  {
    /* set generating polynomial */
    WRITE_REG(hcrc->Instance->POL, Pol);
 8001e3e:	68fb      	ldr	r3, [r7, #12]
 8001e40:	681b      	ldr	r3, [r3, #0]
 8001e42:	68ba      	ldr	r2, [r7, #8]
 8001e44:	615a      	str	r2, [r3, #20]

    /* set generating polynomial size */
    MODIFY_REG(hcrc->Instance->CR, CRC_CR_POLYSIZE, PolyLength);
 8001e46:	68fb      	ldr	r3, [r7, #12]
 8001e48:	681b      	ldr	r3, [r3, #0]
 8001e4a:	689b      	ldr	r3, [r3, #8]
 8001e4c:	f023 0118 	bic.w	r1, r3, #24
 8001e50:	68fb      	ldr	r3, [r7, #12]
 8001e52:	681b      	ldr	r3, [r3, #0]
 8001e54:	687a      	ldr	r2, [r7, #4]
 8001e56:	430a      	orrs	r2, r1
 8001e58:	609a      	str	r2, [r3, #8]
  }
  /* Return function status */
  return status;
 8001e5a:	7dfb      	ldrb	r3, [r7, #23]
}
 8001e5c:	4618      	mov	r0, r3
 8001e5e:	371c      	adds	r7, #28
 8001e60:	46bd      	mov	sp, r7
 8001e62:	bc80      	pop	{r7}
 8001e64:	4770      	bx	lr
 8001e66:	bf00      	nop

08001e68 <HAL_CRYP_Init>:
  * @param  hcryp pointer to a CRYP_HandleTypeDef structure that contains
  *         the configuration information for CRYP module
  * @retval HAL status
  */
HAL_StatusTypeDef HAL_CRYP_Init(CRYP_HandleTypeDef *hcryp)
{
 8001e68:	b580      	push	{r7, lr}
 8001e6a:	b082      	sub	sp, #8
 8001e6c:	af00      	add	r7, sp, #0
 8001e6e:	6078      	str	r0, [r7, #4]
  /* Check the CRYP handle allocation */
  if (hcryp == NULL)
 8001e70:	687b      	ldr	r3, [r7, #4]
 8001e72:	2b00      	cmp	r3, #0
 8001e74:	d101      	bne.n	8001e7a <HAL_CRYP_Init+0x12>
  {
    return HAL_ERROR;
 8001e76:	2301      	movs	r3, #1
 8001e78:	e02d      	b.n	8001ed6 <HAL_CRYP_Init+0x6e>

    /* Init the low level hardware */
    hcryp->MspInitCallback(hcryp);
  }
#else
  if (hcryp->State == HAL_CRYP_STATE_RESET)
 8001e7a:	687b      	ldr	r3, [r7, #4]
 8001e7c:	f893 3051 	ldrb.w	r3, [r3, #81]	; 0x51
 8001e80:	b2db      	uxtb	r3, r3
 8001e82:	2b00      	cmp	r3, #0
 8001e84:	d106      	bne.n	8001e94 <HAL_CRYP_Init+0x2c>
  {
    /* Allocate lock resource and initialize it */
    hcryp->Lock = HAL_UNLOCKED;
 8001e86:	687b      	ldr	r3, [r7, #4]
 8001e88:	2200      	movs	r2, #0
 8001e8a:	f883 2050 	strb.w	r2, [r3, #80]	; 0x50

    /* Init the low level hardware */
    HAL_CRYP_MspInit(hcryp);
 8001e8e:	6878      	ldr	r0, [r7, #4]
 8001e90:	f7fe fe28 	bl	8000ae4 <HAL_CRYP_MspInit>
  }
#endif /* (USE_HAL_CRYP_REGISTER_CALLBACKS) */

  /* Set the key size (This bit field is do not care in the DES or TDES modes), data type and Algorithm */
  MODIFY_REG(hcryp->Instance->CR, AES_CR_DATATYPE | AES_CR_KEYSIZE | AES_CR_CHMOD, hcryp->Init.DataType | hcryp->Init.KeySize | hcryp->Init.Algorithm);
 8001e94:	687b      	ldr	r3, [r7, #4]
 8001e96:	681b      	ldr	r3, [r3, #0]
 8001e98:	681b      	ldr	r3, [r3, #0]
 8001e9a:	f423 23a0 	bic.w	r3, r3, #327680	; 0x50000
 8001e9e:	f023 0366 	bic.w	r3, r3, #102	; 0x66
 8001ea2:	687a      	ldr	r2, [r7, #4]
 8001ea4:	6851      	ldr	r1, [r2, #4]
 8001ea6:	687a      	ldr	r2, [r7, #4]
 8001ea8:	6892      	ldr	r2, [r2, #8]
 8001eaa:	4311      	orrs	r1, r2
 8001eac:	687a      	ldr	r2, [r7, #4]
 8001eae:	6952      	ldr	r2, [r2, #20]
 8001eb0:	4311      	orrs	r1, r2
 8001eb2:	687a      	ldr	r2, [r7, #4]
 8001eb4:	6812      	ldr	r2, [r2, #0]
 8001eb6:	430b      	orrs	r3, r1
 8001eb8:	6013      	str	r3, [r2, #0]

  /* Reset Error Code field */
  hcryp->ErrorCode = HAL_CRYP_ERROR_NONE;
 8001eba:	687b      	ldr	r3, [r7, #4]
 8001ebc:	2200      	movs	r2, #0
 8001ebe:	655a      	str	r2, [r3, #84]	; 0x54

  /* Reset peripheral Key and IV configuration flag */
  hcryp->KeyIVConfig = 0U;
 8001ec0:	687b      	ldr	r3, [r7, #4]
 8001ec2:	2200      	movs	r2, #0
 8001ec4:	659a      	str	r2, [r3, #88]	; 0x58

  /* Change the CRYP state */
  hcryp->State = HAL_CRYP_STATE_READY;
 8001ec6:	687b      	ldr	r3, [r7, #4]
 8001ec8:	2201      	movs	r2, #1
 8001eca:	f883 2051 	strb.w	r2, [r3, #81]	; 0x51

  /* Set the default CRYP phase */
  hcryp->Phase = CRYP_PHASE_READY;
 8001ece:	687b      	ldr	r3, [r7, #4]
 8001ed0:	2201      	movs	r2, #1
 8001ed2:	645a      	str	r2, [r3, #68]	; 0x44

  /* Return function status */
  return HAL_OK;
 8001ed4:	2300      	movs	r3, #0
}
 8001ed6:	4618      	mov	r0, r3
 8001ed8:	3708      	adds	r7, #8
 8001eda:	46bd      	mov	sp, r7
 8001edc:	bd80      	pop	{r7, pc}

08001ede <HAL_CRYP_DeInit>:
  * @param  hcryp pointer to a CRYP_HandleTypeDef structure that contains
  *         the configuration information for CRYP module
  * @retval HAL status
*/
HAL_StatusTypeDef HAL_CRYP_DeInit(CRYP_HandleTypeDef *hcryp)
{
 8001ede:	b580      	push	{r7, lr}
 8001ee0:	b082      	sub	sp, #8
 8001ee2:	af00      	add	r7, sp, #0
 8001ee4:	6078      	str	r0, [r7, #4]
  /* Check the CRYP handle allocation */
  if (hcryp == NULL)
 8001ee6:	687b      	ldr	r3, [r7, #4]
 8001ee8:	2b00      	cmp	r3, #0
 8001eea:	d101      	bne.n	8001ef0 <HAL_CRYP_DeInit+0x12>
  {
    return HAL_ERROR;
 8001eec:	2301      	movs	r3, #1
 8001eee:	e020      	b.n	8001f32 <HAL_CRYP_DeInit+0x54>
  }

  /* Set the default CRYP phase */
  hcryp->Phase = CRYP_PHASE_READY;
 8001ef0:	687b      	ldr	r3, [r7, #4]
 8001ef2:	2201      	movs	r2, #1
 8001ef4:	645a      	str	r2, [r3, #68]	; 0x44

  /* Reset CrypInCount and CrypOutCount */
  hcryp->CrypInCount = 0;
 8001ef6:	687b      	ldr	r3, [r7, #4]
 8001ef8:	2200      	movs	r2, #0
 8001efa:	87da      	strh	r2, [r3, #62]	; 0x3e
  hcryp->CrypOutCount = 0;
 8001efc:	687b      	ldr	r3, [r7, #4]
 8001efe:	2200      	movs	r2, #0
 8001f00:	f8a3 2040 	strh.w	r2, [r3, #64]	; 0x40
  hcryp->CrypHeaderCount = 0;
 8001f04:	687b      	ldr	r3, [r7, #4]
 8001f06:	2200      	movs	r2, #0
