Archive member included to satisfy reference by file (symbol)

e:/all software/stm32cubeide_1.7.0/stm32cubeide/plugins/com.st.stm32cube.ide.mcu.externaltools.gnu-tools-for-stm32.10.3-2021.10.win32_1.0.0.202111181127/tools/bin/../lib/gcc/arm-none-eabi/10.3.1/../../../../arm-none-eabi/lib/thumb/v7e-m/nofp\libc_nano.a(lib_a-errno.o)
                              ./Core/Src/syscalls.o (__errno)
e:/all software/stm32cubeide_1.7.0/stm32cubeide/plugins/com.st.stm32cube.ide.mcu.externaltools.gnu-tools-for-stm32.10.3-2021.10.win32_1.0.0.202111181127/tools/bin/../lib/gcc/arm-none-eabi/10.3.1/../../../../arm-none-eabi/lib/thumb/v7e-m/nofp\libc_nano.a(lib_a-exit.o)
                              e:/all software/stm32cubeide_1.7.0/stm32cubeide/plugins/com.st.stm32cube.ide.mcu.externaltools.gnu-tools-for-stm32.10.3-2021.10.win32_1.0.0.202111181127/tools/bin/../lib/gcc/arm-none-eabi/10.3.1/../../../../arm-none-eabi/lib/thumb/v7e-m/nofp/crt0.o (exit)
e:/all software/stm32cubeide_1.7.0/stm32cubeide/plugins/com.st.stm32cube.ide.mcu.externaltools.gnu-tools-for-stm32.10.3-2021.10.win32_1.0.0.202111181127/tools/bin/../lib/gcc/arm-none-eabi/10.3.1/../../../../arm-none-eabi/lib/thumb/v7e-m/nofp\libc_nano.a(lib_a-impure.o)
                              e:/all software/stm32cubeide_1.7.0/stm32cubeide/plugins/com.st.stm32cube.ide.mcu.externaltools.gnu-tools-for-stm32.10.3-2021.10.win32_1.0.0.202111181127/tools/bin/../lib/gcc/arm-none-eabi/10.3.1/../../../../arm-none-eabi/lib/thumb/v7e-m/nofp\libc_nano.a(lib_a-exit.o) (_global_impure_ptr)
e:/all software/stm32cubeide_1.7.0/stm32cubeide/plugins/com.st.stm32cube.ide.mcu.externaltools.gnu-tools-for-stm32.10.3-2021.10.win32_1.0.0.202111181127/tools/bin/../lib/gcc/arm-none-eabi/10.3.1/../../../../arm-none-eabi/lib/thumb/v7e-m/nofp\libc_nano.a(lib_a-init.o)
                              e:/all software/stm32cubeide_1.7.0/stm32cubeide/plugins/com.st.stm32cube.ide.mcu.externaltools.gnu-tools-for-stm32.10.3-2021.10.win32_1.0.0.202111181127/tools/bin/../lib/gcc/arm-none-eabi/10.3.1/../../../../arm-none-eabi/lib/thumb/v7e-m/nofp/crt0.o (__libc_init_array)
e:/all software/stm32cubeide_1.7.0/stm32cubeide/plugins/com.st.stm32cube.ide.mcu.externaltools.gnu-tools-for-stm32.10.3-2021.10.win32_1.0.0.202111181127/tools/bin/../lib/gcc/arm-none-eabi/10.3.1/../../../../arm-none-eabi/lib/thumb/v7e-m/nofp\libc_nano.a(lib_a-memset.o)
                              e:/all software/stm32cubeide_1.7.0/stm32cubeide/plugins/com.st.stm32cube.ide.mcu.externaltools.gnu-tools-for-stm32.10.3-2021.10.win32_1.0.0.202111181127/tools/bin/../lib/gcc/arm-none-eabi/10.3.1/../../../../arm-none-eabi/lib/thumb/v7e-m/nofp/crt0.o (memset)
e:/all software/stm32cubeide_1.7.0/stm32cubeide/plugins/com.st.stm32cube.ide.mcu.externaltools.gnu-tools-for-stm32.10.3-2021.10.win32_1.0.0.202111181127/tools/bin/../lib/gcc/arm-none-eabi/10.3.1/../../../../arm-none-eabi/lib/thumb/v7e-m/nofp\libc_nano.a(lib_a-strlen.o)
                              ./Core/Src/sys_app.o (strlen)
e:/all software/stm32cubeide_1.7.0/stm32cubeide/plugins/com.st.stm32cube.ide.mcu.externaltools.gnu-tools-for-stm32.10.3-2021.10.win32_1.0.0.202111181127/tools/bin/../lib/gcc/arm-none-eabi/10.3.1/thumb/v7e-m/nofp\libgcc.a(_aeabi_uldivmod.o)
                              ./Core/Src/timer_if.o (__aeabi_uldivmod)
e:/all software/stm32cubeide_1.7.0/stm32cubeide/plugins/com.st.stm32cube.ide.mcu.externaltools.gnu-tools-for-stm32.10.3-2021.10.win32_1.0.0.202111181127/tools/bin/../lib/gcc/arm-none-eabi/10.3.1/thumb/v7e-m/nofp\libgcc.a(_udivmoddi4.o)
                              e:/all software/stm32cubeide_1.7.0/stm32cubeide/plugins/com.st.stm32cube.ide.mcu.externaltools.gnu-tools-for-stm32.10.3-2021.10.win32_1.0.0.202111181127/tools/bin/../lib/gcc/arm-none-eabi/10.3.1/thumb/v7e-m/nofp\libgcc.a(_aeabi_uldivmod.o) (__udivmoddi4)
e:/all software/stm32cubeide_1.7.0/stm32cubeide/plugins/com.st.stm32cube.ide.mcu.externaltools.gnu-tools-for-stm32.10.3-2021.10.win32_1.0.0.202111181127/tools/bin/../lib/gcc/arm-none-eabi/10.3.1/thumb/v7e-m/nofp\libgcc.a(_dvmd_tls.o)
                              e:/all software/stm32cubeide_1.7.0/stm32cubeide/plugins/com.st.stm32cube.ide.mcu.externaltools.gnu-tools-for-stm32.10.3-2021.10.win32_1.0.0.202111181127/tools/bin/../lib/gcc/arm-none-eabi/10.3.1/thumb/v7e-m/nofp\libgcc.a(_aeabi_uldivmod.o) (__aeabi_ldiv0)

Discarded input sections

 .text          0x0000000000000000        0x0 e:/all software/stm32cubeide_1.7.0/stm32cubeide/plugins/com.st.stm32cube.ide.mcu.externaltools.gnu-tools-for-stm32.10.3-2021.10.win32_1.0.0.202111181127/tools/bin/../lib/gcc/arm-none-eabi/10.3.1/thumb/v7e-m/nofp/crti.o
 .data          0x0000000000000000        0x0 e:/all software/stm32cubeide_1.7.0/stm32cubeide/plugins/com.st.stm32cube.ide.mcu.externaltools.gnu-tools-for-stm32.10.3-2021.10.win32_1.0.0.202111181127/tools/bin/../lib/gcc/arm-none-eabi/10.3.1/thumb/v7e-m/nofp/crti.o
 .bss           0x0000000000000000        0x0 e:/all software/stm32cubeide_1.7.0/stm32cubeide/plugins/com.st.stm32cube.ide.mcu.externaltools.gnu-tools-for-stm32.10.3-2021.10.win32_1.0.0.202111181127/tools/bin/../lib/gcc/arm-none-eabi/10.3.1/thumb/v7e-m/nofp/crti.o
 .data          0x0000000000000000        0x4 e:/all software/stm32cubeide_1.7.0/stm32cubeide/plugins/com.st.stm32cube.ide.mcu.externaltools.gnu-tools-for-stm32.10.3-2021.10.win32_1.0.0.202111181127/tools/bin/../lib/gcc/arm-none-eabi/10.3.1/thumb/v7e-m/nofp/crtbegin.o
 .rodata        0x0000000000000000       0x24 e:/all software/stm32cubeide_1.7.0/stm32cubeide/plugins/com.st.stm32cube.ide.mcu.externaltools.gnu-tools-for-stm32.10.3-2021.10.win32_1.0.0.202111181127/tools/bin/../lib/gcc/arm-none-eabi/10.3.1/thumb/v7e-m/nofp/crtbegin.o
 .text          0x0000000000000000       0x7c e:/all software/stm32cubeide_1.7.0/stm32cubeide/plugins/com.st.stm32cube.ide.mcu.externaltools.gnu-tools-for-stm32.10.3-2021.10.win32_1.0.0.202111181127/tools/bin/../lib/gcc/arm-none-eabi/10.3.1/../../../../arm-none-eabi/lib/thumb/v7e-m/nofp/crt0.o
 .data          0x0000000000000000        0x0 e:/all software/stm32cubeide_1.7.0/stm32cubeide/plugins/com.st.stm32cube.ide.mcu.externaltools.gnu-tools-for-stm32.10.3-2021.10.win32_1.0.0.202111181127/tools/bin/../lib/gcc/arm-none-eabi/10.3.1/../../../../arm-none-eabi/lib/thumb/v7e-m/nofp/crt0.o
 .bss           0x0000000000000000        0x0 e:/all software/stm32cubeide_1.7.0/stm32cubeide/plugins/com.st.stm32cube.ide.mcu.externaltools.gnu-tools-for-stm32.10.3-2021.10.win32_1.0.0.202111181127/tools/bin/../lib/gcc/arm-none-eabi/10.3.1/../../../../arm-none-eabi/lib/thumb/v7e-m/nofp/crt0.o
 .ARM.extab     0x0000000000000000        0x0 e:/all software/stm32cubeide_1.7.0/stm32cubeide/plugins/com.st.stm32cube.ide.mcu.externaltools.gnu-tools-for-stm32.10.3-2021.10.win32_1.0.0.202111181127/tools/bin/../lib/gcc/arm-none-eabi/10.3.1/../../../../arm-none-eabi/lib/thumb/v7e-m/nofp/crt0.o
 .ARM.exidx     0x0000000000000000       0x10 e:/all software/stm32cubeide_1.7.0/stm32cubeide/plugins/com.st.stm32cube.ide.mcu.externaltools.gnu-tools-for-stm32.10.3-2021.10.win32_1.0.0.202111181127/tools/bin/../lib/gcc/arm-none-eabi/10.3.1/../../../../arm-none-eabi/lib/thumb/v7e-m/nofp/crt0.o
 .ARM.attributes
                0x0000000000000000       0x1c e:/all software/stm32cubeide_1.7.0/stm32cubeide/plugins/com.st.stm32cube.ide.mcu.externaltools.gnu-tools-for-stm32.10.3-2021.10.win32_1.0.0.202111181127/tools/bin/../lib/gcc/arm-none-eabi/10.3.1/../../../../arm-none-eabi/lib/thumb/v7e-m/nofp/crt0.o
 .group         0x0000000000000000        0xc ./Core/Src/main.o
 .group         0x0000000000000000        0xc ./Core/Src/main.o
 .group         0x0000000000000000        0xc ./Core/Src/main.o
 .group         0x0000000000000000        0xc ./Core/Src/main.o
 .group         0x0000000000000000        0xc ./Core/Src/main.o
 .group         0x0000000000000000        0xc ./Core/Src/main.o
Memory Configuration

Name             Origin             Length             Attributes
RAM              0x0000000020000000 0x0000000000010000 xrw
RAM2             0x0000000010000000 0x0000000000008000 xrw
FLASH            0x0000000008000000 0x0000000000040000 xr
*default*        0x0000000000000000 0xffffffffffffffff

Linker script and memory map

LOAD e:/all software/stm32cubeide_1.7.0/stm32cubeide/plugins/com.st.stm32cube.ide.mcu.externaltools.gnu-tools-for-stm32.10.3-2021.10.win32_1.0.0.202111181127/tools/bin/../lib/gcc/arm-none-eabi/10.3.1/thumb/v7e-m/nofp/crti.o
LOAD e:/all software/stm32cubeide_1.7.0/stm32cubeide/plugins/com.st.stm32cube.ide.mcu.externaltools.gnu-tools-for-stm32.10.3-2021.10.win32_1.0.0.202111181127/tools/bin/../lib/gcc/arm-none-eabi/10.3.1/thumb/v7e-m/nofp/crtbegin.o
LOAD e:/all software/stm32cubeide_1.7.0/stm32cubeide/plugins/com.st.stm32cube.ide.mcu.externaltools.gnu-tools-for-stm32.10.3-2021.10.win32_1.0.0.202111181127/tools/bin/../lib/gcc/arm-none-eabi/10.3.1/../../../../arm-none-eabi/lib/thumb/v7e-m/nofp/crt0.o
LOAD ./Core/Src/main.o
LOAD ./Core/Src/stm32_lpm_if.o
LOAD ./Core/Src/stm32wlxx_hal_msp.o
LOAD ./Core/Src/stm32wlxx_it.o
LOAD ./Core/Src/sys_app.o
LOAD ./Core/Src/sys_debug.o
LOAD ./Core/Src/syscalls.o
LOAD ./Core/Src/sysmem.o
LOAD ./Core/Src/system_stm32wlxx.o
LOAD ./Core/Src/timer_if.o
LOAD ./Core/Src/usart_if.o
LOAD ./Core/Startup/startup_stm32wle5jcix.o
LOAD ./Drivers/STM32WLxx_HAL_Driver/Src/stm32wlxx_hal.o
LOAD ./Drivers/STM32WLxx_HAL_Driver/Src/stm32wlxx_hal_cortex.o
LOAD ./Drivers/STM32WLxx_HAL_Driver/Src/stm32wlxx_hal_crc.o
LOAD ./Drivers/STM32WLxx_HAL_Driver/Src/stm32wlxx_hal_crc_ex.o
LOAD ./Drivers/STM32WLxx_HAL_Driver/Src/stm32wlxx_hal_cryp.o
LOAD ./Drivers/STM32WLxx_HAL_Driver/Src/stm32wlxx_hal_cryp_ex.o
LOAD ./Drivers/STM32WLxx_HAL_Driver/Src/stm32wlxx_hal_dma.o
LOAD ./Drivers/STM32WLxx_HAL_Driver/Src/stm32wlxx_hal_dma_ex.o
LOAD ./Drivers/STM32WLxx_HAL_Driver/Src/stm32wlxx_hal_exti.o
LOAD ./Drivers/STM32WLxx_HAL_Driver/Src/stm32wlxx_hal_flash.o
LOAD ./Drivers/STM32WLxx_HAL_Driver/Src/stm32wlxx_hal_flash_ex.o
LOAD ./Drivers/STM32WLxx_HAL_Driver/Src/stm32wlxx_hal_gpio.o
LOAD ./Drivers/STM32WLxx_HAL_Driver/Src/stm32wlxx_hal_i2c.o
LOAD ./Drivers/STM32WLxx_HAL_Driver/Src/stm32wlxx_hal_i2c_ex.o
LOAD ./Drivers/STM32WLxx_HAL_Driver/Src/stm32wlxx_hal_pwr.o
LOAD ./Drivers/STM32WLxx_HAL_Driver/Src/stm32wlxx_hal_pwr_ex.o
LOAD ./Drivers/STM32WLxx_HAL_Driver/Src/stm32wlxx_hal_rcc.o
LOAD ./Drivers/STM32WLxx_HAL_Driver/Src/stm32wlxx_hal_rcc_ex.o
LOAD ./Drivers/STM32WLxx_HAL_Driver/Src/stm32wlxx_hal_rtc.o
LOAD ./Drivers/STM32WLxx_HAL_Driver/Src/stm32wlxx_hal_rtc_ex.o
LOAD ./Drivers/STM32WLxx_HAL_Driver/Src/stm32wlxx_hal_subghz.o
LOAD ./Drivers/STM32WLxx_HAL_Driver/Src/stm32wlxx_hal_tim.o
LOAD ./Drivers/STM32WLxx_HAL_Driver/Src/stm32wlxx_hal_tim_ex.o
LOAD ./Drivers/STM32WLxx_HAL_Driver/Src/stm32wlxx_hal_uart.o
LOAD ./Drivers/STM32WLxx_HAL_Driver/Src/stm32wlxx_hal_uart_ex.o
LOAD ./Middlewares/Third_Party/SubGHz_Phy/stm32_radio_driver/radio.o
LOAD ./Middlewares/Third_Party/SubGHz_Phy/stm32_radio_driver/radio_driver.o
LOAD ./Middlewares/Third_Party/SubGHz_Phy/stm32_radio_driver/radio_fw.o
LOAD ./SubGHz_Phy/App/app_subghz_phy.o
LOAD ./SubGHz_Phy/App/subghz_phy_app.o
LOAD ./SubGHz_Phy/Target/radio_board_if.o
LOAD ./Utilities/lpm/tiny_lpm/stm32_lpm.o
LOAD ./Utilities/misc/stm32_mem.o
LOAD ./Utilities/misc/stm32_systime.o
LOAD ./Utilities/misc/stm32_tiny_sscanf.o
LOAD ./Utilities/misc/stm32_tiny_vsnprintf.o
LOAD ./Utilities/sequencer/stm32_seq.o
LOAD ./Utilities/timer/stm32_timer.o
LOAD ./Utilities/trace/adv_trace/stm32_adv_trace.o
START GROUP
LOAD e:/all software/stm32cubeide_1.7.0/stm32cubeide/plugins/com.st.stm32cube.ide.mcu.externaltools.gnu-tools-for-stm32.10.3-2021.10.win32_1.0.0.202111181127/tools/bin/../lib/gcc/arm-none-eabi/10.3.1/../../../../arm-none-eabi/lib/thumb/v7e-m/nofp\libstdc++_nano.a
LOAD e:/all software/stm32cubeide_1.7.0/stm32cubeide/plugins/com.st.stm32cube.ide.mcu.externaltools.gnu-tools-for-stm32.10.3-2021.10.win32_1.0.0.202111181127/tools/bin/../lib/gcc/arm-none-eabi/10.3.1/../../../../arm-none-eabi/lib/thumb/v7e-m/nofp\libsupc++_nano.a
END GROUP
LOAD e:/all software/stm32cubeide_1.7.0/stm32cubeide/plugins/com.st.stm32cube.ide.mcu.externaltools.gnu-tools-for-stm32.10.3-2021.10.win32_1.0.0.202111181127/tools/bin/../lib/gcc/arm-none-eabi/10.3.1/../../../../arm-none-eabi/lib/thumb/v7e-m/nofp\libstdc++_nano.a
LOAD e:/all software/stm32cubeide_1.7.0/stm32cubeide/plugins/com.st.stm32cube.ide.mcu.externaltools.gnu-tools-for-stm32.10.3-2021.10.win32_1.0.0.202111181127/tools/bin/../lib/gcc/arm-none-eabi/10.3.1/../../../../arm-none-eabi/lib/thumb/v7e-m/nofp\libm.a
LOAD e:/all software/stm32cubeide_1.7.0/stm32cubeide/plugins/com.st.stm32cube.ide.mcu.externaltools.gnu-tools-for-stm32.10.3-2021.10.win32_1.0.0.202111181127/tools/bin/../lib/gcc/arm-none-eabi/10.3.1/../../../../arm-none-eabi/lib/thumb/v7e-m/nofp\libc_nano.a
START GROUP
LOAD e:/all software/stm32cubeide_1.7.0/stm32cubeide/plugins/com.st.stm32cube.ide.mcu.externaltools.gnu-tools-for-stm32.10.3-2021.10.win32_1.0.0.202111181127/tools/bin/../lib/gcc/arm-none-eabi/10.3.1/thumb/v7e-m/nofp\libgcc.a
LOAD e:/all software/stm32cubeide_1.7.0/stm32cubeide/plugins/com.st.stm32cube.ide.mcu.externaltools.gnu-tools-for-stm32.10.3-2021.10.win32_1.0.0.202111181127/tools/bin/../lib/gcc/arm-none-eabi/10.3.1/../../../../arm-none-eabi/lib/thumb/v7e-m/nofp\libc_nano.a
END GROUP
START GROUP
LOAD e:/all software/stm32cubeide_1.7.0/stm32cubeide/plugins/com.st.stm32cube.ide.mcu.externaltools.gnu-tools-for-stm32.10.3-2021.10.win32_1.0.0.202111181127/tools/bin/../lib/gcc/arm-none-eabi/10.3.1/thumb/v7e-m/nofp\libgcc.a
LOAD e:/all software/stm32cubeide_1.7.0/stm32cubeide/plugins/com.st.stm32cube.ide.mcu.externaltools.gnu-tools-for-stm32.10.3-2021.10.win32_1.0.0.202111181127/tools/bin/../lib/gcc/arm-none-eabi/10.3.1/../../../../arm-none-eabi/lib/thumb/v7e-m/nofp\libc_nano.a
LOAD e:/all software/stm32cubeide_1.7.0/stm32cubeide/plugins/com.st.stm32cube.ide.mcu.externaltools.gnu-tools-for-stm32.10.3-2021.10.win32_1.0.0.202111181127/tools/bin/../lib/gcc/arm-none-eabi/10.3.1/../../../../arm-none-eabi/lib/thumb/v7e-m/nofp\libnosys.a
END GROUP
START GROUP
LOAD e:/all software/stm32cubeide_1.7.0/stm32cubeide/plugins/com.st.stm32cube.ide.mcu.externaltools.gnu-tools-for-stm32.10.3-2021.10.win32_1.0.0.202111181127/tools/bin/../lib/gcc/arm-none-eabi/10.3.1/thumb/v7e-m/nofp\libgcc.a
LOAD e:/all software/stm32cubeide_1.7.0/stm32cubeide/plugins/com.st.stm32cube.ide.mcu.externaltools.gnu-tools-for-stm32.10.3-2021.10.win32_1.0.0.202111181127/tools/bin/../lib/gcc/arm-none-eabi/10.3.1/../../../../arm-none-eabi/lib/thumb/v7e-m/nofp\libc_nano.a
LOAD e:/all software/stm32cubeide_1.7.0/stm32cubeide/plugins/com.st.stm32cube.ide.mcu.externaltools.gnu-tools-for-stm32.10.3-2021.10.win32_1.0.0.202111181127/tools/bin/../lib/gcc/arm-none-eabi/10.3.1/../../../../arm-none-eabi/lib/thumb/v7e-m/nofp\libnosys.a
END GROUP
LOAD e:/all software/stm32cubeide_1.7.0/stm32cubeide/plugins/com.st.stm32cube.ide.mcu.externaltools.gnu-tools-for-stm32.10.3-2021.10.win32_1.0.0.202111181127/tools/bin/../lib/gcc/arm-none-eabi/10.3.1/thumb/v7e-m/nofp/crtend.o
LOAD e:/all software/stm32cubeide_1.7.0/stm32cubeide/plugins/com.st.stm32cube.ide.mcu.externaltools.gnu-tools-for-stm32.10.3-2021.10.win32_1.0.0.202111181127/tools/bin/../lib/gcc/arm-none-eabi/10.3.1/thumb/v7e-m/nofp/crtn.o
                0x0000000020010000                _estack = (ORIGIN (RAM) + LENGTH (RAM))
                0x0000000000000200                _Min_Heap_Size = 0x200
                0x0000000000000400                _Min_Stack_Size = 0x400

.isr_vector     0x0000000008000000      0x138
                0x0000000008000000                . = ALIGN (0x4)
 *(.isr_vector)
 .isr_vector    0x0000000008000000      0x138 ./Core/Startup/startup_stm32wle5jcix.o
                0x0000000008000000                g_pfnVectors
                0x0000000008000138                . = ALIGN (0x4)

.text           0x0000000008000138     0xd630
                0x0000000008000138                . = ALIGN (0x4)
 *(.text)
 .text          0x0000000008000138       0x40 e:/all software/stm32cubeide_1.7.0/stm32cubeide/plugins/com.st.stm32cube.ide.mcu.externaltools.gnu-tools-for-stm32.10.3-2021.10.win32_1.0.0.202111181127/tools/bin/../lib/gcc/arm-none-eabi/10.3.1/thumb/v7e-m/nofp/crtbegin.o
 .text          0x0000000008000178       0x10 e:/all software/stm32cubeide_1.7.0/stm32cubeide/plugins/com.st.stm32cube.ide.mcu.externaltools.gnu-tools-for-stm32.10.3-2021.10.win32_1.0.0.202111181127/tools/bin/../lib/gcc/arm-none-eabi/10.3.1/../../../../arm-none-eabi/lib/thumb/v7e-m/nofp\libc_nano.a(lib_a-strlen.o)
                0x0000000008000178                strlen
 .text          0x0000000008000188       0x30 e:/all software/stm32cubeide_1.7.0/stm32cubeide/plugins/com.st.stm32cube.ide.mcu.externaltools.gnu-tools-for-stm32.10.3-2021.10.win32_1.0.0.202111181127/tools/bin/../lib/gcc/arm-none-eabi/10.3.1/thumb/v7e-m/nofp\libgcc.a(_aeabi_uldivmod.o)
                0x0000000008000188                __aeabi_uldivmod
 .text          0x00000000080001b8      0x2d0 e:/all software/stm32cubeide_1.7.0/stm32cubeide/plugins/com.st.stm32cube.ide.mcu.externaltools.gnu-tools-for-stm32.10.3-2021.10.win32_1.0.0.202111181127/tools/bin/../lib/gcc/arm-none-eabi/10.3.1/thumb/v7e-m/nofp\libgcc.a(_udivmoddi4.o)
                0x00000000080001b8                __udivmoddi4
 .text          0x0000000008000488        0x4 e:/all software/stm32cubeide_1.7.0/stm32cubeide/plugins/com.st.stm32cube.ide.mcu.externaltools.gnu-tools-for-stm32.10.3-2021.10.win32_1.0.0.202111181127/tools/bin/../lib/gcc/arm-none-eabi/10.3.1/thumb/v7e-m/nofp\libgcc.a(_dvmd_tls.o)
                0x0000000008000488                __aeabi_idiv0
                0x0000000008000488                __aeabi_ldiv0
 *(.text*)
 .text.LL_RCC_LSE_SetDriveCapability
                0x000000000800048c       0x2a ./Core/Src/main.o
 .text.LL_AHB1_GRP1_EnableClock
                0x00000000080004b6       0x30 ./Core/Src/main.o
 .text.LL_AHB2_GRP1_EnableClock
                0x00000000080004e6       0x30 ./Core/Src/main.o
 .text.main     0x0000000008000516       0x22 ./Core/Src/main.o
                0x0000000008000516                main
 .text.SystemClock_Config
                0x0000000008000538       0xdc ./Core/Src/main.o
                0x0000000008000538                SystemClock_Config
 .text.MX_AES_Init
                0x0000000008000614       0x58 ./Core/Src/main.o
 .text.MX_CRC_Init
                0x000000000800066c       0x54 ./Core/Src/main.o
 .text.MX_RTC_Init
                0x00000000080006c0       0xa4 ./Core/Src/main.o
                0x00000000080006c0                MX_RTC_Init
 .text.MX_SUBGHZ_Init
                0x0000000008000764       0x24 ./Core/Src/main.o
                0x0000000008000764                MX_SUBGHZ_Init
 .text.MX_USART1_UART_Init
                0x0000000008000788       0x98 ./Core/Src/main.o
                0x0000000008000788                MX_USART1_UART_Init
 .text.MX_DMA_Init
                0x0000000008000820       0x24 ./Core/Src/main.o
                0x0000000008000820                MX_DMA_Init
 .text.MX_GPIO_Init
                0x0000000008000844       0x88 ./Core/Src/main.o
                0x0000000008000844                MX_GPIO_Init
 .text.Error_Handler
                0x00000000080008cc        0xa ./Core/Src/main.o
                0x00000000080008cc                Error_Handler
 *fill*         0x00000000080008d6        0x2 
 .text.LL_PWR_ClearFlag_C1STOP_C1STB
                0x00000000080008d8       0x18 ./Core/Src/stm32_lpm_if.o
 .text.PWR_EnterOffMode
                0x00000000080008f0        0xc ./Core/Src/stm32_lpm_if.o
                0x00000000080008f0                PWR_EnterOffMode
 .text.PWR_ExitOffMode
                0x00000000080008fc        0xc ./Core/Src/stm32_lpm_if.o
                0x00000000080008fc                PWR_ExitOffMode
 .text.PWR_EnterStopMode
                0x0000000008000908       0x16 ./Core/Src/stm32_lpm_if.o
                0x0000000008000908                PWR_EnterStopMode
 .text.PWR_ExitStopMode
                0x000000000800091e       0x10 ./Core/Src/stm32_lpm_if.o
                0x000000000800091e                PWR_ExitStopMode
 .text.PWR_EnterSleepMode
                0x000000000800092e       0x14 ./Core/Src/stm32_lpm_if.o
                0x000000000800092e                PWR_EnterSleepMode
 .text.PWR_ExitSleepMode
                0x0000000008000942        0xc ./Core/Src/stm32_lpm_if.o
                0x0000000008000942                PWR_ExitSleepMode
 .text.LL_RCC_EnableRTC
                0x000000000800094e       0x20 ./Core/Src/stm32wlxx_hal_msp.o
 .text.LL_AHB1_GRP1_EnableClock
                0x000000000800096e       0x30 ./Core/Src/stm32wlxx_hal_msp.o
 .text.LL_AHB2_GRP1_EnableClock
                0x000000000800099e       0x30 ./Core/Src/stm32wlxx_hal_msp.o
 .text.LL_AHB3_GRP1_EnableClock
                0x00000000080009ce       0x30 ./Core/Src/stm32wlxx_hal_msp.o
 .text.LL_AHB3_GRP1_DisableClock
                0x00000000080009fe       0x24 ./Core/Src/stm32wlxx_hal_msp.o
 .text.LL_APB1_GRP1_EnableClock
                0x0000000008000a22       0x30 ./Core/Src/stm32wlxx_hal_msp.o
 .text.LL_APB2_GRP1_EnableClock
                0x0000000008000a52       0x30 ./Core/Src/stm32wlxx_hal_msp.o
 .text.LL_APB2_GRP1_DisableClock
                0x0000000008000a82       0x24 ./Core/Src/stm32wlxx_hal_msp.o
 .text.LL_APB3_GRP1_EnableClock
                0x0000000008000aa6       0x30 ./Core/Src/stm32wlxx_hal_msp.o
 .text.HAL_MspInit
                0x0000000008000ad6        0xc ./Core/Src/stm32wlxx_hal_msp.o
                0x0000000008000ad6                HAL_MspInit
 *fill*         0x0000000008000ae2        0x2 
 .text.HAL_CRYP_MspInit
                0x0000000008000ae4       0x28 ./Core/Src/stm32wlxx_hal_msp.o
                0x0000000008000ae4                HAL_CRYP_MspInit
 .text.HAL_CRYP_MspDeInit
                0x0000000008000b0c       0x28 ./Core/Src/stm32wlxx_hal_msp.o
                0x0000000008000b0c                HAL_CRYP_MspDeInit
 .text.HAL_CRC_MspInit
                0x0000000008000b34       0x28 ./Core/Src/stm32wlxx_hal_msp.o
                0x0000000008000b34                HAL_CRC_MspInit
 .text.HAL_RTC_MspInit
                0x0000000008000b5c       0x78 ./Core/Src/stm32wlxx_hal_msp.o
                0x0000000008000b5c                HAL_RTC_MspInit
 .text.HAL_SUBGHZ_MspInit
                0x0000000008000bd4       0x26 ./Core/Src/stm32wlxx_hal_msp.o
                0x0000000008000bd4                HAL_SUBGHZ_MspInit
 *fill*         0x0000000008000bfa        0x2 
 .text.HAL_UART_MspInit
                0x0000000008000bfc       0xf8 ./Core/Src/stm32wlxx_hal_msp.o
                0x0000000008000bfc                HAL_UART_MspInit
 .text.HAL_UART_MspDeInit
                0x0000000008000cf4       0x44 ./Core/Src/stm32wlxx_hal_msp.o
                0x0000000008000cf4                HAL_UART_MspDeInit
 .text.NMI_Handler
                0x0000000008000d38        0x6 ./Core/Src/stm32wlxx_it.o
                0x0000000008000d38                NMI_Handler
 .text.HardFault_Handler
                0x0000000008000d3e        0x6 ./Core/Src/stm32wlxx_it.o
                0x0000000008000d3e                HardFault_Handler
 .text.MemManage_Handler
                0x0000000008000d44        0x6 ./Core/Src/stm32wlxx_it.o
                0x0000000008000d44                MemManage_Handler
 .text.BusFault_Handler
                0x0000000008000d4a        0x6 ./Core/Src/stm32wlxx_it.o
                0x0000000008000d4a                BusFault_Handler
 .text.UsageFault_Handler
                0x0000000008000d50        0x6 ./Core/Src/stm32wlxx_it.o
                0x0000000008000d50                UsageFault_Handler
 .text.SVC_Handler
                0x0000000008000d56        0xc ./Core/Src/stm32wlxx_it.o
                0x0000000008000d56                SVC_Handler
 .text.DebugMon_Handler
                0x0000000008000d62        0xc ./Core/Src/stm32wlxx_it.o
                0x0000000008000d62                DebugMon_Handler
 .text.PendSV_Handler
                0x0000000008000d6e        0xc ./Core/Src/stm32wlxx_it.o
                0x0000000008000d6e                PendSV_Handler
 .text.SysTick_Handler
                0x0000000008000d7a        0xc ./Core/Src/stm32wlxx_it.o
                0x0000000008000d7a                SysTick_Handler
 *fill*         0x0000000008000d86        0x2 
 .text.TAMP_STAMP_LSECSS_SSRU_IRQHandler
                0x0000000008000d88       0x14 ./Core/Src/stm32wlxx_it.o
                0x0000000008000d88                TAMP_STAMP_LSECSS_SSRU_IRQHandler
 .text.DMA1_Channel5_IRQHandler
                0x0000000008000d9c       0x14 ./Core/Src/stm32wlxx_it.o
                0x0000000008000d9c                DMA1_Channel5_IRQHandler
 .text.USART1_IRQHandler
                0x0000000008000db0       0x14 ./Core/Src/stm32wlxx_it.o
                0x0000000008000db0                USART1_IRQHandler
 .text.RTC_Alarm_IRQHandler
                0x0000000008000dc4       0x14 ./Core/Src/stm32wlxx_it.o
                0x0000000008000dc4                RTC_Alarm_IRQHandler
 .text.SUBGHZ_Radio_IRQHandler
                0x0000000008000dd8       0x14 ./Core/Src/stm32wlxx_it.o
                0x0000000008000dd8                SUBGHZ_Radio_IRQHandler
 .text.LL_RCC_SetClkAfterWakeFromStop
                0x0000000008000dec       0x26 ./Core/Src/sys_app.o
 *fill*         0x0000000008000e12        0x2 
 .text.SystemApp_Init
                0x0000000008000e14       0x48 ./Core/Src/sys_app.o
                0x0000000008000e14                SystemApp_Init
 .text.UTIL_SEQ_Idle
                0x0000000008000e5c        0xc ./Core/Src/sys_app.o
                0x0000000008000e5c                UTIL_SEQ_Idle
 .text.TimestampNow
                0x0000000008000e68       0x40 ./Core/Src/sys_app.o
 .text.UTIL_ADV_TRACE_PreSendHook
                0x0000000008000ea8       0x10 ./Core/Src/sys_app.o
                0x0000000008000ea8                UTIL_ADV_TRACE_PreSendHook
 .text.UTIL_ADV_TRACE_PostSendHook
                0x0000000008000eb8       0x10 ./Core/Src/sys_app.o
                0x0000000008000eb8                UTIL_ADV_TRACE_PostSendHook
 .text.tiny_snprintf_like
                0x0000000008000ec8       0x2c ./Core/Src/sys_app.o
 .text.HAL_GetTick
                0x0000000008000ef4       0x28 ./Core/Src/sys_app.o
                0x0000000008000ef4                HAL_GetTick
 .text.HAL_Delay
                0x0000000008000f1c       0x18 ./Core/Src/sys_app.o
                0x0000000008000f1c                HAL_Delay
 .text.LL_EXTI_EnableIT_32_63
                0x0000000008000f34       0x28 ./Core/Src/sys_debug.o
 .text.DBG_Init
                0x0000000008000f5c       0x1c ./Core/Src/sys_debug.o
                0x0000000008000f5c                DBG_Init
 .text.SystemInit
                0x0000000008000f78        0xc ./Core/Src/system_stm32wlxx.o
                0x0000000008000f78                SystemInit
 .text.LL_RTC_TIME_GetSubSecond
                0x0000000008000f84       0x16 ./Core/Src/timer_if.o
 *fill*         0x0000000008000f9a        0x2 
 .text.TIMER_IF_Init
                0x0000000008000f9c       0x64 ./Core/Src/timer_if.o
                0x0000000008000f9c                TIMER_IF_Init
 .text.TIMER_IF_StartTimer
                0x0000000008001000       0x70 ./Core/Src/timer_if.o
                0x0000000008001000                TIMER_IF_StartTimer
 .text.TIMER_IF_StopTimer
                0x0000000008001070       0x34 ./Core/Src/timer_if.o
                0x0000000008001070                TIMER_IF_StopTimer
 .text.TIMER_IF_SetTimerContext
                0x00000000080010a4       0x1c ./Core/Src/timer_if.o
                0x00000000080010a4                TIMER_IF_SetTimerContext
 .text.TIMER_IF_GetTimerContext
                0x00000000080010c0       0x14 ./Core/Src/timer_if.o
                0x00000000080010c0                TIMER_IF_GetTimerContext
 .text.TIMER_IF_GetTimerElapsedTime
                0x00000000080010d4       0x28 ./Core/Src/timer_if.o
                0x00000000080010d4                TIMER_IF_GetTimerElapsedTime
 .text.TIMER_IF_GetTimerValue
                0x00000000080010fc       0x28 ./Core/Src/timer_if.o
                0x00000000080010fc                TIMER_IF_GetTimerValue
 .text.TIMER_IF_GetMinimumTimeout
                0x0000000008001124       0x1a ./Core/Src/timer_if.o
                0x0000000008001124                TIMER_IF_GetMinimumTimeout
 .text.TIMER_IF_Convert_ms2Tick
                0x000000000800113e       0x3a ./Core/Src/timer_if.o
                0x000000000800113e                TIMER_IF_Convert_ms2Tick
 .text.TIMER_IF_Convert_Tick2ms
                0x0000000008001178       0x92 ./Core/Src/timer_if.o
                0x0000000008001178                TIMER_IF_Convert_Tick2ms
 .text.TIMER_IF_DelayMs
                0x000000000800120a       0x34 ./Core/Src/timer_if.o
                0x000000000800120a                TIMER_IF_DelayMs
 .text.HAL_RTC_AlarmAEventCallback
                0x000000000800123e       0x14 ./Core/Src/timer_if.o
                0x000000000800123e                HAL_RTC_AlarmAEventCallback
 .text.HAL_RTCEx_SSRUEventCallback
                0x0000000008001252       0x20 ./Core/Src/timer_if.o
                0x0000000008001252                HAL_RTCEx_SSRUEventCallback
 .text.TIMER_IF_GetTime
                0x0000000008001272       0x8e ./Core/Src/timer_if.o
                0x0000000008001272                TIMER_IF_GetTime
 .text.TIMER_IF_BkUp_Write_Seconds
                0x0000000008001300       0x20 ./Core/Src/timer_if.o
                0x0000000008001300                TIMER_IF_BkUp_Write_Seconds
 .text.TIMER_IF_BkUp_Write_SubSeconds
                0x0000000008001320       0x20 ./Core/Src/timer_if.o
                0x0000000008001320                TIMER_IF_BkUp_Write_SubSeconds
 .text.TIMER_IF_BkUp_Read_Seconds
                0x0000000008001340       0x24 ./Core/Src/timer_if.o
                0x0000000008001340                TIMER_IF_BkUp_Read_Seconds
 .text.TIMER_IF_BkUp_Read_SubSeconds
                0x0000000008001364       0x24 ./Core/Src/timer_if.o
                0x0000000008001364                TIMER_IF_BkUp_Read_SubSeconds
 .text.TIMER_IF_BkUp_Write_MSBticks
                0x0000000008001388       0x20 ./Core/Src/timer_if.o
 .text.TIMER_IF_BkUp_Read_MSBticks
                0x00000000080013a8       0x20 ./Core/Src/timer_if.o
 .text.GetTimerTicks
                0x00000000080013c8       0x38 ./Core/Src/timer_if.o
 .text.LL_APB2_GRP1_ForceReset
                0x0000000008001400       0x22 ./Core/Src/usart_if.o
 .text.LL_APB2_GRP1_ReleaseReset
                0x0000000008001422       0x24 ./Core/Src/usart_if.o
 *fill*         0x0000000008001446        0x2 
 .text.LL_EXTI_EnableIT_0_31
                0x0000000008001448       0x28 ./Core/Src/usart_if.o
 .text.vcom_Init
                0x0000000008001470       0x2c ./Core/Src/usart_if.o
                0x0000000008001470                vcom_Init
 .text.vcom_DeInit
                0x000000000800149c       0x2c ./Core/Src/usart_if.o
                0x000000000800149c                vcom_DeInit
 .text.vcom_Trace_DMA
                0x00000000080014c8       0x28 ./Core/Src/usart_if.o
                0x00000000080014c8                vcom_Trace_DMA
 .text.vcom_ReceiveInit
                0x00000000080014f0       0x7c ./Core/Src/usart_if.o
                0x00000000080014f0                vcom_ReceiveInit
 .text.vcom_Resume
                0x000000000800156c       0x30 ./Core/Src/usart_if.o
                0x000000000800156c                vcom_Resume
 .text.HAL_UART_TxCpltCallback
                0x000000000800159c       0x2c ./Core/Src/usart_if.o
                0x000000000800159c                HAL_UART_TxCpltCallback
 .text.HAL_UART_RxCpltCallback
                0x00000000080015c8       0x50 ./Core/Src/usart_if.o
                0x00000000080015c8                HAL_UART_RxCpltCallback
 .text.Reset_Handler
                0x0000000008001618       0x50 ./Core/Startup/startup_stm32wle5jcix.o
                0x0000000008001618                Reset_Handler
 .text.Default_Handler
                0x0000000008001668        0x2 ./Core/Startup/startup_stm32wle5jcix.o
                0x0000000008001668                EXTI2_IRQHandler
                0x0000000008001668                TIM1_CC_IRQHandler
                0x0000000008001668                EXTI3_IRQHandler
                0x0000000008001668                LPTIM2_IRQHandler
                0x0000000008001668                I2C3_ER_IRQHandler
                0x0000000008001668                LPTIM3_IRQHandler
                0x0000000008001668                EXTI0_IRQHandler
                0x0000000008001668                I2C2_EV_IRQHandler
                0x0000000008001668                SPI1_IRQHandler
                0x0000000008001668                DMA2_Channel2_IRQHandler
                0x0000000008001668                DMA1_Channel4_IRQHandler
                0x0000000008001668                PKA_IRQHandler
                0x0000000008001668                TIM17_IRQHandler
                0x0000000008001668                DMA1_Channel7_IRQHandler
                0x0000000008001668                SUBGHZSPI_IRQHandler
                0x0000000008001668                DMA2_Channel1_IRQHandler
                0x0000000008001668                I2C1_EV_IRQHandler
                0x0000000008001668                DMAMUX1_OVR_IRQHandler
                0x0000000008001668                DMA1_Channel6_IRQHandler
                0x0000000008001668                TIM16_IRQHandler
                0x0000000008001668                DMA2_Channel4_IRQHandler
                0x0000000008001668                RCC_IRQHandler
                0x0000000008001668                TIM1_TRG_COM_IRQHandler
                0x0000000008001668                DMA1_Channel1_IRQHandler
                0x0000000008001668                Default_Handler
                0x0000000008001668                DMA2_Channel7_IRQHandler
                0x0000000008001668                EXTI15_10_IRQHandler
                0x0000000008001668                ADC_IRQHandler
                0x0000000008001668                I2C3_EV_IRQHandler
                0x0000000008001668                EXTI9_5_IRQHandler
                0x0000000008001668                RTC_WKUP_IRQHandler
                0x0000000008001668                PVD_PVM_IRQHandler
                0x0000000008001668                SPI2_IRQHandler
                0x0000000008001668                DMA2_Channel5_IRQHandler
                0x0000000008001668                EXTI4_IRQHandler
                0x0000000008001668                RNG_IRQHandler
                0x0000000008001668                DMA1_Channel3_IRQHandler
                0x0000000008001668                COMP_IRQHandler
                0x0000000008001668                HSEM_IRQHandler
                0x0000000008001668                TIM1_UP_IRQHandler
                0x0000000008001668                WWDG_IRQHandler
                0x0000000008001668                LPUART1_IRQHandler
                0x0000000008001668                DMA2_Channel6_IRQHandler
                0x0000000008001668                TIM2_IRQHandler
                0x0000000008001668                TIM1_BRK_IRQHandler
                0x0000000008001668                DAC_IRQHandler
                0x0000000008001668                EXTI1_IRQHandler
                0x0000000008001668                AES_IRQHandler
                0x0000000008001668                USART2_IRQHandler
                0x0000000008001668                I2C2_ER_IRQHandler
                0x0000000008001668                DMA1_Channel2_IRQHandler
                0x0000000008001668                FLASH_IRQHandler
                0x0000000008001668                I2C1_ER_IRQHandler
                0x0000000008001668                LPTIM1_IRQHandler
                0x0000000008001668                DMA2_Channel3_IRQHandler
 *fill*         0x000000000800166a        0x2 
 .text.LL_DBGMCU_EnableDBGSleepMode
                0x000000000800166c       0x1c ./Drivers/STM32WLxx_HAL_Driver/Src/stm32wlxx_hal.o
 .text.LL_DBGMCU_EnableDBGStopMode
                0x0000000008001688       0x1c ./Drivers/STM32WLxx_HAL_Driver/Src/stm32wlxx_hal.o
 .text.LL_DBGMCU_EnableDBGStandbyMode
                0x00000000080016a4       0x1c ./Drivers/STM32WLxx_HAL_Driver/Src/stm32wlxx_hal.o
 .text.HAL_Init
                0x00000000080016c0       0x40 ./Drivers/STM32WLxx_HAL_Driver/Src/stm32wlxx_hal.o
                0x00000000080016c0                HAL_Init
 .text.HAL_InitTick
                0x0000000008001700       0x74 ./Drivers/STM32WLxx_HAL_Driver/Src/stm32wlxx_hal.o
                0x0000000008001700                HAL_InitTick
 .text.HAL_IncTick
                0x0000000008001774       0x24 ./Drivers/STM32WLxx_HAL_Driver/Src/stm32wlxx_hal.o
                0x0000000008001774                HAL_IncTick
 .text.HAL_SuspendTick
                0x0000000008001798       0x1c ./Drivers/STM32WLxx_HAL_Driver/Src/stm32wlxx_hal.o
                0x0000000008001798                HAL_SuspendTick
 .text.HAL_ResumeTick
                0x00000000080017b4       0x1c ./Drivers/STM32WLxx_HAL_Driver/Src/stm32wlxx_hal.o
                0x00000000080017b4                HAL_ResumeTick
 .text.HAL_DBGMCU_EnableDBGSleepMode
                0x00000000080017d0        0xc ./Drivers/STM32WLxx_HAL_Driver/Src/stm32wlxx_hal.o
                0x00000000080017d0                HAL_DBGMCU_EnableDBGSleepMode
 .text.HAL_DBGMCU_EnableDBGStopMode
                0x00000000080017dc        0xc ./Drivers/STM32WLxx_HAL_Driver/Src/stm32wlxx_hal.o
                0x00000000080017dc                HAL_DBGMCU_EnableDBGStopMode
 .text.HAL_DBGMCU_EnableDBGStandbyMode
                0x00000000080017e8        0xc ./Drivers/STM32WLxx_HAL_Driver/Src/stm32wlxx_hal.o
                0x00000000080017e8                HAL_DBGMCU_EnableDBGStandbyMode
 .text.__NVIC_SetPriorityGrouping
                0x00000000080017f4       0x48 ./Drivers/STM32WLxx_HAL_Driver/Src/stm32wlxx_hal_cortex.o
 .text.__NVIC_GetPriorityGrouping
                0x000000000800183c       0x1c ./Drivers/STM32WLxx_HAL_Driver/Src/stm32wlxx_hal_cortex.o
 .text.__NVIC_EnableIRQ
                0x0000000008001858       0x38 ./Drivers/STM32WLxx_HAL_Driver/Src/stm32wlxx_hal_cortex.o
 .text.__NVIC_DisableIRQ
                0x0000000008001890       0x48 ./Drivers/STM32WLxx_HAL_Driver/Src/stm32wlxx_hal_cortex.o
 .text.__NVIC_SetPriority
                0x00000000080018d8       0x54 ./Drivers/STM32WLxx_HAL_Driver/Src/stm32wlxx_hal_cortex.o
 .text.NVIC_EncodePriority
                0x000000000800192c       0x64 ./Drivers/STM32WLxx_HAL_Driver/Src/stm32wlxx_hal_cortex.o
 .text.SysTick_Config
                0x0000000008001990       0x44 ./Drivers/STM32WLxx_HAL_Driver/Src/stm32wlxx_hal_cortex.o
 .text.HAL_NVIC_SetPriorityGrouping
                0x00000000080019d4       0x16 ./Drivers/STM32WLxx_HAL_Driver/Src/stm32wlxx_hal_cortex.o
                0x00000000080019d4                HAL_NVIC_SetPriorityGrouping
 .text.HAL_NVIC_SetPriority
                0x00000000080019ea       0x34 ./Drivers/STM32WLxx_HAL_Driver/Src/stm32wlxx_hal_cortex.o
                0x00000000080019ea                HAL_NVIC_SetPriority
 .text.HAL_NVIC_EnableIRQ
                0x0000000008001a1e       0x1c ./Drivers/STM32WLxx_HAL_Driver/Src/stm32wlxx_hal_cortex.o
                0x0000000008001a1e                HAL_NVIC_EnableIRQ
 .text.HAL_NVIC_DisableIRQ
                0x0000000008001a3a       0x1c ./Drivers/STM32WLxx_HAL_Driver/Src/stm32wlxx_hal_cortex.o
                0x0000000008001a3a                HAL_NVIC_DisableIRQ
 .text.HAL_SYSTICK_Config
                0x0000000008001a56       0x18 ./Drivers/STM32WLxx_HAL_Driver/Src/stm32wlxx_hal_cortex.o
                0x0000000008001a56                HAL_SYSTICK_Config
 *fill*         0x0000000008001a6e        0x2 
 .text.HAL_CRC_Init
                0x0000000008001a70       0xc8 ./Drivers/STM32WLxx_HAL_Driver/Src/stm32wlxx_hal_crc.o
                0x0000000008001a70                HAL_CRC_Init
 .text.HAL_CRC_Calculate
                0x0000000008001b38       0x98 ./Drivers/STM32WLxx_HAL_Driver/Src/stm32wlxx_hal_crc.o
                0x0000000008001b38                HAL_CRC_Calculate
 .text.CRC_Handle_8
                0x0000000008001bd0      0x11a ./Drivers/STM32WLxx_HAL_Driver/Src/stm32wlxx_hal_crc.o
 .text.CRC_Handle_16
                0x0000000008001cea       0x72 ./Drivers/STM32WLxx_HAL_Driver/Src/stm32wlxx_hal_crc.o
 .text.HAL_CRCEx_Polynomial_Set
                0x0000000008001d5c      0x10c ./Drivers/STM32WLxx_HAL_Driver/Src/stm32wlxx_hal_crc_ex.o
                0x0000000008001d5c                HAL_CRCEx_Polynomial_Set
 .text.HAL_CRYP_Init
                0x0000000008001e68       0x76 ./Drivers/STM32WLxx_HAL_Driver/Src/stm32wlxx_hal_cryp.o
                0x0000000008001e68                HAL_CRYP_Init
 .text.HAL_CRYP_DeInit
                0x0000000008001ede       0x5c ./Drivers/STM32WLxx_HAL_Driver/Src/stm32wlxx_hal_cryp.o
                0x0000000008001ede                HAL_CRYP_DeInit
 *fill*         0x0000000008001f3a        0x2 
 .text.HAL_CRYP_Encrypt
                0x0000000008001f3c      0x134 ./Drivers/STM32WLxx_HAL_Driver/Src/stm32wlxx_hal_cryp.o
                0x0000000008001f3c                HAL_CRYP_Encrypt
 .text.HAL_CRYP_Decrypt
                0x0000000008002070      0x138 ./Drivers/STM32WLxx_HAL_Driver/Src/stm32wlxx_hal_cryp.o
                0x0000000008002070                HAL_CRYP_Decrypt
 .text.HAL_CRYP_ErrorCallback
                0x00000000080021a8       0x12 ./Drivers/STM32WLxx_HAL_Driver/Src/stm32wlxx_hal_cryp.o
                0x00000000080021a8                HAL_CRYP_ErrorCallback
 .text.CRYP_AES_Encrypt
                0x00000000080021ba       0xf2 ./Drivers/STM32WLxx_HAL_Driver/Src/stm32wlxx_hal_cryp.o
 .text.CRYP_AES_Decrypt
                0x00000000080022ac      0x1b8 ./Drivers/STM32WLxx_HAL_Driver/Src/stm32wlxx_hal_cryp.o
 .text.CRYP_AES_ProcessData
                0x0000000008002464      0x170 ./Drivers/STM32WLxx_HAL_Driver/Src/stm32wlxx_hal_cryp.o
 .text.CRYP_SetKey
                0x00000000080025d4       0xc4 ./Drivers/STM32WLxx_HAL_Driver/Src/stm32wlxx_hal_cryp.o
 .text.CRYP_AESGCM_Process
                0x0000000008002698      0x350 ./Drivers/STM32WLxx_HAL_Driver/Src/stm32wlxx_hal_cryp.o
 .text.CRYP_AESCCM_Process
                0x00000000080029e8      0x35a ./Drivers/STM32WLxx_HAL_Driver/Src/stm32wlxx_hal_cryp.o
 *fill*         0x0000000008002d42        0x2 
 .text.CRYP_GCMCCM_SetHeaderPhase
                0x0000000008002d44      0x3ac ./Drivers/STM32WLxx_HAL_Driver/Src/stm32wlxx_hal_cryp.o
 .text.CRYP_WaitOnCCFlag
                0x00000000080030f0       0x4c ./Drivers/STM32WLxx_HAL_Driver/Src/stm32wlxx_hal_cryp.o
 .text.HAL_DMA_Init
                0x000000000800313c      0x150 ./Drivers/STM32WLxx_HAL_Driver/Src/stm32wlxx_hal_dma.o
                0x000000000800313c                HAL_DMA_Init
 .text.HAL_DMA_DeInit
                0x000000000800328c      0x12c ./Drivers/STM32WLxx_HAL_Driver/Src/stm32wlxx_hal_dma.o
                0x000000000800328c                HAL_DMA_DeInit
 .text.HAL_DMA_Start_IT
                0x00000000080033b8       0xfc ./Drivers/STM32WLxx_HAL_Driver/Src/stm32wlxx_hal_dma.o
                0x00000000080033b8                HAL_DMA_Start_IT
 .text.HAL_DMA_Abort
                0x00000000080034b4       0xbc ./Drivers/STM32WLxx_HAL_Driver/Src/stm32wlxx_hal_dma.o
                0x00000000080034b4                HAL_DMA_Abort
 .text.HAL_DMA_Abort_IT
                0x0000000008003570       0xbe ./Drivers/STM32WLxx_HAL_Driver/Src/stm32wlxx_hal_dma.o
                0x0000000008003570                HAL_DMA_Abort_IT
 *fill*         0x000000000800362e        0x2 
 .text.HAL_DMA_IRQHandler
                0x0000000008003630      0x18c ./Drivers/STM32WLxx_HAL_Driver/Src/stm32wlxx_hal_dma.o
                0x0000000008003630                HAL_DMA_IRQHandler
 .text.DMA_SetConfig
                0x00000000080037bc       0x7a ./Drivers/STM32WLxx_HAL_Driver/Src/stm32wlxx_hal_dma.o
 *fill*         0x0000000008003836        0x2 
 .text.DMA_CalcDMAMUXChannelBaseAndMask
                0x0000000008003838       0x90 ./Drivers/STM32WLxx_HAL_Driver/Src/stm32wlxx_hal_dma.o
 .text.DMA_CalcDMAMUXRequestGenBaseAndMask
                0x00000000080038c8       0x48 ./Drivers/STM32WLxx_HAL_Driver/Src/stm32wlxx_hal_dma.o
 .text.HAL_GPIO_Init
                0x0000000008003910      0x2c0 ./Drivers/STM32WLxx_HAL_Driver/Src/stm32wlxx_hal_gpio.o
                0x0000000008003910                HAL_GPIO_Init
 .text.HAL_GPIO_DeInit
                0x0000000008003bd0      0x19c ./Drivers/STM32WLxx_HAL_Driver/Src/stm32wlxx_hal_gpio.o
                0x0000000008003bd0                HAL_GPIO_DeInit
 .text.HAL_GPIO_WritePin
                0x0000000008003d6c       0x2e ./Drivers/STM32WLxx_HAL_Driver/Src/stm32wlxx_hal_gpio.o
                0x0000000008003d6c                HAL_GPIO_WritePin
 *fill*         0x0000000008003d9a        0x2 
 .text.HAL_PWR_EnableBkUpAccess
                0x0000000008003d9c       0x1c ./Drivers/STM32WLxx_HAL_Driver/Src/stm32wlxx_hal_pwr.o
                0x0000000008003d9c                HAL_PWR_EnableBkUpAccess
 .text.HAL_PWR_EnterSLEEPMode
                0x0000000008003db8       0x68 ./Drivers/STM32WLxx_HAL_Driver/Src/stm32wlxx_hal_pwr.o
                0x0000000008003db8                HAL_PWR_EnterSLEEPMode
 .text.HAL_PWREx_GetVoltageRange
                0x0000000008003e20       0x18 ./Drivers/STM32WLxx_HAL_Driver/Src/stm32wlxx_hal_pwr_ex.o
                0x0000000008003e20                HAL_PWREx_GetVoltageRange
 .text.HAL_PWREx_EnableLowPowerRunMode
                0x0000000008003e38       0x1c ./Drivers/STM32WLxx_HAL_Driver/Src/stm32wlxx_hal_pwr_ex.o
                0x0000000008003e38                HAL_PWREx_EnableLowPowerRunMode
 .text.HAL_PWREx_DisableLowPowerRunMode
                0x0000000008003e54       0x6c ./Drivers/STM32WLxx_HAL_Driver/Src/stm32wlxx_hal_pwr_ex.o
                0x0000000008003e54                HAL_PWREx_DisableLowPowerRunMode
 .text.HAL_PWREx_EnterSTOP2Mode
                0x0000000008003ec0       0x54 ./Drivers/STM32WLxx_HAL_Driver/Src/stm32wlxx_hal_pwr_ex.o
                0x0000000008003ec0                HAL_PWREx_EnterSTOP2Mode
 .text.LL_PWR_IsEnabledBkUpAccess
                0x0000000008003f14       0x24 ./Drivers/STM32WLxx_HAL_Driver/Src/stm32wlxx_hal_rcc.o
 .text.LL_RCC_HSE_EnableTcxo
                0x0000000008003f38       0x1c ./Drivers/STM32WLxx_HAL_Driver/Src/stm32wlxx_hal_rcc.o
 .text.LL_RCC_HSE_DisableTcxo
                0x0000000008003f54       0x1c ./Drivers/STM32WLxx_HAL_Driver/Src/stm32wlxx_hal_rcc.o
 .text.LL_RCC_HSE_IsEnabledDiv2
                0x0000000008003f70       0x22 ./Drivers/STM32WLxx_HAL_Driver/Src/stm32wlxx_hal_rcc.o
 .text.LL_RCC_HSE_Enable
                0x0000000008003f92       0x1c ./Drivers/STM32WLxx_HAL_Driver/Src/stm32wlxx_hal_rcc.o
 .text.LL_RCC_HSE_Disable
                0x0000000008003fae       0x1c ./Drivers/STM32WLxx_HAL_Driver/Src/stm32wlxx_hal_rcc.o
 .text.LL_RCC_HSE_IsReady
                0x0000000008003fca       0x22 ./Drivers/STM32WLxx_HAL_Driver/Src/stm32wlxx_hal_rcc.o
 .text.LL_RCC_HSI_Enable
                0x0000000008003fec       0x1c ./Drivers/STM32WLxx_HAL_Driver/Src/stm32wlxx_hal_rcc.o
 .text.LL_RCC_HSI_Disable
                0x0000000008004008       0x1c ./Drivers/STM32WLxx_HAL_Driver/Src/stm32wlxx_hal_rcc.o
 .text.LL_RCC_HSI_IsReady
                0x0000000008004024       0x22 ./Drivers/STM32WLxx_HAL_Driver/Src/stm32wlxx_hal_rcc.o
 .text.LL_RCC_HSI_SetCalibTrimming
                0x0000000008004046       0x28 ./Drivers/STM32WLxx_HAL_Driver/Src/stm32wlxx_hal_rcc.o
 .text.LL_RCC_LSE_IsReady
                0x000000000800406e       0x22 ./Drivers/STM32WLxx_HAL_Driver/Src/stm32wlxx_hal_rcc.o
 .text.LL_RCC_LSI_Enable
                0x0000000008004090       0x20 ./Drivers/STM32WLxx_HAL_Driver/Src/stm32wlxx_hal_rcc.o
 .text.LL_RCC_LSI_Disable
                0x00000000080040b0       0x20 ./Drivers/STM32WLxx_HAL_Driver/Src/stm32wlxx_hal_rcc.o
 .text.LL_RCC_LSI_IsReady
                0x00000000080040d0       0x22 ./Drivers/STM32WLxx_HAL_Driver/Src/stm32wlxx_hal_rcc.o
 .text.LL_RCC_MSI_Enable
                0x00000000080040f2       0x1c ./Drivers/STM32WLxx_HAL_Driver/Src/stm32wlxx_hal_rcc.o
 .text.LL_RCC_MSI_Disable
                0x000000000800410e       0x1c ./Drivers/STM32WLxx_HAL_Driver/Src/stm32wlxx_hal_rcc.o
 .text.LL_RCC_MSI_IsReady
                0x000000000800412a       0x20 ./Drivers/STM32WLxx_HAL_Driver/Src/stm32wlxx_hal_rcc.o
 .text.LL_RCC_MSI_IsEnabledRangeSelect
                0x000000000800414a       0x20 ./Drivers/STM32WLxx_HAL_Driver/Src/stm32wlxx_hal_rcc.o
 .text.LL_RCC_MSI_GetRange
                0x000000000800416a       0x16 ./Drivers/STM32WLxx_HAL_Driver/Src/stm32wlxx_hal_rcc.o
 .text.LL_RCC_MSI_GetRangeAfterStandby
                0x0000000008004180       0x18 ./Drivers/STM32WLxx_HAL_Driver/Src/stm32wlxx_hal_rcc.o
 .text.LL_RCC_MSI_SetCalibTrimming
                0x0000000008004198       0x28 ./Drivers/STM32WLxx_HAL_Driver/Src/stm32wlxx_hal_rcc.o
 .text.LL_RCC_SetSysClkSource
                0x00000000080041c0       0x26 ./Drivers/STM32WLxx_HAL_Driver/Src/stm32wlxx_hal_rcc.o
 .text.LL_RCC_GetSysClkSource
                0x00000000080041e6       0x16 ./Drivers/STM32WLxx_HAL_Driver/Src/stm32wlxx_hal_rcc.o
 .text.LL_RCC_SetAHBPrescaler
                0x00000000080041fc       0x26 ./Drivers/STM32WLxx_HAL_Driver/Src/stm32wlxx_hal_rcc.o
 .text.LL_RCC_SetAHB3Prescaler
                0x0000000008004222       0x2c ./Drivers/STM32WLxx_HAL_Driver/Src/stm32wlxx_hal_rcc.o
 .text.LL_RCC_SetAPB1Prescaler
                0x000000000800424e       0x26 ./Drivers/STM32WLxx_HAL_Driver/Src/stm32wlxx_hal_rcc.o
 .text.LL_RCC_SetAPB2Prescaler
                0x0000000008004274       0x26 ./Drivers/STM32WLxx_HAL_Driver/Src/stm32wlxx_hal_rcc.o
 .text.LL_RCC_GetAHBPrescaler
                0x000000000800429a       0x16 ./Drivers/STM32WLxx_HAL_Driver/Src/stm32wlxx_hal_rcc.o
 .text.LL_RCC_GetAHB3Prescaler
                0x00000000080042b0       0x1a ./Drivers/STM32WLxx_HAL_Driver/Src/stm32wlxx_hal_rcc.o
 .text.LL_RCC_GetAPB1Prescaler
                0x00000000080042ca       0x16 ./Drivers/STM32WLxx_HAL_Driver/Src/stm32wlxx_hal_rcc.o
 .text.LL_RCC_GetAPB2Prescaler
                0x00000000080042e0       0x16 ./Drivers/STM32WLxx_HAL_Driver/Src/stm32wlxx_hal_rcc.o
 .text.LL_RCC_PLL_Enable
                0x00000000080042f6       0x1c ./Drivers/STM32WLxx_HAL_Driver/Src/stm32wlxx_hal_rcc.o
 .text.LL_RCC_PLL_Disable
                0x0000000008004312       0x1c ./Drivers/STM32WLxx_HAL_Driver/Src/stm32wlxx_hal_rcc.o
 .text.LL_RCC_PLL_IsReady
                0x000000000800432e       0x22 ./Drivers/STM32WLxx_HAL_Driver/Src/stm32wlxx_hal_rcc.o
 .text.LL_RCC_PLL_GetN
                0x0000000008004350       0x18 ./Drivers/STM32WLxx_HAL_Driver/Src/stm32wlxx_hal_rcc.o
 .text.LL_RCC_PLL_GetR
                0x0000000008004368       0x16 ./Drivers/STM32WLxx_HAL_Driver/Src/stm32wlxx_hal_rcc.o
 .text.LL_RCC_PLL_GetDivider
                0x000000000800437e       0x16 ./Drivers/STM32WLxx_HAL_Driver/Src/stm32wlxx_hal_rcc.o
 .text.LL_RCC_PLL_GetMainSource
                0x0000000008004394       0x16 ./Drivers/STM32WLxx_HAL_Driver/Src/stm32wlxx_hal_rcc.o
 .text.LL_RCC_IsActiveFlag_HPRE
                0x00000000080043aa       0x22 ./Drivers/STM32WLxx_HAL_Driver/Src/stm32wlxx_hal_rcc.o
 .text.LL_RCC_IsActiveFlag_SHDHPRE
                0x00000000080043cc       0x24 ./Drivers/STM32WLxx_HAL_Driver/Src/stm32wlxx_hal_rcc.o
 .text.LL_RCC_IsActiveFlag_PPRE1
                0x00000000080043f0       0x22 ./Drivers/STM32WLxx_HAL_Driver/Src/stm32wlxx_hal_rcc.o
 .text.LL_RCC_IsActiveFlag_PPRE2
                0x0000000008004412       0x22 ./Drivers/STM32WLxx_HAL_Driver/Src/stm32wlxx_hal_rcc.o
 .text.HAL_RCC_OscConfig
                0x0000000008004434      0x738 ./Drivers/STM32WLxx_HAL_Driver/Src/stm32wlxx_hal_rcc.o
                0x0000000008004434                HAL_RCC_OscConfig
 .text.HAL_RCC_ClockConfig
                0x0000000008004b6c      0x248 ./Drivers/STM32WLxx_HAL_Driver/Src/stm32wlxx_hal_rcc.o
                0x0000000008004b6c                HAL_RCC_ClockConfig
 .text.HAL_RCC_GetSysClockFreq
                0x0000000008004db4      0x140 ./Drivers/STM32WLxx_HAL_Driver/Src/stm32wlxx_hal_rcc.o
                0x0000000008004db4                HAL_RCC_GetSysClockFreq
 .text.HAL_RCC_GetHCLKFreq
                0x0000000008004ef4       0x28 ./Drivers/STM32WLxx_HAL_Driver/Src/stm32wlxx_hal_rcc.o
                0x0000000008004ef4                HAL_RCC_GetHCLKFreq
 .text.HAL_RCC_GetPCLK1Freq
                0x0000000008004f1c       0x24 ./Drivers/STM32WLxx_HAL_Driver/Src/stm32wlxx_hal_rcc.o
                0x0000000008004f1c                HAL_RCC_GetPCLK1Freq
 .text.HAL_RCC_GetPCLK2Freq
                0x0000000008004f40       0x24 ./Drivers/STM32WLxx_HAL_Driver/Src/stm32wlxx_hal_rcc.o
                0x0000000008004f40                HAL_RCC_GetPCLK2Freq
 .text.RCC_SetFlashLatencyFromMSIRange
                0x0000000008004f64       0x60 ./Drivers/STM32WLxx_HAL_Driver/Src/stm32wlxx_hal_rcc.o
 .text.RCC_SetFlashLatency
                0x0000000008004fc4      0x104 ./Drivers/STM32WLxx_HAL_Driver/Src/stm32wlxx_hal_rcc.o
 .text.LL_RCC_LSE_IsReady
                0x00000000080050c8       0x22 ./Drivers/STM32WLxx_HAL_Driver/Src/stm32wlxx_hal_rcc_ex.o
 .text.LL_RCC_SetUSARTClockSource
                0x00000000080050ea       0x30 ./Drivers/STM32WLxx_HAL_Driver/Src/stm32wlxx_hal_rcc_ex.o
 .text.LL_RCC_SetI2SClockSource
                0x000000000800511a       0x2a ./Drivers/STM32WLxx_HAL_Driver/Src/stm32wlxx_hal_rcc_ex.o
 .text.LL_RCC_SetLPUARTClockSource
                0x0000000008005144       0x2a ./Drivers/STM32WLxx_HAL_Driver/Src/stm32wlxx_hal_rcc_ex.o
 .text.LL_RCC_SetI2CClockSource
                0x000000000800516e       0x38 ./Drivers/STM32WLxx_HAL_Driver/Src/stm32wlxx_hal_rcc_ex.o
 .text.LL_RCC_SetLPTIMClockSource
                0x00000000080051a6       0x32 ./Drivers/STM32WLxx_HAL_Driver/Src/stm32wlxx_hal_rcc_ex.o
 .text.LL_RCC_SetRNGClockSource
                0x00000000080051d8       0x2a ./Drivers/STM32WLxx_HAL_Driver/Src/stm32wlxx_hal_rcc_ex.o
 .text.LL_RCC_SetADCClockSource
                0x0000000008005202       0x2a ./Drivers/STM32WLxx_HAL_Driver/Src/stm32wlxx_hal_rcc_ex.o
 .text.LL_RCC_SetRTCClockSource
                0x000000000800522c       0x2a ./Drivers/STM32WLxx_HAL_Driver/Src/stm32wlxx_hal_rcc_ex.o
 .text.LL_RCC_GetRTCClockSource
                0x0000000008005256       0x18 ./Drivers/STM32WLxx_HAL_Driver/Src/stm32wlxx_hal_rcc_ex.o
 .text.LL_RCC_ForceBackupDomainReset
                0x000000000800526e       0x20 ./Drivers/STM32WLxx_HAL_Driver/Src/stm32wlxx_hal_rcc_ex.o
 .text.LL_RCC_ReleaseBackupDomainReset
                0x000000000800528e       0x20 ./Drivers/STM32WLxx_HAL_Driver/Src/stm32wlxx_hal_rcc_ex.o
 *fill*         0x00000000080052ae        0x2 
 .text.HAL_RCCEx_PeriphCLKConfig
                0x00000000080052b0      0x234 ./Drivers/STM32WLxx_HAL_Driver/Src/stm32wlxx_hal_rcc_ex.o
                0x00000000080052b0                HAL_RCCEx_PeriphCLKConfig
 .text.HAL_RTC_Init
                0x00000000080054e4       0xf4 ./Drivers/STM32WLxx_HAL_Driver/Src/stm32wlxx_hal_rtc.o
                0x00000000080054e4                HAL_RTC_Init
 .text.HAL_RTC_SetAlarm_IT
                0x00000000080055d8      0x218 ./Drivers/STM32WLxx_HAL_Driver/Src/stm32wlxx_hal_rtc.o
                0x00000000080055d8                HAL_RTC_SetAlarm_IT
 .text.HAL_RTC_DeactivateAlarm
                0x00000000080057f0       0xb8 ./Drivers/STM32WLxx_HAL_Driver/Src/stm32wlxx_hal_rtc.o
                0x00000000080057f0                HAL_RTC_DeactivateAlarm
 .text.HAL_RTC_AlarmIRQHandler
                0x00000000080058a8       0x54 ./Drivers/STM32WLxx_HAL_Driver/Src/stm32wlxx_hal_rtc.o
                0x00000000080058a8                HAL_RTC_AlarmIRQHandler
 .text.HAL_RTC_WaitForSynchro
                0x00000000080058fc       0x4c ./Drivers/STM32WLxx_HAL_Driver/Src/stm32wlxx_hal_rtc.o
                0x00000000080058fc                HAL_RTC_WaitForSynchro
 .text.RTC_EnterInitMode
                0x0000000008005948       0x68 ./Drivers/STM32WLxx_HAL_Driver/Src/stm32wlxx_hal_rtc.o
                0x0000000008005948                RTC_EnterInitMode
 .text.RTC_ExitInitMode
                0x00000000080059b0       0x7c ./Drivers/STM32WLxx_HAL_Driver/Src/stm32wlxx_hal_rtc.o
                0x00000000080059b0                RTC_ExitInitMode
 .text.RTC_ByteToBcd2
                0x0000000008005a2c       0x3e ./Drivers/STM32WLxx_HAL_Driver/Src/stm32wlxx_hal_rtc.o
                0x0000000008005a2c                RTC_ByteToBcd2
 *fill*         0x0000000008005a6a        0x2 
 .text.HAL_RTCEx_EnableBypassShadow
                0x0000000008005a6c       0x64 ./Drivers/STM32WLxx_HAL_Driver/Src/stm32wlxx_hal_rtc_ex.o
                0x0000000008005a6c                HAL_RTCEx_EnableBypassShadow
 .text.HAL_RTCEx_SetSSRU_IT
                0x0000000008005ad0       0x78 ./Drivers/STM32WLxx_HAL_Driver/Src/stm32wlxx_hal_rtc_ex.o
                0x0000000008005ad0                HAL_RTCEx_SetSSRU_IT
 .text.HAL_RTCEx_SSRUIRQHandler
                0x0000000008005b48       0x34 ./Drivers/STM32WLxx_HAL_Driver/Src/stm32wlxx_hal_rtc_ex.o
                0x0000000008005b48                HAL_RTCEx_SSRUIRQHandler
 .text.HAL_RTCEx_AlarmBEventCallback
                0x0000000008005b7c       0x12 ./Drivers/STM32WLxx_HAL_Driver/Src/stm32wlxx_hal_rtc_ex.o
                0x0000000008005b7c                HAL_RTCEx_AlarmBEventCallback
 *fill*         0x0000000008005b8e        0x2 
 .text.HAL_RTCEx_BKUPWrite
                0x0000000008005b90       0x30 ./Drivers/STM32WLxx_HAL_Driver/Src/stm32wlxx_hal_rtc_ex.o
                0x0000000008005b90                HAL_RTCEx_BKUPWrite
 .text.HAL_RTCEx_BKUPRead
                0x0000000008005bc0       0x2c ./Drivers/STM32WLxx_HAL_Driver/Src/stm32wlxx_hal_rtc_ex.o
                0x0000000008005bc0                HAL_RTCEx_BKUPRead
 .text.LL_PWR_SetRadioBusyTrigger
                0x0000000008005bec       0x28 ./Drivers/STM32WLxx_HAL_Driver/Src/stm32wlxx_hal_subghz.o
 .text.LL_PWR_UnselectSUBGHZSPI_NSS
                0x0000000008005c14       0x20 ./Drivers/STM32WLxx_HAL_Driver/Src/stm32wlxx_hal_subghz.o
 .text.LL_PWR_SelectSUBGHZSPI_NSS
                0x0000000008005c34       0x20 ./Drivers/STM32WLxx_HAL_Driver/Src/stm32wlxx_hal_subghz.o
 .text.LL_PWR_ClearFlag_RFBUSY
                0x0000000008005c54       0x18 ./Drivers/STM32WLxx_HAL_Driver/Src/stm32wlxx_hal_subghz.o
 .text.LL_PWR_IsActiveFlag_RFBUSYS
                0x0000000008005c6c       0x24 ./Drivers/STM32WLxx_HAL_Driver/Src/stm32wlxx_hal_subghz.o
 .text.LL_PWR_IsActiveFlag_RFBUSYMS
                0x0000000008005c90       0x24 ./Drivers/STM32WLxx_HAL_Driver/Src/stm32wlxx_hal_subghz.o
 .text.LL_RCC_RF_DisableReset
                0x0000000008005cb4       0x20 ./Drivers/STM32WLxx_HAL_Driver/Src/stm32wlxx_hal_subghz.o
 .text.LL_RCC_IsRFUnderReset
                0x0000000008005cd4       0x24 ./Drivers/STM32WLxx_HAL_Driver/Src/stm32wlxx_hal_subghz.o
 .text.LL_EXTI_EnableIT_32_63
                0x0000000008005cf8       0x28 ./Drivers/STM32WLxx_HAL_Driver/Src/stm32wlxx_hal_subghz.o
 .text.HAL_SUBGHZ_Init
                0x0000000008005d20       0xbc ./Drivers/STM32WLxx_HAL_Driver/Src/stm32wlxx_hal_subghz.o
                0x0000000008005d20                HAL_SUBGHZ_Init
 .text.HAL_SUBGHZ_WriteRegisters
                0x0000000008005ddc       0xbe ./Drivers/STM32WLxx_HAL_Driver/Src/stm32wlxx_hal_subghz.o
                0x0000000008005ddc                HAL_SUBGHZ_WriteRegisters
 .text.HAL_SUBGHZ_ReadRegisters
                0x0000000008005e9a       0xc2 ./Drivers/STM32WLxx_HAL_Driver/Src/stm32wlxx_hal_subghz.o
                0x0000000008005e9a                HAL_SUBGHZ_ReadRegisters
 .text.HAL_SUBGHZ_ExecSetCmd
                0x0000000008005f5c       0xbe ./Drivers/STM32WLxx_HAL_Driver/Src/stm32wlxx_hal_subghz.o
                0x0000000008005f5c                HAL_SUBGHZ_ExecSetCmd
 .text.HAL_SUBGHZ_ExecGetCmd
                0x000000000800601a       0xa8 ./Drivers/STM32WLxx_HAL_Driver/Src/stm32wlxx_hal_subghz.o
                0x000000000800601a                HAL_SUBGHZ_ExecGetCmd
 .text.HAL_SUBGHZ_WriteBuffer
                0x00000000080060c2       0xa6 ./Drivers/STM32WLxx_HAL_Driver/Src/stm32wlxx_hal_subghz.o
                0x00000000080060c2                HAL_SUBGHZ_WriteBuffer
 .text.HAL_SUBGHZ_ReadBuffer
                0x0000000008006168       0xb0 ./Drivers/STM32WLxx_HAL_Driver/Src/stm32wlxx_hal_subghz.o
                0x0000000008006168                HAL_SUBGHZ_ReadBuffer
 .text.HAL_SUBGHZ_IRQHandler
                0x0000000008006218       0xfc ./Drivers/STM32WLxx_HAL_Driver/Src/stm32wlxx_hal_subghz.o
                0x0000000008006218                HAL_SUBGHZ_IRQHandler
 .text.SUBGHZSPI_Init
                0x0000000008006314       0x40 ./Drivers/STM32WLxx_HAL_Driver/Src/stm32wlxx_hal_subghz.o
                0x0000000008006314                SUBGHZSPI_Init
 .text.SUBGHZSPI_Transmit
                0x0000000008006354       0xac ./Drivers/STM32WLxx_HAL_Driver/Src/stm32wlxx_hal_subghz.o
                0x0000000008006354                SUBGHZSPI_Transmit
 .text.SUBGHZSPI_Receive
                0x0000000008006400       0xb0 ./Drivers/STM32WLxx_HAL_Driver/Src/stm32wlxx_hal_subghz.o
                0x0000000008006400                SUBGHZSPI_Receive
 .text.SUBGHZ_CheckDeviceReady
                0x00000000080064b0       0x48 ./Drivers/STM32WLxx_HAL_Driver/Src/stm32wlxx_hal_subghz.o
                0x00000000080064b0                SUBGHZ_CheckDeviceReady
 .text.SUBGHZ_WaitOnBusy
                0x00000000080064f8       0x5c ./Drivers/STM32WLxx_HAL_Driver/Src/stm32wlxx_hal_subghz.o
                0x00000000080064f8                SUBGHZ_WaitOnBusy
 .text.LL_RCC_GetUSARTClockSource
                0x0000000008006554       0x24 ./Drivers/STM32WLxx_HAL_Driver/Src/stm32wlxx_hal_uart.o
 .text.LL_RCC_GetLPUARTClockSource
                0x0000000008006578       0x1e ./Drivers/STM32WLxx_HAL_Driver/Src/stm32wlxx_hal_uart.o
 .text.HAL_UART_Init
                0x0000000008006596       0xa0 ./Drivers/STM32WLxx_HAL_Driver/Src/stm32wlxx_hal_uart.o
                0x0000000008006596                HAL_UART_Init
 *fill*         0x0000000008006636        0x2 
 .text.HAL_UART_Receive_IT
                0x0000000008006638       0xac ./Drivers/STM32WLxx_HAL_Driver/Src/stm32wlxx_hal_uart.o
                0x0000000008006638                HAL_UART_Receive_IT
 .text.HAL_UART_Transmit_DMA
                0x00000000080066e4      0x124 ./Drivers/STM32WLxx_HAL_Driver/Src/stm32wlxx_hal_uart.o
                0x00000000080066e4                HAL_UART_Transmit_DMA
 .text.HAL_UART_IRQHandler
                0x0000000008006808      0x630 ./Drivers/STM32WLxx_HAL_Driver/Src/stm32wlxx_hal_uart.o
                0x0000000008006808                HAL_UART_IRQHandler
 .text.HAL_UART_TxHalfCpltCallback
                0x0000000008006e38       0x12 ./Drivers/STM32WLxx_HAL_Driver/Src/stm32wlxx_hal_uart.o
                0x0000000008006e38                HAL_UART_TxHalfCpltCallback
 .text.HAL_UART_ErrorCallback
                0x0000000008006e4a       0x12 ./Drivers/STM32WLxx_HAL_Driver/Src/stm32wlxx_hal_uart.o
                0x0000000008006e4a                HAL_UART_ErrorCallback
 .text.HAL_UARTEx_RxEventCallback
                0x0000000008006e5c       0x16 ./Drivers/STM32WLxx_HAL_Driver/Src/stm32wlxx_hal_uart.o
                0x0000000008006e5c                HAL_UARTEx_RxEventCallback
 *fill*         0x0000000008006e72        0x2 
 .text.UART_SetConfig
                0x0000000008006e74      0x4e8 ./Drivers/STM32WLxx_HAL_Driver/Src/stm32wlxx_hal_uart.o
                0x0000000008006e74                UART_SetConfig
 .text.UART_AdvFeatureConfig
                0x000000000800735c      0x142 ./Drivers/STM32WLxx_HAL_Driver/Src/stm32wlxx_hal_uart.o
                0x000000000800735c                UART_AdvFeatureConfig
 .text.UART_CheckIdleState
                0x000000000800749e       0x96 ./Drivers/STM32WLxx_HAL_Driver/Src/stm32wlxx_hal_uart.o
                0x000000000800749e                UART_CheckIdleState
 .text.UART_WaitOnFlagUntilTimeout
                0x0000000008007534      0x190 ./Drivers/STM32WLxx_HAL_Driver/Src/stm32wlxx_hal_uart.o
                0x0000000008007534                UART_WaitOnFlagUntilTimeout
 .text.UART_Start_Receive_IT
                0x00000000080076c4      0x250 ./Drivers/STM32WLxx_HAL_Driver/Src/stm32wlxx_hal_uart.o
                0x00000000080076c4                UART_Start_Receive_IT
 .text.UART_EndTxTransfer
                0x0000000008007914       0x80 ./Drivers/STM32WLxx_HAL_Driver/Src/stm32wlxx_hal_uart.o
 .text.UART_EndRxTransfer
                0x0000000008007994       0xca ./Drivers/STM32WLxx_HAL_Driver/Src/stm32wlxx_hal_uart.o
 .text.UART_DMATransmitCplt
                0x0000000008007a5e       0x9a ./Drivers/STM32WLxx_HAL_Driver/Src/stm32wlxx_hal_uart.o
 .text.UART_DMATxHalfCplt
                0x0000000008007af8       0x1c ./Drivers/STM32WLxx_HAL_Driver/Src/stm32wlxx_hal_uart.o
 .text.UART_DMAError
                0x0000000008007b14       0x80 ./Drivers/STM32WLxx_HAL_Driver/Src/stm32wlxx_hal_uart.o
 .text.UART_DMAAbortOnError
                0x0000000008007b94       0x2c ./Drivers/STM32WLxx_HAL_Driver/Src/stm32wlxx_hal_uart.o
 .text.UART_EndTransmit_IT
                0x0000000008007bc0       0x56 ./Drivers/STM32WLxx_HAL_Driver/Src/stm32wlxx_hal_uart.o
 .text.UART_RxISR_8BIT
                0x0000000008007c16      0x160 ./Drivers/STM32WLxx_HAL_Driver/Src/stm32wlxx_hal_uart.o
 .text.UART_RxISR_16BIT
                0x0000000008007d76      0x160 ./Drivers/STM32WLxx_HAL_Driver/Src/stm32wlxx_hal_uart.o
 *fill*         0x0000000008007ed6        0x2 
 .text.UART_RxISR_8BIT_FIFOEN
                0x0000000008007ed8      0x2f8 ./Drivers/STM32WLxx_HAL_Driver/Src/stm32wlxx_hal_uart.o
 .text.UART_RxISR_16BIT_FIFOEN
                0x00000000080081d0      0x300 ./Drivers/STM32WLxx_HAL_Driver/Src/stm32wlxx_hal_uart.o
 .text.HAL_UARTEx_WakeupCallback
                0x00000000080084d0       0x12 ./Drivers/STM32WLxx_HAL_Driver/Src/stm32wlxx_hal_uart_ex.o
                0x00000000080084d0                HAL_UARTEx_WakeupCallback
 .text.HAL_UARTEx_RxFifoFullCallback
                0x00000000080084e2       0x12 ./Drivers/STM32WLxx_HAL_Driver/Src/stm32wlxx_hal_uart_ex.o
                0x00000000080084e2                HAL_UARTEx_RxFifoFullCallback
 .text.HAL_UARTEx_TxFifoEmptyCallback
                0x00000000080084f4       0x12 ./Drivers/STM32WLxx_HAL_Driver/Src/stm32wlxx_hal_uart_ex.o
                0x00000000080084f4                HAL_UARTEx_TxFifoEmptyCallback
 .text.HAL_UARTEx_StopModeWakeUpSourceConfig
                0x0000000008008506       0xb6 ./Drivers/STM32WLxx_HAL_Driver/Src/stm32wlxx_hal_uart_ex.o
                0x0000000008008506                HAL_UARTEx_StopModeWakeUpSourceConfig
 .text.HAL_UARTEx_EnableStopMode
                0x00000000080085bc       0x64 ./Drivers/STM32WLxx_HAL_Driver/Src/stm32wlxx_hal_uart_ex.o
                0x00000000080085bc                HAL_UARTEx_EnableStopMode
 .text.HAL_UARTEx_DisableFifoMode
                0x0000000008008620       0x70 ./Drivers/STM32WLxx_HAL_Driver/Src/stm32wlxx_hal_uart_ex.o
                0x0000000008008620                HAL_UARTEx_DisableFifoMode
 .text.HAL_UARTEx_SetTxFifoThreshold
                0x0000000008008690       0x7c ./Drivers/STM32WLxx_HAL_Driver/Src/stm32wlxx_hal_uart_ex.o
                0x0000000008008690                HAL_UARTEx_SetTxFifoThreshold
 .text.HAL_UARTEx_SetRxFifoThreshold
                0x000000000800870c       0x7c ./Drivers/STM32WLxx_HAL_Driver/Src/stm32wlxx_hal_uart_ex.o
                0x000000000800870c                HAL_UARTEx_SetRxFifoThreshold
 .text.UARTEx_Wakeup_AddressConfig
                0x0000000008008788       0x44 ./Drivers/STM32WLxx_HAL_Driver/Src/stm32wlxx_hal_uart_ex.o
 .text.UARTEx_SetNbDataToProcess
                0x00000000080087cc       0x98 ./Drivers/STM32WLxx_HAL_Driver/Src/stm32wlxx_hal_uart_ex.o
 .text.RadioInit
                0x0000000008008864       0xb8 ./Middlewares/Third_Party/SubGHz_Phy/stm32_radio_driver/radio.o
 .text.RadioGetStatus
                0x000000000800891c       0x2e ./Middlewares/Third_Party/SubGHz_Phy/stm32_radio_driver/radio.o
 *fill*         0x000000000800894a        0x2 
 .text.RadioSetModem
                0x000000000800894c       0xb8 ./Middlewares/Third_Party/SubGHz_Phy/stm32_radio_driver/radio.o
 .text.RadioSetChannel
                0x0000000008008a04       0x16 ./Middlewares/Third_Party/SubGHz_Phy/stm32_radio_driver/radio.o
 .text.RadioIsChannelFree
                0x0000000008008a1a       0xb4 ./Middlewares/Third_Party/SubGHz_Phy/stm32_radio_driver/radio.o
 .text.RadioRandom
                0x0000000008008ace       0x26 ./Middlewares/Third_Party/SubGHz_Phy/stm32_radio_driver/radio.o
 .text.RadioSetRxConfig
                0x0000000008008af4      0x400 ./Middlewares/Third_Party/SubGHz_Phy/stm32_radio_driver/radio.o
 .text.RadioSetTxConfig
                0x0000000008008ef4      0x218 ./Middlewares/Third_Party/SubGHz_Phy/stm32_radio_driver/radio.o
 .text.RadioCheckRfFrequency
                0x000000000800910c       0x14 ./Middlewares/Third_Party/SubGHz_Phy/stm32_radio_driver/radio.o
 .text.RadioGetLoRaBandwidthInHz
                0x0000000008009120       0xac ./Middlewares/Third_Party/SubGHz_Phy/stm32_radio_driver/radio.o
 .text.RadioGetGfskTimeOnAirNumerator
                0x00000000080091cc       0x54 ./Middlewares/Third_Party/SubGHz_Phy/stm32_radio_driver/radio.o
 .text.RadioGetLoRaTimeOnAirNumerator
                0x0000000008009220      0x102 ./Middlewares/Third_Party/SubGHz_Phy/stm32_radio_driver/radio.o
 *fill*         0x0000000008009322        0x2 
 .text.RadioTimeOnAir
                0x0000000008009324       0xb0 ./Middlewares/Third_Party/SubGHz_Phy/stm32_radio_driver/radio.o
 .text.RadioSend
                0x00000000080093d4      0x1ec ./Middlewares/Third_Party/SubGHz_Phy/stm32_radio_driver/radio.o
 .text.RadioSleep
                0x00000000080095c0       0x26 ./Middlewares/Third_Party/SubGHz_Phy/stm32_radio_driver/radio.o
 .text.RadioStandby
                0x00000000080095e6        0xe ./Middlewares/Third_Party/SubGHz_Phy/stm32_radio_driver/radio.o
 .text.RadioRx  0x00000000080095f4       0x80 ./Middlewares/Third_Party/SubGHz_Phy/stm32_radio_driver/radio.o
 .text.RadioRxBoosted
                0x0000000008009674       0x80 ./Middlewares/Third_Party/SubGHz_Phy/stm32_radio_driver/radio.o
 .text.RadioSetRxDutyCycle
                0x00000000080096f4       0x48 ./Middlewares/Third_Party/SubGHz_Phy/stm32_radio_driver/radio.o
 .text.RadioStartCad
                0x000000000800973c       0x30 ./Middlewares/Third_Party/SubGHz_Phy/stm32_radio_driver/radio.o
 .text.RadioSetTxContinuousWave
                0x000000000800976c       0x58 ./Middlewares/Third_Party/SubGHz_Phy/stm32_radio_driver/radio.o
 .text.RadioRssi
                0x00000000080097c4       0x1a ./Middlewares/Third_Party/SubGHz_Phy/stm32_radio_driver/radio.o
 .text.RadioWrite
                0x00000000080097de       0x24 ./Middlewares/Third_Party/SubGHz_Phy/stm32_radio_driver/radio.o
 .text.RadioRead
                0x0000000008009802       0x1c ./Middlewares/Third_Party/SubGHz_Phy/stm32_radio_driver/radio.o
 .text.RadioWriteRegisters
                0x000000000800981e       0x26 ./Middlewares/Third_Party/SubGHz_Phy/stm32_radio_driver/radio.o
 .text.RadioReadRegisters
                0x0000000008009844       0x26 ./Middlewares/Third_Party/SubGHz_Phy/stm32_radio_driver/radio.o
 *fill*         0x000000000800986a        0x2 
 .text.RadioSetMaxPayloadLength
                0x000000000800986c       0x5c ./Middlewares/Third_Party/SubGHz_Phy/stm32_radio_driver/radio.o
 .text.RadioSetPublicNetwork
                0x00000000080098c8       0x5c ./Middlewares/Third_Party/SubGHz_Phy/stm32_radio_driver/radio.o
 .text.RadioGetWakeupTime
                0x0000000008009924       0x10 ./Middlewares/Third_Party/SubGHz_Phy/stm32_radio_driver/radio.o
 .text.RadioOnTxTimeoutIrq
                0x0000000008009934       0x14 ./Middlewares/Third_Party/SubGHz_Phy/stm32_radio_driver/radio.o
 .text.RadioOnRxTimeoutIrq
                0x0000000008009948       0x14 ./Middlewares/Third_Party/SubGHz_Phy/stm32_radio_driver/radio.o
 .text.RadioOnTxTimeoutProcess
                0x000000000800995c       0x28 ./Middlewares/Third_Party/SubGHz_Phy/stm32_radio_driver/radio.o
 .text.RadioOnRxTimeoutProcess
                0x0000000008009984       0x28 ./Middlewares/Third_Party/SubGHz_Phy/stm32_radio_driver/radio.o
 .text.RadioOnDioIrq
                0x00000000080099ac       0x24 ./Middlewares/Third_Party/SubGHz_Phy/stm32_radio_driver/radio.o
 .text.RadioIrqProcess
                0x00000000080099d0      0x3e4 ./Middlewares/Third_Party/SubGHz_Phy/stm32_radio_driver/radio.o
 .text.RadioTxPrbs
                0x0000000008009db4       0x38 ./Middlewares/Third_Party/SubGHz_Phy/stm32_radio_driver/radio.o
 .text.RadioTxCw
                0x0000000008009dec       0x2e ./Middlewares/Third_Party/SubGHz_Phy/stm32_radio_driver/radio.o
 .text.payload_integration
                0x0000000008009e1a      0x120 ./Middlewares/Third_Party/SubGHz_Phy/stm32_radio_driver/radio.o
 *fill*         0x0000000008009f3a        0x2 
 .text.RadioSetRxGenericConfig
                0x0000000008009f3c      0x388 ./Middlewares/Third_Party/SubGHz_Phy/stm32_radio_driver/radio.o
 .text.RadioSetTxGenericConfig
                0x000000000800a2c4      0x46c ./Middlewares/Third_Party/SubGHz_Phy/stm32_radio_driver/radio.o
 .text.SUBGRF_Init
                0x000000000800a730       0x84 ./Middlewares/Third_Party/SubGHz_Phy/stm32_radio_driver/radio_driver.o
                0x000000000800a730                SUBGRF_Init
 .text.SUBGRF_GetOperatingMode
                0x000000000800a7b4       0x14 ./Middlewares/Third_Party/SubGHz_Phy/stm32_radio_driver/radio_driver.o
                0x000000000800a7b4                SUBGRF_GetOperatingMode
 .text.SUBGRF_SetPayload
                0x000000000800a7c8       0x20 ./Middlewares/Third_Party/SubGHz_Phy/stm32_radio_driver/radio_driver.o
                0x000000000800a7c8                SUBGRF_SetPayload
 .text.SUBGRF_GetPayload
                0x000000000800a7e8       0x44 ./Middlewares/Third_Party/SubGHz_Phy/stm32_radio_driver/radio_driver.o
                0x000000000800a7e8                SUBGRF_GetPayload
 .text.SUBGRF_SendPayload
                0x000000000800a82c       0x26 ./Middlewares/Third_Party/SubGHz_Phy/stm32_radio_driver/radio_driver.o
                0x000000000800a82c                SUBGRF_SendPayload
 .text.SUBGRF_SetSyncWord
                0x000000000800a852       0x1e ./Middlewares/Third_Party/SubGHz_Phy/stm32_radio_driver/radio_driver.o
                0x000000000800a852                SUBGRF_SetSyncWord
 .text.SUBGRF_SetCrcSeed
                0x000000000800a870       0x40 ./Middlewares/Third_Party/SubGHz_Phy/stm32_radio_driver/radio_driver.o
                0x000000000800a870                SUBGRF_SetCrcSeed
 .text.SUBGRF_SetCrcPolynomial
                0x000000000800a8b0       0x40 ./Middlewares/Third_Party/SubGHz_Phy/stm32_radio_driver/radio_driver.o
                0x000000000800a8b0                SUBGRF_SetCrcPolynomial
 .text.SUBGRF_SetWhiteningSeed
                0x000000000800a8f0       0x66 ./Middlewares/Third_Party/SubGHz_Phy/stm32_radio_driver/radio_driver.o
                0x000000000800a8f0                SUBGRF_SetWhiteningSeed
 .text.SUBGRF_GetRandom
                0x000000000800a956       0x8c ./Middlewares/Third_Party/SubGHz_Phy/stm32_radio_driver/radio_driver.o
                0x000000000800a956                SUBGRF_GetRandom
 *fill*         0x000000000800a9e2        0x2 
 .text.SUBGRF_SetSleep
                0x000000000800a9e4       0x64 ./Middlewares/Third_Party/SubGHz_Phy/stm32_radio_driver/radio_driver.o
                0x000000000800a9e4                SUBGRF_SetSleep
 .text.SUBGRF_SetStandby
                0x000000000800aa48       0x38 ./Middlewares/Third_Party/SubGHz_Phy/stm32_radio_driver/radio_driver.o
                0x000000000800aa48                SUBGRF_SetStandby
 .text.SUBGRF_SetTx
                0x000000000800aa80       0x40 ./Middlewares/Third_Party/SubGHz_Phy/stm32_radio_driver/radio_driver.o
                0x000000000800aa80                SUBGRF_SetTx
 .text.SUBGRF_SetRx
                0x000000000800aac0       0x40 ./Middlewares/Third_Party/SubGHz_Phy/stm32_radio_driver/radio_driver.o
                0x000000000800aac0                SUBGRF_SetRx
 .text.SUBGRF_SetRxBoosted
                0x000000000800ab00       0x48 ./Middlewares/Third_Party/SubGHz_Phy/stm32_radio_driver/radio_driver.o
                0x000000000800ab00                SUBGRF_SetRxBoosted
 .text.SUBGRF_SetRxDutyCycle
                0x000000000800ab48       0x58 ./Middlewares/Third_Party/SubGHz_Phy/stm32_radio_driver/radio_driver.o
                0x000000000800ab48                SUBGRF_SetRxDutyCycle
 .text.SUBGRF_SetCad
                0x000000000800aba0       0x1c ./Middlewares/Third_Party/SubGHz_Phy/stm32_radio_driver/radio_driver.o
                0x000000000800aba0                SUBGRF_SetCad
 .text.SUBGRF_SetTxContinuousWave
                0x000000000800abbc       0x12 ./Middlewares/Third_Party/SubGHz_Phy/stm32_radio_driver/radio_driver.o
                0x000000000800abbc                SUBGRF_SetTxContinuousWave
 .text.SUBGRF_SetTxInfinitePreamble
                0x000000000800abce       0x12 ./Middlewares/Third_Party/SubGHz_Phy/stm32_radio_driver/radio_driver.o
                0x000000000800abce                SUBGRF_SetTxInfinitePreamble
 .text.SUBGRF_SetStopRxTimerOnPreambleDetect
                0x000000000800abe0       0x1e ./Middlewares/Third_Party/SubGHz_Phy/stm32_radio_driver/radio_driver.o
                0x000000000800abe0                SUBGRF_SetStopRxTimerOnPreambleDetect
 .text.SUBGRF_SetLoRaSymbNumTimeout
                0x000000000800abfe       0x5e ./Middlewares/Third_Party/SubGHz_Phy/stm32_radio_driver/radio_driver.o
                0x000000000800abfe                SUBGRF_SetLoRaSymbNumTimeout
 .text.SUBGRF_SetRegulatorMode
                0x000000000800ac5c       0x2e ./Middlewares/Third_Party/SubGHz_Phy/stm32_radio_driver/radio_driver.o
                0x000000000800ac5c                SUBGRF_SetRegulatorMode
 .text.SUBGRF_Calibrate
                0x000000000800ac8a       0x8c ./Middlewares/Third_Party/SubGHz_Phy/stm32_radio_driver/radio_driver.o
                0x000000000800ac8a                SUBGRF_Calibrate
 *fill*         0x000000000800ad16        0x2 
 .text.SUBGRF_CalibrateImage
                0x000000000800ad18       0x8c ./Middlewares/Third_Party/SubGHz_Phy/stm32_radio_driver/radio_driver.o
                0x000000000800ad18                SUBGRF_CalibrateImage
 .text.SUBGRF_SetPaConfig
                0x000000000800ada4       0x44 ./Middlewares/Third_Party/SubGHz_Phy/stm32_radio_driver/radio_driver.o
                0x000000000800ada4                SUBGRF_SetPaConfig
 .text.SUBGRF_SetDioIrqParams
                0x000000000800ade8       0x74 ./Middlewares/Third_Party/SubGHz_Phy/stm32_radio_driver/radio_driver.o
                0x000000000800ade8                SUBGRF_SetDioIrqParams
 .text.SUBGRF_SetTcxoMode
                0x000000000800ae5c       0x42 ./Middlewares/Third_Party/SubGHz_Phy/stm32_radio_driver/radio_driver.o
                0x000000000800ae5c                SUBGRF_SetTcxoMode
 *fill*         0x000000000800ae9e        0x2 
 .text.SUBGRF_SetRfFrequency
                0x000000000800aea0       0x8c ./Middlewares/Third_Party/SubGHz_Phy/stm32_radio_driver/radio_driver.o
                0x000000000800aea0                SUBGRF_SetRfFrequency
 .text.SUBGRF_SetPacketType
                0x000000000800af2c       0x38 ./Middlewares/Third_Party/SubGHz_Phy/stm32_radio_driver/radio_driver.o
                0x000000000800af2c                SUBGRF_SetPacketType
 .text.SUBGRF_GetPacketType
                0x000000000800af64       0x14 ./Middlewares/Third_Party/SubGHz_Phy/stm32_radio_driver/radio_driver.o
                0x000000000800af64                SUBGRF_GetPacketType
 .text.SUBGRF_SetTxParams
                0x000000000800af78      0x19a ./Middlewares/Third_Party/SubGHz_Phy/stm32_radio_driver/radio_driver.o
                0x000000000800af78                SUBGRF_SetTxParams
 *fill*         0x000000000800b112        0x2 
 .text.SUBGRF_SetModulationParams
                0x000000000800b114      0x1a4 ./Middlewares/Third_Party/SubGHz_Phy/stm32_radio_driver/radio_driver.o
                0x000000000800b114                SUBGRF_SetModulationParams
 .text.SUBGRF_SetPacketParams
                0x000000000800b2b8      0x13c ./Middlewares/Third_Party/SubGHz_Phy/stm32_radio_driver/radio_driver.o
                0x000000000800b2b8                SUBGRF_SetPacketParams
 .text.SUBGRF_SetBufferBaseAddress
                0x000000000800b3f4       0x2e ./Middlewares/Third_Party/SubGHz_Phy/stm32_radio_driver/radio_driver.o
                0x000000000800b3f4                SUBGRF_SetBufferBaseAddress
 .text.SUBGRF_GetRssiInst
                0x000000000800b422       0x2a ./Middlewares/Third_Party/SubGHz_Phy/stm32_radio_driver/radio_driver.o
                0x000000000800b422                SUBGRF_GetRssiInst
 .text.SUBGRF_GetRxBufferStatus
                0x000000000800b44c       0x58 ./Middlewares/Third_Party/SubGHz_Phy/stm32_radio_driver/radio_driver.o
                0x000000000800b44c                SUBGRF_GetRxBufferStatus
 .text.SUBGRF_GetPacketStatus
                0x000000000800b4a4       0xa4 ./Middlewares/Third_Party/SubGHz_Phy/stm32_radio_driver/radio_driver.o
                0x000000000800b4a4                SUBGRF_GetPacketStatus
 .text.SUBGRF_WriteRegister
                0x000000000800b548       0x28 ./Middlewares/Third_Party/SubGHz_Phy/stm32_radio_driver/radio_driver.o
                0x000000000800b548                SUBGRF_WriteRegister
 .text.SUBGRF_ReadRegister
                0x000000000800b570       0x28 ./Middlewares/Third_Party/SubGHz_Phy/stm32_radio_driver/radio_driver.o
                0x000000000800b570                SUBGRF_ReadRegister
 .text.SUBGRF_WriteRegisters
                0x000000000800b598       0x44 ./Middlewares/Third_Party/SubGHz_Phy/stm32_radio_driver/radio_driver.o
                0x000000000800b598                SUBGRF_WriteRegisters
 .text.SUBGRF_ReadRegisters
                0x000000000800b5dc       0x44 ./Middlewares/Third_Party/SubGHz_Phy/stm32_radio_driver/radio_driver.o
                0x000000000800b5dc                SUBGRF_ReadRegisters
 .text.SUBGRF_WriteBuffer
                0x000000000800b620       0x44 ./Middlewares/Third_Party/SubGHz_Phy/stm32_radio_driver/radio_driver.o
                0x000000000800b620                SUBGRF_WriteBuffer
 .text.SUBGRF_ReadBuffer
                0x000000000800b664       0x44 ./Middlewares/Third_Party/SubGHz_Phy/stm32_radio_driver/radio_driver.o
                0x000000000800b664                SUBGRF_ReadBuffer
 .text.SUBGRF_WriteCommand
                0x000000000800b6a8       0x44 ./Middlewares/Third_Party/SubGHz_Phy/stm32_radio_driver/radio_driver.o
 .text.SUBGRF_ReadCommand
                0x000000000800b6ec       0x44 ./Middlewares/Third_Party/SubGHz_Phy/stm32_radio_driver/radio_driver.o
 .text.SUBGRF_SetSwitch
                0x000000000800b730       0x50 ./Middlewares/Third_Party/SubGHz_Phy/stm32_radio_driver/radio_driver.o
                0x000000000800b730                SUBGRF_SetSwitch
 .text.SUBGRF_SetRfTxPower
                0x000000000800b780       0x68 ./Middlewares/Third_Party/SubGHz_Phy/stm32_radio_driver/radio_driver.o
                0x000000000800b780                SUBGRF_SetRfTxPower
 .text.SUBGRF_GetRadioWakeUpTime
                0x000000000800b7e8        0xe ./Middlewares/Third_Party/SubGHz_Phy/stm32_radio_driver/radio_driver.o
                0x000000000800b7e8                SUBGRF_GetRadioWakeUpTime
 *fill*         0x000000000800b7f6        0x2 
 .text.HAL_SUBGHZ_TxCpltCallback
                0x000000000800b7f8       0x1c ./Middlewares/Third_Party/SubGHz_Phy/stm32_radio_driver/radio_driver.o
                0x000000000800b7f8                HAL_SUBGHZ_TxCpltCallback
 .text.HAL_SUBGHZ_RxCpltCallback
                0x000000000800b814       0x1c ./Middlewares/Third_Party/SubGHz_Phy/stm32_radio_driver/radio_driver.o
                0x000000000800b814                HAL_SUBGHZ_RxCpltCallback
 .text.HAL_SUBGHZ_CRCErrorCallback
                0x000000000800b830       0x1c ./Middlewares/Third_Party/SubGHz_Phy/stm32_radio_driver/radio_driver.o
                0x000000000800b830                HAL_SUBGHZ_CRCErrorCallback
 .text.HAL_SUBGHZ_CADStatusCallback
                0x000000000800b84c       0x3c ./Middlewares/Third_Party/SubGHz_Phy/stm32_radio_driver/radio_driver.o
                0x000000000800b84c                HAL_SUBGHZ_CADStatusCallback
 .text.HAL_SUBGHZ_RxTxTimeoutCallback
                0x000000000800b888       0x20 ./Middlewares/Third_Party/SubGHz_Phy/stm32_radio_driver/radio_driver.o
                0x000000000800b888                HAL_SUBGHZ_RxTxTimeoutCallback
 .text.HAL_SUBGHZ_HeaderErrorCallback
                0x000000000800b8a8       0x1c ./Middlewares/Third_Party/SubGHz_Phy/stm32_radio_driver/radio_driver.o
                0x000000000800b8a8                HAL_SUBGHZ_HeaderErrorCallback
 .text.HAL_SUBGHZ_PreambleDetectedCallback
                0x000000000800b8c4       0x1c ./Middlewares/Third_Party/SubGHz_Phy/stm32_radio_driver/radio_driver.o
                0x000000000800b8c4                HAL_SUBGHZ_PreambleDetectedCallback
 .text.HAL_SUBGHZ_SyncWordValidCallback
                0x000000000800b8e0       0x1c ./Middlewares/Third_Party/SubGHz_Phy/stm32_radio_driver/radio_driver.o
                0x000000000800b8e0                HAL_SUBGHZ_SyncWordValidCallback
 .text.HAL_SUBGHZ_HeaderValidCallback
                0x000000000800b8fc       0x1c ./Middlewares/Third_Party/SubGHz_Phy/stm32_radio_driver/radio_driver.o
                0x000000000800b8fc                HAL_SUBGHZ_HeaderValidCallback
 .text.Radio_SMPS_Set
                0x000000000800b918       0x42 ./Middlewares/Third_Party/SubGHz_Phy/stm32_radio_driver/radio_driver.o
 *fill*         0x000000000800b95a        0x2 
 .text.SUBGRF_GetFskBandwidthRegValue
                0x000000000800b95c       0x50 ./Middlewares/Third_Party/SubGHz_Phy/stm32_radio_driver/radio_driver.o
                0x000000000800b95c                SUBGRF_GetFskBandwidthRegValue
 .text.SUBGRF_GetCFO
                0x000000000800b9ac       0xe8 ./Middlewares/Third_Party/SubGHz_Phy/stm32_radio_driver/radio_driver.o
                0x000000000800b9ac                SUBGRF_GetCFO
 .text.RFW_TransmitLongPacket
                0x000000000800ba94       0x24 ./Middlewares/Third_Party/SubGHz_Phy/stm32_radio_driver/radio_fw.o
                0x000000000800ba94                RFW_TransmitLongPacket
 .text.RFW_ReceiveLongPacket
                0x000000000800bab8       0x24 ./Middlewares/Third_Party/SubGHz_Phy/stm32_radio_driver/radio_fw.o
                0x000000000800bab8                RFW_ReceiveLongPacket
 .text.RFW_Init
                0x000000000800badc       0x1a ./Middlewares/Third_Party/SubGHz_Phy/stm32_radio_driver/radio_fw.o
                0x000000000800badc                RFW_Init
 .text.RFW_DeInit
                0x000000000800baf6        0xc ./Middlewares/Third_Party/SubGHz_Phy/stm32_radio_driver/radio_fw.o
                0x000000000800baf6                RFW_DeInit
 .text.RFW_Is_Init
                0x000000000800bb02        0xe ./Middlewares/Third_Party/SubGHz_Phy/stm32_radio_driver/radio_fw.o
                0x000000000800bb02                RFW_Is_Init
 .text.RFW_Is_LongPacketModeEnabled
                0x000000000800bb10        0xe ./Middlewares/Third_Party/SubGHz_Phy/stm32_radio_driver/radio_fw.o
                0x000000000800bb10                RFW_Is_LongPacketModeEnabled
 .text.RFW_SetAntSwitch
                0x000000000800bb1e       0x14 ./Middlewares/Third_Party/SubGHz_Phy/stm32_radio_driver/radio_fw.o
                0x000000000800bb1e                RFW_SetAntSwitch
 .text.RFW_TransmitInit
                0x000000000800bb32       0x20 ./Middlewares/Third_Party/SubGHz_Phy/stm32_radio_driver/radio_fw.o
                0x000000000800bb32                RFW_TransmitInit
 .text.RFW_ReceiveInit
                0x000000000800bb52       0x10 ./Middlewares/Third_Party/SubGHz_Phy/stm32_radio_driver/radio_fw.o
                0x000000000800bb52                RFW_ReceiveInit
 .text.RFW_DeInit_TxLongPacket
                0x000000000800bb62        0xc ./Middlewares/Third_Party/SubGHz_Phy/stm32_radio_driver/radio_fw.o
                0x000000000800bb62                RFW_DeInit_TxLongPacket
 .text.RFW_ReceivePayload
                0x000000000800bb6e        0xc ./Middlewares/Third_Party/SubGHz_Phy/stm32_radio_driver/radio_fw.o
                0x000000000800bb6e                RFW_ReceivePayload
 .text.RFW_SetRadioModem
                0x000000000800bb7a       0x14 ./Middlewares/Third_Party/SubGHz_Phy/stm32_radio_driver/radio_fw.o
                0x000000000800bb7a                RFW_SetRadioModem
 .text.MX_SubGHz_Phy_Init
                0x000000000800bb8e       0x10 ./SubGHz_Phy/App/app_subghz_phy.o
                0x000000000800bb8e                MX_SubGHz_Phy_Init
 .text.MX_SubGHz_Phy_Process
                0x000000000800bb9e       0x10 ./SubGHz_Phy/App/app_subghz_phy.o
                0x000000000800bb9e                MX_SubGHz_Phy_Process
 *fill*         0x000000000800bbae        0x2 
 .text.SubghzApp_Init
                0x000000000800bbb0      0x130 ./SubGHz_Phy/App/subghz_phy_app.o
                0x000000000800bbb0                SubghzApp_Init
 .text.OnTxDone
                0x000000000800bce0       0x24 ./SubGHz_Phy/App/subghz_phy_app.o
 .text.OnRxDone
                0x000000000800bd04      0x1d8 ./SubGHz_Phy/App/subghz_phy_app.o
 .text.OnTxTimeout
                0x000000000800bedc       0x14 ./SubGHz_Phy/App/subghz_phy_app.o
 .text.OnRxTimeout
                0x000000000800bef0       0x14 ./SubGHz_Phy/App/subghz_phy_app.o
 .text.OnRxError
                0x000000000800bf04       0x14 ./SubGHz_Phy/App/subghz_phy_app.o
 .text.TimeOutEvent
                0x000000000800bf18       0x80 ./SubGHz_Phy/App/subghz_phy_app.o
 .text.SerialProcess
                0x000000000800bf98      0x1d4 ./SubGHz_Phy/App/subghz_phy_app.o
 .text.Serial_ISR
                0x000000000800c16c       0x74 ./SubGHz_Phy/App/subghz_phy_app.o
 .text.RBI_Init
                0x000000000800c1e0       0x16 ./SubGHz_Phy/Target/radio_board_if.o
                0x000000000800c1e0                RBI_Init
 .text.RBI_ConfigRFSwitch
                0x000000000800c1f6       0x1a ./SubGHz_Phy/Target/radio_board_if.o
                0x000000000800c1f6                RBI_ConfigRFSwitch
 .text.RBI_GetTxConfig
                0x000000000800c210       0x16 ./SubGHz_Phy/Target/radio_board_if.o
                0x000000000800c210                RBI_GetTxConfig
 .text.RBI_IsTCXO
                0x000000000800c226       0x16 ./SubGHz_Phy/Target/radio_board_if.o
                0x000000000800c226                RBI_IsTCXO
 .text.RBI_IsDCDC
                0x000000000800c23c       0x16 ./SubGHz_Phy/Target/radio_board_if.o
                0x000000000800c23c                RBI_IsDCDC
 .text.RBI_GetRFOMaxPowerConfig
                0x000000000800c252       0x2a ./SubGHz_Phy/Target/radio_board_if.o
                0x000000000800c252                RBI_GetRFOMaxPowerConfig
 .text.UTIL_LPM_Init
                0x000000000800c27c       0x20 ./Utilities/lpm/tiny_lpm/stm32_lpm.o
                0x000000000800c27c                UTIL_LPM_Init
 .text.UTIL_LPM_SetStopMode
                0x000000000800c29c       0x60 ./Utilities/lpm/tiny_lpm/stm32_lpm.o
                0x000000000800c29c                UTIL_LPM_SetStopMode
 .text.UTIL_LPM_SetOffMode
                0x000000000800c2fc       0x60 ./Utilities/lpm/tiny_lpm/stm32_lpm.o
                0x000000000800c2fc                UTIL_LPM_SetOffMode
 .text.UTIL_LPM_EnterLowPower
                0x000000000800c35c       0x6c ./Utilities/lpm/tiny_lpm/stm32_lpm.o
                0x000000000800c35c                UTIL_LPM_EnterLowPower
 .text.UTIL_MEM_cpy_8
                0x000000000800c3c8       0x3e ./Utilities/misc/stm32_mem.o
                0x000000000800c3c8                UTIL_MEM_cpy_8
 .text.UTIL_MEM_set_8
                0x000000000800c406       0x36 ./Utilities/misc/stm32_mem.o
                0x000000000800c406                UTIL_MEM_set_8
 .text.SysTimeAdd
                0x000000000800c43c       0x72 ./Utilities/misc/stm32_systime.o
                0x000000000800c43c                SysTimeAdd
 *fill*         0x000000000800c4ae        0x2 
 .text.SysTimeGet
                0x000000000800c4b0       0x70 ./Utilities/misc/stm32_systime.o
                0x000000000800c4b0                SysTimeGet
 .text.ee_skip_atoi
                0x000000000800c520       0x4c ./Utilities/misc/stm32_tiny_vsnprintf.o
 .text.ee_number
                0x000000000800c56c      0x1dc ./Utilities/misc/stm32_tiny_vsnprintf.o
 .text.tiny_vsnprintf_like
                0x000000000800c748      0x2ac ./Utilities/misc/stm32_tiny_vsnprintf.o
                0x000000000800c748                tiny_vsnprintf_like
 .text.UTIL_SEQ_Run
                0x000000000800c9f4      0x1f8 ./Utilities/sequencer/stm32_seq.o
                0x000000000800c9f4                UTIL_SEQ_Run
 .text.UTIL_SEQ_RegTask
                0x000000000800cbec       0x44 ./Utilities/sequencer/stm32_seq.o
                0x000000000800cbec                UTIL_SEQ_RegTask
 .text.UTIL_SEQ_SetTask
                0x000000000800cc30       0x58 ./Utilities/sequencer/stm32_seq.o
                0x000000000800cc30                UTIL_SEQ_SetTask
 .text.UTIL_SEQ_PreIdle
                0x000000000800cc88        0xc ./Utilities/sequencer/stm32_seq.o
                0x000000000800cc88                UTIL_SEQ_PreIdle
 .text.UTIL_SEQ_PostIdle
                0x000000000800cc94        0xc ./Utilities/sequencer/stm32_seq.o
                0x000000000800cc94                UTIL_SEQ_PostIdle
 .text.SEQ_BitPosition
                0x000000000800cca0       0x74 ./Utilities/sequencer/stm32_seq.o
                0x000000000800cca0                SEQ_BitPosition
 .text.UTIL_TIMER_Init
                0x000000000800cd14       0x20 ./Utilities/timer/stm32_timer.o
                0x000000000800cd14                UTIL_TIMER_Init
 .text.UTIL_TIMER_Create
                0x000000000800cd34       0x6c ./Utilities/timer/stm32_timer.o
                0x000000000800cd34                UTIL_TIMER_Create
 .text.UTIL_TIMER_Start
                0x000000000800cda0       0xdc ./Utilities/timer/stm32_timer.o
                0x000000000800cda0                UTIL_TIMER_Start
 .text.UTIL_TIMER_Stop
                0x000000000800ce7c       0xe0 ./Utilities/timer/stm32_timer.o
                0x000000000800ce7c                UTIL_TIMER_Stop
 .text.UTIL_TIMER_SetPeriod
                0x000000000800cf5c       0x54 ./Utilities/timer/stm32_timer.o
                0x000000000800cf5c                UTIL_TIMER_SetPeriod
 .text.UTIL_TIMER_IRQ_Handler
                0x000000000800cfb0      0x100 ./Utilities/timer/stm32_timer.o
                0x000000000800cfb0                UTIL_TIMER_IRQ_Handler
 .text.UTIL_TIMER_GetCurrentTime
                0x000000000800d0b0       0x24 ./Utilities/timer/stm32_timer.o
                0x000000000800d0b0                UTIL_TIMER_GetCurrentTime
 .text.UTIL_TIMER_GetElapsedTime
                0x000000000800d0d4       0x38 ./Utilities/timer/stm32_timer.o
                0x000000000800d0d4                UTIL_TIMER_GetElapsedTime
 .text.TimerExists
                0x000000000800d10c       0x38 ./Utilities/timer/stm32_timer.o
                0x000000000800d10c                TimerExists
 .text.TimerSetTimeout
                0x000000000800d144       0x54 ./Utilities/timer/stm32_timer.o
                0x000000000800d144                TimerSetTimeout
 .text.TimerInsertTimer
                0x000000000800d198       0x60 ./Utilities/timer/stm32_timer.o
                0x000000000800d198                TimerInsertTimer
 .text.TimerInsertNewHeadTimer
                0x000000000800d1f8       0x3c ./Utilities/timer/stm32_timer.o
                0x000000000800d1f8                TimerInsertNewHeadTimer
 .text.UTIL_ADV_TRACE_Init
                0x000000000800d234       0x38 ./Utilities/trace/adv_trace/stm32_adv_trace.o
                0x000000000800d234                UTIL_ADV_TRACE_Init
 .text.UTIL_ADV_TRACE_StartRxProcess
                0x000000000800d26c       0x20 ./Utilities/trace/adv_trace/stm32_adv_trace.o
                0x000000000800d26c                UTIL_ADV_TRACE_StartRxProcess
 .text.UTIL_ADV_TRACE_Send
                0x000000000800d28c       0x7c ./Utilities/trace/adv_trace/stm32_adv_trace.o
                0x000000000800d28c                UTIL_ADV_TRACE_Send
 .text.UTIL_ADV_TRACE_RegisterTimeStampFunction
                0x000000000800d308       0x1c ./Utilities/trace/adv_trace/stm32_adv_trace.o
                0x000000000800d308                UTIL_ADV_TRACE_RegisterTimeStampFunction
 .text.UTIL_ADV_TRACE_SetVerboseLevel
                0x000000000800d324       0x20 ./Utilities/trace/adv_trace/stm32_adv_trace.o
                0x000000000800d324                UTIL_ADV_TRACE_SetVerboseLevel
 .text.TRACE_Send
                0x000000000800d344      0x108 ./Utilities/trace/adv_trace/stm32_adv_trace.o
 .text.TRACE_TxCpltCallback
                0x000000000800d44c      0x118 ./Utilities/trace/adv_trace/stm32_adv_trace.o
 .text.TRACE_AllocateBufer
                0x000000000800d564       0xfc ./Utilities/trace/adv_trace/stm32_adv_trace.o
 .text.TRACE_Lock
                0x000000000800d660       0x3c ./Utilities/trace/adv_trace/stm32_adv_trace.o
 .text.TRACE_UnLock
                0x000000000800d69c       0x3c ./Utilities/trace/adv_trace/stm32_adv_trace.o
 .text.TRACE_IsLocked
                0x000000000800d6d8       0x20 ./Utilities/trace/adv_trace/stm32_adv_trace.o
 .text.__libc_init_array
                0x000000000800d6f8       0x48 e:/all software/stm32cubeide_1.7.0/stm32cubeide/plugins/com.st.stm32cube.ide.mcu.externaltools.gnu-tools-for-stm32.10.3-2021.10.win32_1.0.0.202111181127/tools/bin/../lib/gcc/arm-none-eabi/10.3.1/../../../../arm-none-eabi/lib/thumb/v7e-m/nofp\libc_nano.a(lib_a-init.o)
                0x000000000800d6f8                __libc_init_array
 .text.memset   0x000000000800d740       0x10 e:/all software/stm32cubeide_1.7.0/stm32cubeide/plugins/com.st.stm32cube.ide.mcu.externaltools.gnu-tools-for-stm32.10.3-2021.10.win32_1.0.0.202111181127/tools/bin/../lib/gcc/arm-none-eabi/10.3.1/../../../../arm-none-eabi/lib/thumb/v7e-m/nofp\libc_nano.a(lib_a-memset.o)
                0x000000000800d740                memset
 *(.glue_7)
 .glue_7        0x000000000800d750        0x0 linker stubs
 *(.glue_7t)
 .glue_7t       0x000000000800d750        0x0 linker stubs
 *(.eh_frame)
 .eh_frame      0x000000000800d750        0x0 e:/all software/stm32cubeide_1.7.0/stm32cubeide/plugins/com.st.stm32cube.ide.mcu.externaltools.gnu-tools-for-stm32.10.3-2021.10.win32_1.0.0.202111181127/tools/bin/../lib/gcc/arm-none-eabi/10.3.1/thumb/v7e-m/nofp/crtbegin.o
 *(.init)
 .init          0x000000000800d750        0x4 e:/all software/stm32cubeide_1.7.0/stm32cubeide/plugins/com.st.stm32cube.ide.mcu.externaltools.gnu-tools-for-stm32.10.3-2021.10.win32_1.0.0.202111181127/tools/bin/../lib/gcc/arm-none-eabi/10.3.1/thumb/v7e-m/nofp/crti.o
                0x000000000800d750                _init
 .init          0x000000000800d754        0x8 e:/all software/stm32cubeide_1.7.0/stm32cubeide/plugins/com.st.stm32cube.ide.mcu.externaltools.gnu-tools-for-stm32.10.3-2021.10.win32_1.0.0.202111181127/tools/bin/../lib/gcc/arm-none-eabi/10.3.1/thumb/v7e-m/nofp/crtn.o
 *(.fini)
 .fini          0x000000000800d75c        0x4 e:/all software/stm32cubeide_1.7.0/stm32cubeide/plugins/com.st.stm32cube.ide.mcu.externaltools.gnu-tools-for-stm32.10.3-2021.10.win32_1.0.0.202111181127/tools/bin/../lib/gcc/arm-none-eabi/10.3.1/thumb/v7e-m/nofp/crti.o
                0x000000000800d75c                _fini
 .fini          0x000000000800d760        0x8 e:/all software/stm32cubeide_1.7.0/stm32cubeide/plugins/com.st.stm32cube.ide.mcu.externaltools.gnu-tools-for-stm32.10.3-2021.10.win32_1.0.0.202111181127/tools/bin/../lib/gcc/arm-none-eabi/10.3.1/thumb/v7e-m/nofp/crtn.o
                0x000000000800d768                . = ALIGN (0x4)
                0x000000000800d768                _etext = .

.vfp11_veneer   0x000000000800d768        0x0
 .vfp11_veneer  0x000000000800d768        0x0 linker stubs

.v4_bx          0x000000000800d768        0x0
 .v4_bx         0x000000000800d768        0x0 linker stubs

.iplt           0x000000000800d768        0x0
 .iplt          0x000000000800d768        0x0 e:/all software/stm32cubeide_1.7.0/stm32cubeide/plugins/com.st.stm32cube.ide.mcu.externaltools.gnu-tools-for-stm32.10.3-2021.10.win32_1.0.0.202111181127/tools/bin/../lib/gcc/arm-none-eabi/10.3.1/thumb/v7e-m/nofp/crtbegin.o

.rodata         0x000000000800d768      0x36c
                0x000000000800d768                . = ALIGN (0x4)
 *(.rodata)
 .rodata        0x000000000800d768        0x9 ./Core/Src/sys_app.o
 *fill*         0x000000000800d771        0x3 
 .rodata        0x000000000800d774       0x30 ./Drivers/STM32WLxx_HAL_Driver/Src/stm32wlxx_hal_cryp.o
 .rodata        0x000000000800d7a4       0x1c ./Drivers/STM32WLxx_HAL_Driver/Src/stm32wlxx_hal_rcc.o
 .rodata        0x000000000800d7c0       0x10 ./Middlewares/Third_Party/SubGHz_Phy/stm32_radio_driver/radio.o
 .rodata        0x000000000800d7d0       0x11 ./Middlewares/Third_Party/SubGHz_Phy/stm32_radio_driver/radio_driver.o
 *fill*         0x000000000800d7e1        0x3 
 .rodata        0x000000000800d7e4       0x57 ./Utilities/misc/stm32_tiny_vsnprintf.o
 *(.rodata*)
 *fill*         0x000000000800d83b        0x1 
 .rodata.pKeyAES
                0x000000000800d83c       0x20 ./Core/Src/main.o
 .rodata.UTIL_PowerDriver
                0x000000000800d85c       0x18 ./Core/Src/stm32_lpm_if.o
                0x000000000800d85c                UTIL_PowerDriver
 .rodata.AHBPrescTable
                0x000000000800d874       0x40 ./Core/Src/system_stm32wlxx.o
                0x000000000800d874                AHBPrescTable
 .rodata.APBPrescTable
                0x000000000800d8b4       0x20 ./Core/Src/system_stm32wlxx.o
                0x000000000800d8b4                APBPrescTable
 .rodata.MSIRangeTable
                0x000000000800d8d4       0x40 ./Core/Src/system_stm32wlxx.o
                0x000000000800d8d4                MSIRangeTable
 .rodata.UTIL_TimerDriver
                0x000000000800d914       0x2c ./Core/Src/timer_if.o
                0x000000000800d914                UTIL_TimerDriver
 .rodata.UTIL_SYSTIMDriver
                0x000000000800d940       0x14 ./Core/Src/timer_if.o
                0x000000000800d940                UTIL_SYSTIMDriver
 .rodata.UTIL_TraceDriver
                0x000000000800d954       0x10 ./Core/Src/usart_if.o
                0x000000000800d954                UTIL_TraceDriver
 .rodata.UARTPrescTable
                0x000000000800d964       0x18 ./Drivers/STM32WLxx_HAL_Driver/Src/stm32wlxx_hal_uart.o
                0x000000000800d964                UARTPrescTable
 .rodata.numerator.1
                0x000000000800d97c        0x8 ./Drivers/STM32WLxx_HAL_Driver/Src/stm32wlxx_hal_uart_ex.o
 .rodata.denominator.0
                0x000000000800d984        0x8 ./Drivers/STM32WLxx_HAL_Driver/Src/stm32wlxx_hal_uart_ex.o
 .rodata.Radio  0x000000000800d98c       0x84 ./Middlewares/Third_Party/SubGHz_Phy/stm32_radio_driver/radio.o
                0x000000000800d98c                Radio
 .rodata.Bandwidths
                0x000000000800da10        0x3 ./Middlewares/Third_Party/SubGHz_Phy/stm32_radio_driver/radio.o
                0x000000000800da10                Bandwidths
 *fill*         0x000000000800da13        0x1 
 .rodata.FskBandwidths
                0x000000000800da14       0xb0 ./Middlewares/Third_Party/SubGHz_Phy/stm32_radio_driver/radio_driver.o
 .rodata.SEQ_clz_table_4bit
                0x000000000800dac4       0x10 ./Utilities/sequencer/stm32_seq.o
                0x000000000800dac4                SEQ_clz_table_4bit
                0x000000000800dad4                . = ALIGN (0x4)

.ARM.extab      0x000000000800dad4        0x0
                0x000000000800dad4                . = ALIGN (0x4)
 *(.ARM.extab* .gnu.linkonce.armextab.*)
                0x000000000800dad4                . = ALIGN (0x4)

.ARM            0x000000000800dad4        0x8
                0x000000000800dad4                . = ALIGN (0x4)
                0x000000000800dad4                __exidx_start = .
 *(.ARM.exidx*)
 .ARM.exidx     0x000000000800dad4        0x8 e:/all software/stm32cubeide_1.7.0/stm32cubeide/plugins/com.st.stm32cube.ide.mcu.externaltools.gnu-tools-for-stm32.10.3-2021.10.win32_1.0.0.202111181127/tools/bin/../lib/gcc/arm-none-eabi/10.3.1/thumb/v7e-m/nofp\libgcc.a(_udivmoddi4.o)
                0x000000000800dadc                __exidx_end = .
                0x000000000800dadc                . = ALIGN (0x4)

.rel.dyn        0x000000000800dadc        0x0
 .rel.iplt      0x000000000800dadc        0x0 e:/all software/stm32cubeide_1.7.0/stm32cubeide/plugins/com.st.stm32cube.ide.mcu.externaltools.gnu-tools-for-stm32.10.3-2021.10.win32_1.0.0.202111181127/tools/bin/../lib/gcc/arm-none-eabi/10.3.1/thumb/v7e-m/nofp/crtbegin.o

.preinit_array  0x000000000800dadc        0x0
                0x000000000800dadc                . = ALIGN (0x4)
                0x000000000800dadc                PROVIDE (__preinit_array_start = .)
 *(.preinit_array*)
                0x000000000800dadc                PROVIDE (__preinit_array_end = .)
                0x000000000800dadc                . = ALIGN (0x4)

.init_array     0x000000000800dadc        0x4
                0x000000000800dadc                . = ALIGN (0x4)
                0x000000000800dadc                PROVIDE (__init_array_start = .)
 *(SORT_BY_NAME(.init_array.*))
 *(.init_array*)
 .init_array    0x000000000800dadc        0x4 e:/all software/stm32cubeide_1.7.0/stm32cubeide/plugins/com.st.stm32cube.ide.mcu.externaltools.gnu-tools-for-stm32.10.3-2021.10.win32_1.0.0.202111181127/tools/bin/../lib/gcc/arm-none-eabi/10.3.1/thumb/v7e-m/nofp/crtbegin.o
                0x000000000800dae0                PROVIDE (__init_array_end = .)
                0x000000000800dae0                . = ALIGN (0x4)

.fini_array     0x000000000800dae0        0x4
                0x000000000800dae0                . = ALIGN (0x4)
                [!provide]                        PROVIDE (__fini_array_start = .)
 *(SORT_BY_NAME(.fini_array.*))
 *(.fini_array*)
 .fini_array    0x000000000800dae0        0x4 e:/all software/stm32cubeide_1.7.0/stm32cubeide/plugins/com.st.stm32cube.ide.mcu.externaltools.gnu-tools-for-stm32.10.3-2021.10.win32_1.0.0.202111181127/tools/bin/../lib/gcc/arm-none-eabi/10.3.1/thumb/v7e-m/nofp/crtbegin.o
                [!provide]                        PROVIDE (__fini_array_end = .)
                0x000000000800dae4                . = ALIGN (0x4)
                0x000000000800dae4                _sidata = LOADADDR (.data)

.data           0x0000000020000000       0x1c load address 0x000000000800dae4
                0x0000000020000000                . = ALIGN (0x4)
                0x0000000020000000                _sdata = .
 *(.data)
 *(.data*)
 .data.SystemCoreClock
                0x0000000020000000        0x4 ./Core/Src/system_stm32wlxx.o
                0x0000000020000000                SystemCoreClock
 .data.uwTickPrio
                0x0000000020000004        0x4 ./Drivers/STM32WLxx_HAL_Driver/Src/stm32wlxx_hal.o
                0x0000000020000004                uwTickPrio
 .data.uwTickFreq
                0x0000000020000008        0x1 ./Drivers/STM32WLxx_HAL_Driver/Src/stm32wlxx_hal.o
                0x0000000020000008                uwTickFreq
 .data.MaxPayloadLength
                0x0000000020000009        0x1 ./Middlewares/Third_Party/SubGHz_Phy/stm32_radio_driver/radio.o
 *fill*         0x000000002000000a        0x2 
 .data.lower_digits
                0x000000002000000c        0x4 ./Utilities/misc/stm32_tiny_vsnprintf.o
 .data.upper_digits
                0x0000000020000010        0x4 ./Utilities/misc/stm32_tiny_vsnprintf.o
 .data.TaskMask
                0x0000000020000014        0x4 ./Utilities/sequencer/stm32_seq.o
 .data.SuperMask
                0x0000000020000018        0x4 ./Utilities/sequencer/stm32_seq.o
 *(.RamFunc)
 *(.RamFunc*)
                0x000000002000001c                . = ALIGN (0x4)
                0x000000002000001c                _edata = .

.igot.plt       0x000000002000001c        0x0 load address 0x000000000800db00
 .igot.plt      0x000000002000001c        0x0 e:/all software/stm32cubeide_1.7.0/stm32cubeide/plugins/com.st.stm32cube.ide.mcu.externaltools.gnu-tools-for-stm32.10.3-2021.10.win32_1.0.0.202111181127/tools/bin/../lib/gcc/arm-none-eabi/10.3.1/thumb/v7e-m/nofp/crtbegin.o
                0x000000002000001c                . = ALIGN (0x4)

.bss            0x000000002000001c      0x8cc load address 0x000000000800db00
                0x000000002000001c                _sbss = .
                0x000000002000001c                __bss_start__ = _sbss
 *(.bss)
 .bss           0x000000002000001c       0x1c e:/all software/stm32cubeide_1.7.0/stm32cubeide/plugins/com.st.stm32cube.ide.mcu.externaltools.gnu-tools-for-stm32.10.3-2021.10.win32_1.0.0.202111181127/tools/bin/../lib/gcc/arm-none-eabi/10.3.1/thumb/v7e-m/nofp/crtbegin.o
 *(.bss*)
 .bss.hcryp     0x0000000020000038      0x10c ./Core/Src/main.o
                0x0000000020000038                hcryp
 .bss.hcrc      0x0000000020000144       0x24 ./Core/Src/main.o
                0x0000000020000144                hcrc
 .bss.hrtc      0x0000000020000168       0x38 ./Core/Src/main.o
                0x0000000020000168                hrtc
 .bss.hsubghz   0x00000000200001a0        0xc ./Core/Src/main.o
                0x00000000200001a0                hsubghz
 .bss.huart1    0x00000000200001ac       0x90 ./Core/Src/main.o
                0x00000000200001ac                huart1
 .bss.hdma_usart1_tx
                0x000000002000023c       0x60 ./Core/Src/main.o
                0x000000002000023c                hdma_usart1_tx
 .bss.SYS_TimerInitialisedFlag
                0x000000002000029c        0x1 ./Core/Src/sys_app.o
 .bss.RTC_Initialized
                0x000000002000029d        0x1 ./Core/Src/timer_if.o
 *fill*         0x000000002000029e        0x2 
 .bss.RtcTimerContext
                0x00000000200002a0        0x4 ./Core/Src/timer_if.o
 .bss.charRx    0x00000000200002a4        0x1 ./Core/Src/usart_if.o
                0x00000000200002a4                charRx
 *fill*         0x00000000200002a5        0x3 
 .bss.TxCpltCallback
                0x00000000200002a8        0x4 ./Core/Src/usart_if.o
 .bss.RxCpltCallback
                0x00000000200002ac        0x4 ./Core/Src/usart_if.o
 .bss.uwTick    0x00000000200002b0        0x4 ./Drivers/STM32WLxx_HAL_Driver/Src/stm32wlxx_hal.o
                0x00000000200002b0                uwTick
 .bss.RadioBuffer
                0x00000000200002b4       0xff ./Middlewares/Third_Party/SubGHz_Phy/stm32_radio_driver/radio.o
 *fill*         0x00000000200003b3        0x1 
 .bss.RadioEvents
                0x00000000200003b4        0x4 ./Middlewares/Third_Party/SubGHz_Phy/stm32_radio_driver/radio.o
 .bss.SubgRf    0x00000000200003b8       0x5c ./Middlewares/Third_Party/SubGHz_Phy/stm32_radio_driver/radio.o
                0x00000000200003b8                SubgRf
 .bss.TxTimeoutTimer
                0x0000000020000414       0x18 ./Middlewares/Third_Party/SubGHz_Phy/stm32_radio_driver/radio.o
                0x0000000020000414                TxTimeoutTimer
 .bss.RxTimeoutTimer
                0x000000002000042c       0x18 ./Middlewares/Third_Party/SubGHz_Phy/stm32_radio_driver/radio.o
                0x000000002000042c                RxTimeoutTimer
 .bss.OperatingMode
                0x0000000020000444        0x1 ./Middlewares/Third_Party/SubGHz_Phy/stm32_radio_driver/radio_driver.o
 .bss.PacketType
                0x0000000020000445        0x1 ./Middlewares/Third_Party/SubGHz_Phy/stm32_radio_driver/radio_driver.o
 .bss.LoRaHeaderType
                0x0000000020000446        0x1 ./Middlewares/Third_Party/SubGHz_Phy/stm32_radio_driver/radio_driver.o
 *fill*         0x0000000020000447        0x1 
 .bss.FrequencyError
                0x0000000020000448        0x4 ./Middlewares/Third_Party/SubGHz_Phy/stm32_radio_driver/radio_driver.o
                0x0000000020000448                FrequencyError
 .bss.ImageCalibrated
                0x000000002000044c        0x1 ./Middlewares/Third_Party/SubGHz_Phy/stm32_radio_driver/radio_driver.o
 *fill*         0x000000002000044d        0x3 
 .bss.RadioOnDioIrqCb
                0x0000000020000450        0x4 ./Middlewares/Third_Party/SubGHz_Phy/stm32_radio_driver/radio_driver.o
 .bss.uartPackage
                0x0000000020000454       0x32 ./SubGHz_Phy/App/subghz_phy_app.o
                0x0000000020000454                uartPackage
 .bss.uartPackageCout
                0x0000000020000486        0x1 ./SubGHz_Phy/App/subghz_phy_app.o
                0x0000000020000486                uartPackageCout
 *fill*         0x0000000020000487        0x1 
 .bss.crcPackage
                0x0000000020000488        0x4 ./SubGHz_Phy/App/subghz_phy_app.o
                0x0000000020000488                crcPackage
 .bss.enCrypt   0x000000002000048c       0xc8 ./SubGHz_Phy/App/subghz_phy_app.o
                0x000000002000048c                enCrypt
 .bss.denCrypt  0x0000000020000554       0xc8 ./SubGHz_Phy/App/subghz_phy_app.o
                0x0000000020000554                denCrypt
 .bss.radioPackage
                0x000000002000061c       0x32 ./SubGHz_Phy/App/subghz_phy_app.o
                0x000000002000061c                radioPackage
 .bss.Rx_TimeOut
                0x000000002000064e        0x1 ./SubGHz_Phy/App/subghz_phy_app.o
                0x000000002000064e                Rx_TimeOut
 .bss.Serial_TimeOut
                0x000000002000064f        0x1 ./SubGHz_Phy/App/subghz_phy_app.o
                0x000000002000064f                Serial_TimeOut
 .bss.loraPassword
                0x0000000020000650       0x20 ./SubGHz_Phy/App/subghz_phy_app.o
                0x0000000020000650                loraPassword
 .bss.RadioEvents
                0x0000000020000670       0x1c ./SubGHz_Phy/App/subghz_phy_app.o
 .bss.Eventtimeout
                0x000000002000068c       0x18 ./SubGHz_Phy/App/subghz_phy_app.o
 .bss.StopModeDisable
                0x00000000200006a4        0x4 ./Utilities/lpm/tiny_lpm/stm32_lpm.o
 .bss.OffModeDisable
                0x00000000200006a8        0x4 ./Utilities/lpm/tiny_lpm/stm32_lpm.o
 .bss.TaskSet   0x00000000200006ac        0x4 ./Utilities/sequencer/stm32_seq.o
 .bss.EvtSet    0x00000000200006b0        0x4 ./Utilities/sequencer/stm32_seq.o
 .bss.EvtWaited
                0x00000000200006b4        0x4 ./Utilities/sequencer/stm32_seq.o
 .bss.CurrentTaskIdx
                0x00000000200006b8        0x4 ./Utilities/sequencer/stm32_seq.o
 .bss.TaskCb    0x00000000200006bc        0x8 ./Utilities/sequencer/stm32_seq.o
 .bss.TaskPrio  0x00000000200006c4        0x8 ./Utilities/sequencer/stm32_seq.o
 .bss.TimerListHead
                0x00000000200006cc        0x4 ./Utilities/timer/stm32_timer.o
 .bss.ADV_TRACE_Ctx
                0x00000000200006d0       0x18 ./Utilities/trace/adv_trace/stm32_adv_trace.o
 .bss.ADV_TRACE_Buffer
                0x00000000200006e8      0x200 ./Utilities/trace/adv_trace/stm32_adv_trace.o
 *(COMMON)
                0x00000000200008e8                . = ALIGN (0x4)
                0x00000000200008e8                _ebss = .
                0x00000000200008e8                __bss_end__ = _ebss

._user_heap_stack
                0x00000000200008e8      0x600 load address 0x000000000800db00
                0x00000000200008e8                . = ALIGN (0x8)
                [!provide]                        PROVIDE (end = .)
                0x00000000200008e8                PROVIDE (_end = .)
                0x0000000020000ae8                . = (. + _Min_Heap_Size)
 *fill*         0x00000000200008e8      0x200 
                0x0000000020000ee8                . = (. + _Min_Stack_Size)
 *fill*         0x0000000020000ae8      0x400 
                0x0000000020000ee8                . = ALIGN (0x8)

/DISCARD/
 libc.a(*)
 libm.a(*)
 libgcc.a(*)

.ARM.attributes
                0x0000000000000000       0x2a
 *(.ARM.attributes)
 .ARM.attributes
                0x0000000000000000       0x1e e:/all software/stm32cubeide_1.7.0/stm32cubeide/plugins/com.st.stm32cube.ide.mcu.externaltools.gnu-tools-for-stm32.10.3-2021.10.win32_1.0.0.202111181127/tools/bin/../lib/gcc/arm-none-eabi/10.3.1/thumb/v7e-m/nofp/crti.o
 .ARM.attributes
                0x000000000000001e       0x2e e:/all software/stm32cubeide_1.7.0/stm32cubeide/plugins/com.st.stm32cube.ide.mcu.externaltools.gnu-tools-for-stm32.10.3-2021.10.win32_1.0.0.202111181127/tools/bin/../lib/gcc/arm-none-eabi/10.3.1/thumb/v7e-m/nofp/crtbegin.o
 .ARM.attributes
                0x000000000000004c       0x2e ./Core/Src/main.o
 .ARM.attributes
                0x000000000000007a       0x2e ./Core/Src/stm32_lpm_if.o
 .ARM.attributes
                0x00000000000000a8       0x2e ./Core/Src/stm32wlxx_hal_msp.o
 .ARM.attributes
                0x00000000000000d6       0x2e ./Core/Src/stm32wlxx_it.o
 .ARM.attributes
                0x0000000000000104       0x2e ./Core/Src/sys_app.o
 .ARM.attributes
                0x0000000000000132       0x2e ./Core/Src/sys_debug.o
 .ARM.attributes
                0x0000000000000160       0x2e ./Core/Src/system_stm32wlxx.o
 .ARM.attributes
                0x000000000000018e       0x2e ./Core/Src/timer_if.o
 .ARM.attributes
                0x00000000000001bc       0x2e ./Core/Src/usart_if.o
 .ARM.attributes
                0x00000000000001ea       0x21 ./Core/Startup/startup_stm32wle5jcix.o
 .ARM.attributes
                0x000000000000020b       0x2e ./Drivers/STM32WLxx_HAL_Driver/Src/stm32wlxx_hal.o
 .ARM.attributes
                0x0000000000000239       0x2e ./Drivers/STM32WLxx_HAL_Driver/Src/stm32wlxx_hal_cortex.o
 .ARM.attributes
                0x0000000000000267       0x2e ./Drivers/STM32WLxx_HAL_Driver/Src/stm32wlxx_hal_crc.o
 .ARM.attributes
                0x0000000000000295       0x2e ./Drivers/STM32WLxx_HAL_Driver/Src/stm32wlxx_hal_crc_ex.o
 .ARM.attributes
                0x00000000000002c3       0x2e ./Drivers/STM32WLxx_HAL_Driver/Src/stm32wlxx_hal_cryp.o
 .ARM.attributes
                0x00000000000002f1       0x2e ./Drivers/STM32WLxx_HAL_Driver/Src/stm32wlxx_hal_dma.o
 .ARM.attributes
                0x000000000000031f       0x2e ./Drivers/STM32WLxx_HAL_Driver/Src/stm32wlxx_hal_gpio.o
 .ARM.attributes
                0x000000000000034d       0x2e ./Drivers/STM32WLxx_HAL_Driver/Src/stm32wlxx_hal_pwr.o
 .ARM.attributes
                0x000000000000037b       0x2e ./Drivers/STM32WLxx_HAL_Driver/Src/stm32wlxx_hal_pwr_ex.o
 .ARM.attributes
                0x00000000000003a9       0x2e ./Drivers/STM32WLxx_HAL_Driver/Src/stm32wlxx_hal_rcc.o
 .ARM.attributes
                0x00000000000003d7       0x2e ./Drivers/STM32WLxx_HAL_Driver/Src/stm32wlxx_hal_rcc_ex.o
 .ARM.attributes
                0x0000000000000405       0x2e ./Drivers/STM32WLxx_HAL_Driver/Src/stm32wlxx_hal_rtc.o
 .ARM.attributes
                0x0000000000000433       0x2e ./Drivers/STM32WLxx_HAL_Driver/Src/stm32wlxx_hal_rtc_ex.o
 .ARM.attributes
                0x0000000000000461       0x2e ./Drivers/STM32WLxx_HAL_Driver/Src/stm32wlxx_hal_subghz.o
 .ARM.attributes
                0x000000000000048f       0x2e ./Drivers/STM32WLxx_HAL_Driver/Src/stm32wlxx_hal_uart.o
 .ARM.attributes
                0x00000000000004bd       0x2e ./Drivers/STM32WLxx_HAL_Driver/Src/stm32wlxx_hal_uart_ex.o
 .ARM.attributes
                0x00000000000004eb       0x2e ./Middlewares/Third_Party/SubGHz_Phy/stm32_radio_driver/radio.o
 .ARM.attributes
                0x0000000000000519       0x2e ./Middlewares/Third_Party/SubGHz_Phy/stm32_radio_driver/radio_driver.o
 .ARM.attributes
                0x0000000000000547       0x2e ./Middlewares/Third_Party/SubGHz_Phy/stm32_radio_driver/radio_fw.o
 .ARM.attributes
                0x0000000000000575       0x2e ./SubGHz_Phy/App/app_subghz_phy.o
 .ARM.attributes
                0x00000000000005a3       0x2e ./SubGHz_Phy/App/subghz_phy_app.o
 .ARM.attributes
                0x00000000000005d1       0x2e ./SubGHz_Phy/Target/radio_board_if.o
 .ARM.attributes
                0x00000000000005ff       0x2e ./Utilities/lpm/tiny_lpm/stm32_lpm.o
 .ARM.attributes
                0x000000000000062d       0x2e ./Utilities/misc/stm32_mem.o
 .ARM.attributes
                0x000000000000065b       0x2e ./Utilities/misc/stm32_systime.o
 .ARM.attributes
                0x0000000000000689       0x2e ./Utilities/misc/stm32_tiny_vsnprintf.o
 .ARM.attributes
                0x00000000000006b7       0x2e ./Utilities/sequencer/stm32_seq.o
 .ARM.attributes
                0x00000000000006e5       0x2e ./Utilities/timer/stm32_timer.o
 .ARM.attributes
                0x0000000000000713       0x2e ./Utilities/trace/adv_trace/stm32_adv_trace.o
 .ARM.attributes
                0x0000000000000741       0x2e e:/all software/stm32cubeide_1.7.0/stm32cubeide/plugins/com.st.stm32cube.ide.mcu.externaltools.gnu-tools-for-stm32.10.3-2021.10.win32_1.0.0.202111181127/tools/bin/../lib/gcc/arm-none-eabi/10.3.1/../../../../arm-none-eabi/lib/thumb/v7e-m/nofp\libc_nano.a(lib_a-init.o)
 .ARM.attributes
                0x000000000000076f       0x2e e:/all software/stm32cubeide_1.7.0/stm32cubeide/plugins/com.st.stm32cube.ide.mcu.externaltools.gnu-tools-for-stm32.10.3-2021.10.win32_1.0.0.202111181127/tools/bin/../lib/gcc/arm-none-eabi/10.3.1/../../../../arm-none-eabi/lib/thumb/v7e-m/nofp\libc_nano.a(lib_a-memset.o)
 .ARM.attributes
                0x000000000000079d       0x17 e:/all software/stm32cubeide_1.7.0/stm32cubeide/plugins/com.st.stm32cube.ide.mcu.externaltools.gnu-tools-for-stm32.10.3-2021.10.win32_1.0.0.202111181127/tools/bin/../lib/gcc/arm-none-eabi/10.3.1/../../../../arm-none-eabi/lib/thumb/v7e-m/nofp\libc_nano.a(lib_a-strlen.o)
 .ARM.attributes
                0x00000000000007b4       0x1e e:/all software/stm32cubeide_1.7.0/stm32cubeide/plugins/com.st.stm32cube.ide.mcu.externaltools.gnu-tools-for-stm32.10.3-2021.10.win32_1.0.0.202111181127/tools/bin/../lib/gcc/arm-none-eabi/10.3.1/thumb/v7e-m/nofp\libgcc.a(_aeabi_uldivmod.o)
 .ARM.attributes
                0x00000000000007d2       0x2e e:/all software/stm32cubeide_1.7.0/stm32cubeide/plugins/com.st.stm32cube.ide.mcu.externaltools.gnu-tools-for-stm32.10.3-2021.10.win32_1.0.0.202111181127/tools/bin/../lib/gcc/arm-none-eabi/10.3.1/thumb/v7e-m/nofp\libgcc.a(_udivmoddi4.o)
 .ARM.attributes
                0x0000000000000800       0x1e e:/all software/stm32cubeide_1.7.0/stm32cubeide/plugins/com.st.stm32cube.ide.mcu.externaltools.gnu-tools-for-stm32.10.3-2021.10.win32_1.0.0.202111181127/tools/bin/../lib/gcc/arm-none-eabi/10.3.1/thumb/v7e-m/nofp\libgcc.a(_dvmd_tls.o)
 .ARM.attributes
                0x000000000000081e       0x1e e:/all software/stm32cubeide_1.7.0/stm32cubeide/plugins/com.st.stm32cube.ide.mcu.externaltools.gnu-tools-for-stm32.10.3-2021.10.win32_1.0.0.202111181127/tools/bin/../lib/gcc/arm-none-eabi/10.3.1/thumb/v7e-m/nofp/crtn.o
OUTPUT(F-IOT-GateWay.elf elf32-littlearm)
LOAD linker stubs
LOAD e:/all software/stm32cubeide_1.7.0/stm32cubeide/plugins/com.st.stm32cube.ide.mcu.externaltools.gnu-tools-for-stm32.10.3-2021.10.win32_1.0.0.202111181127/tools/bin/../lib/gcc/arm-none-eabi/10.3.1/../../../../arm-none-eabi/lib/thumb/v7e-m/nofp\libc.a
LOAD e:/all software/stm32cubeide_1.7.0/stm32cubeide/plugins/com.st.stm32cube.ide.mcu.externaltools.gnu-tools-for-stm32.10.3-2021.10.win32_1.0.0.202111181127/tools/bin/../lib/gcc/arm-none-eabi/10.3.1/../../../../arm-none-eabi/lib/thumb/v7e-m/nofp\libm.a
LOAD e:/all software/stm32cubeide_1.7.0/stm32cubeide/plugins/com.st.stm32cube.ide.mcu.externaltools.gnu-tools-for-stm32.10.3-2021.10.win32_1.0.0.202111181127/tools/bin/../lib/gcc/arm-none-eabi/10.3.1/thumb/v7e-m/nofp\libgcc.a

.debug_info     0x0000000000000000    0x2491b
 .debug_info    0x0000000000000000     0x223f ./Core/Src/main.o
 .debug_info    0x000000000000223f      0x383 ./Core/Src/stm32_lpm_if.o
 .debug_info    0x00000000000025c2     0x1fa5 ./Core/Src/stm32wlxx_hal_msp.o
 .debug_info    0x0000000000004567      0xd0d ./Core/Src/stm32wlxx_it.o
 .debug_info    0x0000000000005274      0x730 ./Core/Src/sys_app.o
 .debug_info    0x00000000000059a4      0x26e ./Core/Src/sys_debug.o
 .debug_info    0x0000000000005c12      0x452 ./Core/Src/system_stm32wlxx.o
 .debug_info    0x0000000000006064      0xc53 ./Core/Src/timer_if.o
 .debug_info    0x0000000000006cb7     0x11d6 ./Core/Src/usart_if.o
 .debug_info    0x0000000000007e8d       0x22 ./Core/Startup/startup_stm32wle5jcix.o
 .debug_info    0x0000000000007eaf      0xf14 ./Drivers/STM32WLxx_HAL_Driver/Src/stm32wlxx_hal.o
 .debug_info    0x0000000000008dc3      0xdb1 ./Drivers/STM32WLxx_HAL_Driver/Src/stm32wlxx_hal_cortex.o
 .debug_info    0x0000000000009b74      0x57f ./Drivers/STM32WLxx_HAL_Driver/Src/stm32wlxx_hal_crc.o
 .debug_info    0x000000000000a0f3      0x37a ./Drivers/STM32WLxx_HAL_Driver/Src/stm32wlxx_hal_crc_ex.o
 .debug_info    0x000000000000a46d     0x1cde ./Drivers/STM32WLxx_HAL_Driver/Src/stm32wlxx_hal_cryp.o
 .debug_info    0x000000000000c14b      0x8f1 ./Drivers/STM32WLxx_HAL_Driver/Src/stm32wlxx_hal_dma.o
 .debug_info    0x000000000000ca3c      0x6d8 ./Drivers/STM32WLxx_HAL_Driver/Src/stm32wlxx_hal_gpio.o
 .debug_info    0x000000000000d114      0x881 ./Drivers/STM32WLxx_HAL_Driver/Src/stm32wlxx_hal_pwr.o
 .debug_info    0x000000000000d995      0xd26 ./Drivers/STM32WLxx_HAL_Driver/Src/stm32wlxx_hal_pwr_ex.o
 .debug_info    0x000000000000e6bb     0x127d ./Drivers/STM32WLxx_HAL_Driver/Src/stm32wlxx_hal_rcc.o
 .debug_info    0x000000000000f938     0x1072 ./Drivers/STM32WLxx_HAL_Driver/Src/stm32wlxx_hal_rcc_ex.o
 .debug_info    0x00000000000109aa      0xfc6 ./Drivers/STM32WLxx_HAL_Driver/Src/stm32wlxx_hal_rtc.o
 .debug_info    0x0000000000011970     0x15a9 ./Drivers/STM32WLxx_HAL_Driver/Src/stm32wlxx_hal_rtc_ex.o
 .debug_info    0x0000000000012f19     0x12ae ./Drivers/STM32WLxx_HAL_Driver/Src/stm32wlxx_hal_subghz.o
 .debug_info    0x00000000000141c7     0x49c7 ./Drivers/STM32WLxx_HAL_Driver/Src/stm32wlxx_hal_uart.o
 .debug_info    0x0000000000018b8e     0x1058 ./Drivers/STM32WLxx_HAL_Driver/Src/stm32wlxx_hal_uart_ex.o
 .debug_info    0x0000000000019be6     0x2a56 ./Middlewares/Third_Party/SubGHz_Phy/stm32_radio_driver/radio.o
 .debug_info    0x000000000001c63c     0x241c ./Middlewares/Third_Party/SubGHz_Phy/stm32_radio_driver/radio_driver.o
 .debug_info    0x000000000001ea58      0xcc8 ./Middlewares/Third_Party/SubGHz_Phy/stm32_radio_driver/radio_fw.o
 .debug_info    0x000000000001f720       0xe8 ./SubGHz_Phy/App/app_subghz_phy.o
 .debug_info    0x000000000001f808     0x1f50 ./SubGHz_Phy/App/subghz_phy_app.o
 .debug_info    0x0000000000021758      0x26d ./SubGHz_Phy/Target/radio_board_if.o
 .debug_info    0x00000000000219c5      0x3f6 ./Utilities/lpm/tiny_lpm/stm32_lpm.o
 .debug_info    0x0000000000021dbb      0x1d0 ./Utilities/misc/stm32_mem.o
 .debug_info    0x0000000000021f8b      0x6e5 ./Utilities/misc/stm32_systime.o
 .debug_info    0x0000000000022670      0x31e ./Utilities/misc/stm32_tiny_vsnprintf.o
 .debug_info    0x000000000002298e      0xa2e ./Utilities/sequencer/stm32_seq.o
 .debug_info    0x00000000000233bc      0x8e5 ./Utilities/timer/stm32_timer.o
 .debug_info    0x0000000000023ca1      0xc7a ./Utilities/trace/adv_trace/stm32_adv_trace.o

.debug_abbrev   0x0000000000000000     0x57b8
 .debug_abbrev  0x0000000000000000      0x347 ./Core/Src/main.o
 .debug_abbrev  0x0000000000000347      0x18f ./Core/Src/stm32_lpm_if.o
 .debug_abbrev  0x00000000000004d6      0x288 ./Core/Src/stm32wlxx_hal_msp.o
 .debug_abbrev  0x000000000000075e      0x1a3 ./Core/Src/stm32wlxx_it.o
 .debug_abbrev  0x0000000000000901      0x264 ./Core/Src/sys_app.o
 .debug_abbrev  0x0000000000000b65      0x103 ./Core/Src/sys_debug.o
 .debug_abbrev  0x0000000000000c68      0x138 ./Core/Src/system_stm32wlxx.o
 .debug_abbrev  0x0000000000000da0      0x2dd ./Core/Src/timer_if.o
 .debug_abbrev  0x000000000000107d      0x2c0 ./Core/Src/usart_if.o
 .debug_abbrev  0x000000000000133d       0x12 ./Core/Startup/startup_stm32wle5jcix.o
 .debug_abbrev  0x000000000000134f      0x30b ./Drivers/STM32WLxx_HAL_Driver/Src/stm32wlxx_hal.o
 .debug_abbrev  0x000000000000165a      0x2d5 ./Drivers/STM32WLxx_HAL_Driver/Src/stm32wlxx_hal_cortex.o
 .debug_abbrev  0x000000000000192f      0x1d3 ./Drivers/STM32WLxx_HAL_Driver/Src/stm32wlxx_hal_crc.o
 .debug_abbrev  0x0000000000001b02      0x130 ./Drivers/STM32WLxx_HAL_Driver/Src/stm32wlxx_hal_crc_ex.o
 .debug_abbrev  0x0000000000001c32      0x29c ./Drivers/STM32WLxx_HAL_Driver/Src/stm32wlxx_hal_cryp.o
 .debug_abbrev  0x0000000000001ece      0x20e ./Drivers/STM32WLxx_HAL_Driver/Src/stm32wlxx_hal_dma.o
 .debug_abbrev  0x00000000000020dc      0x1d9 ./Drivers/STM32WLxx_HAL_Driver/Src/stm32wlxx_hal_gpio.o
 .debug_abbrev  0x00000000000022b5      0x203 ./Drivers/STM32WLxx_HAL_Driver/Src/stm32wlxx_hal_pwr.o
 .debug_abbrev  0x00000000000024b8      0x2cd ./Drivers/STM32WLxx_HAL_Driver/Src/stm32wlxx_hal_pwr_ex.o
 .debug_abbrev  0x0000000000002785      0x308 ./Drivers/STM32WLxx_HAL_Driver/Src/stm32wlxx_hal_rcc.o
 .debug_abbrev  0x0000000000002a8d      0x2d7 ./Drivers/STM32WLxx_HAL_Driver/Src/stm32wlxx_hal_rcc_ex.o
 .debug_abbrev  0x0000000000002d64      0x217 ./Drivers/STM32WLxx_HAL_Driver/Src/stm32wlxx_hal_rtc.o
 .debug_abbrev  0x0000000000002f7b      0x237 ./Drivers/STM32WLxx_HAL_Driver/Src/stm32wlxx_hal_rtc_ex.o
 .debug_abbrev  0x00000000000031b2      0x28b ./Drivers/STM32WLxx_HAL_Driver/Src/stm32wlxx_hal_subghz.o
 .debug_abbrev  0x000000000000343d      0x33d ./Drivers/STM32WLxx_HAL_Driver/Src/stm32wlxx_hal_uart.o
 .debug_abbrev  0x000000000000377a      0x2bd ./Drivers/STM32WLxx_HAL_Driver/Src/stm32wlxx_hal_uart_ex.o
 .debug_abbrev  0x0000000000003a37      0x398 ./Middlewares/Third_Party/SubGHz_Phy/stm32_radio_driver/radio.o
 .debug_abbrev  0x0000000000003dcf      0x3d8 ./Middlewares/Third_Party/SubGHz_Phy/stm32_radio_driver/radio_driver.o
 .debug_abbrev  0x00000000000041a7      0x206 ./Middlewares/Third_Party/SubGHz_Phy/stm32_radio_driver/radio_fw.o
 .debug_abbrev  0x00000000000043ad       0x85 ./SubGHz_Phy/App/app_subghz_phy.o
 .debug_abbrev  0x0000000000004432      0x32b ./SubGHz_Phy/App/subghz_phy_app.o
 .debug_abbrev  0x000000000000475d       0xde ./SubGHz_Phy/Target/radio_board_if.o
 .debug_abbrev  0x000000000000483b      0x1d4 ./Utilities/lpm/tiny_lpm/stm32_lpm.o
 .debug_abbrev  0x0000000000004a0f       0xba ./Utilities/misc/stm32_mem.o
 .debug_abbrev  0x0000000000004ac9      0x27f ./Utilities/misc/stm32_systime.o
 .debug_abbrev  0x0000000000004d48      0x161 ./Utilities/misc/stm32_tiny_vsnprintf.o
 .debug_abbrev  0x0000000000004ea9      0x28b ./Utilities/sequencer/stm32_seq.o
 .debug_abbrev  0x0000000000005134      0x2c7 ./Utilities/timer/stm32_timer.o
 .debug_abbrev  0x00000000000053fb      0x3bd ./Utilities/trace/adv_trace/stm32_adv_trace.o

.debug_aranges  0x0000000000000000     0x20b8
 .debug_aranges
                0x0000000000000000       0x88 ./Core/Src/main.o
 .debug_aranges
                0x0000000000000088       0x50 ./Core/Src/stm32_lpm_if.o
 .debug_aranges
                0x00000000000000d8       0xe8 ./Core/Src/stm32wlxx_hal_msp.o
 .debug_aranges
                0x00000000000001c0       0x88 ./Core/Src/stm32wlxx_it.o
 .debug_aranges
                0x0000000000000248       0x60 ./Core/Src/sys_app.o
 .debug_aranges
                0x00000000000002a8       0x28 ./Core/Src/sys_debug.o
 .debug_aranges
                0x00000000000002d0       0x28 ./Core/Src/system_stm32wlxx.o
 .debug_aranges
                0x00000000000002f8       0xc8 ./Core/Src/timer_if.o
 .debug_aranges
                0x00000000000003c0       0x70 ./Core/Src/usart_if.o
 .debug_aranges
                0x0000000000000430       0x28 ./Core/Startup/startup_stm32wle5jcix.o
 .debug_aranges
                0x0000000000000458      0x210 ./Drivers/STM32WLxx_HAL_Driver/Src/stm32wlxx_hal.o
 .debug_aranges
                0x0000000000000668      0x118 ./Drivers/STM32WLxx_HAL_Driver/Src/stm32wlxx_hal_cortex.o
 .debug_aranges
                0x0000000000000780       0x60 ./Drivers/STM32WLxx_HAL_Driver/Src/stm32wlxx_hal_crc.o
 .debug_aranges
                0x00000000000007e0       0x30 ./Drivers/STM32WLxx_HAL_Driver/Src/stm32wlxx_hal_crc_ex.o
 .debug_aranges
                0x0000000000000810      0x1c8 ./Drivers/STM32WLxx_HAL_Driver/Src/stm32wlxx_hal_cryp.o
 .debug_aranges
                0x00000000000009d8       0x90 ./Drivers/STM32WLxx_HAL_Driver/Src/stm32wlxx_hal_dma.o
 .debug_aranges
                0x0000000000000a68       0x60 ./Drivers/STM32WLxx_HAL_Driver/Src/stm32wlxx_hal_gpio.o
 .debug_aranges
                0x0000000000000ac8       0xc8 ./Drivers/STM32WLxx_HAL_Driver/Src/stm32wlxx_hal_pwr.o
 .debug_aranges
                0x0000000000000b90      0x1d0 ./Drivers/STM32WLxx_HAL_Driver/Src/stm32wlxx_hal_pwr_ex.o
 .debug_aranges
                0x0000000000000d60      0x230 ./Drivers/STM32WLxx_HAL_Driver/Src/stm32wlxx_hal_rcc.o
 .debug_aranges
                0x0000000000000f90      0x1f8 ./Drivers/STM32WLxx_HAL_Driver/Src/stm32wlxx_hal_rcc_ex.o
 .debug_aranges
                0x0000000000001188       0xe8 ./Drivers/STM32WLxx_HAL_Driver/Src/stm32wlxx_hal_rtc.o
 .debug_aranges
                0x0000000000001270      0x1b0 ./Drivers/STM32WLxx_HAL_Driver/Src/stm32wlxx_hal_rtc_ex.o
 .debug_aranges
                0x0000000000001420      0x160 ./Drivers/STM32WLxx_HAL_Driver/Src/stm32wlxx_hal_subghz.o
 .debug_aranges
                0x0000000000001580      0x258 ./Drivers/STM32WLxx_HAL_Driver/Src/stm32wlxx_hal_uart.o
 .debug_aranges
                0x00000000000017d8       0xa0 ./Drivers/STM32WLxx_HAL_Driver/Src/stm32wlxx_hal_uart_ex.o
 .debug_aranges
                0x0000000000001878      0x158 ./Middlewares/Third_Party/SubGHz_Phy/stm32_radio_driver/radio.o
 .debug_aranges
                0x00000000000019d0      0x238 ./Middlewares/Third_Party/SubGHz_Phy/stm32_radio_driver/radio_driver.o
 .debug_aranges
                0x0000000000001c08       0x78 ./Middlewares/Third_Party/SubGHz_Phy/stm32_radio_driver/radio_fw.o
 .debug_aranges
                0x0000000000001c80       0x28 ./SubGHz_Phy/App/app_subghz_phy.o
 .debug_aranges
                0x0000000000001ca8       0x60 ./SubGHz_Phy/App/subghz_phy_app.o
 .debug_aranges
                0x0000000000001d08       0x50 ./SubGHz_Phy/Target/radio_board_if.o
 .debug_aranges
                0x0000000000001d58       0x48 ./Utilities/lpm/tiny_lpm/stm32_lpm.o
 .debug_aranges
                0x0000000000001da0       0x30 ./Utilities/misc/stm32_mem.o
 .debug_aranges
                0x0000000000001dd0       0x80 ./Utilities/misc/stm32_systime.o
 .debug_aranges
                0x0000000000001e50       0x30 ./Utilities/misc/stm32_tiny_vsnprintf.o
 .debug_aranges
                0x0000000000001e80       0xa8 ./Utilities/sequencer/stm32_seq.o
 .debug_aranges
                0x0000000000001f28       0xa8 ./Utilities/timer/stm32_timer.o
 .debug_aranges
                0x0000000000001fd0       0xe8 ./Utilities/trace/adv_trace/stm32_adv_trace.o

.debug_ranges   0x0000000000000000     0x1e98
 .debug_ranges  0x0000000000000000       0x78 ./Core/Src/main.o
 .debug_ranges  0x0000000000000078       0x40 ./Core/Src/stm32_lpm_if.o
 .debug_ranges  0x00000000000000b8       0xd8 ./Core/Src/stm32wlxx_hal_msp.o
 .debug_ranges  0x0000000000000190       0x78 ./Core/Src/stm32wlxx_it.o
 .debug_ranges  0x0000000000000208       0x50 ./Core/Src/sys_app.o
 .debug_ranges  0x0000000000000258       0x18 ./Core/Src/sys_debug.o
 .debug_ranges  0x0000000000000270       0x18 ./Core/Src/system_stm32wlxx.o
 .debug_ranges  0x0000000000000288       0xb8 ./Core/Src/timer_if.o
 .debug_ranges  0x0000000000000340       0x60 ./Core/Src/usart_if.o
 .debug_ranges  0x00000000000003a0       0x20 ./Core/Startup/startup_stm32wle5jcix.o
 .debug_ranges  0x00000000000003c0      0x200 ./Drivers/STM32WLxx_HAL_Driver/Src/stm32wlxx_hal.o
 .debug_ranges  0x00000000000005c0      0x108 ./Drivers/STM32WLxx_HAL_Driver/Src/stm32wlxx_hal_cortex.o
 .debug_ranges  0x00000000000006c8       0x50 ./Drivers/STM32WLxx_HAL_Driver/Src/stm32wlxx_hal_crc.o
 .debug_ranges  0x0000000000000718       0x20 ./Drivers/STM32WLxx_HAL_Driver/Src/stm32wlxx_hal_crc_ex.o
 .debug_ranges  0x0000000000000738      0x1b8 ./Drivers/STM32WLxx_HAL_Driver/Src/stm32wlxx_hal_cryp.o
 .debug_ranges  0x00000000000008f0       0x80 ./Drivers/STM32WLxx_HAL_Driver/Src/stm32wlxx_hal_dma.o
 .debug_ranges  0x0000000000000970       0x50 ./Drivers/STM32WLxx_HAL_Driver/Src/stm32wlxx_hal_gpio.o
 .debug_ranges  0x00000000000009c0       0xb8 ./Drivers/STM32WLxx_HAL_Driver/Src/stm32wlxx_hal_pwr.o
 .debug_ranges  0x0000000000000a78      0x1c0 ./Drivers/STM32WLxx_HAL_Driver/Src/stm32wlxx_hal_pwr_ex.o
 .debug_ranges  0x0000000000000c38      0x220 ./Drivers/STM32WLxx_HAL_Driver/Src/stm32wlxx_hal_rcc.o
 .debug_ranges  0x0000000000000e58      0x1e8 ./Drivers/STM32WLxx_HAL_Driver/Src/stm32wlxx_hal_rcc_ex.o
 .debug_ranges  0x0000000000001040       0xd8 ./Drivers/STM32WLxx_HAL_Driver/Src/stm32wlxx_hal_rtc.o
 .debug_ranges  0x0000000000001118      0x1a0 ./Drivers/STM32WLxx_HAL_Driver/Src/stm32wlxx_hal_rtc_ex.o
 .debug_ranges  0x00000000000012b8      0x150 ./Drivers/STM32WLxx_HAL_Driver/Src/stm32wlxx_hal_subghz.o
 .debug_ranges  0x0000000000001408      0x278 ./Drivers/STM32WLxx_HAL_Driver/Src/stm32wlxx_hal_uart.o
 .debug_ranges  0x0000000000001680       0x90 ./Drivers/STM32WLxx_HAL_Driver/Src/stm32wlxx_hal_uart_ex.o
 .debug_ranges  0x0000000000001710      0x160 ./Middlewares/Third_Party/SubGHz_Phy/stm32_radio_driver/radio.o
 .debug_ranges  0x0000000000001870      0x228 ./Middlewares/Third_Party/SubGHz_Phy/stm32_radio_driver/radio_driver.o
 .debug_ranges  0x0000000000001a98       0x68 ./Middlewares/Third_Party/SubGHz_Phy/stm32_radio_driver/radio_fw.o
 .debug_ranges  0x0000000000001b00       0x18 ./SubGHz_Phy/App/app_subghz_phy.o
 .debug_ranges  0x0000000000001b18       0x50 ./SubGHz_Phy/App/subghz_phy_app.o
 .debug_ranges  0x0000000000001b68       0x40 ./SubGHz_Phy/Target/radio_board_if.o
 .debug_ranges  0x0000000000001ba8       0x38 ./Utilities/lpm/tiny_lpm/stm32_lpm.o
 .debug_ranges  0x0000000000001be0       0x20 ./Utilities/misc/stm32_mem.o
 .debug_ranges  0x0000000000001c00       0x70 ./Utilities/misc/stm32_systime.o
 .debug_ranges  0x0000000000001c70       0x20 ./Utilities/misc/stm32_tiny_vsnprintf.o
 .debug_ranges  0x0000000000001c90       0x98 ./Utilities/sequencer/stm32_seq.o
 .debug_ranges  0x0000000000001d28       0x98 ./Utilities/timer/stm32_timer.o
 .debug_ranges  0x0000000000001dc0       0xd8 ./Utilities/trace/adv_trace/stm32_adv_trace.o

.debug_macro    0x0000000000000000    0x20595
 .debug_macro   0x0000000000000000      0x297 ./Core/Src/main.o
 .debug_macro   0x0000000000000297      0xa72 ./Core/Src/main.o
 .debug_macro   0x0000000000000d09      0x13c ./Core/Src/main.o
 .debug_macro   0x0000000000000e45       0x2e ./Core/Src/main.o
 .debug_macro   0x0000000000000e73       0x34 ./Core/Src/main.o
 .debug_macro   0x0000000000000ea7       0x22 ./Core/Src/main.o
 .debug_macro   0x0000000000000ec9       0x8e ./Core/Src/main.o
 .debug_macro   0x0000000000000f57       0x51 ./Core/Src/main.o
 .debug_macro   0x0000000000000fa8      0x103 ./Core/Src/main.o
 .debug_macro   0x00000000000010ab       0x6a ./Core/Src/main.o
 .debug_macro   0x0000000000001115      0x1df ./Core/Src/main.o
 .debug_macro   0x00000000000012f4       0x1c ./Core/Src/main.o
 .debug_macro   0x0000000000001310       0x22 ./Core/Src/main.o
 .debug_macro   0x0000000000001332       0xfb ./Core/Src/main.o
 .debug_macro   0x000000000000142d     0x1011 ./Core/Src/main.o
 .debug_macro   0x000000000000243e      0x11f ./Core/Src/main.o
 .debug_macro   0x000000000000255d     0xcc1c ./Core/Src/main.o
 .debug_macro   0x000000000000f179       0x6d ./Core/Src/main.o
 .debug_macro   0x000000000000f1e6     0x341d ./Core/Src/main.o
 .debug_macro   0x0000000000012603      0x174 ./Core/Src/main.o
 .debug_macro   0x0000000000012777       0x5c ./Core/Src/main.o
 .debug_macro   0x00000000000127d3      0x416 ./Core/Src/main.o
 .debug_macro   0x0000000000012be9      0x280 ./Core/Src/main.o
 .debug_macro   0x0000000000012e69      0x330 ./Core/Src/main.o
 .debug_macro   0x0000000000013199      0x196 ./Core/Src/main.o
 .debug_macro   0x000000000001332f       0x43 ./Core/Src/main.o
 .debug_macro   0x0000000000013372      0x23d ./Core/Src/main.o
 .debug_macro   0x00000000000135af       0xc7 ./Core/Src/main.o
 .debug_macro   0x0000000000013676       0x4c ./Core/Src/main.o
 .debug_macro   0x00000000000136c2      0x14c ./Core/Src/main.o
 .debug_macro   0x000000000001380e       0x27 ./Core/Src/main.o
 .debug_macro   0x0000000000013835      0x22a ./Core/Src/main.o
 .debug_macro   0x0000000000013a5f      0x352 ./Core/Src/main.o
 .debug_macro   0x0000000000013db1       0x2e ./Core/Src/main.o
 .debug_macro   0x0000000000013ddf       0xc1 ./Core/Src/main.o
 .debug_macro   0x0000000000013ea0      0x1ba ./Core/Src/main.o
 .debug_macro   0x000000000001405a       0xe6 ./Core/Src/main.o
 .debug_macro   0x0000000000014140      0x22c ./Core/Src/main.o
 .debug_macro   0x000000000001436c       0x55 ./Core/Src/main.o
 .debug_macro   0x00000000000143c1       0xa5 ./Core/Src/main.o
 .debug_macro   0x0000000000014466      0x25f ./Core/Src/main.o
 .debug_macro   0x00000000000146c5      0x133 ./Core/Src/main.o
 .debug_macro   0x00000000000147f8      0x33e ./Core/Src/main.o
 .debug_macro   0x0000000000014b36      0x67c ./Core/Src/main.o
 .debug_macro   0x00000000000151b2      0x113 ./Core/Src/main.o
 .debug_macro   0x00000000000152c5      0xf9f ./Core/Src/main.o
 .debug_macro   0x0000000000016264      0x115 ./Core/Src/main.o
 .debug_macro   0x0000000000016379      0x2db ./Core/Src/main.o
 .debug_macro   0x0000000000016654      0x328 ./Core/Src/main.o
 .debug_macro   0x000000000001697c      0x679 ./Core/Src/main.o
 .debug_macro   0x0000000000016ff5       0xeb ./Core/Src/main.o
 .debug_macro   0x00000000000170e0      0x288 ./Core/Src/main.o
 .debug_macro   0x0000000000017368       0xc8 ./Core/Src/main.o
 .debug_macro   0x0000000000017430      0x67e ./Core/Src/main.o
 .debug_macro   0x0000000000017aae       0xa6 ./Core/Src/main.o
 .debug_macro   0x0000000000017b54      0x269 ./Core/Src/main.o
 .debug_macro   0x0000000000017dbd      0x27c ./Core/Src/main.o
 .debug_macro   0x0000000000018039       0x16 ./Core/Src/main.o
 .debug_macro   0x000000000001804f      0x3dc ./Core/Src/stm32_lpm_if.o
 .debug_macro   0x000000000001842b       0x22 ./Core/Src/stm32_lpm_if.o
 .debug_macro   0x000000000001844d       0x1c ./Core/Src/stm32_lpm_if.o
 .debug_macro   0x0000000000018469      0x14a ./Core/Src/stm32_lpm_if.o
 .debug_macro   0x00000000000185b3       0x10 ./Core/Src/stm32_lpm_if.o
 .debug_macro   0x00000000000185c3       0x58 ./Core/Src/stm32_lpm_if.o
 .debug_macro   0x000000000001861b       0x52 ./Core/Src/stm32_lpm_if.o
 .debug_macro   0x000000000001866d       0x18 ./Core/Src/stm32_lpm_if.o
 .debug_macro   0x0000000000018685       0x3c ./Core/Src/stm32_lpm_if.o
 .debug_macro   0x00000000000186c1       0x34 ./Core/Src/stm32_lpm_if.o
 .debug_macro   0x00000000000186f5       0x16 ./Core/Src/stm32_lpm_if.o
 .debug_macro   0x000000000001870b       0x43 ./Core/Src/stm32_lpm_if.o
 .debug_macro   0x000000000001874e       0x34 ./Core/Src/stm32_lpm_if.o
 .debug_macro   0x0000000000018782       0x10 ./Core/Src/stm32_lpm_if.o
 .debug_macro   0x0000000000018792       0x58 ./Core/Src/stm32_lpm_if.o
 .debug_macro   0x00000000000187ea       0x71 ./Core/Src/stm32_lpm_if.o
 .debug_macro   0x000000000001885b       0x1c ./Core/Src/stm32_lpm_if.o
 .debug_macro   0x0000000000018877      0x12a ./Core/Src/stm32_lpm_if.o
 .debug_macro   0x00000000000189a1      0x341 ./Core/Src/stm32_lpm_if.o
 .debug_macro   0x0000000000018ce2       0x10 ./Core/Src/stm32_lpm_if.o
 .debug_macro   0x0000000000018cf2       0x35 ./Core/Src/stm32_lpm_if.o
 .debug_macro   0x0000000000018d27       0x20 ./Core/Src/stm32_lpm_if.o
 .debug_macro   0x0000000000018d47       0xcc ./Core/Src/stm32_lpm_if.o
 .debug_macro   0x0000000000018e13      0x28d ./Core/Src/stm32wlxx_hal_msp.o
 .debug_macro   0x00000000000190a0      0x297 ./Core/Src/stm32wlxx_it.o
 .debug_macro   0x0000000000019337      0x508 ./Core/Src/sys_app.o
 .debug_macro   0x000000000001983f       0x4c ./Core/Src/sys_app.o
 .debug_macro   0x000000000001988b       0x94 ./Core/Src/sys_app.o
 .debug_macro   0x000000000001991f       0x16 ./Core/Src/sys_app.o
 .debug_macro   0x0000000000019935       0x57 ./Core/Src/sys_app.o
 .debug_macro   0x000000000001998c       0x97 ./Core/Src/sys_app.o
 .debug_macro   0x0000000000019a23       0xfd ./Core/Src/sys_app.o
 .debug_macro   0x0000000000019b20       0x10 ./Core/Src/sys_app.o
 .debug_macro   0x0000000000019b30       0x10 ./Core/Src/sys_app.o
 .debug_macro   0x0000000000019b40       0x1c ./Core/Src/sys_app.o
 .debug_macro   0x0000000000019b5c       0x52 ./Core/Src/sys_app.o
 .debug_macro   0x0000000000019bae       0x22 ./Core/Src/sys_app.o
 .debug_macro   0x0000000000019bd0       0x10 ./Core/Src/sys_app.o
 .debug_macro   0x0000000000019be0       0x52 ./Core/Src/sys_app.o
 .debug_macro   0x0000000000019c32       0xd5 ./Core/Src/sys_app.o
 .debug_macro   0x0000000000019d07       0x1c ./Core/Src/sys_app.o
 .debug_macro   0x0000000000019d23       0x3d ./Core/Src/sys_app.o
 .debug_macro   0x0000000000019d60       0x16 ./Core/Src/sys_app.o
 .debug_macro   0x0000000000019d76      0x145 ./Core/Src/sys_app.o
 .debug_macro   0x0000000000019ebb       0x56 ./Core/Src/sys_app.o
 .debug_macro   0x0000000000019f11       0x4c ./Core/Src/sys_app.o
 .debug_macro   0x0000000000019f5d       0x4c ./Core/Src/sys_app.o
 .debug_macro   0x0000000000019fa9       0x16 ./Core/Src/sys_app.o
 .debug_macro   0x0000000000019fbf       0x1c ./Core/Src/sys_app.o
 .debug_macro   0x0000000000019fdb       0x22 ./Core/Src/sys_app.o
 .debug_macro   0x0000000000019ffd       0x16 ./Core/Src/sys_app.o
 .debug_macro   0x000000000001a013       0x10 ./Core/Src/sys_app.o
 .debug_macro   0x000000000001a023       0x41 ./Core/Src/sys_app.o
 .debug_macro   0x000000000001a064       0xa6 ./Core/Src/sys_app.o
 .debug_macro   0x000000000001a10a       0x16 ./Core/Src/sys_app.o
 .debug_macro   0x000000000001a120      0x2bf ./Core/Src/sys_debug.o
 .debug_macro   0x000000000001a3df      0x27e ./Core/Src/system_stm32wlxx.o
 .debug_macro   0x000000000001a65d      0x4c2 ./Core/Src/timer_if.o
 .debug_macro   0x000000000001ab1f      0x19b ./Core/Src/timer_if.o
 .debug_macro   0x000000000001acba      0x4d0 ./Core/Src/timer_if.o
 .debug_macro   0x000000000001b18a      0x3b2 ./Core/Src/usart_if.o
 .debug_macro   0x000000000001b53c      0x2a2 ./Drivers/STM32WLxx_HAL_Driver/Src/stm32wlxx_hal.o
 .debug_macro   0x000000000001b7de      0x27e ./Drivers/STM32WLxx_HAL_Driver/Src/stm32wlxx_hal_cortex.o
 .debug_macro   0x000000000001ba5c      0x27e ./Drivers/STM32WLxx_HAL_Driver/Src/stm32wlxx_hal_crc.o
 .debug_macro   0x000000000001bcda      0x27e ./Drivers/STM32WLxx_HAL_Driver/Src/stm32wlxx_hal_crc_ex.o
 .debug_macro   0x000000000001bf58      0x30b ./Drivers/STM32WLxx_HAL_Driver/Src/stm32wlxx_hal_cryp.o
 .debug_macro   0x000000000001c263      0x27e ./Drivers/STM32WLxx_HAL_Driver/Src/stm32wlxx_hal_dma.o
 .debug_macro   0x000000000001c4e1      0x284 ./Drivers/STM32WLxx_HAL_Driver/Src/stm32wlxx_hal_gpio.o
 .debug_macro   0x000000000001c765      0x2cc ./Drivers/STM32WLxx_HAL_Driver/Src/stm32wlxx_hal_pwr.o
 .debug_macro   0x000000000001ca31      0x290 ./Drivers/STM32WLxx_HAL_Driver/Src/stm32wlxx_hal_pwr_ex.o
 .debug_macro   0x000000000001ccc1      0x2de ./Drivers/STM32WLxx_HAL_Driver/Src/stm32wlxx_hal_rcc.o
 .debug_macro   0x000000000001cf9f      0x290 ./Drivers/STM32WLxx_HAL_Driver/Src/stm32wlxx_hal_rcc_ex.o
 .debug_macro   0x000000000001d22f      0x27f ./Drivers/STM32WLxx_HAL_Driver/Src/stm32wlxx_hal_rtc.o
 .debug_macro   0x000000000001d4ae      0x285 ./Drivers/STM32WLxx_HAL_Driver/Src/stm32wlxx_hal_rtc_ex.o
 .debug_macro   0x000000000001d733      0x2b0 ./Drivers/STM32WLxx_HAL_Driver/Src/stm32wlxx_hal_subghz.o
 .debug_macro   0x000000000001d9e3      0x2a9 ./Drivers/STM32WLxx_HAL_Driver/Src/stm32wlxx_hal_uart.o
 .debug_macro   0x000000000001dc8c      0x28a ./Drivers/STM32WLxx_HAL_Driver/Src/stm32wlxx_hal_uart_ex.o
 .debug_macro   0x000000000001df16      0x4b1 ./Middlewares/Third_Party/SubGHz_Phy/stm32_radio_driver/radio.o
 .debug_macro   0x000000000001e3c7       0x3a ./Middlewares/Third_Party/SubGHz_Phy/stm32_radio_driver/radio.o
 .debug_macro   0x000000000001e401      0x289 ./Middlewares/Third_Party/SubGHz_Phy/stm32_radio_driver/radio.o
 .debug_macro   0x000000000001e68a       0x2e ./Middlewares/Third_Party/SubGHz_Phy/stm32_radio_driver/radio.o
 .debug_macro   0x000000000001e6b8       0x54 ./Middlewares/Third_Party/SubGHz_Phy/stm32_radio_driver/radio.o
 .debug_macro   0x000000000001e70c      0x41d ./Middlewares/Third_Party/SubGHz_Phy/stm32_radio_driver/radio_driver.o
 .debug_macro   0x000000000001eb29      0x495 ./Middlewares/Third_Party/SubGHz_Phy/stm32_radio_driver/radio_fw.o
 .debug_macro   0x000000000001efbe      0x1c6 ./SubGHz_Phy/App/app_subghz_phy.o
 .debug_macro   0x000000000001f184       0x58 ./SubGHz_Phy/App/app_subghz_phy.o
 .debug_macro   0x000000000001f1dc      0x426 ./SubGHz_Phy/App/subghz_phy_app.o
 .debug_macro   0x000000000001f602      0x2b2 ./SubGHz_Phy/Target/radio_board_if.o
 .debug_macro   0x000000000001f8b4       0x28 ./SubGHz_Phy/Target/radio_board_if.o
 .debug_macro   0x000000000001f8dc      0x1b6 ./Utilities/lpm/tiny_lpm/stm32_lpm.o
 .debug_macro   0x000000000001fa92      0x188 ./Utilities/misc/stm32_mem.o
 .debug_macro   0x000000000001fc1a      0x26c ./Utilities/misc/stm32_systime.o
 .debug_macro   0x000000000001fe86      0x143 ./Utilities/misc/stm32_tiny_vsnprintf.o
 .debug_macro   0x000000000001ffc9      0x1b5 ./Utilities/sequencer/stm32_seq.o
 .debug_macro   0x000000000002017e       0x1c ./Utilities/sequencer/stm32_seq.o
 .debug_macro   0x000000000002019a      0x1b1 ./Utilities/timer/stm32_timer.o
 .debug_macro   0x000000000002034b      0x24a ./Utilities/trace/adv_trace/stm32_adv_trace.o

.debug_line     0x0000000000000000    0x25b4b
 .debug_line    0x0000000000000000      0xb42 ./Core/Src/main.o
 .debug_line    0x0000000000000b42      0xb51 ./Core/Src/stm32_lpm_if.o
 .debug_line    0x0000000000001693      0xbcc ./Core/Src/stm32wlxx_hal_msp.o
 .debug_line    0x000000000000225f      0x97a ./Core/Src/stm32wlxx_it.o
 .debug_line    0x0000000000002bd9      0xcef ./Core/Src/sys_app.o
 .debug_line    0x00000000000038c8      0x8a8 ./Core/Src/sys_debug.o
 .debug_line    0x0000000000004170      0x8d3 ./Core/Src/system_stm32wlxx.o
 .debug_line    0x0000000000004a43      0xe54 ./Core/Src/timer_if.o
 .debug_line    0x0000000000005897      0xbbd ./Core/Src/usart_if.o
 .debug_line    0x0000000000006454       0x89 ./Core/Startup/startup_stm32wle5jcix.o
 .debug_line    0x00000000000064dd      0xf38 ./Drivers/STM32WLxx_HAL_Driver/Src/stm32wlxx_hal.o
 .debug_line    0x0000000000007415      0xdd3 ./Drivers/STM32WLxx_HAL_Driver/Src/stm32wlxx_hal_cortex.o
 .debug_line    0x00000000000081e8      0xb80 ./Drivers/STM32WLxx_HAL_Driver/Src/stm32wlxx_hal_crc.o
 .debug_line    0x0000000000008d68      0x8f5 ./Drivers/STM32WLxx_HAL_Driver/Src/stm32wlxx_hal_crc_ex.o
 .debug_line    0x000000000000965d     0x3b11 ./Drivers/STM32WLxx_HAL_Driver/Src/stm32wlxx_hal_cryp.o
 .debug_line    0x000000000000d16e      0xf82 ./Drivers/STM32WLxx_HAL_Driver/Src/stm32wlxx_hal_dma.o
 .debug_line    0x000000000000e0f0      0xc48 ./Drivers/STM32WLxx_HAL_Driver/Src/stm32wlxx_hal_gpio.o
 .debug_line    0x000000000000ed38      0xacc ./Drivers/STM32WLxx_HAL_Driver/Src/stm32wlxx_hal_pwr.o
 .debug_line    0x000000000000f804      0xf12 ./Drivers/STM32WLxx_HAL_Driver/Src/stm32wlxx_hal_pwr_ex.o
 .debug_line    0x0000000000010716     0x182f ./Drivers/STM32WLxx_HAL_Driver/Src/stm32wlxx_hal_rcc.o
 .debug_line    0x0000000000011f45     0x151f ./Drivers/STM32WLxx_HAL_Driver/Src/stm32wlxx_hal_rcc_ex.o
 .debug_line    0x0000000000013464     0x1094 ./Drivers/STM32WLxx_HAL_Driver/Src/stm32wlxx_hal_rtc.o
 .debug_line    0x00000000000144f8     0x1554 ./Drivers/STM32WLxx_HAL_Driver/Src/stm32wlxx_hal_rtc_ex.o
 .debug_line    0x0000000000015a4c     0x1116 ./Drivers/STM32WLxx_HAL_Driver/Src/stm32wlxx_hal_subghz.o
 .debug_line    0x0000000000016b62     0x3cfc ./Drivers/STM32WLxx_HAL_Driver/Src/stm32wlxx_hal_uart.o
 .debug_line    0x000000000001a85e      0xed1 ./Drivers/STM32WLxx_HAL_Driver/Src/stm32wlxx_hal_uart_ex.o
 .debug_line    0x000000000001b72f     0x1c02 ./Middlewares/Third_Party/SubGHz_Phy/stm32_radio_driver/radio.o
 .debug_line    0x000000000001d331     0x1901 ./Middlewares/Third_Party/SubGHz_Phy/stm32_radio_driver/radio_driver.o
 .debug_line    0x000000000001ec32      0xca6 ./Middlewares/Third_Party/SubGHz_Phy/stm32_radio_driver/radio_fw.o
 .debug_line    0x000000000001f8d8      0x68e ./SubGHz_Phy/App/app_subghz_phy.o
 .debug_line    0x000000000001ff66      0xecc ./SubGHz_Phy/App/subghz_phy_app.o
 .debug_line    0x0000000000020e32      0x944 ./SubGHz_Phy/Target/radio_board_if.o
 .debug_line    0x0000000000021776      0x77b ./Utilities/lpm/tiny_lpm/stm32_lpm.o
 .debug_line    0x0000000000021ef1      0x630 ./Utilities/misc/stm32_mem.o
 .debug_line    0x0000000000022521      0x94b ./Utilities/misc/stm32_systime.o
 .debug_line    0x0000000000022e6c      0x866 ./Utilities/misc/stm32_tiny_vsnprintf.o
 .debug_line    0x00000000000236d2      0xb86 ./Utilities/sequencer/stm32_seq.o
 .debug_line    0x0000000000024258      0xac9 ./Utilities/timer/stm32_timer.o
 .debug_line    0x0000000000024d21      0xe2a ./Utilities/trace/adv_trace/stm32_adv_trace.o

.debug_str      0x0000000000000000    0xb3ce2
 .debug_str     0x0000000000000000    0xa162d ./Core/Src/main.o
                                      0xa203d (size before relaxing)
 .debug_str     0x00000000000a162d     0x3da3 ./Core/Src/stm32_lpm_if.o
                                      0xa446a (size before relaxing)
 .debug_str     0x00000000000a53d0      0x3b3 ./Core/Src/stm32wlxx_hal_msp.o
                                      0xa1eb2 (size before relaxing)
 .debug_str     0x00000000000a5783      0x1b1 ./Core/Src/stm32wlxx_it.o
                                      0xa0f57 (size before relaxing)
 .debug_str     0x00000000000a5934     0x1d40 ./Core/Src/sys_app.o
                                      0xa616e (size before relaxing)
 .debug_str     0x00000000000a7674       0x7f ./Core/Src/sys_debug.o
                                      0xa1085 (size before relaxing)
 .debug_str     0x00000000000a76f3       0x9e ./Core/Src/system_stm32wlxx.o
                                      0xa0751 (size before relaxing)
 .debug_str     0x00000000000a7791     0x297f ./Core/Src/timer_if.o
                                      0xa77c5 (size before relaxing)
 .debug_str     0x00000000000aa110      0x1cd ./Core/Src/usart_if.o
                                      0xa4919 (size before relaxing)
 .debug_str     0x00000000000aa2dd       0x36 ./Core/Startup/startup_stm32wle5jcix.o
                                         0x73 (size before relaxing)
 .debug_str     0x00000000000aa313      0x7a8 ./Drivers/STM32WLxx_HAL_Driver/Src/stm32wlxx_hal.o
                                      0xa1403 (size before relaxing)
 .debug_str     0x00000000000aaabb      0x361 ./Drivers/STM32WLxx_HAL_Driver/Src/stm32wlxx_hal_cortex.o
                                      0xa0ec1 (size before relaxing)
 .debug_str     0x00000000000aae1c       0xc6 ./Drivers/STM32WLxx_HAL_Driver/Src/stm32wlxx_hal_crc.o
                                      0xa0843 (size before relaxing)
 .debug_str     0x00000000000aaee2       0x69 ./Drivers/STM32WLxx_HAL_Driver/Src/stm32wlxx_hal_crc_ex.o
                                      0xa07e9 (size before relaxing)
 .debug_str     0x00000000000aaf4b      0x82a ./Drivers/STM32WLxx_HAL_Driver/Src/stm32wlxx_hal_cryp.o
                                      0xa14c3 (size before relaxing)
 .debug_str     0x00000000000ab775      0x269 ./Drivers/STM32WLxx_HAL_Driver/Src/stm32wlxx_hal_dma.o
                                      0xa0b53 (size before relaxing)
 .debug_str     0x00000000000ab9de      0x10b ./Drivers/STM32WLxx_HAL_Driver/Src/stm32wlxx_hal_gpio.o
                                      0xa0837 (size before relaxing)
 .debug_str     0x00000000000abae9      0x485 ./Drivers/STM32WLxx_HAL_Driver/Src/stm32wlxx_hal_pwr.o
                                      0xa0ba8 (size before relaxing)
 .debug_str     0x00000000000abf6e      0x5f7 ./Drivers/STM32WLxx_HAL_Driver/Src/stm32wlxx_hal_pwr_ex.o
                                      0xa0ef5 (size before relaxing)
 .debug_str     0x00000000000ac565      0xa5f ./Drivers/STM32WLxx_HAL_Driver/Src/stm32wlxx_hal_rcc.o
                                      0xa149e (size before relaxing)
 .debug_str     0x00000000000acfc4      0x543 ./Drivers/STM32WLxx_HAL_Driver/Src/stm32wlxx_hal_rcc_ex.o
                                      0xa114b (size before relaxing)
 .debug_str     0x00000000000ad507      0x2c1 ./Drivers/STM32WLxx_HAL_Driver/Src/stm32wlxx_hal_rtc.o
                                      0xa0c95 (size before relaxing)
 .debug_str     0x00000000000ad7c8      0x72f ./Drivers/STM32WLxx_HAL_Driver/Src/stm32wlxx_hal_rtc_ex.o
                                      0xa11cf (size before relaxing)
 .debug_str     0x00000000000adef7      0x853 ./Drivers/STM32WLxx_HAL_Driver/Src/stm32wlxx_hal_subghz.o
                                      0xa11d4 (size before relaxing)
 .debug_str     0x00000000000ae74a      0x937 ./Drivers/STM32WLxx_HAL_Driver/Src/stm32wlxx_hal_uart.o
                                      0xa1767 (size before relaxing)
 .debug_str     0x00000000000af081      0x1d4 ./Drivers/STM32WLxx_HAL_Driver/Src/stm32wlxx_hal_uart_ex.o
                                      0xa0f03 (size before relaxing)
 .debug_str     0x00000000000af255     0x2aef ./Middlewares/Third_Party/SubGHz_Phy/stm32_radio_driver/radio.o
                                      0xa7d63 (size before relaxing)
 .debug_str     0x00000000000b1d44      0x873 ./Middlewares/Third_Party/SubGHz_Phy/stm32_radio_driver/radio_driver.o
                                      0xa6d0a (size before relaxing)
 .debug_str     0x00000000000b25b7      0x1b0 ./Middlewares/Third_Party/SubGHz_Phy/stm32_radio_driver/radio_fw.o
                                      0xa68ee (size before relaxing)
 .debug_str     0x00000000000b2767      0x170 ./SubGHz_Phy/App/app_subghz_phy.o
                                       0x824b (size before relaxing)
 .debug_str     0x00000000000b28d7      0x203 ./SubGHz_Phy/App/subghz_phy_app.o
                                      0xa60a3 (size before relaxing)
 .debug_str     0x00000000000b2ada       0x39 ./SubGHz_Phy/Target/radio_board_if.o
                                      0xa0f2e (size before relaxing)
 .debug_str     0x00000000000b2b13      0x212 ./Utilities/lpm/tiny_lpm/stm32_lpm.o
                                       0x7fe0 (size before relaxing)
 .debug_str     0x00000000000b2d25       0x38 ./Utilities/misc/stm32_mem.o
                                       0x7ce2 (size before relaxing)
 .debug_str     0x00000000000b2d5d      0x4cc ./Utilities/misc/stm32_systime.o
                                       0x870c (size before relaxing)
 .debug_str     0x00000000000b3229      0x19f ./Utilities/misc/stm32_tiny_vsnprintf.o
                                       0x6512 (size before relaxing)
 .debug_str     0x00000000000b33c8      0x35b ./Utilities/sequencer/stm32_seq.o
                                       0x8288 (size before relaxing)
 .debug_str     0x00000000000b3723      0x235 ./Utilities/timer/stm32_timer.o
                                       0x8212 (size before relaxing)
 .debug_str     0x00000000000b3958      0x38a ./Utilities/trace/adv_trace/stm32_adv_trace.o
                                       0x9268 (size before relaxing)

.comment        0x0000000000000000       0x50
 .comment       0x0000000000000000       0x50 ./Core/Src/main.o
                                         0x51 (size before relaxing)
 .comment       0x0000000000000050       0x51 ./Core/Src/stm32_lpm_if.o
 .comment       0x0000000000000050       0x51 ./Core/Src/stm32wlxx_hal_msp.o
 .comment       0x0000000000000050       0x51 ./Core/Src/stm32wlxx_it.o
 .comment       0x0000000000000050       0x51 ./Core/Src/sys_app.o
 .comment       0x0000000000000050       0x51 ./Core/Src/sys_debug.o
 .comment       0x0000000000000050       0x51 ./Core/Src/system_stm32wlxx.o
 .comment       0x0000000000000050       0x51 ./Core/Src/timer_if.o
 .comment       0x0000000000000050       0x51 ./Core/Src/usart_if.o
 .comment       0x0000000000000050       0x51 ./Drivers/STM32WLxx_HAL_Driver/Src/stm32wlxx_hal.o
 .comment       0x0000000000000050       0x51 ./Drivers/STM32WLxx_HAL_Driver/Src/stm32wlxx_hal_cortex.o
 .comment       0x0000000000000050       0x51 ./Drivers/STM32WLxx_HAL_Driver/Src/stm32wlxx_hal_crc.o
 .comment       0x0000000000000050       0x51 ./Drivers/STM32WLxx_HAL_Driver/Src/stm32wlxx_hal_crc_ex.o
 .comment       0x0000000000000050       0x51 ./Drivers/STM32WLxx_HAL_Driver/Src/stm32wlxx_hal_cryp.o
 .comment       0x0000000000000050       0x51 ./Drivers/STM32WLxx_HAL_Driver/Src/stm32wlxx_hal_dma.o
 .comment       0x0000000000000050       0x51 ./Drivers/STM32WLxx_HAL_Driver/Src/stm32wlxx_hal_gpio.o
 .comment       0x0000000000000050       0x51 ./Drivers/STM32WLxx_HAL_Driver/Src/stm32wlxx_hal_pwr.o
 .comment       0x0000000000000050       0x51 ./Drivers/STM32WLxx_HAL_Driver/Src/stm32wlxx_hal_pwr_ex.o
 .comment       0x0000000000000050       0x51 ./Drivers/STM32WLxx_HAL_Driver/Src/stm32wlxx_hal_rcc.o
 .comment       0x0000000000000050       0x51 ./Drivers/STM32WLxx_HAL_Driver/Src/stm32wlxx_hal_rcc_ex.o
 .comment       0x0000000000000050       0x51 ./Drivers/STM32WLxx_HAL_Driver/Src/stm32wlxx_hal_rtc.o
 .comment       0x0000000000000050       0x51 ./Drivers/STM32WLxx_HAL_Driver/Src/stm32wlxx_hal_rtc_ex.o
 .comment       0x0000000000000050       0x51 ./Drivers/STM32WLxx_HAL_Driver/Src/stm32wlxx_hal_subghz.o
 .comment       0x0000000000000050       0x51 ./Drivers/STM32WLxx_HAL_Driver/Src/stm32wlxx_hal_uart.o
 .comment       0x0000000000000050       0x51 ./Drivers/STM32WLxx_HAL_Driver/Src/stm32wlxx_hal_uart_ex.o
 .comment       0x0000000000000050       0x51 ./Middlewares/Third_Party/SubGHz_Phy/stm32_radio_driver/radio.o
 .comment       0x0000000000000050       0x51 ./Middlewares/Third_Party/SubGHz_Phy/stm32_radio_driver/radio_driver.o
 .comment       0x0000000000000050       0x51 ./Middlewares/Third_Party/SubGHz_Phy/stm32_radio_driver/radio_fw.o
 .comment       0x0000000000000050       0x51 ./SubGHz_Phy/App/app_subghz_phy.o
 .comment       0x0000000000000050       0x51 ./SubGHz_Phy/App/subghz_phy_app.o
 .comment       0x0000000000000050       0x51 ./SubGHz_Phy/Target/radio_board_if.o
 .comment       0x0000000000000050       0x51 ./Utilities/lpm/tiny_lpm/stm32_lpm.o
 .comment       0x0000000000000050       0x51 ./Utilities/misc/stm32_mem.o
 .comment       0x0000000000000050       0x51 ./Utilities/misc/stm32_systime.o
 .comment       0x0000000000000050       0x51 ./Utilities/misc/stm32_tiny_vsnprintf.o
 .comment       0x0000000000000050       0x51 ./Utilities/sequencer/stm32_seq.o
 .comment       0x0000000000000050       0x51 ./Utilities/timer/stm32_timer.o
 .comment       0x0000000000000050       0x51 ./Utilities/trace/adv_trace/stm32_adv_trace.o

.debug_frame    0x0000000000000000     0x8674
 .debug_frame   0x0000000000000000      0x1d0 ./Core/Src/main.o
 .debug_frame   0x00000000000001d0       0xe0 ./Core/Src/stm32_lpm_if.o
 .debug_frame   0x00000000000002b0      0x3d8 ./Core/Src/stm32wlxx_hal_msp.o
 .debug_frame   0x0000000000000688      0x190 ./Core/Src/stm32wlxx_it.o
 .debug_frame   0x0000000000000818      0x148 ./Core/Src/sys_app.o
 .debug_frame   0x0000000000000960       0x54 ./Core/Src/sys_debug.o
 .debug_frame   0x00000000000009b4       0x58 ./Core/Src/system_stm32wlxx.o
 .debug_frame   0x0000000000000a0c      0x348 ./Core/Src/timer_if.o
 .debug_frame   0x0000000000000d54      0x198 ./Core/Src/usart_if.o
 .debug_frame   0x0000000000000eec      0x860 ./Drivers/STM32WLxx_HAL_Driver/Src/stm32wlxx_hal.o
 .debug_frame   0x000000000000174c      0x498 ./Drivers/STM32WLxx_HAL_Driver/Src/stm32wlxx_hal_cortex.o
 .debug_frame   0x0000000000001be4      0x168 ./Drivers/STM32WLxx_HAL_Driver/Src/stm32wlxx_hal_crc.o
 .debug_frame   0x0000000000001d4c       0x88 ./Drivers/STM32WLxx_HAL_Driver/Src/stm32wlxx_hal_crc_ex.o
 .debug_frame   0x0000000000001dd4      0x82c ./Drivers/STM32WLxx_HAL_Driver/Src/stm32wlxx_hal_cryp.o
 .debug_frame   0x0000000000002600      0x24c ./Drivers/STM32WLxx_HAL_Driver/Src/stm32wlxx_hal_dma.o
 .debug_frame   0x000000000000284c      0x174 ./Drivers/STM32WLxx_HAL_Driver/Src/stm32wlxx_hal_gpio.o
 .debug_frame   0x00000000000029c0      0x31c ./Drivers/STM32WLxx_HAL_Driver/Src/stm32wlxx_hal_pwr.o
 .debug_frame   0x0000000000002cdc      0x7cc ./Drivers/STM32WLxx_HAL_Driver/Src/stm32wlxx_hal_pwr_ex.o
 .debug_frame   0x00000000000034a8      0x8ec ./Drivers/STM32WLxx_HAL_Driver/Src/stm32wlxx_hal_rcc.o
 .debug_frame   0x0000000000003d94      0x838 ./Drivers/STM32WLxx_HAL_Driver/Src/stm32wlxx_hal_rcc_ex.o
 .debug_frame   0x00000000000045cc      0x3f8 ./Drivers/STM32WLxx_HAL_Driver/Src/stm32wlxx_hal_rtc.o
 .debug_frame   0x00000000000049c4      0x7c4 ./Drivers/STM32WLxx_HAL_Driver/Src/stm32wlxx_hal_rtc_ex.o
 .debug_frame   0x0000000000005188      0x5fc ./Drivers/STM32WLxx_HAL_Driver/Src/stm32wlxx_hal_subghz.o
 .debug_frame   0x0000000000005784      0xae4 ./Drivers/STM32WLxx_HAL_Driver/Src/stm32wlxx_hal_uart.o
 .debug_frame   0x0000000000006268      0x29c ./Drivers/STM32WLxx_HAL_Driver/Src/stm32wlxx_hal_uart_ex.o
 .debug_frame   0x0000000000006504      0x5a8 ./Middlewares/Third_Party/SubGHz_Phy/stm32_radio_driver/radio.o
 .debug_frame   0x0000000000006aac      0x994 ./Middlewares/Third_Party/SubGHz_Phy/stm32_radio_driver/radio_driver.o
 .debug_frame   0x0000000000007440      0x1c0 ./Middlewares/Third_Party/SubGHz_Phy/stm32_radio_driver/radio_fw.o
 .debug_frame   0x0000000000007600       0x48 ./SubGHz_Phy/App/app_subghz_phy.o
 .debug_frame   0x0000000000007648      0x140 ./SubGHz_Phy/App/subghz_phy_app.o
 .debug_frame   0x0000000000007788      0x128 ./SubGHz_Phy/Target/radio_board_if.o
 .debug_frame   0x00000000000078b0       0xec ./Utilities/lpm/tiny_lpm/stm32_lpm.o
 .debug_frame   0x000000000000799c       0x88 ./Utilities/misc/stm32_mem.o
 .debug_frame   0x0000000000007a24      0x20c ./Utilities/misc/stm32_systime.o
 .debug_frame   0x0000000000007c30       0x88 ./Utilities/misc/stm32_tiny_vsnprintf.o
 .debug_frame   0x0000000000007cb8      0x2ac ./Utilities/sequencer/stm32_seq.o
 .debug_frame   0x0000000000007f64      0x2a0 ./Utilities/timer/stm32_timer.o
 .debug_frame   0x0000000000008204      0x3c4 ./Utilities/trace/adv_trace/stm32_adv_trace.o
 .debug_frame   0x00000000000085c8       0x2c e:/all software/stm32cubeide_1.7.0/stm32cubeide/plugins/com.st.stm32cube.ide.mcu.externaltools.gnu-tools-for-stm32.10.3-2021.10.win32_1.0.0.202111181127/tools/bin/../lib/gcc/arm-none-eabi/10.3.1/../../../../arm-none-eabi/lib/thumb/v7e-m/nofp\libc_nano.a(lib_a-init.o)
 .debug_frame   0x00000000000085f4       0x20 e:/all software/stm32cubeide_1.7.0/stm32cubeide/plugins/com.st.stm32cube.ide.mcu.externaltools.gnu-tools-for-stm32.10.3-2021.10.win32_1.0.0.202111181127/tools/bin/../lib/gcc/arm-none-eabi/10.3.1/../../../../arm-none-eabi/lib/thumb/v7e-m/nofp\libc_nano.a(lib_a-memset.o)
 .debug_frame   0x0000000000008614       0x2c e:/all software/stm32cubeide_1.7.0/stm32cubeide/plugins/com.st.stm32cube.ide.mcu.externaltools.gnu-tools-for-stm32.10.3-2021.10.win32_1.0.0.202111181127/tools/bin/../lib/gcc/arm-none-eabi/10.3.1/thumb/v7e-m/nofp\libgcc.a(_aeabi_uldivmod.o)
 .debug_frame   0x0000000000008640       0x34 e:/all software/stm32cubeide_1.7.0/stm32cubeide/plugins/com.st.stm32cube.ide.mcu.externaltools.gnu-tools-for-stm32.10.3-2021.10.win32_1.0.0.202111181127/tools/bin/../lib/gcc/arm-none-eabi/10.3.1/thumb/v7e-m/nofp\libgcc.a(_udivmoddi4.o)
